{
  "_format": "hh-sol-artifact-1",
  "contractName": "ORMakerDeposit",
  "sourceName": "contracts/ORMakerDeposit.sol",
  "abi": [
    {
      "anonymous": false,
      "inputs": [
        {
          "indexed": true,
          "internalType": "bytes32",
          "name": "challengeId",
          "type": "bytes32"
        },
        {
          "components": [
            {
              "internalType": "uint256",
              "name": "sourceTxFrom",
              "type": "uint256"
            },
            {
              "internalType": "uint64",
              "name": "sourceTxTime",
              "type": "uint64"
            },
            {
              "internalType": "address",
              "name": "challenger",
              "type": "address"
            },
            {
              "internalType": "address",
              "name": "freezeToken",
              "type": "address"
            },
            {
              "internalType": "uint64",
              "name": "challengeUserRatio",
              "type": "uint64"
            },
            {
              "internalType": "uint256",
              "name": "freezeAmount0",
              "type": "uint256"
            },
            {
              "internalType": "uint256",
              "name": "freezeAmount1",
              "type": "uint256"
            },
            {
              "internalType": "uint64",
              "name": "challengeTime",
              "type": "uint64"
            },
            {
              "internalType": "uint64",
              "name": "abortTime",
              "type": "uint64"
            },
            {
              "internalType": "uint64",
              "name": "verifiedTime0",
              "type": "uint64"
            },
            {
              "internalType": "uint64",
              "name": "verifiedTime1",
              "type": "uint64"
            },
            {
              "internalType": "bytes32",
              "name": "verifiedDataHash0",
              "type": "bytes32"
            }
          ],
          "indexed": false,
          "internalType": "struct IORMakerDeposit.ChallengeInfo",
          "name": "challengeInfo",
          "type": "tuple"
        }
      ],
      "name": "ChallengeInfoUpdated",
      "type": "event"
    },
    {
      "anonymous": false,
      "inputs": [
        {
          "indexed": true,
          "internalType": "address",
          "name": "impl",
          "type": "address"
        },
        {
          "indexed": false,
          "internalType": "bytes32",
          "name": "columnArrayHash",
          "type": "bytes32"
        },
        {
          "indexed": false,
          "internalType": "address[]",
          "name": "dealers",
          "type": "address[]"
        },
        {
          "indexed": false,
          "internalType": "address[]",
          "name": "ebcs",
          "type": "address[]"
        },
        {
          "indexed": false,
          "internalType": "uint64[]",
          "name": "chainIds",
          "type": "uint64[]"
        }
      ],
      "name": "ColumnArrayUpdated",
      "type": "event"
    },
    {
      "anonymous": false,
      "inputs": [
        {
          "indexed": true,
          "internalType": "address",
          "name": "impl",
          "type": "address"
        },
        {
          "indexed": false,
          "internalType": "uint256[]",
          "name": "responseMakers",
          "type": "uint256[]"
        }
      ],
      "name": "ResponseMakersUpdated",
      "type": "event"
    },
    {
      "anonymous": false,
      "inputs": [
        {
          "indexed": true,
          "internalType": "address",
          "name": "impl",
          "type": "address"
        },
        {
          "indexed": false,
          "internalType": "address",
          "name": "ebc",
          "type": "address"
        },
        {
          "components": [
            {
              "internalType": "bytes32",
              "name": "root",
              "type": "bytes32"
            },
            {
              "internalType": "uint32",
              "name": "version",
              "type": "uint32"
            }
          ],
          "indexed": false,
          "internalType": "struct RuleLib.RootWithVersion",
          "name": "rootWithVersion",
          "type": "tuple"
        }
      ],
      "name": "RulesRootUpdated",
      "type": "event"
    },
    {
      "anonymous": false,
      "inputs": [
        {
          "indexed": true,
          "internalType": "address",
          "name": "impl",
          "type": "address"
        },
        {
          "indexed": false,
          "internalType": "uint64",
          "name": "chainId",
          "type": "uint64"
        },
        {
          "indexed": false,
          "internalType": "address",
          "name": "spv",
          "type": "address"
        }
      ],
      "name": "SpvUpdated",
      "type": "event"
    },
    {
      "inputs": [
        {
          "internalType": "uint64",
          "name": "sourceChainId",
          "type": "uint64"
        },
        {
          "internalType": "bytes32",
          "name": "sourceTxHash",
          "type": "bytes32"
        },
        {
          "internalType": "uint64",
          "name": "sourceTxTime",
          "type": "uint64"
        },
        {
          "internalType": "address",
          "name": "freezeToken",
          "type": "address"
        },
        {
          "internalType": "uint256",
          "name": "freezeAmount1",
          "type": "uint256"
        }
      ],
      "name": "challenge",
      "outputs": [],
      "stateMutability": "payable",
      "type": "function"
    },
    {
      "inputs": [
        {
          "internalType": "uint64",
          "name": "sourceChainId",
          "type": "uint64"
        },
        {
          "internalType": "bytes32",
          "name": "sourceTxHash",
          "type": "bytes32"
        },
        {
          "internalType": "uint256[]",
          "name": "verifiedData0",
          "type": "uint256[]"
        }
      ],
      "name": "checkChallenge",
      "outputs": [],
      "stateMutability": "nonpayable",
      "type": "function"
    },
    {
      "inputs": [],
      "name": "columnArrayHash",
      "outputs": [
        {
          "internalType": "bytes32",
          "name": "",
          "type": "bytes32"
        }
      ],
      "stateMutability": "view",
      "type": "function"
    },
    {
      "inputs": [
        {
          "internalType": "address",
          "name": "token",
          "type": "address"
        },
        {
          "internalType": "uint256",
          "name": "amount",
          "type": "uint256"
        }
      ],
      "name": "deposit",
      "outputs": [],
      "stateMutability": "payable",
      "type": "function"
    },
    {
      "inputs": [
        {
          "internalType": "address",
          "name": "token",
          "type": "address"
        }
      ],
      "name": "freezeAssets",
      "outputs": [
        {
          "internalType": "uint256",
          "name": "",
          "type": "uint256"
        }
      ],
      "stateMutability": "view",
      "type": "function"
    },
    {
      "inputs": [
        {
          "internalType": "address",
          "name": "owner_",
          "type": "address"
        }
      ],
      "name": "initialize",
      "outputs": [],
      "stateMutability": "nonpayable",
      "type": "function"
    },
    {
      "inputs": [],
      "name": "mdcFactory",
      "outputs": [
        {
          "internalType": "address",
          "name": "",
          "type": "address"
        }
      ],
      "stateMutability": "view",
      "type": "function"
    },
    {
      "inputs": [],
      "name": "owner",
      "outputs": [
        {
          "internalType": "address",
          "name": "",
          "type": "address"
        }
      ],
      "stateMutability": "view",
      "type": "function"
    },
    {
      "inputs": [],
      "name": "responseMakersHash",
      "outputs": [
        {
          "internalType": "bytes32",
          "name": "",
          "type": "bytes32"
        }
      ],
      "stateMutability": "view",
      "type": "function"
    },
    {
      "inputs": [
        {
          "internalType": "address",
          "name": "ebc",
          "type": "address"
        }
      ],
      "name": "rulesRoot",
      "outputs": [
        {
          "components": [
            {
              "internalType": "bytes32",
              "name": "root",
              "type": "bytes32"
            },
            {
              "internalType": "uint32",
              "name": "version",
              "type": "uint32"
            }
          ],
          "internalType": "struct RuleLib.RootWithVersion",
          "name": "",
          "type": "tuple"
        }
      ],
      "stateMutability": "view",
      "type": "function"
    },
    {
      "inputs": [
        {
          "internalType": "uint64",
          "name": "chainId",
          "type": "uint64"
        }
      ],
      "name": "spv",
      "outputs": [
        {
          "internalType": "address",
          "name": "",
          "type": "address"
        }
      ],
      "stateMutability": "view",
      "type": "function"
    },
    {
      "inputs": [],
      "name": "storageVersion",
      "outputs": [
        {
          "internalType": "uint256",
          "name": "",
          "type": "uint256"
        }
      ],
      "stateMutability": "view",
      "type": "function"
    },
    {
      "inputs": [
        {
          "internalType": "address[]",
          "name": "dealers",
          "type": "address[]"
        },
        {
          "internalType": "address[]",
          "name": "ebcs",
          "type": "address[]"
        },
        {
          "internalType": "uint64[]",
          "name": "chainIds",
          "type": "uint64[]"
        }
      ],
      "name": "updateColumnArray",
      "outputs": [],
      "stateMutability": "nonpayable",
      "type": "function"
    },
    {
      "inputs": [
        {
          "internalType": "uint256[]",
          "name": "responseMakers_",
          "type": "uint256[]"
        }
      ],
      "name": "updateResponseMakers",
      "outputs": [],
      "stateMutability": "nonpayable",
      "type": "function"
    },
    {
      "inputs": [
        {
          "internalType": "address",
          "name": "ebc",
          "type": "address"
        },
        {
          "internalType": "bytes",
          "name": "rsc",
          "type": "bytes"
        },
        {
          "components": [
            {
              "internalType": "bytes32",
              "name": "root",
              "type": "bytes32"
            },
            {
              "internalType": "uint32",
              "name": "version",
              "type": "uint32"
            }
          ],
          "internalType": "struct RuleLib.RootWithVersion",
          "name": "rootWithVersion",
          "type": "tuple"
        },
        {
          "internalType": "uint64[]",
          "name": "sourceChainIds",
          "type": "uint64[]"
        },
        {
          "internalType": "uint256[]",
          "name": "pledgeAmounts",
          "type": "uint256[]"
        }
      ],
      "name": "updateRulesRoot",
      "outputs": [],
      "stateMutability": "payable",
      "type": "function"
    },
    {
      "inputs": [
        {
          "internalType": "address",
          "name": "ebc",
          "type": "address"
        },
        {
          "internalType": "bytes",
          "name": "rsc",
          "type": "bytes"
        },
        {
          "components": [
            {
              "internalType": "bytes32",
              "name": "root",
              "type": "bytes32"
            },
            {
              "internalType": "uint32",
              "name": "version",
              "type": "uint32"
            }
          ],
          "internalType": "struct RuleLib.RootWithVersion",
          "name": "rootWithVersion",
          "type": "tuple"
        },
        {
          "internalType": "uint64[]",
          "name": "sourceChainIds",
          "type": "uint64[]"
        },
        {
          "internalType": "uint256[]",
          "name": "pledgeAmounts",
          "type": "uint256[]"
        },
        {
          "internalType": "address",
          "name": "token",
          "type": "address"
        }
      ],
      "name": "updateRulesRootERC20",
      "outputs": [],
      "stateMutability": "nonpayable",
      "type": "function"
    },
    {
      "inputs": [
        {
          "internalType": "address[]",
          "name": "spvs",
          "type": "address[]"
        },
        {
          "internalType": "uint64[]",
          "name": "chainIds",
          "type": "uint64[]"
        }
      ],
      "name": "updateSpvs",
      "outputs": [],
      "stateMutability": "nonpayable",
      "type": "function"
    },
    {
      "inputs": [
        {
          "internalType": "address",
          "name": "spvAddress",
          "type": "address"
        },
        {
          "internalType": "bytes",
          "name": "proof",
          "type": "bytes"
        },
        {
          "internalType": "bytes32[2]",
          "name": "spvBlockHashs",
          "type": "bytes32[2]"
        },
        {
          "components": [
            {
              "internalType": "uint256[]",
              "name": "data",
              "type": "uint256[]"
            },
            {
              "components": [
                {
                  "internalType": "address",
                  "name": "account",
                  "type": "address"
                },
                {
                  "internalType": "bytes32",
                  "name": "key",
                  "type": "bytes32"
                },
                {
                  "internalType": "uint256",
                  "name": "value",
                  "type": "uint256"
                }
              ],
              "internalType": "struct IORChallengeSpv.VerifyInfoSlot[]",
              "name": "slots",
              "type": "tuple[]"
            }
          ],
          "internalType": "struct IORChallengeSpv.VerifyInfo",
          "name": "verifyInfo",
          "type": "tuple"
        },
        {
          "internalType": "uint256[]",
          "name": "verifiedData0",
          "type": "uint256[]"
        },
        {
          "internalType": "bytes",
          "name": "rawDatas",
          "type": "bytes"
        }
      ],
      "name": "verifyChallengeDest",
      "outputs": [],
      "stateMutability": "nonpayable",
      "type": "function"
    },
    {
      "inputs": [
        {
          "internalType": "address",
          "name": "spvAddress",
          "type": "address"
        },
        {
          "internalType": "bytes",
          "name": "proof",
          "type": "bytes"
        },
        {
          "internalType": "bytes32[2]",
          "name": "spvBlockHashs",
          "type": "bytes32[2]"
        },
        {
          "components": [
            {
              "internalType": "uint256[]",
              "name": "data",
              "type": "uint256[]"
            },
            {
              "components": [
                {
                  "internalType": "address",
                  "name": "account",
                  "type": "address"
                },
                {
                  "internalType": "bytes32",
                  "name": "key",
                  "type": "bytes32"
                },
                {
                  "internalType": "uint256",
                  "name": "value",
                  "type": "uint256"
                }
              ],
              "internalType": "struct IORChallengeSpv.VerifyInfoSlot[]",
              "name": "slots",
              "type": "tuple[]"
            }
          ],
          "internalType": "struct IORChallengeSpv.VerifyInfo",
          "name": "verifyInfo",
          "type": "tuple"
        },
        {
          "internalType": "bytes",
          "name": "rawDatas",
          "type": "bytes"
        }
      ],
      "name": "verifyChallengeSource",
      "outputs": [],
      "stateMutability": "nonpayable",
      "type": "function"
    },
    {
      "inputs": [
        {
          "internalType": "address",
          "name": "token",
          "type": "address"
        },
        {
          "internalType": "uint256",
          "name": "amount",
          "type": "uint256"
        }
      ],
      "name": "withdraw",
      "outputs": [],
      "stateMutability": "nonpayable",
      "type": "function"
    },
    {
      "stateMutability": "payable",
      "type": "receive"
    }
  ],
  "bytecode": "0x608060405234801561001057600080fd5b50615530806100206000396000f3fe6080604052600436106101635760003560e01c806359e7f48e116100c05780638dc9ff0511610074578063c4d66de811610059578063c4d66de81461040a578063c75c16cf1461042a578063f3fef3a31461044a57600080fd5b80638dc9ff05146103ca578063bc0136ad146103ea57600080fd5b8063671ecbfe116100a5578063671ecbfe146103105780638adac2c5146103995780638da5cb5b146103ac57600080fd5b806359e7f48e146102ba5780635bcb4037146102da57600080fd5b806347e7ef241161011757806349c4bb76116100fc57806349c4bb76146102305780634b4c85c4146102875780634c20cb241461029c57600080fd5b806347e7ef24146101fd578063495b18361461021057600080fd5b80630e9601ae116101485780630e9601ae146101a8578063403ebd03146101c857806345dad9c3146101dd57600080fd5b806302f17ed31461016f5780630abba9031461019357600080fd5b3661016a57005b600080fd5b34801561017b57600080fd5b506003545b6040519081526020015b60405180910390f35b6101a66101a136600461407d565b61046a565b005b3480156101b457600080fd5b506101a66101c336600461413d565b6106ad565b3480156101d457600080fd5b50600054610180565b3480156101e957600080fd5b506101a66101f8366004614210565b61089c565b6101a661020b3660046142a9565b610cf7565b34801561021c57600080fd5b506101a661022b3660046142e6565b610d1f565b34801561023c57600080fd5b5061026f61024b3660046143e0565b6001600160401b03166000908152600460205260409020546001600160a01b031690565b6040516001600160a01b03909116815260200161018a565b34801561029357600080fd5b50600554610180565b3480156102a857600080fd5b506002546001600160a01b031661026f565b3480156102c657600080fd5b506101a66102d5366004614404565b61131e565b3480156102e657600080fd5b506101806102f5366004614445565b6001600160a01b031660009081526008602052604090205490565b34801561031c57600080fd5b5061037861032b366004614445565b6040805180820190915260008082526020820152506001600160a01b03166000908152600660209081526040918290208251808401909352805483526001015463ffffffff169082015290565b604080518251815260209283015163ffffffff16928101929092520161018a565b6101a66103a7366004614462565b611468565b3480156103b857600080fd5b506001546001600160a01b031661026f565b3480156103d657600080fd5b506101a66103e53660046144bd565b61187b565b3480156103f657600080fd5b506101a6610405366004614528565b611c74565b34801561041657600080fd5b506101a6610425366004614445565b61211a565b34801561043657600080fd5b506101a6610445366004614577565b6121cf565b34801561045657600080fd5b506101a66104653660046142a9565b61341d565b6001546001600160a01b031633146104c95760405162461bcd60e51b815260206004820181905260248201527f4f776e61626c653a2063616c6c6572206973206e6f7420746865206f776e657260448201526064015b60405180910390fd5b6104d3888661368a565b8281146105085760405162461bcd60e51b815260206004820152600360248201526214d41360ea1b60448201526064016104c0565b6000805b8481101561065557600086868381811061052857610528614632565b905060200201602081019061053d91906143e0565b60405160c09190911b6001600160c01b031916602082015260006028820152603c0160408051601f1981840301815291815281516020928301206001600160a01b038e166000908152600784528281208282529093529120549091508585848181106105ab576105ab614632565b90506020020135111561060c576001600160a01b038b1660009081526007602090815260408083208484529091529020548585848181106105ee576105ee614632565b905060200201356105ff919061465e565b6106099084614671565b92505b84848381811061061e5761061e614632565b6001600160a01b038e166000908152600760209081526040808320968352958152949020930291909101359091555060010161050c565b503481111561068b5760405162461bcd60e51b815260206004820152600260248201526124ab60f11b60448201526064016104c0565b50600160008082825461069e9190614671565b90915550505050505050505050565b6001546001600160a01b031633146107075760405162461bcd60e51b815260206004820181905260248201527f4f776e61626c653a2063616c6c6572206973206e6f7420746865206f776e657260448201526064016104c0565b610711898761368a565b8382146107465760405162461bcd60e51b815260206004820152600360248201526214d41360ea1b60448201526064016104c0565b60005b8481101561087957600086868381811061076557610765614632565b905060200201602081019061077a91906143e0565b836040516020016107b692919060c09290921b6001600160c01b031916825260601b6bffffffffffffffffffffffff19166008820152601c0190565b60408051601f1981840301815291815281516020928301206001600160a01b038e1660009081526007845282812082825290935291205490915085858481811061080257610802614632565b905060200201351115610870576001600160a01b038b166000908152600760209081526040808320848452909152902054610870903390309088888781811061084d5761084d614632565b9050602002013561085e919061465e565b6001600160a01b038716929190613914565b50600101610749565b50600160008082825461088c9190614671565b9091555050505050505050505050565b6001546001600160a01b031633146108f65760405162461bcd60e51b815260206004820181905260248201527f4f776e61626c653a2063616c6c6572206973206e6f7420746865206f776e657260448201526064016104c0565b600a85111561092d5760405162461bcd60e51b81526020600482015260036024820152622227a360e91b60448201526064016104c0565b600a8311156109645760405162461bcd60e51b815260206004820152600360248201526222a7a360e91b60448201526064016104c0565b606481111561099b5760405162461bcd60e51b815260206004820152600360248201526221a7a360e91b60448201526064016104c0565b6002546040805163481c6a7560e01b815290516000926001600160a01b03169163481c6a759160048083019260209291908290030181865afa1580156109e5573d6000803e3d6000fd5b505050506040513d601f19601f82011682018060405250810190610a099190614684565b905060005b84811015610aed57816001600160a01b031663bb6f93bc878784818110610a3757610a37614632565b9050602002016020810190610a4c9190614445565b6040516001600160e01b031960e084901b1681526001600160a01b039091166004820152602401602060405180830381865afa158015610a90573d6000803e3d6000fd5b505050506040513d601f19601f82011682018060405250810190610ab491906146a1565b610ae55760405162461bcd60e51b8152602060048201526002602482015261454960f01b60448201526064016104c0565b600101610a0e565b5060005b82811015610be5576000826001600160a01b031663b288706d868685818110610b1c57610b1c614632565b9050602002016020810190610b3191906143e0565b6040516001600160e01b031960e084901b1681526001600160401b039091166004820152602401600060405180830381865afa158015610b75573d6000803e3d6000fd5b505050506040513d6000823e601f3d908101601f19168201604052610b9d919081019061481e565b80519091506001600160401b0316610bdc5760405162461bcd60e51b8152602060048201526002602482015261434960f01b60448201526064016104c0565b50600101610af1565b50868686868686604051602001610c0196959493929190614931565b60408051601f198184030181528282528051602091820120600355600254635c60da1b60e01b845291516000936001600160a01b0390931692635c60da1b9260048083019391928290030181865afa158015610c61573d6000803e3d6000fd5b505050506040513d601f19601f82011682018060405250810190610c859190614684565b9050806001600160a01b03167f3cb86960d27f10c36827a013566ea74ce60fe0402128cb82d020889177c124296003548a8a8a8a8a8a604051610cce97969594939291906149d5565b60405180910390a250506001600080828254610cea9190614671565b9091555050505050505050565b6001600160a01b03821615610d1b57610d1b6001600160a01b038316333084613914565b5050565b886001600160a01b03166390c80a5589898989604051602001610d429190614af1565b604051602081830303815290604052805190602001206040518563ffffffff1660e01b8152600401610d779493929190614bb3565b602060405180830381865afa158015610d94573d6000803e3d6000fd5b505050506040513d601f19601f82011682018060405250810190610db891906146a1565b610de95760405162461bcd60e51b81526020600482015260026024820152612b2360f11b60448201526064016104c0565b6000610df58680614bf5565b6000818110610e0657610e06614632565b60200291909101359050610e1a8780614bf5565b6001818110610e2b57610e2b614632565b90506020020135604051602001610e5b92919060c09290921b6001600160c01b0319168252600882015260280190565b60408051808303601f19018152918152815160209283012060008181526009909352912060050154909150600160801b90046001600160401b0316610ecb5760405162461bcd60e51b81526004016104c0906020808252600490820152632b2a182d60e11b604082015260600190565b600081815260096020526040902060050154600160c01b90046001600160401b031615610f225760405162461bcd60e51b81526020600482015260056024820152642b2a18a72d60d91b60448201526064016104c0565b6000610f3083850185614c3e565b905060096000838152602001908152602001600020600601548686604051602001610f5c929190614cc3565b6040516020818303038152906040528051906020012014610fa85760405162461bcd60e51b81526004016104c0906020808252600490820152630564448360e41b604082015260600190565b85856003818110610fbb57610fbb614632565b9050602002013560001b81604051602001610fd69190614cd7565b604051602081830303815290604052805190602001201461101f5760405162461bcd60e51b81526020600482015260036024820152620a49a960eb1b60448201526064016104c0565b600082815260096020526040812060010154611044906001600160401b03164261465e565b90508686600081811061105957611059614632565b905060200201358110156110985760405162461bcd60e51b815260206004820152600660248201526526a4a72a27a360d11b60448201526064016104c0565b868660018181106110ab576110ab614632565b905060200201358111156110ea5760405162461bcd60e51b815260206004820152600660248201526526a0ac2a27a360d11b60448201526064016104c0565b50858560038181106110fe576110fe614632565b602002919091013590506111128880614bf5565b600081811061112357611123614632565b90506020020135146111605760405162461bcd60e51b81526004016104c0906020808252600490820152631110d25160e21b604082015260600190565b61119461116d8880614bf5565b600281811061117e5761117e614632565b905060200201358261399a90919063ffffffff16565b6111c65760405162461bcd60e51b81526020600482015260036024820152624d494360e81b60448201526064016104c0565b6000828152600960209081526040918290208251610180810184528154815260018201546001600160401b03808216948301949094526001600160a01b03680100000000000000009182900481169583019590955260028301549485166060830152600160a01b90940483166080820152600382015460a0820152600482015460c0820152600582015480841660e08301529384048316610100820152600160801b84048316610120820152600160c01b90930490911661014083015260060154610160820152611296906139e5565b6000828152600960205260409081902060058101805477ffffffffffffffffffffffffffffffffffffffffffffffff16600160c01b426001600160401b031602179055905183917f288ce6ecb50116617911fc83710df7a6e0a8fef4b376d213c8085da345ce9efa916113099190614d1b565b60405180910390a25050505050505050505050565b6001546001600160a01b031633146113785760405162461bcd60e51b815260206004820181905260248201527f4f776e61626c653a2063616c6c6572206973206e6f7420746865206f776e657260448201526064016104c0565b818160405160200161138b929190614cc3565b60408051601f198184030181528282528051602091820120600555600254635c60da1b60e01b845291516001600160a01b0390921692635c60da1b92600480830193928290030181865afa1580156113e7573d6000803e3d6000fd5b505050506040513d601f19601f8201168201806040525081019061140b9190614684565b6001600160a01b03167f0b91b68f980e47803e7858fa5a270c37d18f436399f86db162b14fbd0f376d548383604051611445929190614cc3565b60405180910390a2600160008082825461145f9190614671565b90915550505050565b6040516001600160c01b031960c087901b1660208201526028810185905260009060480160408051601f198184030181529181528151602092830120600081815260099093529120600501549091506001600160401b0316156114f25760405162461bcd60e51b8152602060048201526002602482015261434560f01b60448201526064016104c0565b836001600160401b0316426001600160401b0316101561153d5760405162461bcd60e51b81526004016104c09060208082526004908201526329aa27a360e11b604082015260600190565b6001600160a01b0383166115845734821461157f5760405162461bcd60e51b815260206004820152600260248201526124a360f11b60448201526064016104c0565b611599565b6115996001600160a01b038416333085613914565b816115a48180614671565b6001600160a01b038516600090815260086020526040812080549091906115cc908490614671565b92505081905550604051806101800160405280866001600160401b0316815260200160006001600160401b03168152602001336001600160a01b03168152602001856001600160a01b0316815260200160006001600160401b03168152602001828152602001848152602001426001600160401b0316815260200160006001600160401b0316815260200160006001600160401b0316815260200160006001600160401b031681526020016000801b815250600960008481526020019081526020016000206000820151816000015560208201518160010160006101000a8154816001600160401b0302191690836001600160401b0316021790555060408201518160010160086101000a8154816001600160a01b0302191690836001600160a01b0316021790555060608201518160020160006101000a8154816001600160a01b0302191690836001600160a01b0316021790555060808201518160020160146101000a8154816001600160401b0302191690836001600160401b0316021790555060a0820151816003015560c0820151816004015560e08201518160050160006101000a8154816001600160401b0302191690836001600160401b031602179055506101008201518160050160086101000a8154816001600160401b0302191690836001600160401b031602179055506101208201518160050160106101000a8154816001600160401b0302191690836001600160401b031602179055506101408201518160050160186101000a8154816001600160401b0302191690836001600160401b031602179055506101608201518160060155905050817f288ce6ecb50116617911fc83710df7a6e0a8fef4b376d213c8085da345ce9efa6009600085815260200190815260200160002060405161186a9190614d1b565b60405180910390a250505050505050565b6001546001600160a01b031633146118d55760405162461bcd60e51b815260206004820181905260248201527f4f776e61626c653a2063616c6c6572206973206e6f7420746865206f776e657260448201526064016104c0565b6002546040805163481c6a7560e01b815290516000926001600160a01b03169163481c6a759160048083019260209291908290030181865afa15801561191f573d6000803e3d6000fd5b505050506040513d601f19601f820116820180604052508101906119439190614684565b90506000600260009054906101000a90046001600160a01b03166001600160a01b0316635c60da1b6040518163ffffffff1660e01b8152600401602060405180830381865afa15801561199a573d6000803e3d6000fd5b505050506040513d601f19601f820116820180604052508101906119be9190614684565b905060005b83811015611c54576000836001600160a01b031663b288706d8787858181106119ee576119ee614632565b9050602002016020810190611a0391906143e0565b6040516001600160e01b031960e084901b1681526001600160401b039091166004820152602401600060405180830381865afa158015611a47573d6000803e3d6000fd5b505050506040513d6000823e601f3d908101601f19168201604052611a6f919081019061481e565b80519091506001600160401b0316611aae5760405162461bcd60e51b8152602060048201526002602482015261434960f01b60448201526064016104c0565b611ae3888884818110611ac357611ac3614632565b9050602002016020810190611ad89190614445565b60c083015190613a2d565b611b145760405162461bcd60e51b8152602060048201526002602482015261534960f01b60448201526064016104c0565b878783818110611b2657611b26614632565b9050602002016020810190611b3b9190614445565b60046000888886818110611b5157611b51614632565b9050602002016020810190611b6691906143e0565b6001600160401b031681526020810191909152604001600020805473ffffffffffffffffffffffffffffffffffffffff19166001600160a01b0392831617905583167f8f2bbe31353a40442717cf80cfd6882db22eae2e1ca9ffd699967549fd26fafc878785818110611bdb57611bdb614632565b9050602002016020810190611bf091906143e0565b8a8a86818110611c0257611c02614632565b9050602002016020810190611c179190614445565b604080516001600160401b0390931683526001600160a01b0390911660208301520160405180910390a25080611c4c81614e07565b9150506119c3565b5050506001600080828254611c699190614671565b909155505050505050565b6040516001600160c01b031960c086901b1660208201526028810184905260009060480160408051601f198184030181528282528051602091820120600081815260098352839020610180850184528054855260018101546001600160401b03808216948701949094526001600160a01b03680100000000000000009182900481169587019590955260028201549485166060870152600160a01b90940483166080860152600381015460a0860152600481015460c0860152600581015480841660e087018190529481048416610100870152600160801b81048416610120870152600160c01b90049092166101408501526006909101546101608401529250611da65760405162461bcd60e51b8152602060048201526003602482015262434e4560e81b60448201526064016104c0565b6101408101516001600160401b031615611dea5760405162461bcd60e51b81526020600482015260056024820152642b2a18a72d60d91b60448201526064016104c0565b6002546040805163481c6a7560e01b815290516000926001600160a01b03169163481c6a759160048083019260209291908290030181865afa158015611e34573d6000803e3d6000fd5b505050506040513d601f19601f82011682018060405250810190611e589190614684565b90508161012001516001600160401b0316600003611f4d5760405163b288706d60e01b81526001600160401b03881660048201526000906001600160a01b0383169063b288706d90602401600060405180830381865afa158015611ec0573d6000803e3d6000fd5b505050506040513d6000823e601f3d908101601f19168201604052611ee8919081019061481e565b905082602001518160600151611efe9190614e20565b6001600160401b03164211611f3e5760405162461bcd60e51b81526004016104c0906020808252600490820152631590d4d560e21b604082015260600190565b611f47836139e5565b506120a9565b8161016001518585604051602001611f66929190614cc3565b6040516020818303038152906040528051906020012014611faf5760405162461bcd60e51b81526020600482015260036024820152620ac88960eb1b60448201526064016104c0565b6000816001600160a01b031663b288706d87876000818110611fd357611fd3614632565b6040516001600160e01b031960e086901b1681526001600160401b036020909202939093013516600483015250602401600060405180830381865afa158015612020573d6000803e3d6000fd5b505050506040513d6000823e601f3d908101601f19168201604052612048919081019061481e565b905082602001518160a0015161205e9190614e20565b6001600160401b0316421161209e5760405162461bcd60e51b81526004016104c0906020808252600490820152631590d11560e21b604082015260600190565b6120a783613a7e565b505b600083815260096020526040908190206005810180546fffffffffffffffff0000000000000000191668010000000000000000426001600160401b031602179055905184917f288ce6ecb50116617911fc83710df7a6e0a8fef4b376d213c8085da345ce9efa9161186a9190614d1b565b6001546001600160a01b03161561215c5760405162461bcd60e51b81526004016104c0906020808252600490820152632fa7a72d60e11b604082015260600190565b6001600160a01b0381166121975760405162461bcd60e51b815260206004820152600260248201526127ad60f11b60448201526064016104c0565b600180546001600160a01b0390921673ffffffffffffffffffffffffffffffffffffffff199283161790556002805490911633179055565b866001600160a01b03166390c80a55878787876040516020016121f29190614af1565b604051602081830303815290604052805190602001206040518563ffffffff1660e01b81526004016122279493929190614bb3565b602060405180830381865afa158015612244573d6000803e3d6000fd5b505050506040513d601f19601f8201168201806040525081019061226891906146a1565b6122995760405162461bcd60e51b81526020600482015260026024820152612b2360f11b60448201526064016104c0565b60006122a58480614bf5565b60008181106122b6576122b6614632565b602002919091013590506122ca8580614bf5565b60018181106122db576122db614632565b9050602002013560405160200161230b92919060c09290921b6001600160c01b0319168252600882015260280190565b60408051601f198184030181529181528151602092830120600081815260099093529120600501549091506001600160401b03166123715760405162461bcd60e51b815260206004820152600360248201526221aa2d60e91b60448201526064016104c0565b600081815260096020526040902060050154600160801b90046001600160401b0316156123e05760405162461bcd60e51b815260206004820152600560248201527f5654304e5a00000000000000000000000000000000000000000000000000000060448201526064016104c0565b6000818152600960205260409020600101546001600160401b03166124058580614bf5565b600781811061241657612416614632565b905060200201356001600160401b0316146124585760405162461bcd60e51b815260206004820152600260248201526114d560f21b60448201526064016104c0565b6001546001600160a01b031661246e8580614bf5565b600281811061247f5761247f614632565b905060200201356001600160a01b0316146124c55760405162461bcd60e51b81526004016104c090602080825260049082015263544e454f60e01b604082015260600190565b6000808080806124d787890189615032565b94509450945094509450600260009054906101000a90046001600160a01b03166001600160a01b031663481c6a756040518163ffffffff1660e01b8152600401602060405180830381865afa158015612534573d6000803e3d6000fd5b505050506040513d601f19601f820116820180604052508101906125589190614684565b6001600160a01b031661256e60208b018b61513c565b600081811061257f5761257f614632565b6125959260206060909202019081019150614445565b6001600160a01b0316146125eb5760405162461bcd60e51b815260206004820152600560248201527f564353544100000000000000000000000000000000000000000000000000000060448201526064016104c0565b60006125f78a80614bf5565b600081811061260857612608614632565b90506020020135600260405160200161262e92919091825260ff16602082015260400190565b60408051601f1981840301815291905280516020909101209050612653816001614671565b61266060208c018c61513c565b600081811061267157612671614632565b9050606002016020013560001c146126cb5760405162461bcd60e51b815260206004820152600560248201527f564353544b00000000000000000000000000000000000000000000000000000060448201526064016104c0565b60006126d78b80614bf5565b60078181106126e8576126e8614632565b90506020020135426126fa919061465e565b905061270960208c018c61513c565b600081811061271a5761271a614632565b905060600201604001356001600160401b03168110156127655760405162461bcd60e51b815260206004820152600660248201526526a4a72a27a360d11b60448201526064016104c0565b604061277460208d018d61513c565b600081811061278557612785614632565b90506060020160400135901c6001600160401b03168111156127d25760405162461bcd60e51b815260206004820152600660248201526526a0ac2a27a360d11b60448201526064016104c0565b5050600260009054906101000a90046001600160a01b03166001600160a01b031663481c6a756040518163ffffffff1660e01b8152600401602060405180830381865afa158015612827573d6000803e3d6000fd5b505050506040513d601f19601f8201168201806040525081019061284b9190614684565b6001600160a01b031661286160208b018b61513c565b600181811061287257612872614632565b6128889260206060909202019081019150614445565b6001600160a01b0316146128c45760405162461bcd60e51b815260206004820152600360248201526246544160e81b60448201526064016104c0565b60006128d08a80614bf5565b60008181106128e1576128e1614632565b602002919091013590506128f58b80614bf5565b600481811061290657612906614632565b9050602002013560405160200161293692919060c09290921b6001600160c01b0319168252600882015260280190565b60408051601f1981840301815282825280516020918201209083015260019082015260600160408051601f1981840301815291905280516020909101209050612980816001614671565b61298d60208c018c61513c565b600181811061299e5761299e614632565b9050606002016020013560001c146129de5760405162461bcd60e51b815260206004820152600360248201526246544b60e81b60448201526064016104c0565b6129eb60208b018b61513c565b60018181106129fc576129fc614632565b905060600201604001356001600160a01b03166009600089815260200190815260200160002060020160009054906101000a90046001600160a01b03166001600160a01b031614612a755760405162461bcd60e51b8152602060048201526003602482015262232a2b60e91b60448201526064016104c0565b600260009054906101000a90046001600160a01b03166001600160a01b031663481c6a756040518163ffffffff1660e01b8152600401602060405180830381865afa158015612ac8573d6000803e3d6000fd5b505050506040513d601f19601f82011682018060405250810190612aec9190614684565b6001600160a01b0316612b0260208c018c61513c565b6002818110612b1357612b13614632565b612b299260206060909202019081019150614445565b6001600160a01b031614612b655760405162461bcd60e51b815260206004820152600360248201526246414160e81b60448201526064016104c0565b612b7260208b018b61513c565b6002818110612b8357612b83614632565b9050606002016020013560001c600414612bc55760405162461bcd60e51b815260206004820152600360248201526246414b60e81b60448201526064016104c0565b6000612bd460208c018c61513c565b6002818110612be557612be5614632565b905060600201604001359050612710816001600160401b03168c8060000190612c0e9190614bf5565b6005818110612c1f57612c1f614632565b90506020020135612c309190615184565b612c3a919061519b565b6000898152600960205260409020600401541015612c835760405162461bcd60e51b81526004016104c0906020808252600490820152632320a62b60e11b604082015260600190565b50506000858585604051602001612c9c939291906151ee565b60408051601f19818403018152919052805160209182012091503090612cc4908c018c61513c565b6002818110612cd557612cd5614632565b612ceb9260206060909202019081019150614445565b6001600160a01b031614612d2a5760405162461bcd60e51b81526004016104c0906020808252600490820152634341484160e01b604082015260600190565b612d3760208b018b61513c565b6002818110612d4857612d48614632565b9050606002016020013560001c600214612d8d5760405162461bcd60e51b81526004016104c0906020808252600490820152634341484b60e01b604082015260600190565b80612d9b60208c018c61513c565b6002818110612dac57612dac614632565b9050606002016040013560001b14612def5760405162461bcd60e51b81526004016104c09060208082526004908201526321a0a42b60e11b604082015260600190565b506000806001600160a01b0384166391032df3612e0c8d80614bf5565b6005818110612e1d57612e1d614632565b905060200201356040518263ffffffff1660e01b8152600401612e4291815260200190565b606060405180830381865afa158015612e5f573d6000803e3d6000fd5b505050506040513d601f19601f82011682018060405250810190612e839190615240565b905085816020015181518110612e9b57612e9b614632565b60200260200101516001600160a01b0316846001600160a01b031614612ee95760405162461bcd60e51b8152602060048201526003602482015262454e4560e81b60448201526064016104c0565b8451816040015110612f235760405162461bcd60e51b815260206004820152600360248201526221a7a360e91b60448201526064016104c0565b84816040015181518110612f3957612f39614632565b60200260200101516001600160401b0316915050306001600160a01b03168a8060200190612f67919061513c565b6003818110612f7857612f78614632565b612f8e9260206060909202019081019150614445565b6001600160a01b031614612fcd5760405162461bcd60e51b81526004016104c090602080825260049082015263524d484160e01b604082015260600190565b612fda60208b018b61513c565b6003818110612feb57612feb614632565b9050606002016020013560001c6005146130305760405162461bcd60e51b81526004016104c090602080825260049082015263524d484b60e01b604082015260600190565b3061303e60208c018c61513c565b600481811061304f5761304f614632565b6130659260206060909202019081019150614445565b6001600160a01b0316146130a15760405162461bcd60e51b815260206004820152600360248201526252524160e81b60448201526064016104c0565b604080516001600160a01b03851660208083019190915260068284015282518083038401815260609092019092528051908201209081906130e4908d018d61513c565b60048181106130f5576130f5614632565b9050606002016020013560001c146131355760405162461bcd60e51b815260206004820152600360248201526252524b60e81b60448201526064016104c0565b61313f8b80614bf5565b600881811061315057613150614632565b9050602002013583604051602001613168919061529b565b6040516020818303038152906040528051906020012060001c146131b35760405162461bcd60e51b81526020600482015260026024820152610a4960f31b60448201526064016104c0565b506131be8a80614bf5565b60078181106131cf576131cf614632565b60008a8152600960209081526040918290209281029490940135909155916131fa91508c018c61513c565b600281811061320b5761320b614632565b60008b8152600960209081526040918290206002810180546001600160401b0360609096029790970184013590971c8416600160a01b027fffffffff0000000000000000ffffffffffffffffffffffffffffffffffffffff909616959095179095556005909301805442909216600160801b027fffffffffffffffff0000000000000000ffffffffffffffffffffffffffffffff90921691909117905550805160e081019091529081906080906132c4908e018e61513c565b60008181106132d5576132d5614632565b90506060020160400135901c6001600160401b0316815260200160808c8060200190613301919061513c565b600081811061331257613312614632565b90506060020160400135901c6001600160401b031681526020018b806000019061333c9190614bf5565b600081811061334d5761334d614632565b90506020020135815260200182815260200160008152602001600081526020018b806020019061337d919061513c565b600381811061338e5761338e614632565b905060600201604001358152506040516020016133ab91906153dd565b60408051601f19818403018152828252805160209182012060008b81526009909252919020600681019190915588917f288ce6ecb50116617911fc83710df7a6e0a8fef4b376d213c8085da345ce9efa9161340591614d1b565b60405180910390a25050505050505050505050505050565b6001546001600160a01b031633146134775760405162461bcd60e51b815260206004820181905260248201527f4f776e61626c653a2063616c6c6572206973206e6f7420746865206f776e657260448201526064016104c0565b6001600160a01b038216613595576001600160a01b03821660009081526008602052604090205481906134aa904761465e565b10156134f85760405162461bcd60e51b815260206004820152600760248201527f4554483a2049460000000000000000000000000000000000000000000000000060448201526064016104c0565b604051600090339083908381818185875af1925050503d806000811461353a576040519150601f19603f3d011682016040523d82523d6000602084013e61353f565b606091505b50509050806135905760405162461bcd60e51b815260206004820152600760248201527f4554483a2053450000000000000000000000000000000000000000000000000060448201526064016104c0565b505050565b6040516370a0823160e01b81523060048201526000906001600160a01b038416906370a0823190602401602060405180830381865afa1580156135dc573d6000803e3d6000fd5b505050506040513d601f19601f82011682018060405250810190613600919061540e565b6001600160a01b0384166000908152600860205260409020549091508290613628908361465e565b10156136765760405162461bcd60e51b815260206004820152600960248201527f45524332303a204946000000000000000000000000000000000000000000000060448201526064016104c0565b6135906001600160a01b0384163384613cf2565b6002546040805163481c6a7560e01b815290516000926001600160a01b03169163481c6a759160048083019260209291908290030181865afa1580156136d4573d6000803e3d6000fd5b505050506040513d601f19601f820116820180604052508101906136f89190614684565b604051632edbe4ef60e21b81526001600160a01b0385811660048301529192509082169063bb6f93bc90602401602060405180830381865afa158015613742573d6000803e3d6000fd5b505050506040513d601f19601f8201168201806040525081019061376691906146a1565b6137975760405162461bcd60e51b8152602060048201526002602482015261454960f01b60448201526064016104c0565b81356137ca5760405162461bcd60e51b8152602060048201526002602482015261292d60f11b60448201526064016104c0565b6137da6040830160208401615427565b6001600160a01b038416600090815260066020526040902060019081015463ffffffff90811690910181169116146138395760405162461bcd60e51b8152602060048201526002602482015261564560f01b60448201526064016104c0565b6001600160a01b0383166000908152600660205260409020829061385d8282615444565b505060025460408051635c60da1b60e01b815290516001600160a01b0390921691635c60da1b916004808201926020929091908290030181865afa1580156138a9573d6000803e3d6000fd5b505050506040513d601f19601f820116820180604052508101906138cd9190614684565b6001600160a01b03167f14ebfe1d09c7ff607d095a4d8c41180cfc5ce6a29321b1b0b8ed086408acca4a8484604051613907929190615473565b60405180910390a2505050565b6040516001600160a01b03808516602483015283166044820152606481018290526139949085906323b872dd60e01b906084015b60408051601f198184030181529190526020810180517bffffffffffffffffffffffffffffffffffffffffffffffffffffffff166001600160e01b031990931692909217909152613d22565b50505050565b6000805b83518110156139d9578381815181106139b9576139b9614632565b602002602001015183036139d15760019150506139df565b60010161399e565b50600090505b92915050565b8060c001518160a001516139f99190614671565b60608201516001600160a01b031660009081526008602052604081208054909190613a2590849061465e565b909155505050565b6000805b83518110156139d957838181518110613a4c57613a4c614632565b60200260200101516001600160a01b0316836001600160a01b031603613a765760019150506139df565b600101613a31565b600061271082608001516001600160401b03168360a00151613aa09190615184565b613aaa919061519b565b90508160a00151811115613ae95760405162461bcd60e51b81526004016104c0906020808252600490820152632aa0a7a360e11b604082015260600190565b6000818360c001518460a00151613b009190614671565b613b0a919061465e565b83516060850151919250906001600160a01b0316613c73576000816001600160a01b03168460405160006040518083038185875af1925050503d8060008114613b6f576040519150601f19603f3d011682016040523d82523d6000602084013e613b74565b606091505b5050905080613bc55760405162461bcd60e51b815260206004820152600860248201527f4554483a2053453100000000000000000000000000000000000000000000000060448201526064016104c0565b600085604001516001600160a01b03168460405160006040518083038185875af1925050503d8060008114613c16576040519150601f19603f3d011682016040523d82523d6000602084013e613c1b565b606091505b5050905080613c6c5760405162461bcd60e51b815260206004820152600860248201527f4554483a2053453200000000000000000000000000000000000000000000000060448201526064016104c0565b5050613cb2565b6060840151613c8c906001600160a01b03168285613cf2565b613cb284604001518386606001516001600160a01b0316613cf29092919063ffffffff16565b8360c001518460a00151613cc69190614671565b60608501516001600160a01b031660009081526008602052604081208054909190611c6990849061465e565b6040516001600160a01b03831660248201526044810182905261359090849063a9059cbb60e01b90606401613948565b6000613d77826040518060400160405280602081526020017f5361666545524332303a206c6f772d6c6576656c2063616c6c206661696c6564815250856001600160a01b0316613e0a9092919063ffffffff16565b9050805160001480613d98575080806020019051810190613d9891906146a1565b6135905760405162461bcd60e51b815260206004820152602a60248201527f5361666545524332303a204552433230206f7065726174696f6e20646964206e60448201527f6f7420737563636565640000000000000000000000000000000000000000000060648201526084016104c0565b6060613e198484600085613e21565b949350505050565b606082471015613e995760405162461bcd60e51b815260206004820152602660248201527f416464726573733a20696e73756666696369656e742062616c616e636520666f60448201527f722063616c6c000000000000000000000000000000000000000000000000000060648201526084016104c0565b600080866001600160a01b03168587604051613eb591906154d4565b60006040518083038185875af1925050503d8060008114613ef2576040519150601f19603f3d011682016040523d82523d6000602084013e613ef7565b606091505b5091509150613f0887838387613f13565b979650505050505050565b60608315613f82578251600003613f7b576001600160a01b0385163b613f7b5760405162461bcd60e51b815260206004820152601d60248201527f416464726573733a2063616c6c20746f206e6f6e2d636f6e747261637400000060448201526064016104c0565b5081613e19565b613e198383815115613f975781518083602001fd5b8060405162461bcd60e51b81526004016104c091906154f0565b6001600160a01b0381168114613fc657600080fd5b50565b8035613fd481613fb1565b919050565b60008083601f840112613feb57600080fd5b5081356001600160401b0381111561400257600080fd5b60208301915083602082850101111561401a57600080fd5b9250929050565b60006040828403121561403357600080fd5b50919050565b60008083601f84011261404b57600080fd5b5081356001600160401b0381111561406257600080fd5b6020830191508360208260051b850101111561401a57600080fd5b60008060008060008060008060c0898b03121561409957600080fd5b88356140a481613fb1565b975060208901356001600160401b03808211156140c057600080fd5b6140cc8c838d01613fd9565b90995097508791506140e18c60408d01614021565b965060808b01359150808211156140f757600080fd5b6141038c838d01614039565b909650945060a08b013591508082111561411c57600080fd5b506141298b828c01614039565b999c989b5096995094979396929594505050565b600080600080600080600080600060e08a8c03121561415b57600080fd5b893561416681613fb1565b985060208a01356001600160401b038082111561418257600080fd5b61418e8d838e01613fd9565b909a5098508891506141a38d60408e01614021565b975060808c01359150808211156141b957600080fd5b6141c58d838e01614039565b909750955060a08c01359150808211156141de57600080fd5b506141eb8c828d01614039565b90945092505060c08a01356141ff81613fb1565b809150509295985092959850929598565b6000806000806000806060878903121561422957600080fd5b86356001600160401b038082111561424057600080fd5b61424c8a838b01614039565b9098509650602089013591508082111561426557600080fd5b6142718a838b01614039565b9096509450604089013591508082111561428a57600080fd5b5061429789828a01614039565b979a9699509497509295939492505050565b600080604083850312156142bc57600080fd5b82356142c781613fb1565b946020939093013593505050565b80604081018310156139df57600080fd5b600080600080600080600080600060e08a8c03121561430457600080fd5b61430d8a613fc9565b985060208a01356001600160401b038082111561432957600080fd5b6143358d838e01613fd9565b909a50985088915061434a8d60408e016142d5565b975060808c013591508082111561436057600080fd5b61436c8d838e01614021565b965060a08c013591508082111561438257600080fd5b61438e8d838e01614039565b909650945060c08c01359150808211156143a757600080fd5b506143b48c828d01613fd9565b915080935050809150509295985092959850929598565b6001600160401b0381168114613fc657600080fd5b6000602082840312156143f257600080fd5b81356143fd816143cb565b9392505050565b6000806020838503121561441757600080fd5b82356001600160401b0381111561442d57600080fd5b61443985828601614039565b90969095509350505050565b60006020828403121561445757600080fd5b81356143fd81613fb1565b600080600080600060a0868803121561447a57600080fd5b8535614485816143cb565b945060208601359350604086013561449c816143cb565b925060608601356144ac81613fb1565b949793965091946080013592915050565b600080600080604085870312156144d357600080fd5b84356001600160401b03808211156144ea57600080fd5b6144f688838901614039565b9096509450602087013591508082111561450f57600080fd5b5061451c87828801614039565b95989497509550505050565b6000806000806060858703121561453e57600080fd5b8435614549816143cb565b93506020850135925060408501356001600160401b0381111561456b57600080fd5b61451c87828801614039565b600080600080600080600060c0888a03121561459257600080fd5b873561459d81613fb1565b965060208801356001600160401b03808211156145b957600080fd5b6145c58b838c01613fd9565b90985096508691506145da8b60408c016142d5565b955060808a01359150808211156145f057600080fd5b6145fc8b838c01614021565b945060a08a013591508082111561461257600080fd5b5061461f8a828b01613fd9565b989b979a50959850939692959293505050565b634e487b7160e01b600052603260045260246000fd5b634e487b7160e01b600052601160045260246000fd5b818103818111156139df576139df614648565b808201808211156139df576139df614648565b60006020828403121561469657600080fd5b81516143fd81613fb1565b6000602082840312156146b357600080fd5b815180151581146143fd57600080fd5b634e487b7160e01b600052604160045260246000fd5b60405160e081016001600160401b03811182821017156146fb576146fb6146c3565b60405290565b60405161020081016001600160401b03811182821017156146fb576146fb6146c3565b604051601f8201601f191681016001600160401b038111828210171561474c5761474c6146c3565b604052919050565b8051613fd4816143cb565b805177ffffffffffffffffffffffffffffffffffffffffffffffff81168114613fd457600080fd5b60006001600160401b038211156147a0576147a06146c3565b5060051b60200190565b600082601f8301126147bb57600080fd5b815160206147d06147cb83614787565b614724565b82815260059290921b840181019181810190868411156147ef57600080fd5b8286015b8481101561481357805161480681613fb1565b83529183019183016147f3565b509695505050505050565b60006020828403121561483057600080fd5b81516001600160401b038082111561484757600080fd5b9083019060e0828603121561485b57600080fd5b6148636146d9565b61486c83614754565b815261487a6020840161475f565b602082015261488b60408401614754565b604082015261489c60608401614754565b60608201526148ad60808401614754565b60808201526148be60a08401614754565b60a082015260c0830151828111156148d557600080fd5b6148e1878286016147aa565b60c08301525095945050505050565b60008160005b8481101561492757813561490981613fb1565b6001600160a01b0316865260209586019591909101906001016148f6565b5093949350505050565b600061494861494183898b6148f0565b86886148f0565b8460005b8581101561497d57813561495f816143cb565b6001600160401b03168352602092830192919091019060010161494c565b50909998505050505050505050565b8183526000602080850194508260005b858110156149ca5781356149af81613fb1565b6001600160a01b03168752958201959082019060010161499c565b509495945050505050565b878152600060206080818401526149f060808401898b61498c565b8381036040850152614a0381888a61498c565b8481036060860152858152869150820160005b86811015614a44578235614a29816143cb565b6001600160401b031682529183019190830190600101614a16565b509b9a5050505050505050505050565b81835260007f07ffffffffffffffffffffffffffffffffffffffffffffffffffffffffffffff831115614a8657600080fd5b8260051b80836020870137939093016020019392505050565b8183526000602080850194508260005b858110156149ca578135614ac281613fb1565b6001600160a01b0316875281830135838801526040808301359088015260609687019690910190600101614aaf565b6020815260008235601e1984360301808212614b0c57600080fd5b602091850191820191356001600160401b0380821115614b2b57600080fd5b8160051b3603841315614b3d57600080fd5b60406020870152614b52606087018386614a54565b935060208701359150828212614b6757600080fd5b908601602081019250359080821115614b7f57600080fd5b50606081023603821315614b9257600080fd5b848303601f19016040860152614ba9838284614a9f565b9695505050505050565b60808152836080820152838560a0830137600060a08583010152600060a0601f19601f8701168301019050604084602084013782606083015295945050505050565b6000808335601e19843603018112614c0c57600080fd5b8301803591506001600160401b03821115614c2657600080fd5b6020019150600581901b360382131561401a57600080fd5b60006020808385031215614c5157600080fd5b82356001600160401b03811115614c6757600080fd5b8301601f81018513614c7857600080fd5b8035614c866147cb82614787565b81815260059190911b82018301908381019087831115614ca557600080fd5b928401925b82841015613f0857833582529284019290840190614caa565b602081526000613e19602083018486614a54565b6020808252825182820181905260009190848201906040850190845b81811015614d0f57835183529284019291840191600101614cf3565b50909695505050505050565b8154815260018201546001600160401b038082166020840152610180830191906001600160a01b03614d5d60408601828560401c166001600160a01b03169052565b60028601549081166001600160a01b031660608601526001600160401b0360a082901c83161660808601529150600385015460a0850152600485015460c085015260058501546001600160401b038282161660e08601529150614dd16101008501828460401c166001600160401b03169052565b614dec6101208501828460801c166001600160401b03169052565b5060c01c610140830152600692909201546101609091015290565b600060018201614e1957614e19614648565b5060010190565b6001600160401b03818116838216019080821115614e4057614e40614648565b5092915050565b600082601f830112614e5857600080fd5b81356020614e686147cb83614787565b82815260059290921b84018101918181019086841115614e8757600080fd5b8286015b84811015614813578035614e9e81613fb1565b8352918301918301614e8b565b63ffffffff81168114613fc657600080fd5b8035613fd481614eab565b803560ff81168114613fd457600080fd5b80356fffffffffffffffffffffffffffffffff81168114613fd457600080fd5b803561ffff81168114613fd457600080fd5b60006102008284031215614f1e57600080fd5b614f26614701565b9050614f3182614ebd565b8152614f3f60208301614ebd565b6020820152614f5060408301614ec8565b6040820152614f6160608301614ec8565b60608201526080820135608082015260a082013560a0820152614f8660c08301614ed9565b60c0820152614f9760e08301614ed9565b60e0820152610100614faa818401614ed9565b90820152610120614fbc838201614ed9565b90820152610140614fce838201614ef9565b90820152610160614fe0838201614ef9565b90820152610180614ff2838201614ebd565b908201526101a0615004838201614ebd565b908201526101c0615016838201614ebd565b908201526101e0615028838201614ebd565b9082015292915050565b6000806000806000610280868803121561504b57600080fd5b85356001600160401b038082111561506257600080fd5b61506e89838a01614e47565b965060209150818801358181111561508557600080fd5b6150918a828b01614e47565b9650506040880135818111156150a657600080fd5b88019050601f810189136150b957600080fd5b80356150c76147cb82614787565b81815260059190911b8201830190838101908b8311156150e657600080fd5b928401925b8284101561510d5783356150fe816143cb565b825292840192908401906150eb565b809750505050505061512160608701613fc9565b91506151308760808801614f0b565b90509295509295909350565b6000808335601e1984360301811261515357600080fd5b8301803591506001600160401b0382111561516d57600080fd5b602001915060608102360382131561401a57600080fd5b80820281158282048414176139df576139df614648565b6000826151b857634e487b7160e01b600052601260045260246000fd5b500490565b60008151602080840160005b838110156149ca5781516001600160a01b0316875295820195908201906001016151c9565b60006152036151fd83876151bd565b856151bd565b8351602080860160005b838110156152325781516001600160401b03168552938201939082019060010161520d565b509298975050505050505050565b60006060828403121561525257600080fd5b604051606081018181106001600160401b0382111715615274576152746146c3565b80604052508251815260208301516020820152604083015160408201528091505092915050565b815163ffffffff168152610200810160208301516152c1602084018263ffffffff169052565b5060408301516152d6604084018260ff169052565b5060608301516152eb606084018260ff169052565b506080830151608083015260a083015160a083015260c083015161532360c08401826fffffffffffffffffffffffffffffffff169052565b5060e083015161534760e08401826fffffffffffffffffffffffffffffffff169052565b50610100838101516fffffffffffffffffffffffffffffffff9081169184019190915261012080850151909116908301526101408084015161ffff9081169184019190915261016080850151909116908301526101808084015163ffffffff908116918401919091526101a0808501518216908401526101c0808501518216908401526101e09384015116929091019190915290565b60e08101818360005b60078110156154055781518352602092830192909101906001016153e6565b50505092915050565b60006020828403121561542057600080fd5b5051919050565b60006020828403121561543957600080fd5b81356143fd81614eab565b8135815560018101602083013561545a81614eab565b815463ffffffff191663ffffffff919091161790555050565b60006060820190506001600160a01b038416825282356020830152602083013561549c81614eab565b63ffffffff81166040840152509392505050565b60005b838110156154cb5781810151838201526020016154b3565b50506000910152565b600082516154e68184602087016154b0565b9190910192915050565b602081526000825180602084015261550f8160408501602087016154b0565b601f01601f1916919091016040019291505056fea164736f6c6343000811000a",
  "linkReferences": {},
  "deployedLinkReferences": {}
}