{
  "_format": "hh-sol-artifact-1",
  "contractName": "ORMakerDeposit",
  "sourceName": "contracts/ORMakerDeposit.sol",
  "abi": [
    {
      "anonymous": false,
      "inputs": [
        {
          "indexed": true,
          "internalType": "bytes32",
          "name": "challengeId",
          "type": "bytes32"
        },
        {
          "components": [
            {
              "internalType": "uint256",
              "name": "sourceTxFrom",
              "type": "uint256"
            },
            {
              "internalType": "uint64",
              "name": "sourceTxTime",
              "type": "uint64"
            },
            {
              "internalType": "address",
              "name": "challenger",
              "type": "address"
            },
            {
              "internalType": "address",
              "name": "freezeToken",
              "type": "address"
            },
            {
              "internalType": "uint64",
              "name": "challengeUserRatio",
              "type": "uint64"
            },
            {
              "internalType": "uint256",
              "name": "freezeAmount0",
              "type": "uint256"
            },
            {
              "internalType": "uint256",
              "name": "freezeAmount1",
              "type": "uint256"
            },
            {
              "internalType": "uint64",
              "name": "challengeTime",
              "type": "uint64"
            },
            {
              "internalType": "uint64",
              "name": "abortTime",
              "type": "uint64"
            },
            {
              "internalType": "uint64",
              "name": "verifiedTime0",
              "type": "uint64"
            },
            {
              "internalType": "uint64",
              "name": "verifiedTime1",
              "type": "uint64"
            },
            {
              "internalType": "bytes32",
              "name": "verifiedDataHash0",
              "type": "bytes32"
            }
          ],
          "indexed": false,
          "internalType": "struct IORMakerDeposit.ChallengeInfo",
          "name": "challengeInfo",
          "type": "tuple"
        }
      ],
      "name": "ChallengeInfoUpdated",
      "type": "event"
    },
    {
      "anonymous": false,
      "inputs": [
        {
          "indexed": true,
          "internalType": "address",
          "name": "impl",
          "type": "address"
        },
        {
          "indexed": false,
          "internalType": "bytes32",
          "name": "columnArrayHash",
          "type": "bytes32"
        },
        {
          "indexed": false,
          "internalType": "address[]",
          "name": "dealers",
          "type": "address[]"
        },
        {
          "indexed": false,
          "internalType": "address[]",
          "name": "ebcs",
          "type": "address[]"
        },
        {
          "indexed": false,
          "internalType": "uint64[]",
          "name": "chainIds",
          "type": "uint64[]"
        }
      ],
      "name": "ColumnArrayUpdated",
      "type": "event"
    },
    {
      "anonymous": false,
      "inputs": [
        {
          "indexed": true,
          "internalType": "address",
          "name": "impl",
          "type": "address"
        },
        {
          "indexed": false,
          "internalType": "uint256[]",
          "name": "responseMakers",
          "type": "uint256[]"
        }
      ],
      "name": "ResponseMakersUpdated",
      "type": "event"
    },
    {
      "anonymous": false,
      "inputs": [
        {
          "indexed": true,
          "internalType": "address",
          "name": "impl",
          "type": "address"
        },
        {
          "indexed": false,
          "internalType": "address",
          "name": "ebc",
          "type": "address"
        },
        {
          "components": [
            {
              "internalType": "bytes32",
              "name": "root",
              "type": "bytes32"
            },
            {
              "internalType": "uint32",
              "name": "version",
              "type": "uint32"
            }
          ],
          "indexed": false,
          "internalType": "struct RuleLib.RootWithVersion",
          "name": "rootWithVersion",
          "type": "tuple"
        }
      ],
      "name": "RulesRootUpdated",
      "type": "event"
    },
    {
      "anonymous": false,
      "inputs": [
        {
          "indexed": true,
          "internalType": "address",
          "name": "impl",
          "type": "address"
        },
        {
          "indexed": false,
          "internalType": "uint64",
          "name": "chainId",
          "type": "uint64"
        },
        {
          "indexed": false,
          "internalType": "address",
          "name": "spv",
          "type": "address"
        }
      ],
      "name": "SpvUpdated",
      "type": "event"
    },
    {
      "inputs": [
        {
          "internalType": "uint64",
          "name": "sourceChainId",
          "type": "uint64"
        },
        {
          "internalType": "bytes32",
          "name": "sourceTxHash",
          "type": "bytes32"
        },
        {
          "internalType": "uint64",
          "name": "sourceTxTime",
          "type": "uint64"
        },
        {
          "internalType": "address",
          "name": "freezeToken",
          "type": "address"
        },
        {
          "internalType": "uint256",
          "name": "freezeAmount1",
          "type": "uint256"
        }
      ],
      "name": "challenge",
      "outputs": [],
      "stateMutability": "payable",
      "type": "function"
    },
    {
      "inputs": [
        {
          "internalType": "uint64",
          "name": "sourceChainId",
          "type": "uint64"
        },
        {
          "internalType": "bytes32",
          "name": "sourceTxHash",
          "type": "bytes32"
        },
        {
          "internalType": "uint256[]",
          "name": "verifiedData0",
          "type": "uint256[]"
        }
      ],
      "name": "checkChallenge",
      "outputs": [],
      "stateMutability": "nonpayable",
      "type": "function"
    },
    {
      "inputs": [],
      "name": "columnArrayHash",
      "outputs": [
        {
          "internalType": "bytes32",
          "name": "",
          "type": "bytes32"
        }
      ],
      "stateMutability": "view",
      "type": "function"
    },
    {
      "inputs": [
        {
          "internalType": "address",
          "name": "token",
          "type": "address"
        },
        {
          "internalType": "uint256",
          "name": "amount",
          "type": "uint256"
        }
      ],
      "name": "deposit",
      "outputs": [],
      "stateMutability": "payable",
      "type": "function"
    },
    {
      "inputs": [
        {
          "internalType": "address",
          "name": "token",
          "type": "address"
        }
      ],
      "name": "freezeAssets",
      "outputs": [
        {
          "internalType": "uint256",
          "name": "",
          "type": "uint256"
        }
      ],
      "stateMutability": "view",
      "type": "function"
    },
    {
      "inputs": [],
      "name": "getVersionAndEnableTime",
      "outputs": [
        {
          "internalType": "uint192",
          "name": "version",
          "type": "uint192"
        },
        {
          "internalType": "uint64",
          "name": "enableTime",
          "type": "uint64"
        }
      ],
      "stateMutability": "view",
      "type": "function"
    },
    {
      "inputs": [
        {
          "internalType": "address",
          "name": "owner_",
          "type": "address"
        }
      ],
      "name": "initialize",
      "outputs": [],
      "stateMutability": "nonpayable",
      "type": "function"
    },
    {
      "inputs": [],
      "name": "mdcFactory",
      "outputs": [
        {
          "internalType": "address",
          "name": "",
          "type": "address"
        }
      ],
      "stateMutability": "view",
      "type": "function"
    },
    {
      "inputs": [],
      "name": "owner",
      "outputs": [
        {
          "internalType": "address",
          "name": "",
          "type": "address"
        }
      ],
      "stateMutability": "view",
      "type": "function"
    },
    {
      "inputs": [],
      "name": "responseMakersHash",
      "outputs": [
        {
          "internalType": "bytes32",
          "name": "",
          "type": "bytes32"
        }
      ],
      "stateMutability": "view",
      "type": "function"
    },
    {
      "inputs": [
        {
          "internalType": "address",
          "name": "ebc",
          "type": "address"
        }
      ],
      "name": "rulesRoot",
      "outputs": [
        {
          "components": [
            {
              "internalType": "bytes32",
              "name": "root",
              "type": "bytes32"
            },
            {
              "internalType": "uint32",
              "name": "version",
              "type": "uint32"
            }
          ],
          "internalType": "struct RuleLib.RootWithVersion",
          "name": "",
          "type": "tuple"
        }
      ],
      "stateMutability": "view",
      "type": "function"
    },
    {
      "inputs": [
        {
          "internalType": "uint64",
          "name": "chainId",
          "type": "uint64"
        }
      ],
      "name": "spv",
      "outputs": [
        {
          "internalType": "address",
          "name": "",
          "type": "address"
        }
      ],
      "stateMutability": "view",
      "type": "function"
    },
    {
      "inputs": [
        {
          "internalType": "uint64",
          "name": "enableTime",
          "type": "uint64"
        },
        {
          "internalType": "address[]",
          "name": "dealers",
          "type": "address[]"
        },
        {
          "internalType": "address[]",
          "name": "ebcs",
          "type": "address[]"
        },
        {
          "internalType": "uint64[]",
          "name": "chainIds",
          "type": "uint64[]"
        }
      ],
      "name": "updateColumnArray",
      "outputs": [],
      "stateMutability": "nonpayable",
      "type": "function"
    },
    {
      "inputs": [
        {
          "internalType": "uint64",
          "name": "enableTime",
          "type": "uint64"
        },
        {
          "internalType": "bytes[]",
          "name": "responseMakerSignatures",
          "type": "bytes[]"
        }
      ],
      "name": "updateResponseMakers",
      "outputs": [],
      "stateMutability": "nonpayable",
      "type": "function"
    },
    {
      "inputs": [
        {
          "internalType": "uint64",
          "name": "enableTime",
          "type": "uint64"
        },
        {
          "internalType": "address",
          "name": "ebc",
          "type": "address"
        },
        {
          "components": [
            {
              "internalType": "uint64",
              "name": "chainId0",
              "type": "uint64"
            },
            {
              "internalType": "uint64",
              "name": "chainId1",
              "type": "uint64"
            },
            {
              "internalType": "uint8",
              "name": "status0",
              "type": "uint8"
            },
            {
              "internalType": "uint8",
              "name": "status1",
              "type": "uint8"
            },
            {
              "internalType": "uint256",
              "name": "token0",
              "type": "uint256"
            },
            {
              "internalType": "uint256",
              "name": "token1",
              "type": "uint256"
            },
            {
              "internalType": "uint128",
              "name": "minPrice0",
              "type": "uint128"
            },
            {
              "internalType": "uint128",
              "name": "minPrice1",
              "type": "uint128"
            },
            {
              "internalType": "uint128",
              "name": "maxPrice0",
              "type": "uint128"
            },
            {
              "internalType": "uint128",
              "name": "maxPrice1",
              "type": "uint128"
            },
            {
              "internalType": "uint128",
              "name": "withholdingFee0",
              "type": "uint128"
            },
            {
              "internalType": "uint128",
              "name": "withholdingFee1",
              "type": "uint128"
            },
            {
              "internalType": "uint16",
              "name": "tradingFee0",
              "type": "uint16"
            },
            {
              "internalType": "uint16",
              "name": "tradingFee1",
              "type": "uint16"
            },
            {
              "internalType": "uint32",
              "name": "responseTime0",
              "type": "uint32"
            },
            {
              "internalType": "uint32",
              "name": "responseTime1",
              "type": "uint32"
            },
            {
              "internalType": "uint32",
              "name": "compensationRatio0",
              "type": "uint32"
            },
            {
              "internalType": "uint32",
              "name": "compensationRatio1",
              "type": "uint32"
            }
          ],
          "internalType": "struct RuleLib.Rule[]",
          "name": "rules",
          "type": "tuple[]"
        },
        {
          "components": [
            {
              "internalType": "bytes32",
              "name": "root",
              "type": "bytes32"
            },
            {
              "internalType": "uint32",
              "name": "version",
              "type": "uint32"
            }
          ],
          "internalType": "struct RuleLib.RootWithVersion",
          "name": "rootWithVersion",
          "type": "tuple"
        },
        {
          "internalType": "uint64[]",
          "name": "sourceChainIds",
          "type": "uint64[]"
        },
        {
          "internalType": "uint256[]",
          "name": "pledgeAmounts",
          "type": "uint256[]"
        }
      ],
      "name": "updateRulesRoot",
      "outputs": [],
      "stateMutability": "payable",
      "type": "function"
    },
    {
      "inputs": [
        {
          "internalType": "uint64",
          "name": "enableTime",
          "type": "uint64"
        },
        {
          "internalType": "address",
          "name": "ebc",
          "type": "address"
        },
        {
          "components": [
            {
              "internalType": "uint64",
              "name": "chainId0",
              "type": "uint64"
            },
            {
              "internalType": "uint64",
              "name": "chainId1",
              "type": "uint64"
            },
            {
              "internalType": "uint8",
              "name": "status0",
              "type": "uint8"
            },
            {
              "internalType": "uint8",
              "name": "status1",
              "type": "uint8"
            },
            {
              "internalType": "uint256",
              "name": "token0",
              "type": "uint256"
            },
            {
              "internalType": "uint256",
              "name": "token1",
              "type": "uint256"
            },
            {
              "internalType": "uint128",
              "name": "minPrice0",
              "type": "uint128"
            },
            {
              "internalType": "uint128",
              "name": "minPrice1",
              "type": "uint128"
            },
            {
              "internalType": "uint128",
              "name": "maxPrice0",
              "type": "uint128"
            },
            {
              "internalType": "uint128",
              "name": "maxPrice1",
              "type": "uint128"
            },
            {
              "internalType": "uint128",
              "name": "withholdingFee0",
              "type": "uint128"
            },
            {
              "internalType": "uint128",
              "name": "withholdingFee1",
              "type": "uint128"
            },
            {
              "internalType": "uint16",
              "name": "tradingFee0",
              "type": "uint16"
            },
            {
              "internalType": "uint16",
              "name": "tradingFee1",
              "type": "uint16"
            },
            {
              "internalType": "uint32",
              "name": "responseTime0",
              "type": "uint32"
            },
            {
              "internalType": "uint32",
              "name": "responseTime1",
              "type": "uint32"
            },
            {
              "internalType": "uint32",
              "name": "compensationRatio0",
              "type": "uint32"
            },
            {
              "internalType": "uint32",
              "name": "compensationRatio1",
              "type": "uint32"
            }
          ],
          "internalType": "struct RuleLib.Rule[]",
          "name": "rules",
          "type": "tuple[]"
        },
        {
          "components": [
            {
              "internalType": "bytes32",
              "name": "root",
              "type": "bytes32"
            },
            {
              "internalType": "uint32",
              "name": "version",
              "type": "uint32"
            }
          ],
          "internalType": "struct RuleLib.RootWithVersion",
          "name": "rootWithVersion",
          "type": "tuple"
        },
        {
          "internalType": "uint64[]",
          "name": "sourceChainIds",
          "type": "uint64[]"
        },
        {
          "internalType": "uint256[]",
          "name": "pledgeAmounts",
          "type": "uint256[]"
        },
        {
          "internalType": "address",
          "name": "token",
          "type": "address"
        }
      ],
      "name": "updateRulesRootERC20",
      "outputs": [],
      "stateMutability": "nonpayable",
      "type": "function"
    },
    {
      "inputs": [
        {
          "internalType": "uint64",
          "name": "enableTime",
          "type": "uint64"
        },
        {
          "internalType": "address[]",
          "name": "spvs",
          "type": "address[]"
        },
        {
          "internalType": "uint64[]",
          "name": "chainIds",
          "type": "uint64[]"
        }
      ],
      "name": "updateSpvs",
      "outputs": [],
      "stateMutability": "nonpayable",
      "type": "function"
    },
    {
      "inputs": [
        {
          "internalType": "address",
          "name": "spvAddress",
          "type": "address"
        },
        {
          "internalType": "bytes",
          "name": "proof",
          "type": "bytes"
        },
        {
          "internalType": "bytes32[2]",
          "name": "spvBlockHashs",
          "type": "bytes32[2]"
        },
        {
          "components": [
            {
              "internalType": "uint256[]",
              "name": "data",
              "type": "uint256[]"
            },
            {
              "components": [
                {
                  "internalType": "address",
                  "name": "account",
                  "type": "address"
                },
                {
                  "internalType": "bytes32",
                  "name": "key",
                  "type": "bytes32"
                },
                {
                  "internalType": "uint256",
                  "name": "value",
                  "type": "uint256"
                }
              ],
              "internalType": "struct IORChallengeSpv.VerifyInfoSlot[]",
              "name": "slots",
              "type": "tuple[]"
            }
          ],
          "internalType": "struct IORChallengeSpv.VerifyInfo",
          "name": "verifyInfo",
          "type": "tuple"
        },
        {
          "internalType": "uint256[]",
          "name": "verifiedData0",
          "type": "uint256[]"
        },
        {
          "internalType": "bytes",
          "name": "rawDatas",
          "type": "bytes"
        }
      ],
      "name": "verifyChallengeDest",
      "outputs": [],
      "stateMutability": "nonpayable",
      "type": "function"
    },
    {
      "inputs": [
        {
          "internalType": "address",
          "name": "spvAddress",
          "type": "address"
        },
        {
          "internalType": "bytes",
          "name": "proof",
          "type": "bytes"
        },
        {
          "internalType": "bytes32[2]",
          "name": "spvBlockHashs",
          "type": "bytes32[2]"
        },
        {
          "components": [
            {
              "internalType": "uint256[]",
              "name": "data",
              "type": "uint256[]"
            },
            {
              "components": [
                {
                  "internalType": "address",
                  "name": "account",
                  "type": "address"
                },
                {
                  "internalType": "bytes32",
                  "name": "key",
                  "type": "bytes32"
                },
                {
                  "internalType": "uint256",
                  "name": "value",
                  "type": "uint256"
                }
              ],
              "internalType": "struct IORChallengeSpv.VerifyInfoSlot[]",
              "name": "slots",
              "type": "tuple[]"
            }
          ],
          "internalType": "struct IORChallengeSpv.VerifyInfo",
          "name": "verifyInfo",
          "type": "tuple"
        },
        {
          "internalType": "bytes",
          "name": "rawDatas",
          "type": "bytes"
        }
      ],
      "name": "verifyChallengeSource",
      "outputs": [],
      "stateMutability": "nonpayable",
      "type": "function"
    },
    {
      "inputs": [
        {
          "internalType": "uint64",
          "name": "enableTime",
          "type": "uint64"
        }
      ],
      "name": "versionIncreaseAndEnableTime",
      "outputs": [],
      "stateMutability": "nonpayable",
      "type": "function"
    },
    {
      "inputs": [
        {
          "internalType": "address",
          "name": "token",
          "type": "address"
        },
        {
          "internalType": "uint256",
          "name": "amount",
          "type": "uint256"
        }
      ],
      "name": "withdraw",
      "outputs": [],
      "stateMutability": "nonpayable",
      "type": "function"
    },
    {
      "stateMutability": "payable",
      "type": "receive"
    }
  ],
  "bytecode": "0x608060405234801561001057600080fd5b50615e7d80620000216000396000f3fe6080604052600436106100fe5760003560e01c806302f17ed31461010a5780630a8f51901461012e57806337eb04431461014357806347e7ef241461017f578063495b18361461019257806349c4bb76146101b25780634b4c85c4146101fe5780634c20cb2414610213578063539cb3a5146102315780635bcb403714610251578063671ecbfe146102875780638adac2c5146103105780638da5cb5b146103235780638f5520d9146103415780639a6781dc14610361578063a531ffd814610381578063b315019c146103a1578063bc0136ad146103c1578063c4d66de8146103e1578063c75c16cf14610401578063f3fef3a31461042157600080fd5b3661010557005b600080fd5b34801561011657600080fd5b506003545b6040519081526020015b60405180910390f35b61014161013c3660046145ac565b610441565b005b34801561014f57600080fd5b50600054604080516001600160c01b0383168152600160c01b9092046001600160401b0316602083015201610125565b61014161018d36600461468e565b6105fa565b34801561019e57600080fd5b506101416101ad36600461470c565b610622565b3480156101be57600080fd5b506101f16101cd3660046147da565b6001600160401b03166000908152600460205260409020546001600160a01b031690565b604051610125919061480b565b34801561020a57600080fd5b5060055461011b565b34801561021f57600080fd5b506002546001600160a01b03166101f1565b34801561023d57600080fd5b5061014161024c36600461481f565b610c7d565b34801561025d57600080fd5b5061011b61026c3660046148a1565b6001600160a01b031660009081526008602052604090205490565b34801561029357600080fd5b506102ef6102a23660046148a1565b6040805180820190915260008082526020820152506001600160a01b03166000908152600660209081526040918290208251808401909352805483526001015463ffffffff169082015290565b604080518251815260209283015163ffffffff169281019290925201610125565b61014161031e3660046148be565b61100c565b34801561032f57600080fd5b506001546001600160a01b03166101f1565b34801561034d57600080fd5b5061014161035c366004614919565b6113eb565b34801561036d57600080fd5b5061014161037c3660046149c5565b611760565b34801561038d57600080fd5b5061014161039c3660046147da565b61189c565b3480156103ad57600080fd5b506101416103bc366004614aa9565b611954565b3480156103cd57600080fd5b506101416103dc366004614afd565b611b62565b3480156103ed57600080fd5b506101416103fc3660046148a1565b611f8d565b34801561040d57600080fd5b5061014161041c366004614b58565b612035565b34801561042d57600080fd5b5061014161043c36600461468e565b613465565b6001546001600160a01b031633146104745760405162461bcd60e51b815260040161046b90614c00565b60405180910390fd5b61047d8961189c565b61048988888888613667565b8281146104a85760405162461bcd60e51b815260040161046b90614c35565b6000805b848110156105b857600061050f8b8888858181106104cc576104cc614c52565b90506020020160208101906104e191906147da565b60006040516020016104f593929190614c68565b604051602081830303815290604052805160209091012090565b60008181526007602052604090205490915085858481811061053357610533614c52565b9050602002013511156105825760008181526007602052604081205486868581811061056157610561614c52565b905060200201356105729190614caa565b905061057e8185614cbd565b9350505b84848381811061059457610594614c52565b600093845260076020908152604090942093029190910135909155506001016104ac565b50348111156105ee5760405162461bcd60e51b815260206004820152600260248201526124ab60f11b604482015260640161046b565b50505050505050505050565b6001600160a01b0382161561061e5761061e6001600160a01b03831633308461398a565b5050565b886001600160a01b03166390c80a558989896106488a6040516020016104f59190614d5f565b6040518563ffffffff1660e01b81526004016106679493929190614e21565b602060405180830381865afa158015610684573d6000803e3d6000fd5b505050506040513d601f19601f820116820180604052508101906106a89190614e63565b6106c45760405162461bcd60e51b815260040161046b90614e85565b60006107216106d38780614ea1565b60008181106106e4576106e4614c52565b602002919091013590506106f88880614ea1565b600181811061070957610709614c52565b905060200201356040516020016104f5929190614eea565b600081815260096020526040902060050154909150600160801b90046001600160401b031661077b5760405162461bcd60e51b815260040161046b906020808252600490820152632b2a182d60e11b604082015260600190565b600081815260096020526040902060050154600160c01b90046001600160401b0316156107ba5760405162461bcd60e51b815260040161046b90614f07565b60006107c883850185614fda565b905060096000838152602001908152602001600020600601546107f787876040516020016104f5929190615064565b1461082d5760405162461bcd60e51b815260040161046b906020808252600490820152630564448360e41b604082015260600190565b8585600781811061084057610840614c52565b9050602002013560001b61085e826040516020016104f59190615078565b146108915760405162461bcd60e51b81526020600482015260036024820152620a49a960eb1b604482015260640161046b565b6000828152600960205260408120600101546108b6906001600160401b031642614caa565b9050868660008181106108cb576108cb614c52565b905060200201358110156108f15760405162461bcd60e51b815260040161046b906150bc565b8686600181811061090457610904614c52565b9050602002013581111561092a5760405162461bcd60e51b815260040161046b906150dc565b508585600381811061093e5761093e614c52565b602002919091013590506109528880614ea1565b600081811061096357610963614c52565b90506020020135146109a05760405162461bcd60e51b815260040161046b906020808252600490820152631110d25160e21b604082015260600190565b6109d46109ad8880614ea1565b60028181106109be576109be614c52565b90506020020135826139fb90919063ffffffff16565b610a065760405162461bcd60e51b81526020600482015260036024820152624d494360e81b604482015260640161046b565b610a108780614ea1565b6003818110610a2157610a21614c52565b9050602002013586866004818110610a3b57610a3b614c52565b9050602002013514610a775760405162461bcd60e51b81526020600482015260056024820152642220a2222960d91b604482015260640161046b565b610a818780614ea1565b6004818110610a9257610a92614c52565b9050602002013586866005818110610aac57610aac614c52565b9050602002013514610ad05760405162461bcd60e51b815260040161046b906150fc565b610ada8780614ea1565b6005818110610aeb57610aeb614c52565b9050602002013586866002818110610b0557610b05614c52565b9050602002013587876006818110610b1f57610b1f614c52565b90506020020135610b309190614caa565b14610b4d5760405162461bcd60e51b815260040161046b906150fc565b6000828152600960209081526040918290208251610180810184528154815260018201546001600160401b03808216948301949094526001600160a01b03600160401b9182900481169583019590955260028301549485166060830152600160a01b90940483166080820152600382015460a0820152600482015460c0820152600582015480841660e08301529384048316610100820152600160801b84048316610120820152600160c01b90930490911661014083015260060154610160820152610c1890613a46565b600082815260096020526040908190206005810180546001600160c01b0316600160c01b426001600160401b03160217905590518391600080516020615e5183398151915291610c689190615118565b60405180910390a25050505050505050505050565b6001546001600160a01b03163314610ca75760405162461bcd60e51b815260040161046b90614c00565b610cb08561189c565b6002546040805163481c6a7560e01b815290516000926001600160a01b03169163481c6a759160048083019260209291908290030181865afa158015610cfa573d6000803e3d6000fd5b505050506040513d601f19601f82011682018060405250810190610d1e91906151f6565b90506000600260009054906101000a90046001600160a01b03166001600160a01b0316635c60da1b6040518163ffffffff1660e01b8152600401602060405180830381865afa158015610d75573d6000803e3d6000fd5b505050506040513d601f19601f82011682018060405250810190610d9991906151f6565b905060005b83811015611002576000836001600160a01b031663b288706d878785818110610dc957610dc9614c52565b9050602002016020810190610dde91906147da565b6040518263ffffffff1660e01b8152600401610dfa9190615213565b600060405180830381865afa158015610e17573d6000803e3d6000fd5b505050506040513d6000823e601f3d908101601f19168201604052610e3f91908101906152b8565b80519091506001600160401b0316610e695760405162461bcd60e51b815260040161046b9061538a565b610e9e888884818110610e7e57610e7e614c52565b9050602002016020810190610e9391906148a1565b60c083015190613a8e565b610ecf5760405162461bcd60e51b8152602060048201526002602482015261534960f01b604482015260640161046b565b878783818110610ee157610ee1614c52565b9050602002016020810190610ef691906148a1565b60046000888886818110610f0c57610f0c614c52565b9050602002016020810190610f2191906147da565b6001600160401b03168152602081019190915260400160002080546001600160a01b0319166001600160a01b0392831617905583167f8f2bbe31353a40442717cf80cfd6882db22eae2e1ca9ffd699967549fd26fafc878785818110610f8957610f89614c52565b9050602002016020810190610f9e91906147da565b8a8a86818110610fb057610fb0614c52565b9050602002016020810190610fc591906148a1565b604080516001600160401b0390931683526001600160a01b0390911660208301520160405180910390a25080610ffa816153a6565b915050610d9e565b5050505050505050565b600061102486866040516020016104f5929190614eea565b6000818152600960205260409020600501549091506001600160401b0316156110745760405162461bcd60e51b8152602060048201526002602482015261434560f01b604482015260640161046b565b836001600160401b0316426001600160401b031610156110bf5760405162461bcd60e51b815260040161046b9060208082526004908201526329aa27a360e11b604082015260600190565b6001600160a01b038316611106573482146111015760405162461bcd60e51b815260206004820152600260248201526124a360f11b604482015260640161046b565b61111b565b61111b6001600160a01b03841633308561398a565b816111268180614cbd565b6001600160a01b0385166000908152600860205260408120805490919061114e908490614cbd565b92505081905550604051806101800160405280866001600160401b0316815260200160006001600160401b03168152602001336001600160a01b03168152602001856001600160a01b0316815260200160006001600160401b03168152602001828152602001848152602001426001600160401b0316815260200160006001600160401b0316815260200160006001600160401b0316815260200160006001600160401b031681526020016000801b815250600960008481526020019081526020016000206000820151816000015560208201518160010160006101000a8154816001600160401b0302191690836001600160401b0316021790555060408201518160010160086101000a8154816001600160a01b0302191690836001600160a01b0316021790555060608201518160020160006101000a8154816001600160a01b0302191690836001600160a01b0316021790555060808201518160020160146101000a8154816001600160401b0302191690836001600160401b0316021790555060a0820151816003015560c0820151816004015560e08201518160050160006101000a8154816001600160401b0302191690836001600160401b031602179055506101008201518160050160086101000a8154816001600160401b0302191690836001600160401b031602179055506101208201518160050160106101000a8154816001600160401b0302191690836001600160401b031602179055506101408201518160050160186101000a8154816001600160401b0302191690836001600160401b03160217905550610160820151816006015590505081600080516020615e51833981519152600960008581526020019081526020016000206040516113da9190615118565b60405180910390a250505050505050565b6001546001600160a01b031633146114155760405162461bcd60e51b815260040161046b90614c00565b61141e8761189c565b600a8510801561142e5750600a83105b801561143a5750606481105b61146e5760405162461bcd60e51b81526020600482015260056024820152642222a1a7a360d91b604482015260640161046b565b6002546040805163481c6a7560e01b815290516000926001600160a01b03169163481c6a759160048083019260209291908290030181865afa1580156114b8573d6000803e3d6000fd5b505050506040513d601f19601f820116820180604052508101906114dc91906151f6565b905060005b848110156115a057816001600160a01b031663bb6f93bc87878481811061150a5761150a614c52565b905060200201602081019061151f91906148a1565b6040518263ffffffff1660e01b815260040161153b919061480b565b602060405180830381865afa158015611558573d6000803e3d6000fd5b505050506040513d601f19601f8201168201806040525081019061157c9190614e63565b6115985760405162461bcd60e51b815260040161046b906153bf565b6001016114e1565b5060005b82811015611678576000826001600160a01b031663b288706d8686858181106115cf576115cf614c52565b90506020020160208101906115e491906147da565b6040518263ffffffff1660e01b81526004016116009190615213565b600060405180830381865afa15801561161d573d6000803e3d6000fd5b505050506040513d6000823e601f3d908101601f1916820160405261164591908101906152b8565b80519091506001600160401b031661166f5760405162461bcd60e51b815260040161046b9061538a565b506001016115a4565b506116978787878787876040516020016104f59695949392919061541c565b60035560025460408051635c60da1b60e01b815290516001600160a01b0390921691635c60da1b916004808201926020929091908290030181865afa1580156116e4573d6000803e3d6000fd5b505050506040513d601f19601f8201168201806040525081019061170891906151f6565b6001600160a01b03167f3cb86960d27f10c36827a013566ea74ce60fe0402128cb82d020889177c1242960035489898989898960405161174e97969594939291906154b5565b60405180910390a25050505050505050565b6001546001600160a01b0316331461178a5760405162461bcd60e51b815260040161046b90614c00565b6117938a61189c565b61179f89898989613667565b8382146117be5760405162461bcd60e51b815260040161046b90614c35565b60005b8481101561188f5760006118098b8888858181106117e1576117e1614c52565b90506020020160208101906117f691906147da565b856040516020016104f593929190614c68565b60008181526007602052604090205490915085858481811061182d5761182d614c52565b90506020020135111561188657600081815260076020526040902054611886903390309088888781811061186357611863614c52565b905060200201356118749190614caa565b6001600160a01b03871692919061398a565b506001016117c1565b5050505050505050505050565b60786118b1426001600160401b038416614caa565b10156118e85760405162461bcd60e51b815260040161046b9060208082526004908201526313d1915560e21b604082015260600190565b600080546001919081906119069084906001600160c01b0316615534565b92506101000a8154816001600160c01b0302191690836001600160c01b0316021790555080600060186101000a8154816001600160401b0302191690836001600160401b0316021790555050565b6001546001600160a01b0316331461197e5760405162461bcd60e51b815260040161046b90614c00565b6119878361189c565b600061199d306040516020016104f5919061480b565b90506000826001600160401b038111156119b9576119b9614f26565b6040519080825280602002602001820160405280156119e2578160200160208202803683370190505b50905060005b83811015611a9557611a5d858583818110611a0557611a05614c52565b9050602002810190611a17919061555b565b8080601f016020809104026020016040519081016040528093929190818152602001838380828437600092019190915250611a579250879150613adf9050565b90613b11565b6001600160a01b0316828281518110611a7857611a78614c52565b602090810291909101015280611a8d816153a6565b9150506119e8565b50611aaa816040516020016104f59190615078565b60055560025460408051635c60da1b60e01b815290516001600160a01b0390921691635c60da1b916004808201926020929091908290030181865afa158015611af7573d6000803e3d6000fd5b505050506040513d601f19601f82011682018060405250810190611b1b91906151f6565b6001600160a01b03167f0b91b68f980e47803e7858fa5a270c37d18f436399f86db162b14fbd0f376d5482604051611b539190615078565b60405180910390a25050505050565b6000611b7a85856040516020016104f5929190614eea565b6000818152600960209081526040918290208251610180810184528154815260018201546001600160401b03808216948301949094526001600160a01b03600160401b9182900481169583019590955260028301549485166060830152600160a01b90940483166080820152600382015460a0820152600482015460c0820152600582015480841660e083018190529481048416610100830152600160801b81048416610120830152600160c01b900490921661014083015260060154610160820152919250611c725760405162461bcd60e51b8152602060048201526003602482015262434e4560e81b604482015260640161046b565b6101408101516001600160401b031615611c9e5760405162461bcd60e51b815260040161046b90614f07565b6002546040805163481c6a7560e01b815290516000926001600160a01b03169163481c6a759160048083019260209291908290030181865afa158015611ce8573d6000803e3d6000fd5b505050506040513d601f19601f82011682018060405250810190611d0c91906151f6565b90508161012001516001600160401b0316600003611dfd5760405163b288706d60e01b81526000906001600160a01b0383169063b288706d90611d53908b90600401615213565b600060405180830381865afa158015611d70573d6000803e3d6000fd5b505050506040513d6000823e601f3d908101601f19168201604052611d9891908101906152b8565b905082602001518160600151611dae91906155a1565b6001600160401b03164211611dee5760405162461bcd60e51b815260040161046b906020808252600490820152631590d4d560e21b604082015260600190565b611df783613a46565b50611f39565b816101600151611e1986866040516020016104f5929190615064565b14611e4c5760405162461bcd60e51b81526020600482015260036024820152620ac88960eb1b604482015260640161046b565b6000816001600160a01b031663b288706d87876000818110611e7057611e70614c52565b905060200201356040518263ffffffff1660e01b8152600401611e939190615213565b600060405180830381865afa158015611eb0573d6000803e3d6000fd5b505050506040513d6000823e601f3d908101601f19168201604052611ed891908101906152b8565b905082602001518160a00151611eee91906155a1565b6001600160401b03164211611f2e5760405162461bcd60e51b815260040161046b906020808252600490820152631590d11560e21b604082015260600190565b611f3783613b35565b505b60008381526009602052604090819020600581018054600160401b600160801b031916600160401b426001600160401b03160217905590518491600080516020615e51833981519152916113da9190615118565b6001546001600160a01b031615611fcf5760405162461bcd60e51b815260040161046b906020808252600490820152632fa7a72d60e11b604082015260600190565b6001600160a01b03811661200a5760405162461bcd60e51b815260206004820152600260248201526127ad60f11b604482015260640161046b565b600180546001600160a01b039092166001600160a01b03199283161790556002805490911633179055565b866001600160a01b03166390c80a5587878761205b886040516020016104f59190614d5f565b6040518563ffffffff1660e01b815260040161207a9493929190614e21565b602060405180830381865afa158015612097573d6000803e3d6000fd5b505050506040513d601f19601f820116820180604052508101906120bb9190614e63565b6120d75760405162461bcd60e51b815260040161046b90614e85565b600061210b6120e68580614ea1565b60008181106120f7576120f7614c52565b602002919091013590506106f88680614ea1565b6000818152600960205260409020600501549091506001600160401b031661215b5760405162461bcd60e51b815260206004820152600360248201526221aa2d60e91b604482015260640161046b565b600081815260096020526040902060050154600160801b90046001600160401b0316156121b25760405162461bcd60e51b81526020600482015260056024820152642b2a18272d60d91b604482015260640161046b565b6000818152600960205260409020600101546001600160401b03166121d78580614ea1565b60078181106121e8576121e8614c52565b905060200201356001600160401b03161461222a5760405162461bcd60e51b815260206004820152600260248201526114d560f21b604482015260640161046b565b6001546001600160a01b03166122408580614ea1565b600281811061225157612251614c52565b905060200201356001600160a01b0316146122975760405162461bcd60e51b815260040161046b90602080825260049082015263544e454f60e01b604082015260600190565b6000808080806122a9878901896157c7565b94509450945094509450600260009054906101000a90046001600160a01b03166001600160a01b031663481c6a756040518163ffffffff1660e01b8152600401602060405180830381865afa158015612306573d6000803e3d6000fd5b505050506040513d601f19601f8201168201806040525081019061232a91906151f6565b6001600160a01b031661234060208b018b6158d1565b600081811061235157612351614c52565b61236792602060609092020190810191506148a1565b6001600160a01b0316146123a55760405162461bcd60e51b8152602060048201526005602482015264564353544160d81b604482015260640161046b565b60006123eb6123b48b80614ea1565b60008181106123c5576123c5614c52565b9050602002013560026040516020016104f592919091825260ff16602082015260400190565b90506123f8816001614cbd565b61240560208c018c6158d1565b600081811061241657612416614c52565b9050606002016020013560001c146124585760405162461bcd60e51b8152602060048201526005602482015264564353544b60d81b604482015260640161046b565b60006124648b80614ea1565b600781811061247557612475614c52565b90506020020135426124879190614caa565b905061249660208c018c6158d1565b60008181106124a7576124a7614c52565b905060600201604001356001600160401b03168110156124d95760405162461bcd60e51b815260040161046b906150bc565b60406124e860208d018d6158d1565b60008181106124f9576124f9614c52565b90506060020160400135901c6001600160401b031681111561252d5760405162461bcd60e51b815260040161046b906150dc565b5050600260009054906101000a90046001600160a01b03166001600160a01b031663481c6a756040518163ffffffff1660e01b8152600401602060405180830381865afa158015612582573d6000803e3d6000fd5b505050506040513d601f19601f820116820180604052508101906125a691906151f6565b6001600160a01b03166125bc60208b018b6158d1565b60018181106125cd576125cd614c52565b6125e392602060609092020190810191506148a1565b6001600160a01b03161461261f5760405162461bcd60e51b815260206004820152600360248201526246544160e81b604482015260640161046b565b60006126816126676126318c80614ea1565b600081811061264257612642614c52565b602002919091013590506126568d80614ea1565b600481811061070957610709614c52565b6040805160208101929092526003908201526060016104f5565b905061268e816001614cbd565b61269b60208c018c6158d1565b60018181106126ac576126ac614c52565b9050606002016020013560001c146126ec5760405162461bcd60e51b815260206004820152600360248201526246544b60e81b604482015260640161046b565b6126f960208b018b6158d1565b600181811061270a5761270a614c52565b905060600201604001356001600160a01b03166009600089815260200190815260200160002060020160009054906101000a90046001600160a01b03166001600160a01b0316146127835760405162461bcd60e51b8152602060048201526003602482015262232a2b60e91b604482015260640161046b565b600260009054906101000a90046001600160a01b03166001600160a01b031663481c6a756040518163ffffffff1660e01b8152600401602060405180830381865afa1580156127d6573d6000803e3d6000fd5b505050506040513d601f19601f820116820180604052508101906127fa91906151f6565b6001600160a01b031661281060208c018c6158d1565b600281811061282157612821614c52565b61283792602060609092020190810191506148a1565b6001600160a01b0316146128735760405162461bcd60e51b815260206004820152600360248201526246414160e81b604482015260640161046b565b61288060208b018b6158d1565b600281811061289157612891614c52565b9050606002016020013560001c6006146128d35760405162461bcd60e51b815260206004820152600360248201526246414b60e81b604482015260640161046b565b60006128e260208c018c6158d1565b60028181106128f3576128f3614c52565b905060600201604001359050612710816001600160401b03168c806000019061291c9190614ea1565b600581811061292d5761292d614c52565b9050602002013561293e9190615919565b6129489190615930565b60008981526009602052604090206004015410156129915760405162461bcd60e51b815260040161046b906020808252600490820152632320a62b60e11b604082015260600190565b505060006129ad8686866040516020016104f593929190615983565b9050306129bd60208c018c6158d1565b60038181106129ce576129ce614c52565b6129e492602060609092020190810191506148a1565b6001600160a01b031614612a235760405162461bcd60e51b815260040161046b906020808252600490820152634341484160e01b604082015260600190565b612a3060208b018b6158d1565b6003818110612a4157612a41614c52565b9050606002016020013560001c600214612a865760405162461bcd60e51b815260040161046b906020808252600490820152634341484b60e01b604082015260600190565b80612a9460208c018c6158d1565b6003818110612aa557612aa5614c52565b9050606002016040013560001b14612ae85760405162461bcd60e51b815260040161046b9060208082526004908201526321a0a42b60e11b604082015260600190565b506000806001600160a01b0384166391032df3612b058d80614ea1565b6005818110612b1657612b16614c52565b905060200201356040518263ffffffff1660e01b8152600401612b3b91815260200190565b606060405180830381865afa158015612b58573d6000803e3d6000fd5b505050506040513d601f19601f82011682018060405250810190612b7c91906159d5565b90508560018260200151612b909190614caa565b81518110612ba057612ba0614c52565b60200260200101516001600160a01b0316846001600160a01b031614612bee5760405162461bcd60e51b8152602060048201526003602482015262454e4560e81b604482015260640161046b565b845181604001511115612c295760405162461bcd60e51b815260206004820152600360248201526221a7a360e91b604482015260640161046b565b8460018260400151612c3b9190614caa565b81518110612c4b57612c4b614c52565b60200260200101516001600160401b0316915050600260009054906101000a90046001600160a01b03166001600160a01b031663481c6a756040518163ffffffff1660e01b8152600401602060405180830381865afa158015612cb2573d6000803e3d6000fd5b505050506040513d601f19601f82011682018060405250810190612cd691906151f6565b6001600160a01b0316612cec60208c018c6158d1565b6004818110612cfd57612cfd614c52565b612d1392602060609092020190810191506148a1565b6001600160a01b031614612d4f5760405162461bcd60e51b815260206004820152600360248201526244544160e81b604482015260640161046b565b6000612d7361266783612d628e80614ea1565b600a81811061070957610709614c52565b9050612d80816001614cbd565b612d8d60208d018d6158d1565b6004818110612d9e57612d9e614c52565b9050606002016020013560001c14612dde5760405162461bcd60e51b815260206004820152600360248201526244544b60e81b604482015260640161046b565b612deb60208c018c6158d1565b6004818110612dfc57612dfc614c52565b905060600201604001356001600160a01b0316600960008a815260200190815260200160002060020160009054906101000a90046001600160a01b03166001600160a01b031614612e755760405162461bcd60e51b8152602060048201526003602482015262222a2b60e91b604482015260640161046b565b5030612e8460208c018c6158d1565b6005818110612e9557612e95614c52565b612eab92602060609092020190810191506148a1565b6001600160a01b031614612eea5760405162461bcd60e51b815260040161046b90602080825260049082015263524d484160e01b604082015260600190565b612ef760208b018b6158d1565b6005818110612f0857612f08614c52565b9050606002016020013560001c600514612f4d5760405162461bcd60e51b815260040161046b90602080825260049082015263524d484b60e01b604082015260600190565b30612f5b60208c018c6158d1565b6006818110612f6c57612f6c614c52565b612f8292602060609092020190810191506148a1565b6001600160a01b031614612fbe5760405162461bcd60e51b815260206004820152600360248201526252524160e81b604482015260640161046b565b604080516001600160a01b0385166020820152600691810191909152600090612fe9906060016104f5565b905080612ff960208d018d6158d1565b600681811061300a5761300a614c52565b9050606002016020013560001c1461304a5760405162461bcd60e51b815260206004820152600360248201526252524b60e81b604482015260640161046b565b6130548b80614ea1565b600881811061306557613065614c52565b90506020020135613080846040516020016104f59190615a3d565b146130b25760405162461bcd60e51b81526020600482015260026024820152610a4960f31b604482015260640161046b565b5060006130e0836130c38d80614ea1565b60008181106130d4576130d4614c52565b90506020020135613d8a565b90506000846001600160a01b031662b67b0b866001600160a01b03166328fef6338f80600001906131119190614ea1565b600581811061312257613122614c52565b90506020020135866040518363ffffffff1660e01b8152600401613147929190615b81565b600060405180830381865afa158015613164573d6000803e3d6000fd5b505050506040513d6000823e601f3d908101601f1916820160405261318c9190810190615c79565b6040518263ffffffff1660e01b81526004016131a89190615d38565b602060405180830381865afa1580156131c5573d6000803e3d6000fd5b505050506040513d601f19601f820116820180604052508101906131e99190615d4b565b90506131f58c80614ea1565b600781811061320657613206614c52565b60008c81526009602090815260409182902092810294909401359091559161323191508e018e6158d1565b600281811061324257613242614c52565b90506060020160400135901c600960008b815260200190815260200160002060020160146101000a8154816001600160401b0302191690836001600160401b0316021790555042600960008b815260200190815260200160002060050160106101000a8154816001600160401b0302191690836001600160401b0316021790555061341660405180610100016040528060808f80602001906132e491906158d1565b60008181106132f5576132f5614c52565b90506060020160400135901c6001600160401b0316815260200160808f806020019061332191906158d1565b600081811061333257613332614c52565b90506060020160400135901c6001600160401b031681526020018e806000019061335c9190614ea1565b600081811061336d5761336d614c52565b60209081029290920135835250810186905260400161338c8f80614ea1565b600981811061339d5761339d614c52565b60209081029290920135835250016133b58f80614ea1565b600a8181106133c6576133c6614c52565b9050602002013581526020018381526020018e80602001906133e891906158d1565b60038181106133f9576133f9614c52565b905060600201604001358152506040516020016104f59190615d64565b60008a815260096020526040908190206006810192909255518a91600080516020615e518339815191529161344b9190615118565b60405180910390a250505050505050505050505050505050565b6001546001600160a01b0316331461348f5760405162461bcd60e51b815260040161046b90614c00565b6001600160a01b038216613581576001600160a01b03821660009081526008602052604090205481906134c29047614caa565b10156134fa5760405162461bcd60e51b815260206004820152600760248201526622aa241d1024a360c91b604482015260640161046b565b604051600090339083908381818185875af1925050503d806000811461353c576040519150601f19603f3d011682016040523d82523d6000602084013e613541565b606091505b505090508061357c5760405162461bcd60e51b81526020600482015260076024820152664554483a20534560c81b604482015260640161046b565b505050565b6040516370a0823160e01b81526000906001600160a01b038416906370a08231906135b090309060040161480b565b602060405180830381865afa1580156135cd573d6000803e3d6000fd5b505050506040513d601f19601f820116820180604052508101906135f19190615d4b565b6001600160a01b03841660009081526008602052604090205490915082906136199083614caa565b10156136535760405162461bcd60e51b815260206004820152600960248201526822a92199181d1024a360b91b604482015260640161046b565b61357c6001600160a01b0384163384613fea565b60005b8281101561371f5783838281811061368457613684614c52565b90506102400201602001602081019061369d91906147da565b6001600160401b03168484838181106136b8576136b8614c52565b6136cf9260206102409092020190810191506147da565b6001600160401b03161061370d5760405162461bcd60e51b815260206004820152600560248201526443304c433160d81b604482015260640161046b565b80613717816153a6565b91505061366a565b506002546040805163481c6a7560e01b815290516000926001600160a01b03169163481c6a759160048083019260209291908290030181865afa15801561376a573d6000803e3d6000fd5b505050506040513d601f19601f8201168201806040525081019061378e91906151f6565b604051632edbe4ef60e21b81529091506001600160a01b0382169063bb6f93bc906137bd90889060040161480b565b602060405180830381865afa1580156137da573d6000803e3d6000fd5b505050506040513d601f19601f820116820180604052508101906137fe9190614e63565b61381a5760405162461bcd60e51b815260040161046b906153bf565b813561384d5760405162461bcd60e51b8152602060048201526002602482015261292d60f11b604482015260640161046b565b61385d6040830160208401615d96565b6001600160a01b038616600090815260066020526040902060019081015463ffffffff90811690910181169116146138bc5760405162461bcd60e51b8152602060048201526002602482015261564560f01b604482015260640161046b565b6001600160a01b038516600090815260066020526040902082906138e08282615db3565b505060025460408051635c60da1b60e01b815290516001600160a01b0390921691635c60da1b916004808201926020929091908290030181865afa15801561392c573d6000803e3d6000fd5b505050506040513d601f19601f8201168201806040525081019061395091906151f6565b6001600160a01b03167f14ebfe1d09c7ff607d095a4d8c41180cfc5ce6a29321b1b0b8ed086408acca4a8684604051611b53929190615de2565b6040516001600160a01b03808516602483015283166044820152606481018290526139f59085906323b872dd60e01b906084015b60408051601f198184030181529190526020810180516001600160e01b03166001600160e01b03199093169290921790915261401a565b50505050565b6000805b8351811015613a3a57838181518110613a1a57613a1a614c52565b60200260200101518303613a32576001915050613a40565b6001016139ff565b50600090505b92915050565b8060c001518160a00151613a5a9190614cbd565b60608201516001600160a01b031660009081526008602052604081208054909190613a86908490614caa565b909155505050565b6000805b8351811015613a3a57838181518110613aad57613aad614c52565b60200260200101516001600160a01b0316836001600160a01b031603613ad7576001915050613a40565b600101613a92565b7b0ca2ba3432b932bab69029b4b3b732b21026b2b9b9b0b3b29d05199960211b6000908152601c91909152603c902090565b6000806000613b2085856140ef565b91509150613b2d81614134565b509392505050565b600061271082608001516001600160401b03168360a00151613b579190615919565b613b619190615930565b90508160a00151811115613ba05760405162461bcd60e51b815260040161046b906020808252600490820152632aa0a7a360e11b604082015260600190565b6000818360c001518460a00151613bb79190614cbd565b613bc19190614caa565b83516060850151919250906001600160a01b0316613d00576000816001600160a01b03168460405160006040518083038185875af1925050503d8060008114613c26576040519150601f19603f3d011682016040523d82523d6000602084013e613c2b565b606091505b5050905080613c675760405162461bcd60e51b81526020600482015260086024820152674554483a2053453160c01b604482015260640161046b565b600085604001516001600160a01b03168460405160006040518083038185875af1925050503d8060008114613cb8576040519150601f19603f3d011682016040523d82523d6000602084013e613cbd565b606091505b5050905080613cf95760405162461bcd60e51b815260206004820152600860248201526722aa241d1029a29960c11b604482015260640161046b565b5050613d3f565b6060840151613d19906001600160a01b03168285613fea565b613d3f84604001518386606001516001600160a01b0316613fea9092919063ffffffff16565b8360c001518460a00151613d539190614cbd565b60608501516001600160a01b031660009081526008602052604081208054909190613d7f908490614caa565b909155505050505050565b6040805161016081018252600080825260208201819052918101829052606081018290526080810182905260a0810182905260c0810182905260e081018290526101008101829052610120810182905261014081019190915282516001600160401b0383811691161480613e13575082602001516001600160401b0316826001600160401b0316145b613e455760405162461bcd60e51b815260206004820152600360248201526253434960e81b604482015260640161046b565b82600001516001600160401b0316826001600160401b031603613f265760405180610160016040528084600001516001600160401b0316815260200184602001516001600160401b03168152602001846040015160ff168152602001846080015181526020018460a0015181526020018460c001516001600160801b031681526020018461010001516001600160801b031681526020018461014001516001600160801b0316815260200184610180015161ffff168152602001846101c0015163ffffffff16815260200184610200015163ffffffff168152509050613a40565b60405180610160016040528084602001516001600160401b0316815260200184600001516001600160401b03168152602001846060015160ff1681526020018460a001518152602001846080015181526020018460e001516001600160801b031681526020018461012001516001600160801b031681526020018461016001516001600160801b03168152602001846101a0015161ffff168152602001846101e0015163ffffffff16815260200184610220015163ffffffff168152509050613a40565b6040516001600160a01b03831660248201526044810182905261357c90849063a9059cbb60e01b906064016139be565b600061406f826040518060400160405280602081526020017f5361666545524332303a206c6f772d6c6576656c2063616c6c206661696c6564815250856001600160a01b031661427c9092919063ffffffff16565b90508051600014806140905750808060200190518101906140909190614e63565b61357c5760405162461bcd60e51b815260206004820152602a60248201527f5361666545524332303a204552433230206f7065726174696f6e20646964206e6044820152691bdd081cdd58d8d9595960b21b606482015260840161046b565b60008082516041036141255760208301516040840151606085015160001a61411987828585614293565b9450945050505061412d565b506000905060025b9250929050565b600081600481111561414857614148615e1e565b036141505750565b600181600481111561416457614164615e1e565b036141ac5760405162461bcd60e51b815260206004820152601860248201527745434453413a20696e76616c6964207369676e617475726560401b604482015260640161046b565b60028160048111156141c0576141c0615e1e565b0361420d5760405162461bcd60e51b815260206004820152601f60248201527f45434453413a20696e76616c6964207369676e6174757265206c656e67746800604482015260640161046b565b600381600481111561422157614221615e1e565b036142795760405162461bcd60e51b815260206004820152602260248201527f45434453413a20696e76616c6964207369676e6174757265202773272076616c604482015261756560f01b606482015260840161046b565b50565b606061428b848460008561434d565b949350505050565b6000806fa2a8918ca85bafe22016d0b997e4df60600160ff1b038311156142c05750600090506003614344565b6040805160008082526020820180845289905260ff881692820192909252606081018690526080810185905260019060a0016020604051602081039080840390855afa158015614314573d6000803e3d6000fd5b5050604051601f1901519150506001600160a01b03811661433d57600060019250925050614344565b9150600090505b94509492505050565b6060824710156143ae5760405162461bcd60e51b815260206004820152602660248201527f416464726573733a20696e73756666696369656e742062616c616e636520666f6044820152651c8818d85b1b60d21b606482015260840161046b565b600080866001600160a01b031685876040516143ca9190615e34565b60006040518083038185875af1925050503d8060008114614407576040519150601f19603f3d011682016040523d82523d6000602084013e61440c565b606091505b509150915061441d87838387614428565b979650505050505050565b60608315614497578251600003614490576001600160a01b0385163b6144905760405162461bcd60e51b815260206004820152601d60248201527f416464726573733a2063616c6c20746f206e6f6e2d636f6e7472616374000000604482015260640161046b565b508161428b565b61428b83838151156144ac5781518083602001fd5b8060405162461bcd60e51b815260040161046b9190615d38565b6001600160401b038116811461427957600080fd5b80356144e6816144c6565b919050565b6001600160a01b038116811461427957600080fd5b80356144e6816144eb565b60008083601f84011261451d57600080fd5b5081356001600160401b0381111561453457600080fd5b6020830191508360206102408302850101111561412d57600080fd5b60006040828403121561456257600080fd5b50919050565b60008083601f84011261457a57600080fd5b5081356001600160401b0381111561459157600080fd5b6020830191508360208260051b850101111561412d57600080fd5b600080600080600080600080600060e08a8c0312156145ca57600080fd5b89356145d5816144c6565b985060208a01356145e5816144eb565b975060408a01356001600160401b038082111561460157600080fd5b61460d8d838e0161450b565b90995097508791506146228d60608e01614550565b965060a08c013591508082111561463857600080fd5b6146448d838e01614568565b909650945060c08c013591508082111561465d57600080fd5b5061466a8c828d01614568565b915080935050809150509295985092959850929598565b6001600160401b03169052565b600080604083850312156146a157600080fd5b82356146ac816144eb565b946020939093013593505050565b60008083601f8401126146cc57600080fd5b5081356001600160401b038111156146e357600080fd5b60208301915083602082850101111561412d57600080fd5b8060408101831015613a4057600080fd5b600080600080600080600080600060e08a8c03121561472a57600080fd5b6147338a614500565b985060208a01356001600160401b038082111561474f57600080fd5b61475b8d838e016146ba565b909a5098508891506147708d60408e016146fb565b975060808c013591508082111561478657600080fd5b6147928d838e01614550565b965060a08c01359150808211156147a857600080fd5b6147b48d838e01614568565b909650945060c08c01359150808211156147cd57600080fd5b5061466a8c828d016146ba565b6000602082840312156147ec57600080fd5b81356147f7816144c6565b9392505050565b6001600160a01b03169052565b6001600160a01b0391909116815260200190565b60008060008060006060868803121561483757600080fd5b8535614842816144c6565b945060208601356001600160401b038082111561485e57600080fd5b61486a89838a01614568565b9096509450604088013591508082111561488357600080fd5b5061489088828901614568565b969995985093965092949392505050565b6000602082840312156148b357600080fd5b81356147f7816144eb565b600080600080600060a086880312156148d657600080fd5b85356148e1816144c6565b94506020860135935060408601356148f8816144c6565b92506060860135614908816144eb565b949793965091946080013592915050565b60008060008060008060006080888a03121561493457600080fd5b873561493f816144c6565b965060208801356001600160401b038082111561495b57600080fd5b6149678b838c01614568565b909850965060408a013591508082111561498057600080fd5b61498c8b838c01614568565b909650945060608a01359150808211156149a557600080fd5b506149b28a828b01614568565b989b979a50959850939692959293505050565b6000806000806000806000806000806101008b8d0312156149e557600080fd5b8a356149f0816144c6565b995060208b0135614a00816144eb565b985060408b01356001600160401b0380821115614a1c57600080fd5b614a288e838f0161450b565b909a509850889150614a3d8e60608f01614550565b975060a08d0135915080821115614a5357600080fd5b614a5f8e838f01614568565b909750955060c08d0135915080821115614a7857600080fd5b50614a858d828e01614568565b9094509250614a98905060e08c01614500565b90509295989b9194979a5092959850565b600080600060408486031215614abe57600080fd5b8335614ac9816144c6565b925060208401356001600160401b03811115614ae457600080fd5b614af086828701614568565b9497909650939450505050565b60008060008060608587031215614b1357600080fd5b8435614b1e816144c6565b93506020850135925060408501356001600160401b03811115614b4057600080fd5b614b4c87828801614568565b95989497509550505050565b600080600080600080600060c0888a031215614b7357600080fd5b8735614b7e816144eb565b965060208801356001600160401b0380821115614b9a57600080fd5b614ba68b838c016146ba565b9098509650869150614bbb8b60408c016146fb565b955060808a0135915080821115614bd157600080fd5b614bdd8b838c01614550565b945060a08a0135915080821115614bf357600080fd5b506149b28a828b016146ba565b6020808252818101527f4f776e61626c653a2063616c6c6572206973206e6f7420746865206f776e6572604082015260600190565b60208082526003908201526214d41360ea1b604082015260600190565b634e487b7160e01b600052603260045260246000fd5b6001600160a01b0393841681526001600160401b03929092166020830152909116604082015260600190565b634e487b7160e01b600052601160045260246000fd5b81810381811115613a4057613a40614c94565b80820180821115613a4057613a40614c94565b81835260006001600160fb1b03831115614ce957600080fd5b8260051b80836020870137939093016020019392505050565b8183526000602080850194508260005b85811015614d54578135614d25816144eb565b6001600160a01b0316875281830135838801526040808301359088015260609687019690910190600101614d12565b509495945050505050565b6020815260008235601e1984360301808212614d7a57600080fd5b602091850191820191356001600160401b0380821115614d9957600080fd5b8160051b3603841315614dab57600080fd5b60406020870152614dc0606087018386614cd0565b935060208701359150828212614dd557600080fd5b908601602081019250359080821115614ded57600080fd5b50606081023603821315614e0057600080fd5b848303601f19016040860152614e17838284614d02565b9695505050505050565b60808152836080820152838560a0830137600060a08583010152600060a0601f19601f8701168301019050604084602084013782606083015295945050505050565b600060208284031215614e7557600080fd5b815180151581146147f757600080fd5b6020808252600290820152612b2360f11b604082015260600190565b6000808335601e19843603018112614eb857600080fd5b8301803591506001600160401b03821115614ed257600080fd5b6020019150600581901b360382131561412d57600080fd5b60c09290921b6001600160c01b0319168252600882015260280190565b6020808252600590820152642b2a18a72d60d91b604082015260600190565b634e487b7160e01b600052604160045260246000fd5b60405160e081016001600160401b0381118282101715614f5e57614f5e614f26565b60405290565b60405161024081016001600160401b0381118282101715614f5e57614f5e614f26565b604051601f8201601f191681016001600160401b0381118282101715614faf57614faf614f26565b604052919050565b60006001600160401b03821115614fd057614fd0614f26565b5060051b60200190565b60006020808385031215614fed57600080fd5b82356001600160401b0381111561500357600080fd5b8301601f8101851361501457600080fd5b803561502761502282614fb7565b614f87565b81815260059190911b8201830190838101908783111561504657600080fd5b928401925b8284101561441d5783358252928401929084019061504b565b60208152600061428b602083018486614cd0565b6020808252825182820181905260009190848201906040850190845b818110156150b057835183529284019291840191600101615094565b50909695505050505050565b60208082526006908201526526a4a72a27a360d11b604082015260600190565b60208082526006908201526526a0ac2a27a360d11b604082015260600190565b602080825260029082015261111560f21b604082015260600190565b8154815260018201546101808201906001600160401b0361513e60208501828416614681565b6001600160a01b0361515960408681019085901c83166147fe565b6002860154925061516f606086018285166147fe565b5061518260808501828460a01c16614681565b600385015460a0850152600485015460c0850152600585015491506151ac60e08501828416614681565b6151bf6101008501828460401c16614681565b6151d26101208501828460801c16614681565b506151e461014084018260c01c614681565b50600683015461016083015292915050565b60006020828403121561520857600080fd5b81516147f7816144eb565b6001600160401b0391909116815260200190565b80516144e6816144c6565b80516001600160c01b03811681146144e657600080fd5b600082601f83011261525a57600080fd5b8151602061526a61502283614fb7565b82815260059290921b8401810191818101908684111561528957600080fd5b8286015b848110156152ad5780516152a0816144eb565b835291830191830161528d565b509695505050505050565b6000602082840312156152ca57600080fd5b81516001600160401b03808211156152e157600080fd5b9083019060e082860312156152f557600080fd5b6152fd614f3c565b61530683615227565b815261531460208401615232565b602082015261532560408401615227565b604082015261533660608401615227565b606082015261534760808401615227565b608082015261535860a08401615227565b60a082015260c08301518281111561536f57600080fd5b61537b87828601615249565b60c08301525095945050505050565b602080825260029082015261434960f01b604082015260600190565b6000600182016153b8576153b8614c94565b5060010190565b602080825260029082015261454960f01b604082015260600190565b60008160005b848110156154125781356153f4816144eb565b6001600160a01b0316865260209586019591909101906001016153e1565b5093949350505050565b600061543361542c83898b6153db565b86886153db565b8460005b8581101561546857813561544a816144c6565b6001600160401b031683526020928301929190910190600101615437565b50909998505050505050505050565b8183526000602080850194508260005b85811015614d5457813561549a816144eb565b6001600160a01b031687529582019590820190600101615487565b878152600060206080818401526154d060808401898b615477565b83810360408501526154e381888a615477565b8481036060860152858152869150820160005b86811015615524578235615509816144c6565b6001600160401b0316825291830191908301906001016154f6565b509b9a5050505050505050505050565b6001600160c01b0381811683821601908082111561555457615554614c94565b5092915050565b6000808335601e1984360301811261557257600080fd5b8301803591506001600160401b0382111561558c57600080fd5b60200191503681900382131561412d57600080fd5b6001600160401b0381811683821601908082111561555457615554614c94565b600082601f8301126155d257600080fd5b813560206155e261502283614fb7565b82815260059290921b8401810191818101908684111561560157600080fd5b8286015b848110156152ad578035615618816144eb565b8352918301918301615605565b803560ff811681146144e657600080fd5b80356001600160801b03811681146144e657600080fd5b803561ffff811681146144e657600080fd5b63ffffffff8116811461427957600080fd5b80356144e68161565f565b6000610240828403121561568f57600080fd5b615697614f64565b90506156a2826144db565b81526156b0602083016144db565b60208201526156c160408301615625565b60408201526156d260608301615625565b60608201526080820135608082015260a082013560a08201526156f760c08301615636565b60c082015261570860e08301615636565b60e082015261010061571b818401615636565b9082015261012061572d838201615636565b9082015261014061573f838201615636565b90820152610160615751838201615636565b9082015261018061576383820161564d565b908201526101a061577583820161564d565b908201526101c0615787838201615671565b908201526101e0615799838201615671565b908201526102006157ab838201615671565b908201526102206157bd838201615671565b9082015292915050565b60008060008060006102c086880312156157e057600080fd5b85356001600160401b03808211156157f757600080fd5b61580389838a016155c1565b965060209150818801358181111561581a57600080fd5b6158268a828b016155c1565b96505060408801358181111561583b57600080fd5b88019050601f8101891361584e57600080fd5b803561585c61502282614fb7565b81815260059190911b8201830190838101908b83111561587b57600080fd5b928401925b828410156158a2578335615893816144c6565b82529284019290840190615880565b80975050505050506158b660608701614500565b91506158c5876080880161567c565b90509295509295909350565b6000808335601e198436030181126158e857600080fd5b8301803591506001600160401b0382111561590257600080fd5b602001915060608102360382131561412d57600080fd5b8082028115828204841417613a4057613a40614c94565b60008261594d57634e487b7160e01b600052601260045260246000fd5b500490565b60008151602080840160005b83811015614d545781516001600160a01b03168752958201959082019060010161595e565b60006159986159928387615952565b85615952565b8351602080860160005b838110156159c75781516001600160401b0316855293820193908201906001016159a2565b509298975050505050505050565b6000606082840312156159e757600080fd5b604051606081016001600160401b0381118282101715615a0957615a09614f26565b80604052508251815260208301516020820152604083015160408201528091505092915050565b6001600160801b03169052565b600061024082019050615a51828451614681565b6020830151615a636020840182614681565b506040830151615a78604084018260ff169052565b506060830151615a8d606084018260ff169052565b506080830151608083015260a083015160a083015260c0830151615ab460c0840182615a30565b5060e0830151615ac760e0840182615a30565b5061010080840151615adb82850182615a30565b505061012080840151615af082850182615a30565b505061014080840151615b0582850182615a30565b505061016080840151615b1a82850182615a30565b50506101808381015161ffff908116918401919091526101a080850151909116908301526101c08084015163ffffffff908116918401919091526101e080850151821690840152610200808501518216908401526102209384015116929091019190915290565b600061018082019050838252615b9b602083018451614681565b6020830151615bad6040840182614681565b50604083015160ff811660608401525060608301516080830152608083015160a083015260a0830151615be360c0840182615a30565b5060c0830151615bf660e0840182615a30565b5060e0830151610100615c0b81850183615a30565b8401519050610120615c228482018361ffff169052565b8401519050610140615c3b8482018363ffffffff169052565b84015163ffffffff81166101608501529050509392505050565b60005b83811015615c70578181015183820152602001615c58565b50506000910152565b600060208284031215615c8b57600080fd5b81516001600160401b0380821115615ca257600080fd5b818401915084601f830112615cb657600080fd5b815181811115615cc857615cc8614f26565b615cdb601f8201601f1916602001614f87565b9150808252856020828501011115615cf257600080fd5b615d03816020840160208601615c55565b50949350505050565b60008151808452615d24816020860160208601615c55565b601f01601f19169290920160200192915050565b6020815260006147f76020830184615d0c565b600060208284031215615d5d57600080fd5b5051919050565b6101008101818360005b6008811015615d8d578151835260209283019290910190600101615d6e565b50505092915050565b600060208284031215615da857600080fd5b81356147f78161565f565b81358155600181016020830135615dc98161565f565b815463ffffffff191663ffffffff919091161790555050565b6001600160a01b038316815281356020808301919091526060820190830135615e0a8161565f565b63ffffffff81166040840152509392505050565b634e487b7160e01b600052602160045260246000fd5b60008251615e46818460208701615c55565b919091019291505056fe288ce6ecb50116617911fc83710df7a6e0a8fef4b376d213c8085da345ce9efaa164736f6c6343000811000a",
  "linkReferences": {},
  "deployedLinkReferences": {}
}