{
  "_format": "hh-sol-artifact-1",
  "contractName": "ORMakerDeposit",
  "sourceName": "contracts/ORMakerDeposit.sol",
  "abi": [
    {
      "anonymous": false,
      "inputs": [
        {
          "indexed": true,
          "internalType": "bytes32",
          "name": "challengeId",
          "type": "bytes32"
        },
        {
          "components": [
            {
              "internalType": "uint256",
              "name": "sourceTxFrom",
              "type": "uint256"
            },
            {
              "internalType": "uint64",
              "name": "sourceTxTime",
              "type": "uint64"
            },
            {
              "internalType": "address",
              "name": "challenger",
              "type": "address"
            },
            {
              "internalType": "address",
              "name": "freezeToken",
              "type": "address"
            },
            {
              "internalType": "uint64",
              "name": "challengeUserRatio",
              "type": "uint64"
            },
            {
              "internalType": "uint256",
              "name": "freezeAmount0",
              "type": "uint256"
            },
            {
              "internalType": "uint256",
              "name": "freezeAmount1",
              "type": "uint256"
            },
            {
              "internalType": "uint64",
              "name": "challengeTime",
              "type": "uint64"
            },
            {
              "internalType": "uint64",
              "name": "abortTime",
              "type": "uint64"
            },
            {
              "internalType": "uint64",
              "name": "verifiedTime0",
              "type": "uint64"
            },
            {
              "internalType": "uint64",
              "name": "verifiedTime1",
              "type": "uint64"
            },
            {
              "internalType": "bytes32",
              "name": "verifiedDataHash0",
              "type": "bytes32"
            }
          ],
          "indexed": false,
          "internalType": "struct IORMakerDeposit.ChallengeInfo",
          "name": "challengeInfo",
          "type": "tuple"
        }
      ],
      "name": "ChallengeInfoUpdated",
      "type": "event"
    },
    {
      "anonymous": false,
      "inputs": [
        {
          "indexed": true,
          "internalType": "address",
          "name": "impl",
          "type": "address"
        },
        {
          "indexed": false,
          "internalType": "bytes32",
          "name": "columnArrayHash",
          "type": "bytes32"
        },
        {
          "indexed": false,
          "internalType": "address[]",
          "name": "dealers",
          "type": "address[]"
        },
        {
          "indexed": false,
          "internalType": "address[]",
          "name": "ebcs",
          "type": "address[]"
        },
        {
          "indexed": false,
          "internalType": "uint64[]",
          "name": "chainIds",
          "type": "uint64[]"
        }
      ],
      "name": "ColumnArrayUpdated",
      "type": "event"
    },
    {
      "anonymous": false,
      "inputs": [
        {
          "indexed": true,
          "internalType": "address",
          "name": "impl",
          "type": "address"
        },
        {
          "indexed": false,
          "internalType": "uint256[]",
          "name": "responseMakers",
          "type": "uint256[]"
        }
      ],
      "name": "ResponseMakersUpdated",
      "type": "event"
    },
    {
      "anonymous": false,
      "inputs": [
        {
          "indexed": true,
          "internalType": "address",
          "name": "impl",
          "type": "address"
        },
        {
          "indexed": false,
          "internalType": "address",
          "name": "ebc",
          "type": "address"
        },
        {
          "components": [
            {
              "internalType": "bytes32",
              "name": "root",
              "type": "bytes32"
            },
            {
              "internalType": "uint32",
              "name": "version",
              "type": "uint32"
            }
          ],
          "indexed": false,
          "internalType": "struct RuleLib.RootWithVersion",
          "name": "rootWithVersion",
          "type": "tuple"
        }
      ],
      "name": "RulesRootUpdated",
      "type": "event"
    },
    {
      "anonymous": false,
      "inputs": [
        {
          "indexed": true,
          "internalType": "address",
          "name": "impl",
          "type": "address"
        },
        {
          "indexed": false,
          "internalType": "uint64",
          "name": "chainId",
          "type": "uint64"
        },
        {
          "indexed": false,
          "internalType": "address",
          "name": "spv",
          "type": "address"
        }
      ],
      "name": "SpvUpdated",
      "type": "event"
    },
    {
      "inputs": [
        {
          "internalType": "uint64",
          "name": "sourceChainId",
          "type": "uint64"
        },
        {
          "internalType": "bytes32",
          "name": "sourceTxHash",
          "type": "bytes32"
        },
        {
          "internalType": "uint64",
          "name": "sourceTxTime",
          "type": "uint64"
        },
        {
          "internalType": "address",
          "name": "freezeToken",
          "type": "address"
        },
        {
          "internalType": "uint256",
          "name": "freezeAmount1",
          "type": "uint256"
        }
      ],
      "name": "challenge",
      "outputs": [],
      "stateMutability": "payable",
      "type": "function"
    },
    {
      "inputs": [
        {
          "internalType": "uint64",
          "name": "sourceChainId",
          "type": "uint64"
        },
        {
          "internalType": "bytes32",
          "name": "sourceTxHash",
          "type": "bytes32"
        },
        {
          "internalType": "uint256[]",
          "name": "verifiedData0",
          "type": "uint256[]"
        }
      ],
      "name": "checkChallenge",
      "outputs": [],
      "stateMutability": "nonpayable",
      "type": "function"
    },
    {
      "inputs": [],
      "name": "columnArrayHash",
      "outputs": [
        {
          "internalType": "bytes32",
          "name": "",
          "type": "bytes32"
        }
      ],
      "stateMutability": "view",
      "type": "function"
    },
    {
      "inputs": [
        {
          "internalType": "address",
          "name": "token",
          "type": "address"
        },
        {
          "internalType": "uint256",
          "name": "amount",
          "type": "uint256"
        }
      ],
      "name": "deposit",
      "outputs": [],
      "stateMutability": "payable",
      "type": "function"
    },
    {
      "inputs": [
        {
          "internalType": "address",
          "name": "token",
          "type": "address"
        }
      ],
      "name": "freezeAssets",
      "outputs": [
        {
          "internalType": "uint256",
          "name": "",
          "type": "uint256"
        }
      ],
      "stateMutability": "view",
      "type": "function"
    },
    {
      "inputs": [
        {
          "internalType": "address",
          "name": "owner_",
          "type": "address"
        }
      ],
      "name": "initialize",
      "outputs": [],
      "stateMutability": "nonpayable",
      "type": "function"
    },
    {
      "inputs": [],
      "name": "mdcFactory",
      "outputs": [
        {
          "internalType": "address",
          "name": "",
          "type": "address"
        }
      ],
      "stateMutability": "view",
      "type": "function"
    },
    {
      "inputs": [],
      "name": "owner",
      "outputs": [
        {
          "internalType": "address",
          "name": "",
          "type": "address"
        }
      ],
      "stateMutability": "view",
      "type": "function"
    },
    {
      "inputs": [],
      "name": "responseMakersHash",
      "outputs": [
        {
          "internalType": "bytes32",
          "name": "",
          "type": "bytes32"
        }
      ],
      "stateMutability": "view",
      "type": "function"
    },
    {
      "inputs": [
        {
          "internalType": "address",
          "name": "ebc",
          "type": "address"
        }
      ],
      "name": "rulesRoot",
      "outputs": [
        {
          "components": [
            {
              "internalType": "bytes32",
              "name": "root",
              "type": "bytes32"
            },
            {
              "internalType": "uint32",
              "name": "version",
              "type": "uint32"
            }
          ],
          "internalType": "struct RuleLib.RootWithVersion",
          "name": "",
          "type": "tuple"
        }
      ],
      "stateMutability": "view",
      "type": "function"
    },
    {
      "inputs": [
        {
          "internalType": "uint64",
          "name": "chainId",
          "type": "uint64"
        }
      ],
      "name": "spv",
      "outputs": [
        {
          "internalType": "address",
          "name": "",
          "type": "address"
        }
      ],
      "stateMutability": "view",
      "type": "function"
    },
    {
      "inputs": [],
      "name": "storageVersion",
      "outputs": [
        {
          "internalType": "uint256",
          "name": "",
          "type": "uint256"
        }
      ],
      "stateMutability": "view",
      "type": "function"
    },
    {
      "inputs": [
        {
          "internalType": "address[]",
          "name": "dealers",
          "type": "address[]"
        },
        {
          "internalType": "address[]",
          "name": "ebcs",
          "type": "address[]"
        },
        {
          "internalType": "uint64[]",
          "name": "chainIds",
          "type": "uint64[]"
        }
      ],
      "name": "updateColumnArray",
      "outputs": [],
      "stateMutability": "nonpayable",
      "type": "function"
    },
    {
      "inputs": [
        {
          "internalType": "bytes[]",
          "name": "responseMakerSignatures",
          "type": "bytes[]"
        }
      ],
      "name": "updateResponseMakers",
      "outputs": [],
      "stateMutability": "nonpayable",
      "type": "function"
    },
    {
      "inputs": [
        {
          "internalType": "address",
          "name": "ebc",
          "type": "address"
        },
        {
          "components": [
            {
              "internalType": "uint64",
              "name": "chainId0",
              "type": "uint64"
            },
            {
              "internalType": "uint64",
              "name": "chainId1",
              "type": "uint64"
            },
            {
              "internalType": "uint8",
              "name": "status0",
              "type": "uint8"
            },
            {
              "internalType": "uint8",
              "name": "status1",
              "type": "uint8"
            },
            {
              "internalType": "uint256",
              "name": "token0",
              "type": "uint256"
            },
            {
              "internalType": "uint256",
              "name": "token1",
              "type": "uint256"
            },
            {
              "internalType": "uint128",
              "name": "minPrice0",
              "type": "uint128"
            },
            {
              "internalType": "uint128",
              "name": "minPrice1",
              "type": "uint128"
            },
            {
              "internalType": "uint128",
              "name": "maxPrice0",
              "type": "uint128"
            },
            {
              "internalType": "uint128",
              "name": "maxPrice1",
              "type": "uint128"
            },
            {
              "internalType": "uint128",
              "name": "withholdingFee0",
              "type": "uint128"
            },
            {
              "internalType": "uint128",
              "name": "withholdingFee1",
              "type": "uint128"
            },
            {
              "internalType": "uint16",
              "name": "tradingFee0",
              "type": "uint16"
            },
            {
              "internalType": "uint16",
              "name": "tradingFee1",
              "type": "uint16"
            },
            {
              "internalType": "uint32",
              "name": "responseTime0",
              "type": "uint32"
            },
            {
              "internalType": "uint32",
              "name": "responseTime1",
              "type": "uint32"
            },
            {
              "internalType": "uint32",
              "name": "compensationRatio0",
              "type": "uint32"
            },
            {
              "internalType": "uint32",
              "name": "compensationRatio1",
              "type": "uint32"
            },
            {
              "internalType": "uint64",
              "name": "enableTimestamp",
              "type": "uint64"
            }
          ],
          "internalType": "struct RuleLib.Rule[]",
          "name": "rules",
          "type": "tuple[]"
        },
        {
          "components": [
            {
              "internalType": "bytes32",
              "name": "root",
              "type": "bytes32"
            },
            {
              "internalType": "uint32",
              "name": "version",
              "type": "uint32"
            }
          ],
          "internalType": "struct RuleLib.RootWithVersion",
          "name": "rootWithVersion",
          "type": "tuple"
        },
        {
          "internalType": "uint64[]",
          "name": "sourceChainIds",
          "type": "uint64[]"
        },
        {
          "internalType": "uint256[]",
          "name": "pledgeAmounts",
          "type": "uint256[]"
        }
      ],
      "name": "updateRulesRoot",
      "outputs": [],
      "stateMutability": "payable",
      "type": "function"
    },
    {
      "inputs": [
        {
          "internalType": "address",
          "name": "ebc",
          "type": "address"
        },
        {
          "components": [
            {
              "internalType": "uint64",
              "name": "chainId0",
              "type": "uint64"
            },
            {
              "internalType": "uint64",
              "name": "chainId1",
              "type": "uint64"
            },
            {
              "internalType": "uint8",
              "name": "status0",
              "type": "uint8"
            },
            {
              "internalType": "uint8",
              "name": "status1",
              "type": "uint8"
            },
            {
              "internalType": "uint256",
              "name": "token0",
              "type": "uint256"
            },
            {
              "internalType": "uint256",
              "name": "token1",
              "type": "uint256"
            },
            {
              "internalType": "uint128",
              "name": "minPrice0",
              "type": "uint128"
            },
            {
              "internalType": "uint128",
              "name": "minPrice1",
              "type": "uint128"
            },
            {
              "internalType": "uint128",
              "name": "maxPrice0",
              "type": "uint128"
            },
            {
              "internalType": "uint128",
              "name": "maxPrice1",
              "type": "uint128"
            },
            {
              "internalType": "uint128",
              "name": "withholdingFee0",
              "type": "uint128"
            },
            {
              "internalType": "uint128",
              "name": "withholdingFee1",
              "type": "uint128"
            },
            {
              "internalType": "uint16",
              "name": "tradingFee0",
              "type": "uint16"
            },
            {
              "internalType": "uint16",
              "name": "tradingFee1",
              "type": "uint16"
            },
            {
              "internalType": "uint32",
              "name": "responseTime0",
              "type": "uint32"
            },
            {
              "internalType": "uint32",
              "name": "responseTime1",
              "type": "uint32"
            },
            {
              "internalType": "uint32",
              "name": "compensationRatio0",
              "type": "uint32"
            },
            {
              "internalType": "uint32",
              "name": "compensationRatio1",
              "type": "uint32"
            },
            {
              "internalType": "uint64",
              "name": "enableTimestamp",
              "type": "uint64"
            }
          ],
          "internalType": "struct RuleLib.Rule[]",
          "name": "rules",
          "type": "tuple[]"
        },
        {
          "components": [
            {
              "internalType": "bytes32",
              "name": "root",
              "type": "bytes32"
            },
            {
              "internalType": "uint32",
              "name": "version",
              "type": "uint32"
            }
          ],
          "internalType": "struct RuleLib.RootWithVersion",
          "name": "rootWithVersion",
          "type": "tuple"
        },
        {
          "internalType": "uint64[]",
          "name": "sourceChainIds",
          "type": "uint64[]"
        },
        {
          "internalType": "uint256[]",
          "name": "pledgeAmounts",
          "type": "uint256[]"
        },
        {
          "internalType": "address",
          "name": "token",
          "type": "address"
        }
      ],
      "name": "updateRulesRootERC20",
      "outputs": [],
      "stateMutability": "nonpayable",
      "type": "function"
    },
    {
      "inputs": [
        {
          "internalType": "address[]",
          "name": "spvs",
          "type": "address[]"
        },
        {
          "internalType": "uint64[]",
          "name": "chainIds",
          "type": "uint64[]"
        }
      ],
      "name": "updateSpvs",
      "outputs": [],
      "stateMutability": "nonpayable",
      "type": "function"
    },
    {
      "inputs": [
        {
          "internalType": "address",
          "name": "spvAddress",
          "type": "address"
        },
        {
          "internalType": "bytes",
          "name": "proof",
          "type": "bytes"
        },
        {
          "internalType": "bytes32[2]",
          "name": "spvBlockHashs",
          "type": "bytes32[2]"
        },
        {
          "components": [
            {
              "internalType": "uint256[]",
              "name": "data",
              "type": "uint256[]"
            },
            {
              "components": [
                {
                  "internalType": "address",
                  "name": "account",
                  "type": "address"
                },
                {
                  "internalType": "bytes32",
                  "name": "key",
                  "type": "bytes32"
                },
                {
                  "internalType": "uint256",
                  "name": "value",
                  "type": "uint256"
                }
              ],
              "internalType": "struct IORChallengeSpv.VerifyInfoSlot[]",
              "name": "slots",
              "type": "tuple[]"
            }
          ],
          "internalType": "struct IORChallengeSpv.VerifyInfo",
          "name": "verifyInfo",
          "type": "tuple"
        },
        {
          "internalType": "uint256[]",
          "name": "verifiedData0",
          "type": "uint256[]"
        },
        {
          "internalType": "bytes",
          "name": "rawDatas",
          "type": "bytes"
        }
      ],
      "name": "verifyChallengeDest",
      "outputs": [],
      "stateMutability": "nonpayable",
      "type": "function"
    },
    {
      "inputs": [
        {
          "internalType": "address",
          "name": "spvAddress",
          "type": "address"
        },
        {
          "internalType": "bytes",
          "name": "proof",
          "type": "bytes"
        },
        {
          "internalType": "bytes32[2]",
          "name": "spvBlockHashs",
          "type": "bytes32[2]"
        },
        {
          "components": [
            {
              "internalType": "uint256[]",
              "name": "data",
              "type": "uint256[]"
            },
            {
              "components": [
                {
                  "internalType": "address",
                  "name": "account",
                  "type": "address"
                },
                {
                  "internalType": "bytes32",
                  "name": "key",
                  "type": "bytes32"
                },
                {
                  "internalType": "uint256",
                  "name": "value",
                  "type": "uint256"
                }
              ],
              "internalType": "struct IORChallengeSpv.VerifyInfoSlot[]",
              "name": "slots",
              "type": "tuple[]"
            }
          ],
          "internalType": "struct IORChallengeSpv.VerifyInfo",
          "name": "verifyInfo",
          "type": "tuple"
        },
        {
          "internalType": "bytes",
          "name": "rawDatas",
          "type": "bytes"
        }
      ],
      "name": "verifyChallengeSource",
      "outputs": [],
      "stateMutability": "nonpayable",
      "type": "function"
    },
    {
      "inputs": [
        {
          "internalType": "address",
          "name": "token",
          "type": "address"
        },
        {
          "internalType": "uint256",
          "name": "amount",
          "type": "uint256"
        }
      ],
      "name": "withdraw",
      "outputs": [],
      "stateMutability": "nonpayable",
      "type": "function"
    },
    {
      "stateMutability": "payable",
      "type": "receive"
    }
  ],
  "bytecode": "0x608060405234801561001057600080fd5b50615f6f80620000216000396000f3fe6080604052600436106100f35760003560e01c806302f17ed3146100ff578063403ebd031461012357806345dad9c31461013857806347e7ef241461015a578063495b18361461016d57806349c4bb761461018d5780634b4c85c4146101d95780634c20cb24146101ee5780635bcb40371461020c57806363833fdb14610242578063671ecbfe1461025557806367235583146102de5780638adac2c5146102fe5780638da5cb5b146103115780638dc9ff051461032f578063bc0136ad1461034f578063c4d66de81461036f578063c75c16cf1461038f578063cbfed2d6146103af578063f3fef3a3146103cf57600080fd5b366100fa57005b600080fd5b34801561010b57600080fd5b506003545b6040519081526020015b60405180910390f35b34801561012f57600080fd5b50600054610110565b34801561014457600080fd5b506101586101533660046146c7565b6103ef565b005b610158610168366004614785565b6107ca565b34801561017957600080fd5b5061015861018836600461481b565b6107f2565b34801561019957600080fd5b506101cc6101a8366004614920565b6001600160401b03166000908152600460205260409020546001600160a01b031690565b60405161011a9190614951565b3480156101e557600080fd5b50600554610110565b3480156101fa57600080fd5b506002546001600160a01b03166101cc565b34801561021857600080fd5b50610110610227366004614965565b6001600160a01b031660009081526008602052604090205490565b6101586102503660046149c7565b610e99565b34801561026157600080fd5b506102bd610270366004614965565b6040805180820190915260008082526020820152506001600160a01b03166000908152600660209081526040918290208251808401909352805483526001015463ffffffff169082015290565b604080518251815260209283015163ffffffff16928101929092520161011a565b3480156102ea57600080fd5b506101586102f9366004614a87565b61104f565b61015861030c366004614ac8565b61128b565b34801561031d57600080fd5b506001546001600160a01b03166101cc565b34801561033b57600080fd5b5061015861034a366004614b23565b61167d565b34801561035b57600080fd5b5061015861036a366004614b8e565b611a19565b34801561037b57600080fd5b5061015861038a366004614965565b611e65565b34801561039b57600080fd5b506101586103aa366004614bdd565b611f0d565b3480156103bb57600080fd5b506101586103ca366004614c98565b6136aa565b3480156103db57600080fd5b506101586103ea366004614785565b613806565b6001546001600160a01b031633146104225760405162461bcd60e51b815260040161041990614d6b565b60405180910390fd5b600a85106104585760405162461bcd60e51b81526020600482015260036024820152622227a360e91b6044820152606401610419565b600a831061048e5760405162461bcd60e51b815260206004820152600360248201526222a7a360e91b6044820152606401610419565b606481106104ae5760405162461bcd60e51b815260040161041990614da0565b6002546040805163481c6a7560e01b815290516000926001600160a01b03169163481c6a759160048083019260209291908290030181865afa1580156104f8573d6000803e3d6000fd5b505050506040513d601f19601f8201168201806040525081019061051c9190614dbd565b905060005b848110156105e057816001600160a01b031663bb6f93bc87878481811061054a5761054a614dda565b905060200201602081019061055f9190614965565b6040518263ffffffff1660e01b815260040161057b9190614951565b602060405180830381865afa158015610598573d6000803e3d6000fd5b505050506040513d601f19601f820116820180604052508101906105bc9190614df0565b6105d85760405162461bcd60e51b815260040161041990614e12565b600101610521565b5060005b828110156106b8576000826001600160a01b031663b288706d86868581811061060f5761060f614dda565b90506020020160208101906106249190614920565b6040518263ffffffff1660e01b81526004016106409190614e3b565b600060405180830381865afa15801561065d573d6000803e3d6000fd5b505050506040513d6000823e601f3d908101601f191682016040526106859190810190614f99565b80519091506001600160401b03166106af5760405162461bcd60e51b81526004016104199061506b565b506001016105e4565b508686868686866040516020016106d4969594939291906150c8565b60408051601f198184030181528282528051602091820120600355600254635c60da1b60e01b845291516000936001600160a01b0390931692635c60da1b9260048083019391928290030181865afa158015610734573d6000803e3d6000fd5b505050506040513d601f19601f820116820180604052508101906107589190614dbd565b9050806001600160a01b03167f3cb86960d27f10c36827a013566ea74ce60fe0402128cb82d020889177c124296003548a8a8a8a8a8a6040516107a1979695949392919061516c565b60405180910390a2505060016000808282546107bd9190615201565b9091555050505050505050565b6001600160a01b038216156107ee576107ee6001600160a01b038316333084613a08565b5050565b886001600160a01b03166390c80a55898989896040516020016108159190615298565b604051602081830303815290604052805190602001206040518563ffffffff1660e01b815260040161084a949392919061535a565b602060405180830381865afa158015610867573d6000803e3d6000fd5b505050506040513d601f19601f8201168201806040525081019061088b9190614df0565b6108a75760405162461bcd60e51b81526004016104199061539c565b60006108b386806153b8565b60008181106108c4576108c4614dda565b602002919091013590506108d887806153b8565b60018181106108e9576108e9614dda565b90506020020135604051602001610901929190615401565b60408051808303601f19018152918152815160209283012060008181526009909352912060050154909150600160801b90046001600160401b03166109715760405162461bcd60e51b8152600401610419906020808252600490820152632b2a182d60e11b604082015260600190565b600081815260096020526040902060050154600160c01b90046001600160401b0316156109b05760405162461bcd60e51b81526004016104199061541e565b60006109be8385018561543d565b9050600960008381526020019081526020016000206006015486866040516020016109ea9291906154c2565b6040516020818303038152906040528051906020012014610a365760405162461bcd60e51b8152600401610419906020808252600490820152630564448360e41b604082015260600190565b85856007818110610a4957610a49614dda565b9050602002013560001b81604051602001610a649190615506565b6040516020818303038152906040528051906020012014610aad5760405162461bcd60e51b81526020600482015260036024820152620a49a960eb1b6044820152606401610419565b600082815260096020526040812060010154610ad2906001600160401b031642615519565b905086866000818110610ae757610ae7614dda565b90506020020135811015610b0d5760405162461bcd60e51b81526004016104199061552c565b86866001818110610b2057610b20614dda565b90506020020135811115610b465760405162461bcd60e51b81526004016104199061554c565b5085856003818110610b5a57610b5a614dda565b60200291909101359050610b6e88806153b8565b6000818110610b7f57610b7f614dda565b9050602002013514610bbc5760405162461bcd60e51b8152600401610419906020808252600490820152631110d25160e21b604082015260600190565b610bf0610bc988806153b8565b6002818110610bda57610bda614dda565b9050602002013582613a7990919063ffffffff16565b610c225760405162461bcd60e51b81526020600482015260036024820152624d494360e81b6044820152606401610419565b610c2c87806153b8565b6003818110610c3d57610c3d614dda565b9050602002013586866004818110610c5757610c57614dda565b9050602002013514610c935760405162461bcd60e51b81526020600482015260056024820152642220a2222960d91b6044820152606401610419565b610c9d87806153b8565b6004818110610cae57610cae614dda565b9050602002013586866005818110610cc857610cc8614dda565b9050602002013514610cec5760405162461bcd60e51b81526004016104199061556c565b610cf687806153b8565b6005818110610d0757610d07614dda565b9050602002013586866002818110610d2157610d21614dda565b9050602002013587876006818110610d3b57610d3b614dda565b90506020020135610d4c9190615519565b14610d695760405162461bcd60e51b81526004016104199061556c565b6000828152600960209081526040918290208251610180810184528154815260018201546001600160401b03808216948301949094526001600160a01b03600160401b9182900481169583019590955260028301549485166060830152600160a01b90940483166080820152600382015460a0820152600482015460c0820152600582015480841660e08301529384048316610100820152600160801b84048316610120820152600160c01b90930490911661014083015260060154610160820152610e3490613ac4565b600082815260096020526040908190206005810180546001600160c01b0316600160c01b426001600160401b03160217905590518391600080516020615f4383398151915291610e849190615588565b60405180910390a25050505050505050505050565b6001546001600160a01b03163314610ec35760405162461bcd60e51b815260040161041990614d6b565b610ecf88888888613b0c565b828114610eee5760405162461bcd60e51b815260040161041990615666565b6000805b84811015610ff75760008a878784818110610f0f57610f0f614dda565b9050602002016020810190610f249190614920565b6000604051602001610f3893929190615683565b60408051601f19818403018152918152815160209283012060008181526007909352912054909150858584818110610f7257610f72614dda565b905060200201351115610fc157600081815260076020526040812054868685818110610fa057610fa0614dda565b90506020020135610fb19190615519565b9050610fbd8185615201565b9350505b848483818110610fd357610fd3614dda565b60009384526007602090815260409094209302919091013590915550600101610ef2565b503481111561102d5760405162461bcd60e51b815260206004820152600260248201526124ab60f11b6044820152606401610419565b5060016000808282546110409190615201565b90915550505050505050505050565b6001546001600160a01b031633146110795760405162461bcd60e51b815260040161041990614d6b565b60003060405160200161108c9190614951565b60408051601f19818403018152919052805160209091012090506000826001600160401b038111156110c0576110c0614e4f565b6040519080825280602002602001820160405280156110e9578160200160208202803683370190505b50905060005b8381101561119c5761116485858381811061110c5761110c614dda565b905060200281019061111e91906156af565b8080601f01602080910402602001604051908101604052809392919081815260200183838082843760009201919091525061115e9250879150613eb69050565b90613ee8565b6001600160a01b031682828151811061117f5761117f614dda565b602090810291909101015280611194816156f5565b9150506110ef565b50806040516020016111ae9190615506565b60408051601f198184030181528282528051602091820120600555600254635c60da1b60e01b845291516001600160a01b0390921692635c60da1b92600480830193928290030181865afa15801561120a573d6000803e3d6000fd5b505050506040513d601f19601f8201168201806040525081019061122e9190614dbd565b6001600160a01b03167f0b91b68f980e47803e7858fa5a270c37d18f436399f86db162b14fbd0f376d54826040516112669190615506565b60405180910390a2505060016000808282546112829190615201565b90915550505050565b600085856040516020016112a0929190615401565b60408051601f198184030181529181528151602092830120600081815260099093529120600501549091506001600160401b0316156113065760405162461bcd60e51b8152602060048201526002602482015261434560f01b6044820152606401610419565b836001600160401b0316426001600160401b031610156113515760405162461bcd60e51b81526004016104199060208082526004908201526329aa27a360e11b604082015260600190565b6001600160a01b038316611398573482146113935760405162461bcd60e51b815260206004820152600260248201526124a360f11b6044820152606401610419565b6113ad565b6113ad6001600160a01b038416333085613a08565b816113b88180615201565b6001600160a01b038516600090815260086020526040812080549091906113e0908490615201565b92505081905550604051806101800160405280866001600160401b0316815260200160006001600160401b03168152602001336001600160a01b03168152602001856001600160a01b0316815260200160006001600160401b03168152602001828152602001848152602001426001600160401b0316815260200160006001600160401b0316815260200160006001600160401b0316815260200160006001600160401b031681526020016000801b815250600960008481526020019081526020016000206000820151816000015560208201518160010160006101000a8154816001600160401b0302191690836001600160401b0316021790555060408201518160010160086101000a8154816001600160a01b0302191690836001600160a01b0316021790555060608201518160020160006101000a8154816001600160a01b0302191690836001600160a01b0316021790555060808201518160020160146101000a8154816001600160401b0302191690836001600160401b0316021790555060a0820151816003015560c0820151816004015560e08201518160050160006101000a8154816001600160401b0302191690836001600160401b031602179055506101008201518160050160086101000a8154816001600160401b0302191690836001600160401b031602179055506101208201518160050160106101000a8154816001600160401b0302191690836001600160401b031602179055506101408201518160050160186101000a8154816001600160401b0302191690836001600160401b03160217905550610160820151816006015590505081600080516020615f438339815191526009600085815260200190815260200160002060405161166c9190615588565b60405180910390a250505050505050565b6001546001600160a01b031633146116a75760405162461bcd60e51b815260040161041990614d6b565b6002546040805163481c6a7560e01b815290516000926001600160a01b03169163481c6a759160048083019260209291908290030181865afa1580156116f1573d6000803e3d6000fd5b505050506040513d601f19601f820116820180604052508101906117159190614dbd565b90506000600260009054906101000a90046001600160a01b03166001600160a01b0316635c60da1b6040518163ffffffff1660e01b8152600401602060405180830381865afa15801561176c573d6000803e3d6000fd5b505050506040513d601f19601f820116820180604052508101906117909190614dbd565b905060005b838110156119f9576000836001600160a01b031663b288706d8787858181106117c0576117c0614dda565b90506020020160208101906117d59190614920565b6040518263ffffffff1660e01b81526004016117f19190614e3b565b600060405180830381865afa15801561180e573d6000803e3d6000fd5b505050506040513d6000823e601f3d908101601f191682016040526118369190810190614f99565b80519091506001600160401b03166118605760405162461bcd60e51b81526004016104199061506b565b61189588888481811061187557611875614dda565b905060200201602081019061188a9190614965565b60c083015190613f0c565b6118c65760405162461bcd60e51b8152602060048201526002602482015261534960f01b6044820152606401610419565b8787838181106118d8576118d8614dda565b90506020020160208101906118ed9190614965565b6004600088888681811061190357611903614dda565b90506020020160208101906119189190614920565b6001600160401b03168152602081019190915260400160002080546001600160a01b0319166001600160a01b0392831617905583167f8f2bbe31353a40442717cf80cfd6882db22eae2e1ca9ffd699967549fd26fafc87878581811061198057611980614dda565b90506020020160208101906119959190614920565b8a8a868181106119a7576119a7614dda565b90506020020160208101906119bc9190614965565b604080516001600160401b0390931683526001600160a01b0390911660208301520160405180910390a250806119f1816156f5565b915050611795565b5050506001600080828254611a0e9190615201565b909155505050505050565b60008484604051602001611a2e929190615401565b60408051601f198184030181528282528051602091820120600081815260098352839020610180850184528054855260018101546001600160401b03808216948701949094526001600160a01b03600160401b9182900481169587019590955260028201549485166060870152600160a01b90940483166080860152600381015460a0860152600481015460c0860152600581015480841660e087018190529481048416610100870152600160801b81048416610120870152600160c01b90049092166101408501526006909101546101608401529250611b375760405162461bcd60e51b8152602060048201526003602482015262434e4560e81b6044820152606401610419565b6101408101516001600160401b031615611b635760405162461bcd60e51b81526004016104199061541e565b6002546040805163481c6a7560e01b815290516000926001600160a01b03169163481c6a759160048083019260209291908290030181865afa158015611bad573d6000803e3d6000fd5b505050506040513d601f19601f82011682018060405250810190611bd19190614dbd565b90508161012001516001600160401b0316600003611cc25760405163b288706d60e01b81526000906001600160a01b0383169063b288706d90611c18908b90600401614e3b565b600060405180830381865afa158015611c35573d6000803e3d6000fd5b505050506040513d6000823e601f3d908101601f19168201604052611c5d9190810190614f99565b905082602001518160600151611c73919061570e565b6001600160401b03164211611cb35760405162461bcd60e51b8152600401610419906020808252600490820152631590d4d560e21b604082015260600190565b611cbc83613ac4565b50611e11565b8161016001518585604051602001611cdb9291906154c2565b6040516020818303038152906040528051906020012014611d245760405162461bcd60e51b81526020600482015260036024820152620ac88960eb1b6044820152606401610419565b6000816001600160a01b031663b288706d87876000818110611d4857611d48614dda565b905060200201356040518263ffffffff1660e01b8152600401611d6b9190614e3b565b600060405180830381865afa158015611d88573d6000803e3d6000fd5b505050506040513d6000823e601f3d908101601f19168201604052611db09190810190614f99565b905082602001518160a00151611dc6919061570e565b6001600160401b03164211611e065760405162461bcd60e51b8152600401610419906020808252600490820152631590d11560e21b604082015260600190565b611e0f83613f5d565b505b60008381526009602052604090819020600581018054600160401b600160801b031916600160401b426001600160401b03160217905590518491600080516020615f438339815191529161166c9190615588565b6001546001600160a01b031615611ea75760405162461bcd60e51b8152600401610419906020808252600490820152632fa7a72d60e11b604082015260600190565b6001600160a01b038116611ee25760405162461bcd60e51b815260206004820152600260248201526127ad60f11b6044820152606401610419565b600180546001600160a01b039092166001600160a01b03199283161790556002805490911633179055565b866001600160a01b03166390c80a5587878787604051602001611f309190615298565b604051602081830303815290604052805190602001206040518563ffffffff1660e01b8152600401611f65949392919061535a565b602060405180830381865afa158015611f82573d6000803e3d6000fd5b505050506040513d601f19601f82011682018060405250810190611fa69190614df0565b611fc25760405162461bcd60e51b81526004016104199061539c565b6000611fce84806153b8565b6000818110611fdf57611fdf614dda565b60200291909101359050611ff385806153b8565b600181811061200457612004614dda565b9050602002013560405160200161201c929190615401565b60408051601f198184030181529181528151602092830120600081815260099093529120600501549091506001600160401b03166120825760405162461bcd60e51b815260206004820152600360248201526221aa2d60e91b6044820152606401610419565b600081815260096020526040902060050154600160801b90046001600160401b0316156120d95760405162461bcd60e51b81526020600482015260056024820152642b2a18272d60d91b6044820152606401610419565b6000818152600960205260409020600101546001600160401b03166120fe85806153b8565b600781811061210f5761210f614dda565b905060200201356001600160401b0316146121515760405162461bcd60e51b815260206004820152600260248201526114d560f21b6044820152606401610419565b6001546001600160a01b031661216785806153b8565b600281811061217857612178614dda565b905060200201356001600160a01b0316146121be5760405162461bcd60e51b815260040161041990602080825260049082015263544e454f60e01b604082015260600190565b6000808080806121d08789018961594d565b94509450945094509450600260009054906101000a90046001600160a01b03166001600160a01b031663481c6a756040518163ffffffff1660e01b8152600401602060405180830381865afa15801561222d573d6000803e3d6000fd5b505050506040513d601f19601f820116820180604052508101906122519190614dbd565b6001600160a01b031661226760208b018b615a57565b600081811061227857612278614dda565b61228e9260206060909202019081019150614965565b6001600160a01b0316146122cc5760405162461bcd60e51b8152602060048201526005602482015264564353544160d81b6044820152606401610419565b60006122d88a806153b8565b60008181106122e9576122e9614dda565b905060200201356002604051602001612303929190615a9f565b60408051601f1981840301815291905280516020909101209050612328816001615201565b61233560208c018c615a57565b600081811061234657612346614dda565b9050606002016020013560001c146123885760405162461bcd60e51b8152602060048201526005602482015264564353544b60d81b6044820152606401610419565b60006123948b806153b8565b60078181106123a5576123a5614dda565b90506020020135426123b79190615519565b90506123c660208c018c615a57565b60008181106123d7576123d7614dda565b905060600201604001356001600160401b03168110156124095760405162461bcd60e51b81526004016104199061552c565b604061241860208d018d615a57565b600081811061242957612429614dda565b90506060020160400135901c6001600160401b031681111561245d5760405162461bcd60e51b81526004016104199061554c565b5050600260009054906101000a90046001600160a01b03166001600160a01b031663481c6a756040518163ffffffff1660e01b8152600401602060405180830381865afa1580156124b2573d6000803e3d6000fd5b505050506040513d601f19601f820116820180604052508101906124d69190614dbd565b6001600160a01b03166124ec60208b018b615a57565b60018181106124fd576124fd614dda565b6125139260206060909202019081019150614965565b6001600160a01b03161461254f5760405162461bcd60e51b815260206004820152600360248201526246544160e81b6044820152606401610419565b600061255b8a806153b8565b600081811061256c5761256c614dda565b602002919091013590506125808b806153b8565b600481811061259157612591614dda565b905060200201356040516020016125a9929190615401565b6040516020818303038152906040528051906020012060036040516020016125d2929190615a9f565b60408051601f19818403018152919052805160209091012090506125f7816001615201565b61260460208c018c615a57565b600181811061261557612615614dda565b9050606002016020013560001c146126555760405162461bcd60e51b815260206004820152600360248201526246544b60e81b6044820152606401610419565b61266260208b018b615a57565b600181811061267357612673614dda565b905060600201604001356001600160a01b03166009600089815260200190815260200160002060020160009054906101000a90046001600160a01b03166001600160a01b0316146126ec5760405162461bcd60e51b8152602060048201526003602482015262232a2b60e91b6044820152606401610419565b600260009054906101000a90046001600160a01b03166001600160a01b031663481c6a756040518163ffffffff1660e01b8152600401602060405180830381865afa15801561273f573d6000803e3d6000fd5b505050506040513d601f19601f820116820180604052508101906127639190614dbd565b6001600160a01b031661277960208c018c615a57565b600281811061278a5761278a614dda565b6127a09260206060909202019081019150614965565b6001600160a01b0316146127dc5760405162461bcd60e51b815260206004820152600360248201526246414160e81b6044820152606401610419565b6127e960208b018b615a57565b60028181106127fa576127fa614dda565b9050606002016020013560001c60061461283c5760405162461bcd60e51b815260206004820152600360248201526246414b60e81b6044820152606401610419565b600061284b60208c018c615a57565b600281811061285c5761285c614dda565b905060600201604001359050612710816001600160401b03168c806000019061288591906153b8565b600581811061289657612896614dda565b905060200201356128a79190615ab0565b6128b19190615ac7565b60008981526009602052604090206004015410156128fa5760405162461bcd60e51b8152600401610419906020808252600490820152632320a62b60e11b604082015260600190565b5050600085858560405160200161291393929190615b1a565b60408051601f1981840301815291905280516020918201209150309061293b908c018c615a57565b600381811061294c5761294c614dda565b6129629260206060909202019081019150614965565b6001600160a01b0316146129a15760405162461bcd60e51b8152600401610419906020808252600490820152634341484160e01b604082015260600190565b6129ae60208b018b615a57565b60038181106129bf576129bf614dda565b9050606002016020013560001c600214612a045760405162461bcd60e51b8152600401610419906020808252600490820152634341484b60e01b604082015260600190565b80612a1260208c018c615a57565b6003818110612a2357612a23614dda565b9050606002016040013560001b14612a665760405162461bcd60e51b81526004016104199060208082526004908201526321a0a42b60e11b604082015260600190565b506000806001600160a01b0384166391032df3612a838d806153b8565b6005818110612a9457612a94614dda565b905060200201356040518263ffffffff1660e01b8152600401612ab991815260200190565b606060405180830381865afa158015612ad6573d6000803e3d6000fd5b505050506040513d601f19601f82011682018060405250810190612afa9190615b6c565b90508560018260200151612b0e9190615519565b81518110612b1e57612b1e614dda565b60200260200101516001600160a01b0316846001600160a01b031614612b6c5760405162461bcd60e51b8152602060048201526003602482015262454e4560e81b6044820152606401610419565b845181604001511115612b915760405162461bcd60e51b815260040161041990614da0565b8460018260400151612ba39190615519565b81518110612bb357612bb3614dda565b60200260200101516001600160401b0316915050600260009054906101000a90046001600160a01b03166001600160a01b031663481c6a756040518163ffffffff1660e01b8152600401602060405180830381865afa158015612c1a573d6000803e3d6000fd5b505050506040513d601f19601f82011682018060405250810190612c3e9190614dbd565b6001600160a01b0316612c5460208c018c615a57565b6004818110612c6557612c65614dda565b612c7b9260206060909202019081019150614965565b6001600160a01b031614612cb75760405162461bcd60e51b815260206004820152600360248201526244544160e81b6044820152606401610419565b600081612cc48c806153b8565b600a818110612cd557612cd5614dda565b90506020020135604051602001612ced929190615401565b604051602081830303815290604052805190602001206003604051602001612d16929190615a9f565b60408051601f1981840301815291905280516020909101209050612d3b816001615201565b612d4860208d018d615a57565b6004818110612d5957612d59614dda565b9050606002016020013560001c14612d995760405162461bcd60e51b815260206004820152600360248201526244544b60e81b6044820152606401610419565b612da660208c018c615a57565b6004818110612db757612db7614dda565b905060600201604001356001600160a01b0316600960008a815260200190815260200160002060020160009054906101000a90046001600160a01b03166001600160a01b031614612e305760405162461bcd60e51b8152602060048201526003602482015262222a2b60e91b6044820152606401610419565b5030612e3f60208c018c615a57565b6005818110612e5057612e50614dda565b612e669260206060909202019081019150614965565b6001600160a01b031614612ea55760405162461bcd60e51b815260040161041990602080825260049082015263524d484160e01b604082015260600190565b612eb260208b018b615a57565b6005818110612ec357612ec3614dda565b9050606002016020013560001c600514612f085760405162461bcd60e51b815260040161041990602080825260049082015263524d484b60e01b604082015260600190565b30612f1660208c018c615a57565b6006818110612f2757612f27614dda565b612f3d9260206060909202019081019150614965565b6001600160a01b031614612f795760405162461bcd60e51b815260206004820152600360248201526252524160e81b6044820152606401610419565b604080516001600160a01b0385166020808301919091526006828401528251808303840181526060909201909252805190820120908190612fbc908d018d615a57565b6006818110612fcd57612fcd614dda565b9050606002016020013560001c1461300d5760405162461bcd60e51b815260206004820152600360248201526252524b60e81b6044820152606401610419565b6130178b806153b8565b600881811061302857613028614dda565b90506020020135836040516020016130409190615bd4565b6040516020818303038152906040528051906020012060001c1461308b5760405162461bcd60e51b81526020600482015260026024820152610a4960f31b6044820152606401610419565b5060606130988b806153b8565b60008181106130a9576130a9614dda565b9050602002013583600001516001600160401b0316036131b8578183602001516001600160401b0316146131055760405162461bcd60e51b815260206004820152600360248201526244433160e81b6044820152606401610419565b8260c001516001600160801b03168160008151811061312657613126614dda565b6020026020010181815250508261010001516001600160801b03168160018151811061315457613154614dda565b6020026020010181815250508261014001516001600160801b03168160028151811061318257613182614dda565b60200260200101818152505082610180015161ffff16816003815181106131ab576131ab614dda565b6020026020010181815250505b6131c28b806153b8565b60008181106131d3576131d3614dda565b9050602002013583602001516001600160401b0316036132df5782516001600160401b0316821461322c5760405162461bcd60e51b815260206004820152600360248201526204443360ec1b6044820152606401610419565b8260e001516001600160801b03168160008151811061324d5761324d614dda565b6020026020010181815250508261012001516001600160801b03168160018151811061327b5761327b614dda565b6020026020010181815250508261016001516001600160801b0316816002815181106132a9576132a9614dda565b602002602001018181525050826101a0015161ffff16816003815181106132d2576132d2614dda565b6020026020010181815250505b6004815110156133175760405162461bcd60e51b815260206004820152600360248201526214959360ea1b6044820152606401610419565b6000846001600160a01b031662b67b0b866001600160a01b0316630a01ef0d8f806000019061334691906153b8565b600581811061335757613357614dda565b90506020020135866040518363ffffffff1660e01b815260040161337c929190615d2e565b600060405180830381865afa158015613399573d6000803e3d6000fd5b505050506040513d6000823e601f3d908101601f191682016040526133c19190810190615d6b565b6040518263ffffffff1660e01b81526004016133dd9190615e2a565b602060405180830381865afa1580156133fa573d6000803e3d6000fd5b505050506040513d601f19601f8201168201806040525081019061341e9190615e3d565b905061342a8c806153b8565b600781811061343b5761343b614dda565b60008c81526009602090815260409182902092810294909401359091559161346691508e018e615a57565b600281811061347757613477614dda565b90506060020160400135901c600960008b815260200190815260200160002060020160146101000a8154816001600160401b0302191690836001600160401b0316021790555042600960008b815260200190815260200160002060050160106101000a8154816001600160401b0302191690836001600160401b0316021790555060405180610100016040528060808e80602001906135169190615a57565b600081811061352757613527614dda565b90506060020160400135901c6001600160401b0316815260200160808e80602001906135539190615a57565b600081811061356457613564614dda565b90506060020160400135901c6001600160401b031681526020018d806000019061358e91906153b8565b600081811061359f5761359f614dda565b6020908102929092013583525081018590526040016135be8e806153b8565b60098181106135cf576135cf614dda565b60209081029290920135835250016135e78e806153b8565b600a8181106135f8576135f8614dda565b9050602002013581526020018281526020018d806020019061361a9190615a57565b600381811061362b5761362b614dda565b905060600201604001358152506040516020016136489190615e56565b60408051601f19818403018152828252805160209182012060008d8152600990925291902060068101919091558a91600080516020615f438339815191529161369091615588565b60405180910390a250505050505050505050505050505050565b6001546001600160a01b031633146136d45760405162461bcd60e51b815260040161041990614d6b565b6136e089898989613b0c565b8382146136ff5760405162461bcd60e51b815260040161041990615666565b60005b848110156137e35760008a87878481811061371f5761371f614dda565b90506020020160208101906137349190614920565b8460405160200161374793929190615683565b60408051601f1981840301815291815281516020928301206000818152600790935291205490915085858481811061378157613781614dda565b9050602002013511156137da576000818152600760205260409020546137da90339030908888878181106137b7576137b7614dda565b905060200201356137c89190615519565b6001600160a01b038716929190613a08565b50600101613702565b5060016000808282546137f69190615201565b9091555050505050505050505050565b6001546001600160a01b031633146138305760405162461bcd60e51b815260040161041990614d6b565b6001600160a01b038216613922576001600160a01b03821660009081526008602052604090205481906138639047615519565b101561389b5760405162461bcd60e51b815260206004820152600760248201526622aa241d1024a360c91b6044820152606401610419565b604051600090339083908381818185875af1925050503d80600081146138dd576040519150601f19603f3d011682016040523d82523d6000602084013e6138e2565b606091505b505090508061391d5760405162461bcd60e51b81526020600482015260076024820152664554483a20534560c81b6044820152606401610419565b505050565b6040516370a0823160e01b81526000906001600160a01b038416906370a0823190613951903090600401614951565b602060405180830381865afa15801561396e573d6000803e3d6000fd5b505050506040513d601f19601f820116820180604052508101906139929190615e3d565b6001600160a01b03841660009081526008602052604090205490915082906139ba9083615519565b10156139f45760405162461bcd60e51b815260206004820152600960248201526822a92199181d1024a360b91b6044820152606401610419565b61391d6001600160a01b03841633846141a7565b6040516001600160a01b0380851660248301528316604482015260648101829052613a739085906323b872dd60e01b906084015b60408051601f198184030181529190526020810180516001600160e01b03166001600160e01b0319909316929092179091526141d7565b50505050565b6000805b8351811015613ab857838181518110613a9857613a98614dda565b60200260200101518303613ab0576001915050613abe565b600101613a7d565b50600090505b92915050565b8060c001518160a00151613ad89190615201565b60608201516001600160a01b031660009081526008602052604081208054909190613b04908490615519565b909155505050565b60005b82811015613c3c57838382818110613b2957613b29614dda565b905061026002016020016020810190613b429190614920565b6001600160401b0316848483818110613b5d57613b5d614dda565b613b74926020610260909202019081019150614920565b6001600160401b031610613bb25760405162461bcd60e51b815260206004820152600560248201526443304c433160d81b6044820152606401610419565b607842858584818110613bc757613bc7614dda565b90506102600201610240016020810190613be19190614920565b6001600160401b0316613bf49190615519565b1015613c2a5760405162461bcd60e51b815260206004820152600560248201526427a322a12760d91b6044820152606401610419565b80613c34816156f5565b915050613b0f565b506002546040805163481c6a7560e01b815290516000926001600160a01b03169163481c6a759160048083019260209291908290030181865afa158015613c87573d6000803e3d6000fd5b505050506040513d601f19601f82011682018060405250810190613cab9190614dbd565b604051632edbe4ef60e21b81529091506001600160a01b0382169063bb6f93bc90613cda908890600401614951565b602060405180830381865afa158015613cf7573d6000803e3d6000fd5b505050506040513d601f19601f82011682018060405250810190613d1b9190614df0565b613d375760405162461bcd60e51b815260040161041990614e12565b8135613d6a5760405162461bcd60e51b8152602060048201526002602482015261292d60f11b6044820152606401610419565b613d7a6040830160208401615e88565b6001600160a01b038616600090815260066020526040902060019081015463ffffffff9081169091018116911614613dd95760405162461bcd60e51b8152602060048201526002602482015261564560f01b6044820152606401610419565b6001600160a01b03851660009081526006602052604090208290613dfd8282615ea5565b505060025460408051635c60da1b60e01b815290516001600160a01b0390921691635c60da1b916004808201926020929091908290030181865afa158015613e49573d6000803e3d6000fd5b505050506040513d601f19601f82011682018060405250810190613e6d9190614dbd565b6001600160a01b03167f14ebfe1d09c7ff607d095a4d8c41180cfc5ce6a29321b1b0b8ed086408acca4a8684604051613ea7929190615ed4565b60405180910390a25050505050565b7b0ca2ba3432b932bab69029b4b3b732b21026b2b9b9b0b3b29d05199960211b6000908152601c91909152603c902090565b6000806000613ef785856142ac565b91509150613f04816142f1565b509392505050565b6000805b8351811015613ab857838181518110613f2b57613f2b614dda565b60200260200101516001600160a01b0316836001600160a01b031603613f55576001915050613abe565b600101613f10565b600061271082608001516001600160401b03168360a00151613f7f9190615ab0565b613f899190615ac7565b90508160a00151811115613fc85760405162461bcd60e51b8152600401610419906020808252600490820152632aa0a7a360e11b604082015260600190565b6000818360c001518460a00151613fdf9190615201565b613fe99190615519565b83516060850151919250906001600160a01b0316614128576000816001600160a01b03168460405160006040518083038185875af1925050503d806000811461404e576040519150601f19603f3d011682016040523d82523d6000602084013e614053565b606091505b505090508061408f5760405162461bcd60e51b81526020600482015260086024820152674554483a2053453160c01b6044820152606401610419565b600085604001516001600160a01b03168460405160006040518083038185875af1925050503d80600081146140e0576040519150601f19603f3d011682016040523d82523d6000602084013e6140e5565b606091505b50509050806141215760405162461bcd60e51b815260206004820152600860248201526722aa241d1029a29960c11b6044820152606401610419565b5050614167565b6060840151614141906001600160a01b031682856141a7565b61416784604001518386606001516001600160a01b03166141a79092919063ffffffff16565b8360c001518460a0015161417b9190615201565b60608501516001600160a01b031660009081526008602052604081208054909190611a0e908490615519565b6040516001600160a01b03831660248201526044810182905261391d90849063a9059cbb60e01b90606401613a3c565b600061422c826040518060400160405280602081526020017f5361666545524332303a206c6f772d6c6576656c2063616c6c206661696c6564815250856001600160a01b03166144399092919063ffffffff16565b905080516000148061424d57508080602001905181019061424d9190614df0565b61391d5760405162461bcd60e51b815260206004820152602a60248201527f5361666545524332303a204552433230206f7065726174696f6e20646964206e6044820152691bdd081cdd58d8d9595960b21b6064820152608401610419565b60008082516041036142e25760208301516040840151606085015160001a6142d687828585614450565b945094505050506142ea565b506000905060025b9250929050565b600081600481111561430557614305615f10565b0361430d5750565b600181600481111561432157614321615f10565b036143695760405162461bcd60e51b815260206004820152601860248201527745434453413a20696e76616c6964207369676e617475726560401b6044820152606401610419565b600281600481111561437d5761437d615f10565b036143ca5760405162461bcd60e51b815260206004820152601f60248201527f45434453413a20696e76616c6964207369676e6174757265206c656e677468006044820152606401610419565b60038160048111156143de576143de615f10565b036144365760405162461bcd60e51b815260206004820152602260248201527f45434453413a20696e76616c6964207369676e6174757265202773272076616c604482015261756560f01b6064820152608401610419565b50565b6060614448848460008561450a565b949350505050565b6000806fa2a8918ca85bafe22016d0b997e4df60600160ff1b0383111561447d5750600090506003614501565b6040805160008082526020820180845289905260ff881692820192909252606081018690526080810185905260019060a0016020604051602081039080840390855afa1580156144d1573d6000803e3d6000fd5b5050604051601f1901519150506001600160a01b0381166144fa57600060019250925050614501565b9150600090505b94509492505050565b60608247101561456b5760405162461bcd60e51b815260206004820152602660248201527f416464726573733a20696e73756666696369656e742062616c616e636520666f6044820152651c8818d85b1b60d21b6064820152608401610419565b600080866001600160a01b031685876040516145879190615f26565b60006040518083038185875af1925050503d80600081146145c4576040519150601f19603f3d011682016040523d82523d6000602084013e6145c9565b606091505b50915091506145da878383876145e5565b979650505050505050565b6060831561465457825160000361464d576001600160a01b0385163b61464d5760405162461bcd60e51b815260206004820152601d60248201527f416464726573733a2063616c6c20746f206e6f6e2d636f6e74726163740000006044820152606401610419565b5081614448565b61444883838151156146695781518083602001fd5b8060405162461bcd60e51b81526004016104199190615e2a565b60008083601f84011261469557600080fd5b5081356001600160401b038111156146ac57600080fd5b6020830191508360208260051b85010111156142ea57600080fd5b600080600080600080606087890312156146e057600080fd5b86356001600160401b03808211156146f757600080fd5b6147038a838b01614683565b9098509650602089013591508082111561471c57600080fd5b6147288a838b01614683565b9096509450604089013591508082111561474157600080fd5b5061474e89828a01614683565b979a9699509497509295939492505050565b6001600160a01b038116811461443657600080fd5b803561478081614760565b919050565b6000806040838503121561479857600080fd5b82356147a381614760565b946020939093013593505050565b60008083601f8401126147c357600080fd5b5081356001600160401b038111156147da57600080fd5b6020830191508360208285010111156142ea57600080fd5b8060408101831015613abe57600080fd5b60006040828403121561481557600080fd5b50919050565b600080600080600080600080600060e08a8c03121561483957600080fd5b6148428a614775565b985060208a01356001600160401b038082111561485e57600080fd5b61486a8d838e016147b1565b909a50985088915061487f8d60408e016147f2565b975060808c013591508082111561489557600080fd5b6148a18d838e01614803565b965060a08c01359150808211156148b757600080fd5b6148c38d838e01614683565b909650945060c08c01359150808211156148dc57600080fd5b506148e98c828d016147b1565b915080935050809150509295985092959850929598565b6001600160401b038116811461443657600080fd5b803561478081614900565b60006020828403121561493257600080fd5b813561493d81614900565b9392505050565b6001600160a01b03169052565b6001600160a01b0391909116815260200190565b60006020828403121561497757600080fd5b813561493d81614760565b60008083601f84011261499457600080fd5b5081356001600160401b038111156149ab57600080fd5b602083019150836020610260830285010111156142ea57600080fd5b60008060008060008060008060c0898b0312156149e357600080fd5b88356149ee81614760565b975060208901356001600160401b0380821115614a0a57600080fd5b614a168c838d01614982565b9099509750879150614a2b8c60408d01614803565b965060808b0135915080821115614a4157600080fd5b614a4d8c838d01614683565b909650945060a08b0135915080821115614a6657600080fd5b50614a738b828c01614683565b999c989b5096995094979396929594505050565b60008060208385031215614a9a57600080fd5b82356001600160401b03811115614ab057600080fd5b614abc85828601614683565b90969095509350505050565b600080600080600060a08688031215614ae057600080fd5b8535614aeb81614900565b9450602086013593506040860135614b0281614900565b92506060860135614b1281614760565b949793965091946080013592915050565b60008060008060408587031215614b3957600080fd5b84356001600160401b0380821115614b5057600080fd5b614b5c88838901614683565b90965094506020870135915080821115614b7557600080fd5b50614b8287828801614683565b95989497509550505050565b60008060008060608587031215614ba457600080fd5b8435614baf81614900565b93506020850135925060408501356001600160401b03811115614bd157600080fd5b614b8287828801614683565b600080600080600080600060c0888a031215614bf857600080fd5b8735614c0381614760565b965060208801356001600160401b0380821115614c1f57600080fd5b614c2b8b838c016147b1565b9098509650869150614c408b60408c016147f2565b955060808a0135915080821115614c5657600080fd5b614c628b838c01614803565b945060a08a0135915080821115614c7857600080fd5b50614c858a828b016147b1565b989b979a50959850939692959293505050565b600080600080600080600080600060e08a8c031215614cb657600080fd5b8935614cc181614760565b985060208a01356001600160401b0380821115614cdd57600080fd5b614ce98d838e01614982565b909a509850889150614cfe8d60408e01614803565b975060808c0135915080821115614d1457600080fd5b614d208d838e01614683565b909750955060a08c0135915080821115614d3957600080fd5b50614d468c828d01614683565b90945092505060c08a0135614d5a81614760565b809150509295985092959850929598565b6020808252818101527f4f776e61626c653a2063616c6c6572206973206e6f7420746865206f776e6572604082015260600190565b60208082526003908201526221a7a360e91b604082015260600190565b600060208284031215614dcf57600080fd5b815161493d81614760565b634e487b7160e01b600052603260045260246000fd5b600060208284031215614e0257600080fd5b8151801515811461493d57600080fd5b602080825260029082015261454960f01b604082015260600190565b6001600160401b03169052565b6001600160401b0391909116815260200190565b634e487b7160e01b600052604160045260246000fd5b60405160e081016001600160401b0381118282101715614e8757614e87614e4f565b60405290565b60405161026081016001600160401b0381118282101715614e8757614e87614e4f565b604051601f8201601f191681016001600160401b0381118282101715614ed857614ed8614e4f565b604052919050565b805161478081614900565b80516001600160c01b038116811461478057600080fd5b60006001600160401b03821115614f1b57614f1b614e4f565b5060051b60200190565b600082601f830112614f3657600080fd5b81516020614f4b614f4683614f02565b614eb0565b82815260059290921b84018101918181019086841115614f6a57600080fd5b8286015b84811015614f8e578051614f8181614760565b8352918301918301614f6e565b509695505050505050565b600060208284031215614fab57600080fd5b81516001600160401b0380821115614fc257600080fd5b9083019060e08286031215614fd657600080fd5b614fde614e65565b614fe783614ee0565b8152614ff560208401614eeb565b602082015261500660408401614ee0565b604082015261501760608401614ee0565b606082015261502860808401614ee0565b608082015261503960a08401614ee0565b60a082015260c08301518281111561505057600080fd5b61505c87828601614f25565b60c08301525095945050505050565b602080825260029082015261434960f01b604082015260600190565b60008160005b848110156150be5781356150a081614760565b6001600160a01b03168652602095860195919091019060010161508d565b5093949350505050565b60006150df6150d883898b615087565b8688615087565b8460005b858110156151145781356150f681614900565b6001600160401b0316835260209283019291909101906001016150e3565b50909998505050505050505050565b8183526000602080850194508260005b8581101561516157813561514681614760565b6001600160a01b031687529582019590820190600101615133565b509495945050505050565b8781526000602060808184015261518760808401898b615123565b838103604085015261519a81888a615123565b8481036060860152858152869150820160005b868110156151db5782356151c081614900565b6001600160401b0316825291830191908301906001016151ad565b509b9a5050505050505050505050565b634e487b7160e01b600052601160045260246000fd5b80820180821115613abe57613abe6151eb565b81835260006001600160fb1b0383111561522d57600080fd5b8260051b80836020870137939093016020019392505050565b8183526000602080850194508260005b8581101561516157813561526981614760565b6001600160a01b0316875281830135838801526040808301359088015260609687019690910190600101615256565b6020815260008235601e19843603018082126152b357600080fd5b602091850191820191356001600160401b03808211156152d257600080fd5b8160051b36038413156152e457600080fd5b604060208701526152f9606087018386615214565b93506020870135915082821261530e57600080fd5b90860160208101925035908082111561532657600080fd5b5060608102360382131561533957600080fd5b848303601f19016040860152615350838284615246565b9695505050505050565b60808152836080820152838560a0830137600060a08583010152600060a0601f19601f8701168301019050604084602084013782606083015295945050505050565b6020808252600290820152612b2360f11b604082015260600190565b6000808335601e198436030181126153cf57600080fd5b8301803591506001600160401b038211156153e957600080fd5b6020019150600581901b36038213156142ea57600080fd5b60c09290921b6001600160c01b0319168252600882015260280190565b6020808252600590820152642b2a18a72d60d91b604082015260600190565b6000602080838503121561545057600080fd5b82356001600160401b0381111561546657600080fd5b8301601f8101851361547757600080fd5b8035615485614f4682614f02565b81815260059190911b820183019083810190878311156154a457600080fd5b928401925b828410156145da578335825292840192908401906154a9565b602081526000614448602083018486615214565b600081518084526020808501945080840160005b83811015615161578151875295820195908201906001016154ea565b60208152600061493d60208301846154d6565b81810381811115613abe57613abe6151eb565b60208082526006908201526526a4a72a27a360d11b604082015260600190565b60208082526006908201526526a0ac2a27a360d11b604082015260600190565b602080825260029082015261111560f21b604082015260600190565b8154815260018201546101808201906001600160401b036155ae60208501828416614e2e565b6001600160a01b036155c960408681019085901c8316614944565b600286015492506155df60608601828516614944565b506155f260808501828460a01c16614e2e565b600385015460a0850152600485015460c08501526005850154915061561c60e08501828416614e2e565b61562f6101008501828460401c16614e2e565b6156426101208501828460801c16614e2e565b5061565461014084018260c01c614e2e565b50600683015461016083015292915050565b60208082526003908201526214d41360ea1b604082015260600190565b6001600160a01b0393841681526001600160401b03929092166020830152909116604082015260600190565b6000808335601e198436030181126156c657600080fd5b8301803591506001600160401b038211156156e057600080fd5b6020019150368190038213156142ea57600080fd5b600060018201615707576157076151eb565b5060010190565b6001600160401b0381811683821601908082111561572e5761572e6151eb565b5092915050565b600082601f83011261574657600080fd5b81356020615756614f4683614f02565b82815260059290921b8401810191818101908684111561577557600080fd5b8286015b84811015614f8e57803561578c81614760565b8352918301918301615779565b803560ff8116811461478057600080fd5b80356001600160801b038116811461478057600080fd5b803561ffff8116811461478057600080fd5b63ffffffff8116811461443657600080fd5b8035614780816157d3565b6000610260828403121561580357600080fd5b61580b614e8d565b905061581682614915565b815261582460208301614915565b602082015261583560408301615799565b604082015261584660608301615799565b60608201526080820135608082015260a082013560a082015261586b60c083016157aa565b60c082015261587c60e083016157aa565b60e082015261010061588f8184016157aa565b908201526101206158a18382016157aa565b908201526101406158b38382016157aa565b908201526101606158c58382016157aa565b908201526101806158d78382016157c1565b908201526101a06158e98382016157c1565b908201526101c06158fb8382016157e5565b908201526101e061590d8382016157e5565b9082015261020061591f8382016157e5565b908201526102206159318382016157e5565b90820152610240615943838201614915565b9082015292915050565b60008060008060006102e0868803121561596657600080fd5b85356001600160401b038082111561597d57600080fd5b61598989838a01615735565b96506020915081880135818111156159a057600080fd5b6159ac8a828b01615735565b9650506040880135818111156159c157600080fd5b88019050601f810189136159d457600080fd5b80356159e2614f4682614f02565b81815260059190911b8201830190838101908b831115615a0157600080fd5b928401925b82841015615a28578335615a1981614900565b82529284019290840190615a06565b8097505050505050615a3c60608701614775565b9150615a4b87608088016157f0565b90509295509295909350565b6000808335601e19843603018112615a6e57600080fd5b8301803591506001600160401b03821115615a8857600080fd5b60200191506060810236038213156142ea57600080fd5b91825260ff16602082015260400190565b8082028115828204841417613abe57613abe6151eb565b600082615ae457634e487b7160e01b600052601260045260246000fd5b500490565b60008151602080840160005b838110156151615781516001600160a01b031687529582019590820190600101615af5565b6000615b2f615b298387615ae9565b85615ae9565b8351602080860160005b83811015615b5e5781516001600160401b031685529382019390820190600101615b39565b509298975050505050505050565b600060608284031215615b7e57600080fd5b604051606081016001600160401b0381118282101715615ba057615ba0614e4f565b80604052508251815260208301516020820152604083015160408201528091505092915050565b6001600160801b03169052565b600061026082019050615be8828451614e2e565b6020830151615bfa6020840182614e2e565b506040830151615c0f604084018260ff169052565b506060830151615c24606084018260ff169052565b506080830151608083015260a083015160a083015260c0830151615c4b60c0840182615bc7565b5060e0830151615c5e60e0840182615bc7565b5061010080840151615c7282850182615bc7565b505061012080840151615c8782850182615bc7565b505061014080840151615c9c82850182615bc7565b505061016080840151615cb182850182615bc7565b50506101808381015161ffff908116918401919091526101a080850151909116908301526101c08084015163ffffffff908116918401919091526101e08085015182169084015261020080850151821690840152610220808501519091169083015261024080840151615d2682850182614e2e565b505092915050565b82815260406020820152600061444860408301846154d6565b60005b83811015615d62578181015183820152602001615d4a565b50506000910152565b600060208284031215615d7d57600080fd5b81516001600160401b0380821115615d9457600080fd5b818401915084601f830112615da857600080fd5b815181811115615dba57615dba614e4f565b615dcd601f8201601f1916602001614eb0565b9150808252856020828501011115615de457600080fd5b615df5816020840160208601615d47565b50949350505050565b60008151808452615e16816020860160208601615d47565b601f01601f19169290920160200192915050565b60208152600061493d6020830184615dfe565b600060208284031215615e4f57600080fd5b5051919050565b6101008101818360005b6008811015615e7f578151835260209283019290910190600101615e60565b50505092915050565b600060208284031215615e9a57600080fd5b813561493d816157d3565b81358155600181016020830135615ebb816157d3565b815463ffffffff191663ffffffff919091161790555050565b6001600160a01b038316815281356020808301919091526060820190830135615efc816157d3565b63ffffffff81166040840152509392505050565b634e487b7160e01b600052602160045260246000fd5b60008251615f38818460208701615d47565b919091019291505056fe288ce6ecb50116617911fc83710df7a6e0a8fef4b376d213c8085da345ce9efaa164736f6c6343000811000a",
  "linkReferences": {},
  "deployedLinkReferences": {}
}