{
  "_format": "hh-sol-artifact-1",
  "contractName": "ORFeeManager",
  "sourceName": "contracts/ORFeeManager.sol",
  "abi": [
    {
      "inputs": [
        {
          "internalType": "address",
          "name": "owner_",
          "type": "address"
        },
        {
          "internalType": "address",
          "name": "manager_",
          "type": "address"
        }
      ],
      "stateMutability": "nonpayable",
      "type": "constructor"
    },
    {
      "anonymous": false,
      "inputs": [
        {
          "indexed": true,
          "internalType": "address",
          "name": "dealer",
          "type": "address"
        },
        {
          "indexed": false,
          "internalType": "uint256",
          "name": "feeRatio",
          "type": "uint256"
        },
        {
          "indexed": false,
          "internalType": "bytes",
          "name": "extraInfo",
          "type": "bytes"
        }
      ],
      "name": "DealerUpdated",
      "type": "event"
    },
    {
      "anonymous": false,
      "inputs": [
        {
          "indexed": true,
          "internalType": "address",
          "name": "previousOwner",
          "type": "address"
        },
        {
          "indexed": true,
          "internalType": "address",
          "name": "newOwner",
          "type": "address"
        }
      ],
      "name": "OwnershipTransferred",
      "type": "event"
    },
    {
      "inputs": [
        {
          "internalType": "address",
          "name": "dealer",
          "type": "address"
        }
      ],
      "name": "getDealerInfo",
      "outputs": [
        {
          "components": [
            {
              "internalType": "uint256",
              "name": "feeRatio",
              "type": "uint256"
            },
            {
              "internalType": "bytes32",
              "name": "extraInfoHash",
              "type": "bytes32"
            }
          ],
          "internalType": "struct IORFeeManager.DealerInfo",
          "name": "",
          "type": "tuple"
        }
      ],
      "stateMutability": "view",
      "type": "function"
    },
    {
      "inputs": [],
      "name": "owner",
      "outputs": [
        {
          "internalType": "address",
          "name": "",
          "type": "address"
        }
      ],
      "stateMutability": "view",
      "type": "function"
    },
    {
      "inputs": [],
      "name": "renounceOwnership",
      "outputs": [],
      "stateMutability": "nonpayable",
      "type": "function"
    },
    {
      "inputs": [
        {
          "internalType": "address",
          "name": "newOwner",
          "type": "address"
        }
      ],
      "name": "transferOwnership",
      "outputs": [],
      "stateMutability": "nonpayable",
      "type": "function"
    },
    {
      "inputs": [
        {
          "internalType": "uint256",
          "name": "feeRatio",
          "type": "uint256"
        },
        {
          "internalType": "bytes",
          "name": "extraInfo",
          "type": "bytes"
        }
      ],
      "name": "updateDealer",
      "outputs": [],
      "stateMutability": "nonpayable",
      "type": "function"
    }
  ],
  "bytecode": "0x608060405234801561001057600080fd5b506040516105b13803806105b183398101604081905261002f9161014e565b610038336100e2565b6001600160a01b0382166100785760405162461bcd60e51b815260206004820152600260248201526127ad60f11b60448201526064015b60405180910390fd5b6001600160a01b0381166100b35760405162461bcd60e51b815260206004820152600260248201526126ad60f11b604482015260640161006f565b6100bc826100e2565b600180546001600160a01b0319166001600160a01b039290921691909117905550610181565b600080546001600160a01b038381166001600160a01b0319831681178455604051919092169283917f8be0079c531659141344cd1fd0a4f28419497f9722a3daafe3b4186f6b6457e09190a35050565b80516001600160a01b038116811461014957600080fd5b919050565b6000806040838503121561016157600080fd5b61016a83610132565b915061017860208401610132565b90509250929050565b610421806101906000396000f3fe608060405234801561001057600080fd5b50600436106100575760003560e01c80635a755a1f1461005c578063715018a6146100d15780638da5cb5b146100db578063abfed8b5146100fb578063f2fde38b1461010e575b600080fd5b6100b161006a366004610333565b6040805180820190915260008082526020820152506001600160a01b0316600090815260026020908152604091829020825180840190935280548352600101549082015290565b604080518251815260209283015192810192909252015b60405180910390f35b6100d9610121565b005b6100e3610135565b6040516001600160a01b0390911681526020016100c8565b6100d9610109366004610363565b610144565b6100d961011c366004610333565b6101fb565b610129610279565b61013360006102d8565b565b6000546001600160a01b031690565b600061018583838080601f01602080910402602001604051908101604052809392919081815260200183838082843760009201919091525061032892505050565b604080518082018252868152602080820184815233600081815260029093529184902092518355516001909201919091559051919250907f477dfd24160e8774a01758d43787dbb93ed9a6c79f15f8f640dfee7e0ebe0e85906101ed908790879087906103de565b60405180910390a250505050565b610203610279565b6001600160a01b03811661026d5760405162461bcd60e51b815260206004820152602660248201527f4f776e61626c653a206e6577206f776e657220697320746865207a65726f206160448201526564647265737360d01b60648201526084015b60405180910390fd5b610276816102d8565b50565b33610282610135565b6001600160a01b0316146101335760405162461bcd60e51b815260206004820181905260248201527f4f776e61626c653a2063616c6c6572206973206e6f7420746865206f776e65726044820152606401610264565b600080546001600160a01b038381166001600160a01b0319831681178455604051919092169283917f8be0079c531659141344cd1fd0a4f28419497f9722a3daafe3b4186f6b6457e09190a35050565b805160209091012090565b60006020828403121561034557600080fd5b81356001600160a01b038116811461035c57600080fd5b9392505050565b60008060006040848603121561037857600080fd5b8335925060208401356001600160401b038082111561039657600080fd5b818601915086601f8301126103aa57600080fd5b8135818111156103b957600080fd5b8760208285010111156103cb57600080fd5b6020830194508093505050509250925092565b83815260406020820152816040820152818360608301376000818301606090810191909152601f909201601f191601019291505056fea164736f6c6343000811000a",
  "linkReferences": {},
  "deployedLinkReferences": {}
}