{
  "_format": "hh-sol-artifact-1",
  "contractName": "ORFeeManager",
  "sourceName": "contracts/ORFeeManager.sol",
  "abi": [
    {
      "inputs": [
        {
          "internalType": "address",
          "name": "owner_",
          "type": "address"
        },
        {
          "internalType": "address",
          "name": "manager_",
          "type": "address"
        },
        {
          "internalType": "contract IVerifier",
          "name": "_verifier",
          "type": "address"
        }
      ],
      "stateMutability": "nonpayable",
      "type": "constructor"
    },
    {
      "inputs": [],
      "name": "InvalidMergeValue",
      "type": "error"
    },
    {
      "anonymous": false,
      "inputs": [
        {
          "indexed": true,
          "internalType": "address",
          "name": "dealer",
          "type": "address"
        },
        {
          "indexed": false,
          "internalType": "uint256",
          "name": "feeRatio",
          "type": "uint256"
        },
        {
          "indexed": false,
          "internalType": "bytes",
          "name": "extraInfo",
          "type": "bytes"
        }
      ],
      "name": "DealerUpdated",
      "type": "event"
    },
    {
      "anonymous": false,
      "inputs": [
        {
          "indexed": true,
          "internalType": "address",
          "name": "sender",
          "type": "address"
        },
        {
          "indexed": false,
          "internalType": "uint256",
          "name": "amount",
          "type": "uint256"
        }
      ],
      "name": "ETHDeposit",
      "type": "event"
    },
    {
      "anonymous": false,
      "inputs": [
        {
          "indexed": true,
          "internalType": "address",
          "name": "previousOwner",
          "type": "address"
        },
        {
          "indexed": true,
          "internalType": "address",
          "name": "newOwner",
          "type": "address"
        }
      ],
      "name": "OwnershipTransferred",
      "type": "event"
    },
    {
      "anonymous": false,
      "inputs": [
        {
          "indexed": false,
          "internalType": "uint64",
          "name": "stratBlock",
          "type": "uint64"
        },
        {
          "indexed": false,
          "internalType": "uint64",
          "name": "endBlock",
          "type": "uint64"
        },
        {
          "indexed": true,
          "internalType": "uint64",
          "name": "submitTimestamp",
          "type": "uint64"
        },
        {
          "indexed": true,
          "internalType": "bytes32",
          "name": "profitRoot",
          "type": "bytes32"
        },
        {
          "indexed": true,
          "internalType": "bytes32",
          "name": "stateTransTreeRoot",
          "type": "bytes32"
        }
      ],
      "name": "SubmissionUpdated",
      "type": "event"
    },
    {
      "anonymous": false,
      "inputs": [
        {
          "indexed": true,
          "internalType": "address",
          "name": "submiter",
          "type": "address"
        },
        {
          "indexed": false,
          "internalType": "uint256",
          "name": "marginAmount",
          "type": "uint256"
        }
      ],
      "name": "SubmitterRegistered",
      "type": "event"
    },
    {
      "anonymous": false,
      "inputs": [
        {
          "indexed": true,
          "internalType": "address",
          "name": "user",
          "type": "address"
        },
        {
          "indexed": false,
          "internalType": "uint64",
          "name": "chainId",
          "type": "uint64"
        },
        {
          "indexed": true,
          "internalType": "address",
          "name": "token",
          "type": "address"
        },
        {
          "indexed": true,
          "internalType": "uint256",
          "name": "debt",
          "type": "uint256"
        },
        {
          "indexed": false,
          "internalType": "uint256",
          "name": "amount",
          "type": "uint256"
        }
      ],
      "name": "Withdraw",
      "type": "event"
    },
    {
      "inputs": [],
      "name": "challengeStatus",
      "outputs": [
        {
          "internalType": "enum IORFeeManager.ChallengeStatus",
          "name": "",
          "type": "uint8"
        }
      ],
      "stateMutability": "view",
      "type": "function"
    },
    {
      "inputs": [],
      "name": "durationCheck",
      "outputs": [
        {
          "internalType": "enum IORFeeManager.FeeMangerDuration",
          "name": "duration",
          "type": "uint8"
        }
      ],
      "stateMutability": "view",
      "type": "function"
    },
    {
      "inputs": [],
      "name": "getCurrentBlockInfo",
      "outputs": [
        {
          "components": [
            {
              "internalType": "uint64",
              "name": "stratBlock",
              "type": "uint64"
            },
            {
              "internalType": "uint64",
              "name": "endBlock",
              "type": "uint64"
            },
            {
              "internalType": "uint64",
              "name": "submitTimestamp",
              "type": "uint64"
            },
            {
              "internalType": "bytes32",
              "name": "profitRoot",
              "type": "bytes32"
            },
            {
              "internalType": "bytes32",
              "name": "stateTransTreeRoot",
              "type": "bytes32"
            }
          ],
          "internalType": "struct IORFeeManager.Submission",
          "name": "",
          "type": "tuple"
        }
      ],
      "stateMutability": "view",
      "type": "function"
    },
    {
      "inputs": [
        {
          "internalType": "address",
          "name": "dealer",
          "type": "address"
        }
      ],
      "name": "getDealerInfo",
      "outputs": [
        {
          "components": [
            {
              "internalType": "uint256",
              "name": "feeRatio",
              "type": "uint256"
            },
            {
              "internalType": "bytes32",
              "name": "extraInfoHash",
              "type": "bytes32"
            }
          ],
          "internalType": "struct IORFeeManager.DealerInfo",
          "name": "",
          "type": "tuple"
        }
      ],
      "stateMutability": "view",
      "type": "function"
    },
    {
      "inputs": [],
      "name": "owner",
      "outputs": [
        {
          "internalType": "address",
          "name": "",
          "type": "address"
        }
      ],
      "stateMutability": "view",
      "type": "function"
    },
    {
      "inputs": [
        {
          "internalType": "uint256",
          "name": "marginAmount",
          "type": "uint256"
        },
        {
          "internalType": "address",
          "name": "_submitter",
          "type": "address"
        }
      ],
      "name": "registerSubmitter",
      "outputs": [],
      "stateMutability": "nonpayable",
      "type": "function"
    },
    {
      "inputs": [],
      "name": "renounceOwnership",
      "outputs": [],
      "stateMutability": "nonpayable",
      "type": "function"
    },
    {
      "inputs": [
        {
          "internalType": "bytes",
          "name": "response",
          "type": "bytes"
        }
      ],
      "name": "responsePositioning",
      "outputs": [],
      "stateMutability": "nonpayable",
      "type": "function"
    },
    {
      "inputs": [
        {
          "internalType": "uint256",
          "name": "marginAmount",
          "type": "uint256"
        },
        {
          "internalType": "address",
          "name": "_submitter",
          "type": "address"
        }
      ],
      "name": "startChallenge",
      "outputs": [],
      "stateMutability": "nonpayable",
      "type": "function"
    },
    {
      "inputs": [],
      "name": "submissions",
      "outputs": [
        {
          "internalType": "uint64",
          "name": "stratBlock",
          "type": "uint64"
        },
        {
          "internalType": "uint64",
          "name": "endBlock",
          "type": "uint64"
        },
        {
          "internalType": "uint64",
          "name": "submitTimestamp",
          "type": "uint64"
        },
        {
          "internalType": "bytes32",
          "name": "profitRoot",
          "type": "bytes32"
        },
        {
          "internalType": "bytes32",
          "name": "stateTransTreeRoot",
          "type": "bytes32"
        }
      ],
      "stateMutability": "view",
      "type": "function"
    },
    {
      "inputs": [
        {
          "internalType": "uint64",
          "name": "startBlock",
          "type": "uint64"
        },
        {
          "internalType": "uint64",
          "name": "endBlock",
          "type": "uint64"
        },
        {
          "internalType": "bytes32",
          "name": "profitRoot",
          "type": "bytes32"
        },
        {
          "internalType": "bytes32",
          "name": "stateTransTreeRoot",
          "type": "bytes32"
        }
      ],
      "name": "submit",
      "outputs": [],
      "stateMutability": "nonpayable",
      "type": "function"
    },
    {
      "inputs": [
        {
          "internalType": "address",
          "name": "",
          "type": "address"
        }
      ],
      "name": "submitter",
      "outputs": [
        {
          "internalType": "uint256",
          "name": "",
          "type": "uint256"
        }
      ],
      "stateMutability": "view",
      "type": "function"
    },
    {
      "inputs": [
        {
          "internalType": "address",
          "name": "newOwner",
          "type": "address"
        }
      ],
      "name": "transferOwnership",
      "outputs": [],
      "stateMutability": "nonpayable",
      "type": "function"
    },
    {
      "inputs": [
        {
          "internalType": "uint256",
          "name": "feeRatio",
          "type": "uint256"
        },
        {
          "internalType": "bytes",
          "name": "extraInfo",
          "type": "bytes"
        }
      ],
      "name": "updateDealer",
      "outputs": [],
      "stateMutability": "nonpayable",
      "type": "function"
    },
    {
      "inputs": [
        {
          "internalType": "bytes32",
          "name": "",
          "type": "bytes32"
        }
      ],
      "name": "withdrawLock",
      "outputs": [
        {
          "internalType": "bool",
          "name": "",
          "type": "bool"
        }
      ],
      "stateMutability": "view",
      "type": "function"
    },
    {
      "inputs": [
        {
          "components": [
            {
              "internalType": "uint64",
              "name": "chainId",
              "type": "uint64"
            },
            {
              "internalType": "address",
              "name": "token",
              "type": "address"
            },
            {
              "internalType": "address",
              "name": "user",
              "type": "address"
            }
          ],
          "internalType": "struct MerkleTreeLib.SMTKey",
          "name": "key",
          "type": "tuple"
        }
      ],
      "name": "withdrawLockCheck",
      "outputs": [
        {
          "internalType": "bool",
          "name": "",
          "type": "bool"
        }
      ],
      "stateMutability": "view",
      "type": "function"
    },
    {
      "inputs": [
        {
          "components": [
            {
              "components": [
                {
                  "internalType": "uint64",
                  "name": "chainId",
                  "type": "uint64"
                },
                {
                  "internalType": "address",
                  "name": "token",
                  "type": "address"
                },
                {
                  "internalType": "address",
                  "name": "user",
                  "type": "address"
                }
              ],
              "internalType": "struct MerkleTreeLib.SMTKey",
              "name": "key",
              "type": "tuple"
            },
            {
              "components": [
                {
                  "internalType": "address",
                  "name": "token",
                  "type": "address"
                },
                {
                  "internalType": "uint64",
                  "name": "chainId",
                  "type": "uint64"
                },
                {
                  "internalType": "uint256",
                  "name": "amount",
                  "type": "uint256"
                },
                {
                  "internalType": "uint256",
                  "name": "debt",
                  "type": "uint256"
                }
              ],
              "internalType": "struct MerkleTreeLib.SMTValue",
              "name": "value",
              "type": "tuple"
            }
          ],
          "internalType": "struct MerkleTreeLib.SMTLeaf[]",
          "name": "smtLeaves",
          "type": "tuple[]"
        },
        {
          "components": [
            {
              "internalType": "enum MerkleTreeLib.MergeValueType",
              "name": "mergeType",
              "type": "uint8"
            },
            {
              "components": [
                {
                  "internalType": "uint8",
                  "name": "value1",
                  "type": "uint8"
                },
                {
                  "internalType": "bytes32",
                  "name": "value2",
                  "type": "bytes32"
                },
                {
                  "internalType": "bytes32",
                  "name": "value3",
                  "type": "bytes32"
                }
              ],
              "internalType": "struct MerkleTreeLib.MergeValueSingle",
              "name": "mergeValue",
              "type": "tuple"
            }
          ],
          "internalType": "struct MerkleTreeLib.MergeValue[][]",
          "name": "siblings",
          "type": "tuple[][]"
        },
        {
          "internalType": "uint8[]",
          "name": "startIndex",
          "type": "uint8[]"
        },
        {
          "internalType": "bytes32[]",
          "name": "firstZeroBits",
          "type": "bytes32[]"
        },
        {
          "internalType": "uint256[]",
          "name": "bitmaps",
          "type": "uint256[]"
        },
        {
          "internalType": "uint256[]",
          "name": "withdrawAmount",
          "type": "uint256[]"
        }
      ],
      "name": "withdrawVerification",
      "outputs": [],
      "stateMutability": "nonpayable",
      "type": "function"
    },
    {
      "stateMutability": "payable",
      "type": "receive"
    }
  ],
  "bytecode": "0x60c0346200013a57601f620019d838819003918201601f19168301916001600160401b038311848410176200013f578084926060946040528339810103126200013a576200004d8162000155565b60406200005d6020840162000155565b920151916001600160a01b039081841684036200013a576200007f336200016a565b6001805581831615620001105716908115620000e657620000a0906200016a565b60805260a05260038054600160801b600160c01b0319166101b360841b1790556040516118269081620001b282396080518181816102a101526108fc015260a051815050f35b60405162461bcd60e51b815260206004820152600260248201526126ad60f11b6044820152606490fd5b60405162461bcd60e51b815260206004820152600260248201526127ad60f11b6044820152606490fd5b600080fd5b634e487b7160e01b600052604160045260246000fd5b51906001600160a01b03821682036200013a57565b600080546001600160a01b039283166001600160a01b03198216811783559216907f8be0079c531659141344cd1fd0a4f28419497f9722a3daafe3b4186f6b6457e09080a356fe60c0806040526004361015610049575b50361561001b57600080fd5b6040513481527fe427c182f349e706d5bd82644a18e14a5fcaf69a93ae9534164984df8cfdc33a60203392a2005b60003560e01c90816303cd8880146111055750806318466cb3146110d45780631bfa07fb1461099e578063360b729c146108ca5780635a755a1f1461085a5780635efe1b7e1461080c578063715018a6146107c557806376dcd8f1146107995780638da5cb5b14610770578063956fa83214610736578063a067e2be146104f6578063abfed8b5146103f3578063c99cee2f14610381578063d2e83ae91461025c578063d9a17d6e14610212578063e73783b81461019b5763f2fde38b14610111573861000f565b346101965760203660031901126101965761012a611173565b6101326111e8565b6001600160a01b0390811690811561016c576000548260018060a01b0319821617600055166000805160206117fa833981519152600080a3005b60405162461bcd60e51b815260206004820152600260248201526127ad60f11b6044820152606490fd5b600080fd5b34610196576060366003190112610196576044356001600160a01b0381168103610196576101e46101f260018060401b0360035460801c166040519283916020830195866112a5565b03601f198101835282611319565b5190206000526008602052602060ff604060002054166040519015158152f35b34610196576020366003190112610196576004356001600160401b038111610196576102429036906004016111bb565b505061024c61135c565b6002805460ff1916905560018055005b346101965760403660031901126101965760043561027861115d565b6102806111e8565b6040516346e22ecd60e11b8152916020916001600160a01b039083856004817f000000000000000000000000000000000000000000000000000000000000000086165afa94851561037557600095610344575b5081169316830361031957907f78283e8ede6f0ee246101a5bd1e6a9e86bdb3b44f3142f9caf2f9d149926c93191836000526007825280604060002055604051908152a2005b60405162461bcd60e51b81526004810183905260036024820152622729a960e91b6044820152606490fd5b8291955061036790853d871161036e575b61035f8183611319565b8101906113b2565b94906102d3565b503d610355565b6040513d6000823e3d90fd5b346101965760003660031901126101965760a06040516103a0816112e3565b6000815260208101600081526040820191600083526080606082019160008352019160008352604051936000855260018060401b0380925116602086015251166040840152516060830152516080820152f35b34610196576040366003190112610196576004356001600160401b03602435818111610196576104279036906004016111bb565b92909183116104e057604051601f8401601f19169360209061044b82870184611319565b80835281830136828701116101965785604060609483600097867f477dfd24160e8774a01758d43787dbb93ed9a6c79f15f8f640dfee7e0ebe0e859b8197378883878301015251902060018351916104a2836112c8565b8a8352838301908152338a5260068452848a2092518355519101558151978852870152816040870152838601378301015260608133948101030190a2005b634e487b7160e01b600052604160045260246000fd5b34610196576080366003190112610196576001600160401b03600435818116908190036101965760249081359083821680830361019657604480359460649687359761054061135c565b3360005260209360078552604060002054156107115760ff6002541660058110156106fc576106d657610571611240565b61057a8161119d565b6106b0578686111561068b5760405193610593856112e3565b600354948486168152848660401c16908188820152858760801c1660408201526004546060820152608060055491015288036106665750505091604093917f20c02754685965d9ad8f865f1b870fddadb34aa5cecdc76571b1d6f19dbeaf1695934216968960808751610605816112e3565b8781528581018790528881018b9052606081018c90520152851b6001861b600160801b03166001600160c01b03199091168417174260801b600160801b600160c01b031617600355600487905560058890558351928352820152a460018055005b8591600261424560f01b926040519462461bcd60e51b86526004860152840152820152fd5b6122a160f11b85916002866040519462461bcd60e51b86526004860152840152820152fd5b6227261960e91b85916003866040519462461bcd60e51b86526004860152840152820152fd5b6253444360e81b85916003866040519462461bcd60e51b86526004860152840152820152fd5b84634e487b7160e01b60005260216004526000fd5b614e5360f01b85916002866040519462461bcd60e51b86526004860152840152820152fd5b34610196576020366003190112610196576001600160a01b03610757611173565b1660005260076020526020604060002054604051908152f35b34610196576000366003190112610196576000546040516001600160a01b039091168152602090f35b346101965760003660031901126101965760206107b4611240565b604051906107c18161119d565b8152f35b34610196576000366003190112610196576107de6111e8565b600080546001600160a01b0319811682556001600160a01b03166000805160206117fa8339815191528280a3005b346101965760003660031901126101965760a0600354600454600554906040519260018060401b03908181168552818160401c16602086015260801c16604084015260608301526080820152f35b3461019657602036600319011261019657610873611173565b60006020604051610883816112c8565b82815201526001600160a01b03166000908152600660205260409081902081516108ac816112c8565b60206001835493848452015491019081528251918252516020820152f35b34610196576040366003190112610196576108e361115d565b506040516346e22ecd60e11b81523331906020816004817f00000000000000000000000000000000000000000000000000000000000000006001600160a01b03165afa90811561037557600091610980575b5031116109565761094461135c565b6002805460ff19168117905560018055005b60405162461bcd60e51b8152602060048201526002602482015261272360f11b6044820152606490fd5b610998915060203d811161036e5761035f8183611319565b82610935565b346101965760c0366003190112610196576001600160401b036004351161019657366023600435011215610196576001600160401b03600480350135116101965736602460e06004356004013502600435010111610196576024356001600160401b03811161019657610a1590369060040161112d565b6044356001600160401b03811161019657610a3490369060040161112d565b916064356001600160401b03811161019657610a5490369060040161112d565b60a091909152916084356001600160401b03811161019657610a7a90369060040161112d565b92909160a4356001600160401b03811161019657610a9c90369060040161112d565b979095610aa761135c565b6002610ab1611240565b610aba8161119d565b036110aa5760ff600254166005811015611094576110695760035460405190610af99082906101e49060801c6001600160401b031633602084016112a5565b6020815191012080600052600860205260ff6040600020541661103f5760005260086020526040600020600160ff1982541617905560006004546080525b600435600401358110610b4a5760018055005b610b55818b8a61133c565b3560a0610b6e836004356004013560246004350161134c565b01351061101457610b8b816004356004013560246004350161134c565b604051906001600160401b03610ba0826111a7565b16602083015260018060a01b03610bb960208301611189565b166040830152610bd2604060018060a01b039201611189565b16606082015260608152610be5816112fe565b60208151910120610c02826004356004013560246004350161134c565b604051602081019160c0906001600160a01b03610c2160608301611189565b1684526001600160401b03610c38608083016111a7565b16604084015260a081013560608401520135608082015260808152610c5c816112e3565b519020610c6a838a8a61133c565b358b610c8585610c7d818960a05161133c565b35928a61133c565b359160ff831683036101965789861015610ffe57601e19883603018660051b8901351215610196576001600160401b03600587901b8901358901351161019657600586901b8801358801803560071b360360209091011361019657849160ff600094600092610cf26113d1565b98610cfb6113d1565b9880158015610ff4575b15610fa5575b505050888b92899297969716955b60ff871115610eb85750505050505050505060008151610d388161119d565b610d418161119d565b610e5e575060208091015101515b60805103610e1d576080610d6f826004356004013560246004350161134c565b0135906001600160401b0382168203610196576060610d9a826004356004013560246004350161134c565b01356001600160a01b0381168103610196576001928a91610dd6848f60c0610dce836004356004013560246004350161134c565b01359561133c565b3560405192868060401b031683526020830152848060a01b0316907fb0c9c17767e446fa28426081136370521e93205e6fd5180573080cfac9b6950960403392a401610b37565b60405162461bcd60e51b81526020600482015260196024820152781b595c9adb19481c9bdbdd081d995c9a599e4819985a5b1959603a1b6044820152606490fd5b9060018151610e6c8161119d565b610e758161119d565b14610e81575b50610d4f565b602091500151602081015190610eaf60ff6040830151925116916101e46040519384926020840196876114da565b5190208b610e7b565b600160ff8890031b9086821615610f5d5750916001939160ff9593610edd898b6114bf565b991615610f2c57610f19928291610f1091610f0b91878a169160059190911b8101350180359060200161142c565b61143c565b89878a166114fc565b01165b6001929092019188868886610d19565b610f5892610f4e91610f0b918689169160051b8101350180359060200161142c565b8189878a166114fc565b610f19565b97925092505060ff8316610f73575b5050610f1c565b1615610f9057610f898680878760ff88166114fc565b3880610f6c565b610fa08686818760ff88166114fc565b610f89565b60409160018c5260208c01918686168351528351906020820192600084526001808a1b031685830152606082015260608152610fe0816112fe565b519020602082510152510152388080610d0b565b5084841615610d05565b634e487b7160e01b600052603260045260246000fd5b60405162461bcd60e51b81526020600482015260036024820152622aa4a360e91b6044820152606490fd5b60405162461bcd60e51b815260206004820152600260248201526115d360f21b6044820152606490fd5b60405162461bcd60e51b815260206004820152600360248201526257444360e81b6044820152606490fd5b634e487b7160e01b600052602160045260246000fd5b60405162461bcd60e51b8152602060048201526002602482015261574560f01b6044820152606490fd5b34610196576020366003190112610196576004356000526008602052602060ff604060002054166040519015158152f35b346101965760003660031901126101965760ff60025416906005821015611094576020918152f35b9181601f84011215610196578235916001600160401b038311610196576020808501948460051b01011161019657565b602435906001600160a01b038216820361019657565b600435906001600160a01b038216820361019657565b35906001600160a01b038216820361019657565b6003111561109457565b35906001600160401b038216820361019657565b9181601f84011215610196578235916001600160401b038311610196576020838186019501011161019657565b6000546001600160a01b031633036111fc57565b606460405162461bcd60e51b815260206004820152602060248201527f4f776e61626c653a2063616c6c6572206973206e6f7420746865206f776e65726044820152fd5b600354610e109060801c6001600160401b03168181018082116112885742111561129e57610e0f19904203019042821161128857610d2091061161128357600290565b600090565b634e487b7160e01b600052601160045260246000fd5b5050600190565b6001600160a01b0390911681526001600160401b03909116602082015260400190565b604081019081106001600160401b038211176104e057604052565b60a081019081106001600160401b038211176104e057604052565b608081019081106001600160401b038211176104e057604052565b601f909101601f19168101906001600160401b038211908210176104e057604052565b9190811015610ffe5760051b0190565b9190811015610ffe5760e0020190565b60026001541461136d576002600155565b60405162461bcd60e51b815260206004820152601f60248201527f5265656e7472616e637947756172643a207265656e7472616e742063616c6c006044820152606490fd5b9081602091031261019657516001600160a01b03811681036101965790565b604051906113de826112c8565b6000808352604051908390606083016001600160401b03811184821017611418579060209291604052808452808385015260408401520152565b634e487b7160e01b82526041600452602482fd5b9190811015610ffe5760071b0190565b803603608081126101965760408051926001600160401b0392848301848111868210176104e05783528135906003821015610196576060918652601f1901126101965781519260608401908111848210176104e057825260208101359060ff82168203610196576060918452828101356020850152013590820152602082015290565b9060ff81146114d35760010190811b901c90565b5050600090565b91606091949360ff916080850196600286526020860152604085015216910152565b929390602092838101908482510151158080916117bb575b15611524575b5050505050505050565b1561160b57505084516115368161119d565b61153f8161119d565b6115a4578383918280600160ff61155760409a6117c9565b161b980151015186519160ff8584019416845287830152606082015260608152611580816112fe565b519020916001815201916001835152825101525101525b388080808080808061151a565b5090600184516115b38161119d565b6115bc8161119d565b036115f957806115f4940192600160ff6115db604087510151936117c9565b161b1792519060ff6001818451160116910151916117da565b611597565b604051630b0dc31f60e01b8152600490fd5b9095848196949596018681510151156000146116c3575050805161162e8161119d565b6116378161119d565b6116875750928092916040948260009751015186519160ff858401941684528783015260608201526060815261166c816112fe565b51902091600181520191600183515282510152510152611597565b905060019150516116978161119d565b6116a08161119d565b036115f9576115f4925160408101519260ff6001818451160116910151916117da565b909294968692908391516116d68161119d565b6116df8161119d565b61178957510151925b516116f28161119d565b6116fb8161119d565b61175757510151905b6040519360ff86860194600186521660408601526060850152608084015260a083015260a0825260c082019180831060018060401b038411176104e0578392604052519020926000815201510152611597565b905051848101519061178060ff6040830151925116916101e46040519384928a840196876114da565b51902090611704565b90505182810151906117b260ff6040830151925116916101e460405193849288840196876114da565b519020926116e8565b508580890151015115611514565b60ff1660ff039060ff821161128857565b91602060409360018152019160ff83519116905260208251015251015256fe8be0079c531659141344cd1fd0a4f28419497f9722a3daafe3b4186f6b6457e0a164736f6c6343000811000a",
  "linkReferences": {},
  "deployedLinkReferences": {}
}