{
  "_format": "hh-sol-artifact-1",
  "contractName": "ORMakerDeposit",
  "sourceName": "contracts/ORMakerDeposit.sol",
  "abi": [
    {
      "anonymous": false,
      "inputs": [
        {
          "indexed": true,
          "internalType": "bytes32",
          "name": "challengeId",
          "type": "bytes32"
        },
        {
          "components": [
            {
              "internalType": "uint256",
              "name": "sourceTxFrom",
              "type": "uint256"
            },
            {
              "internalType": "uint64",
              "name": "sourceTxTime",
              "type": "uint64"
            },
            {
              "internalType": "address",
              "name": "challenger",
              "type": "address"
            },
            {
              "internalType": "address",
              "name": "freezeToken",
              "type": "address"
            },
            {
              "internalType": "uint64",
              "name": "challengeUserRatio",
              "type": "uint64"
            },
            {
              "internalType": "uint256",
              "name": "freezeAmount0",
              "type": "uint256"
            },
            {
              "internalType": "uint256",
              "name": "freezeAmount1",
              "type": "uint256"
            },
            {
              "internalType": "uint64",
              "name": "challengeTime",
              "type": "uint64"
            },
            {
              "internalType": "uint64",
              "name": "abortTime",
              "type": "uint64"
            },
            {
              "internalType": "uint64",
              "name": "verifiedTime0",
              "type": "uint64"
            },
            {
              "internalType": "uint64",
              "name": "verifiedTime1",
              "type": "uint64"
            },
            {
              "internalType": "bytes32",
              "name": "verifiedDataHash0",
              "type": "bytes32"
            }
          ],
          "indexed": false,
          "internalType": "struct IORMakerDeposit.ChallengeInfo",
          "name": "challengeInfo",
          "type": "tuple"
        }
      ],
      "name": "ChallengeInfoUpdated",
      "type": "event"
    },
    {
      "anonymous": false,
      "inputs": [
        {
          "indexed": true,
          "internalType": "address",
          "name": "impl",
          "type": "address"
        },
        {
          "indexed": false,
          "internalType": "bytes32",
          "name": "columnArrayHash",
          "type": "bytes32"
        },
        {
          "indexed": false,
          "internalType": "address[]",
          "name": "dealers",
          "type": "address[]"
        },
        {
          "indexed": false,
          "internalType": "address[]",
          "name": "ebcs",
          "type": "address[]"
        },
        {
          "indexed": false,
          "internalType": "uint64[]",
          "name": "chainIds",
          "type": "uint64[]"
        }
      ],
      "name": "ColumnArrayUpdated",
      "type": "event"
    },
    {
      "anonymous": false,
      "inputs": [
        {
          "indexed": true,
          "internalType": "address",
          "name": "impl",
          "type": "address"
        },
        {
          "indexed": false,
          "internalType": "uint256[]",
          "name": "responseMakers",
          "type": "uint256[]"
        }
      ],
      "name": "ResponseMakersUpdated",
      "type": "event"
    },
    {
      "anonymous": false,
      "inputs": [
        {
          "indexed": true,
          "internalType": "address",
          "name": "impl",
          "type": "address"
        },
        {
          "indexed": false,
          "internalType": "address",
          "name": "ebc",
          "type": "address"
        },
        {
          "components": [
            {
              "internalType": "bytes32",
              "name": "root",
              "type": "bytes32"
            },
            {
              "internalType": "uint32",
              "name": "version",
              "type": "uint32"
            }
          ],
          "indexed": false,
          "internalType": "struct RuleLib.RootWithVersion",
          "name": "rootWithVersion",
          "type": "tuple"
        }
      ],
      "name": "RulesRootUpdated",
      "type": "event"
    },
    {
      "anonymous": false,
      "inputs": [
        {
          "indexed": true,
          "internalType": "address",
          "name": "impl",
          "type": "address"
        },
        {
          "indexed": false,
          "internalType": "uint64",
          "name": "chainId",
          "type": "uint64"
        },
        {
          "indexed": false,
          "internalType": "address",
          "name": "spv",
          "type": "address"
        }
      ],
      "name": "SpvUpdated",
      "type": "event"
    },
    {
      "inputs": [
        {
          "internalType": "uint64",
          "name": "sourceChainId",
          "type": "uint64"
        },
        {
          "internalType": "bytes32",
          "name": "sourceTxHash",
          "type": "bytes32"
        },
        {
          "internalType": "uint64",
          "name": "sourceTxTime",
          "type": "uint64"
        },
        {
          "internalType": "address",
          "name": "freezeToken",
          "type": "address"
        },
        {
          "internalType": "uint256",
          "name": "freezeAmount1",
          "type": "uint256"
        }
      ],
      "name": "challenge",
      "outputs": [],
      "stateMutability": "payable",
      "type": "function"
    },
    {
      "inputs": [
        {
          "internalType": "uint64",
          "name": "sourceChainId",
          "type": "uint64"
        },
        {
          "internalType": "bytes32",
          "name": "sourceTxHash",
          "type": "bytes32"
        },
        {
          "internalType": "uint256[]",
          "name": "verifiedData0",
          "type": "uint256[]"
        }
      ],
      "name": "checkChallenge",
      "outputs": [],
      "stateMutability": "nonpayable",
      "type": "function"
    },
    {
      "inputs": [],
      "name": "columnArrayHash",
      "outputs": [
        {
          "internalType": "bytes32",
          "name": "",
          "type": "bytes32"
        }
      ],
      "stateMutability": "view",
      "type": "function"
    },
    {
      "inputs": [
        {
          "internalType": "address",
          "name": "token",
          "type": "address"
        },
        {
          "internalType": "uint256",
          "name": "amount",
          "type": "uint256"
        }
      ],
      "name": "deposit",
      "outputs": [],
      "stateMutability": "payable",
      "type": "function"
    },
    {
      "inputs": [
        {
          "internalType": "address",
          "name": "token",
          "type": "address"
        }
      ],
      "name": "freezeAssets",
      "outputs": [
        {
          "internalType": "uint256",
          "name": "",
          "type": "uint256"
        }
      ],
      "stateMutability": "view",
      "type": "function"
    },
    {
      "inputs": [],
      "name": "getVersionAndEnableTime",
      "outputs": [
        {
          "internalType": "uint128",
          "name": "version",
          "type": "uint128"
        },
        {
          "internalType": "uint64",
          "name": "blockNumber",
          "type": "uint64"
        },
        {
          "internalType": "uint64",
          "name": "enableTime",
          "type": "uint64"
        }
      ],
      "stateMutability": "view",
      "type": "function"
    },
    {
      "inputs": [
        {
          "internalType": "address",
          "name": "owner_",
          "type": "address"
        }
      ],
      "name": "initialize",
      "outputs": [],
      "stateMutability": "nonpayable",
      "type": "function"
    },
    {
      "inputs": [],
      "name": "mdcFactory",
      "outputs": [
        {
          "internalType": "address",
          "name": "",
          "type": "address"
        }
      ],
      "stateMutability": "view",
      "type": "function"
    },
    {
      "inputs": [],
      "name": "owner",
      "outputs": [
        {
          "internalType": "address",
          "name": "",
          "type": "address"
        }
      ],
      "stateMutability": "view",
      "type": "function"
    },
    {
      "inputs": [],
      "name": "responseMakersHash",
      "outputs": [
        {
          "internalType": "bytes32",
          "name": "",
          "type": "bytes32"
        }
      ],
      "stateMutability": "view",
      "type": "function"
    },
    {
      "inputs": [
        {
          "internalType": "address",
          "name": "ebc",
          "type": "address"
        }
      ],
      "name": "rulesRoot",
      "outputs": [
        {
          "components": [
            {
              "internalType": "bytes32",
              "name": "root",
              "type": "bytes32"
            },
            {
              "internalType": "uint32",
              "name": "version",
              "type": "uint32"
            }
          ],
          "internalType": "struct RuleLib.RootWithVersion",
          "name": "",
          "type": "tuple"
        }
      ],
      "stateMutability": "view",
      "type": "function"
    },
    {
      "inputs": [
        {
          "internalType": "uint64",
          "name": "chainId",
          "type": "uint64"
        }
      ],
      "name": "spv",
      "outputs": [
        {
          "internalType": "address",
          "name": "",
          "type": "address"
        }
      ],
      "stateMutability": "view",
      "type": "function"
    },
    {
      "inputs": [
        {
          "internalType": "uint64",
          "name": "enableTime",
          "type": "uint64"
        },
        {
          "internalType": "address[]",
          "name": "dealers",
          "type": "address[]"
        },
        {
          "internalType": "address[]",
          "name": "ebcs",
          "type": "address[]"
        },
        {
          "internalType": "uint64[]",
          "name": "chainIds",
          "type": "uint64[]"
        }
      ],
      "name": "updateColumnArray",
      "outputs": [],
      "stateMutability": "nonpayable",
      "type": "function"
    },
    {
      "inputs": [
        {
          "internalType": "uint64",
          "name": "enableTime",
          "type": "uint64"
        },
        {
          "internalType": "bytes[]",
          "name": "responseMakerSignatures",
          "type": "bytes[]"
        }
      ],
      "name": "updateResponseMakers",
      "outputs": [],
      "stateMutability": "nonpayable",
      "type": "function"
    },
    {
      "inputs": [
        {
          "internalType": "uint64",
          "name": "enableTime",
          "type": "uint64"
        },
        {
          "internalType": "address",
          "name": "ebc",
          "type": "address"
        },
        {
          "components": [
            {
              "internalType": "uint64",
              "name": "chainId0",
              "type": "uint64"
            },
            {
              "internalType": "uint64",
              "name": "chainId1",
              "type": "uint64"
            },
            {
              "internalType": "uint8",
              "name": "status0",
              "type": "uint8"
            },
            {
              "internalType": "uint8",
              "name": "status1",
              "type": "uint8"
            },
            {
              "internalType": "uint256",
              "name": "token0",
              "type": "uint256"
            },
            {
              "internalType": "uint256",
              "name": "token1",
              "type": "uint256"
            },
            {
              "internalType": "uint128",
              "name": "minPrice0",
              "type": "uint128"
            },
            {
              "internalType": "uint128",
              "name": "minPrice1",
              "type": "uint128"
            },
            {
              "internalType": "uint128",
              "name": "maxPrice0",
              "type": "uint128"
            },
            {
              "internalType": "uint128",
              "name": "maxPrice1",
              "type": "uint128"
            },
            {
              "internalType": "uint128",
              "name": "withholdingFee0",
              "type": "uint128"
            },
            {
              "internalType": "uint128",
              "name": "withholdingFee1",
              "type": "uint128"
            },
            {
              "internalType": "uint32",
              "name": "tradingFee0",
              "type": "uint32"
            },
            {
              "internalType": "uint32",
              "name": "tradingFee1",
              "type": "uint32"
            },
            {
              "internalType": "uint32",
              "name": "responseTime0",
              "type": "uint32"
            },
            {
              "internalType": "uint32",
              "name": "responseTime1",
              "type": "uint32"
            },
            {
              "internalType": "uint32",
              "name": "compensationRatio0",
              "type": "uint32"
            },
            {
              "internalType": "uint32",
              "name": "compensationRatio1",
              "type": "uint32"
            }
          ],
          "internalType": "struct RuleLib.Rule[]",
          "name": "rules",
          "type": "tuple[]"
        },
        {
          "components": [
            {
              "internalType": "bytes32",
              "name": "root",
              "type": "bytes32"
            },
            {
              "internalType": "uint32",
              "name": "version",
              "type": "uint32"
            }
          ],
          "internalType": "struct RuleLib.RootWithVersion",
          "name": "rootWithVersion",
          "type": "tuple"
        },
        {
          "internalType": "uint64[]",
          "name": "sourceChainIds",
          "type": "uint64[]"
        },
        {
          "internalType": "uint256[]",
          "name": "pledgeAmounts",
          "type": "uint256[]"
        }
      ],
      "name": "updateRulesRoot",
      "outputs": [],
      "stateMutability": "payable",
      "type": "function"
    },
    {
      "inputs": [
        {
          "internalType": "uint64",
          "name": "enableTime",
          "type": "uint64"
        },
        {
          "internalType": "address",
          "name": "ebc",
          "type": "address"
        },
        {
          "components": [
            {
              "internalType": "uint64",
              "name": "chainId0",
              "type": "uint64"
            },
            {
              "internalType": "uint64",
              "name": "chainId1",
              "type": "uint64"
            },
            {
              "internalType": "uint8",
              "name": "status0",
              "type": "uint8"
            },
            {
              "internalType": "uint8",
              "name": "status1",
              "type": "uint8"
            },
            {
              "internalType": "uint256",
              "name": "token0",
              "type": "uint256"
            },
            {
              "internalType": "uint256",
              "name": "token1",
              "type": "uint256"
            },
            {
              "internalType": "uint128",
              "name": "minPrice0",
              "type": "uint128"
            },
            {
              "internalType": "uint128",
              "name": "minPrice1",
              "type": "uint128"
            },
            {
              "internalType": "uint128",
              "name": "maxPrice0",
              "type": "uint128"
            },
            {
              "internalType": "uint128",
              "name": "maxPrice1",
              "type": "uint128"
            },
            {
              "internalType": "uint128",
              "name": "withholdingFee0",
              "type": "uint128"
            },
            {
              "internalType": "uint128",
              "name": "withholdingFee1",
              "type": "uint128"
            },
            {
              "internalType": "uint32",
              "name": "tradingFee0",
              "type": "uint32"
            },
            {
              "internalType": "uint32",
              "name": "tradingFee1",
              "type": "uint32"
            },
            {
              "internalType": "uint32",
              "name": "responseTime0",
              "type": "uint32"
            },
            {
              "internalType": "uint32",
              "name": "responseTime1",
              "type": "uint32"
            },
            {
              "internalType": "uint32",
              "name": "compensationRatio0",
              "type": "uint32"
            },
            {
              "internalType": "uint32",
              "name": "compensationRatio1",
              "type": "uint32"
            }
          ],
          "internalType": "struct RuleLib.Rule[]",
          "name": "rules",
          "type": "tuple[]"
        },
        {
          "components": [
            {
              "internalType": "bytes32",
              "name": "root",
              "type": "bytes32"
            },
            {
              "internalType": "uint32",
              "name": "version",
              "type": "uint32"
            }
          ],
          "internalType": "struct RuleLib.RootWithVersion",
          "name": "rootWithVersion",
          "type": "tuple"
        },
        {
          "internalType": "uint64[]",
          "name": "sourceChainIds",
          "type": "uint64[]"
        },
        {
          "internalType": "uint256[]",
          "name": "pledgeAmounts",
          "type": "uint256[]"
        },
        {
          "internalType": "address",
          "name": "token",
          "type": "address"
        }
      ],
      "name": "updateRulesRootERC20",
      "outputs": [],
      "stateMutability": "nonpayable",
      "type": "function"
    },
    {
      "inputs": [
        {
          "internalType": "uint64",
          "name": "enableTime",
          "type": "uint64"
        },
        {
          "internalType": "address[]",
          "name": "spvs",
          "type": "address[]"
        },
        {
          "internalType": "uint64[]",
          "name": "chainIds",
          "type": "uint64[]"
        }
      ],
      "name": "updateSpvs",
      "outputs": [],
      "stateMutability": "nonpayable",
      "type": "function"
    },
    {
      "inputs": [
        {
          "internalType": "address",
          "name": "spvAddress",
          "type": "address"
        },
        {
          "internalType": "bytes",
          "name": "proof",
          "type": "bytes"
        },
        {
          "internalType": "bytes32[2]",
          "name": "spvBlockHashs",
          "type": "bytes32[2]"
        },
        {
          "components": [
            {
              "internalType": "uint256[]",
              "name": "data",
              "type": "uint256[]"
            },
            {
              "components": [
                {
                  "internalType": "address",
                  "name": "account",
                  "type": "address"
                },
                {
                  "internalType": "bytes32",
                  "name": "key",
                  "type": "bytes32"
                },
                {
                  "internalType": "uint256",
                  "name": "value",
                  "type": "uint256"
                }
              ],
              "internalType": "struct IORChallengeSpv.VerifyInfoSlot[]",
              "name": "slots",
              "type": "tuple[]"
            }
          ],
          "internalType": "struct IORChallengeSpv.VerifyInfo",
          "name": "verifyInfo",
          "type": "tuple"
        },
        {
          "internalType": "uint256[]",
          "name": "verifiedData0",
          "type": "uint256[]"
        },
        {
          "internalType": "bytes",
          "name": "rawDatas",
          "type": "bytes"
        }
      ],
      "name": "verifyChallengeDest",
      "outputs": [],
      "stateMutability": "nonpayable",
      "type": "function"
    },
    {
      "inputs": [
        {
          "internalType": "address",
          "name": "spvAddress",
          "type": "address"
        },
        {
          "internalType": "bytes",
          "name": "proof",
          "type": "bytes"
        },
        {
          "internalType": "bytes32[2]",
          "name": "spvBlockHashs",
          "type": "bytes32[2]"
        },
        {
          "components": [
            {
              "internalType": "uint256[]",
              "name": "data",
              "type": "uint256[]"
            },
            {
              "components": [
                {
                  "internalType": "address",
                  "name": "account",
                  "type": "address"
                },
                {
                  "internalType": "bytes32",
                  "name": "key",
                  "type": "bytes32"
                },
                {
                  "internalType": "uint256",
                  "name": "value",
                  "type": "uint256"
                }
              ],
              "internalType": "struct IORChallengeSpv.VerifyInfoSlot[]",
              "name": "slots",
              "type": "tuple[]"
            }
          ],
          "internalType": "struct IORChallengeSpv.VerifyInfo",
          "name": "verifyInfo",
          "type": "tuple"
        },
        {
          "internalType": "bytes",
          "name": "rawDatas",
          "type": "bytes"
        }
      ],
      "name": "verifyChallengeSource",
      "outputs": [],
      "stateMutability": "nonpayable",
      "type": "function"
    },
    {
      "inputs": [
        {
          "internalType": "uint64",
          "name": "enableTime",
          "type": "uint64"
        }
      ],
      "name": "versionIncreaseAndEnableTime",
      "outputs": [],
      "stateMutability": "nonpayable",
      "type": "function"
    },
    {
      "inputs": [
        {
          "internalType": "address",
          "name": "token",
          "type": "address"
        },
        {
          "internalType": "uint256",
          "name": "amount",
          "type": "uint256"
        }
      ],
      "name": "withdraw",
      "outputs": [],
      "stateMutability": "nonpayable",
      "type": "function"
    },
    {
      "stateMutability": "payable",
      "type": "receive"
    }
  ],
  "bytecode": "0x6080806040523461001657614fb2908161001c8239f35b600080fdfe608080604052600436101561001d575b50361561001b57600080fd5b005b60003560e01c90816302f17ed3146138f95750806334bc98de1461378d57806337eb04431461374757806347e7ef2414613712578063495b18361461314c57806349c4bb761461310a5780634b4c85c4146130ec5780634c20cb24146130c3578063539cb3a514612e0a5780635bcb403714612dd0578063671ecbfe14612d595780636d9437b114612ba45780638adac2c5146128a65780638da5cb5b1461287d5780638f5520d9146124c5578063a531ffd8146124a9578063b315019c14612281578063bc0136ad14611c56578063c4d66de814611bb0578063c75c16cf146102b35763f3fef3a314610111573861000f565b3461029b57604036600319011261029b5761012a613954565b600154602435916001600160a01b03916101479083163314613a0c565b1690816101e55761016981924790600052600860205260406000205490614274565b106101b657600080808093335af161017f61415f565b501561018757005b60405162461bcd60e51b81526020600482015260076024820152664554483a20534560c81b6044820152606490fd5b60405162461bcd60e51b815260206004820152600760248201526622aa241d1024a360c91b6044820152606490fd5b6040516370a0823160e01b8152306004820152602092908381602481855afa80156102a757839160009161026f575b5061022d90836000526008865260406000205490614274565b1061023e5761001b92503390614281565b60405162461bcd60e51b815260048101849052600960248201526822a92199181d1024a360b91b6044820152606490fd5b809250858092503d83116102a0575b6102888183613ae0565b8101031261029b5751829061022d610214565b600080fd5b503d61027e565b6040513d6000823e3d90fd5b3461029b5760031960c03682011261029b576102cd613954565b906024356001600160401b03811161029b576102ed9036906004016139df565b90913660841161029b576001600160401b036084351161029b576040906084353603011261029b5760a4356001600160401b03811161029b576103349036906004016139df565b91909360018060a01b0360025416936040519163481c6a7560e01b8352602083600481895afa9283156102a757600093611b74575b5061037960046084350180614855565b1561146a5760405163b288706d60e01b815290356001600160401b0316600482015292600090849060249082906001600160a01b03165afa9384156102a7576103f36103ee8360e061043c98602098600091611b51575b5080516103e7906001600160401b03161515613cea565b0151614cf7565b613db2565b6040518481019061041b8161040d6084356004018561488a565b03601f198101835282613ae0565b5190206040516390c80a5560e01b8152958694859384939160048501614975565b03916001600160a01b03165afa80156102a75761046191600091611b22575b506149ad565b61047060046084350180614855565b1561146a5761048460046084350180614855565b6001929192101561146a5760405160208082019391926104b892849261040d9291013590356001600160401b031686614692565b5190206000818152600960205260409020600501549093906001600160401b031615611af75760008481526009602052604090206005015460801c6001600160401b0316611aca5761050f60046084350180614855565b6007101561146a576000858152600960205260409020600101546001600160401b0390811660e0909201351603611aa05761054f60046084350180614855565b6002101561146a576001546001600160a01b039081166040909201351603611a75576102c081838101031261029b576001600160401b0381351161029b5761059c828201823583016149de565b6001600160401b0360208301351161029b576105c0838301602084013584016149de565b6040830135916001600160401b03831161029b57848401601f84860101121561029b576105ef83850135613bac565b926105fd6040519485613ae0565b80850135845260208401908187870160208389013560051b848a0101011161029b57602082880101905b878301803560051b016020018210611a5a575050506060850135956001600160a01b038716870361029b57610240908601869003607f19011261029b57604051946001600160401b0361024087019081119087111761143e576102a06107bb91610240880160405261069b6080820161392a565b88526106a960a0820161392a565b60208901526106ba60c08201614a44565b60408901526106cb60e08201614a44565b6060890152610100810135608089015261012081013560a08901526106f36101408201614a52565b60c08901526107056101608201614a52565b60e08901526107176101808201614a52565b61010089015261072a6101a08201614a52565b61012089015261073d6101c08201614a52565b6101408901526107506101e08201614a52565b6101608901526107636102008201614334565b6101808901526107766102208201614334565b6101a08901526107896102408201614334565b6101c089015261079c6102608201614334565b6101e08901526107af6102808201614334565b61020089015201614334565b6102208601526107d5602460843501608435600401614a66565b1561146a576107e390613b27565b60405163481c6a7560e01b81526020816004818c5afa9081156102a757600091611a20575b506001600160a01b039081169116036119f35761082a60046084350180614855565b1561146a576040516020810191358252600260408201526040815261084e81613aaa565b519020610865602460843501608435600401614a66565b9190911561146a5760018101811161167057600160209101910135036119c65761089460046084350180614855565b6007101561146a5760e06108aa91013542614274565b6108be602460843501608435600401614a66565b1561146a576108dc90604001356001600160401b0316821015614a9b565b6108f0602460843501608435600401614a66565b9190911561146a5761091491604090810135901c6001600160401b03161015614ad0565b610928602460843501608435600401614a66565b6001101561146a57606061093c9101613b27565b60405163481c6a7560e01b81526020816004818c5afa9081156102a75760009161198c575b506001600160a01b039081169116036119615761098360046084350180614855565b1561146a5761099760046084350180614855565b6004929192101561146a57604051602081019290916109cb91839161040d916080013590356001600160401b031686614692565b51902060405190602082015260036040820152604081526109eb81613aaa565b60208151910120610a06602460843501608435600401614a66565b6001929192101561146a576001810181116116705760016080910191013503611936576000888152600960205260409020600201546001600160a01b0316610a576084356024810190600401614a66565b6001101561146a5760a001356001600160a01b03160361190b57610a85602460843501608435600401614a66565b6002101561146a5760c0610a999101613b27565b60405163481c6a7560e01b81526020816004818c5afa9081156102a7576000916118d1575b506001600160a01b039081169116036118a657610ae5602460843501608435600401614a66565b6002101561146a5760e060069101350361187b57610b0d602460843501608435600401614a66565b6002101561146a5788600052600960205260046040600020015490610b3c608435600401608435600401614855565b6005929192101561146a57620f424091610b689161010001356001600160401b03169060a00135614b05565b041161185057610b8c91610b9e604051938492606060208501526080840190614b18565b828103601f1901604084015285614b18565b818103601f19016060830152855180825260209091019060005b81811061182e575050610bd4925003601f198101835282613ae0565b60208151910120610bef602460843501608435600401614a66565b6003101561146a57610120610c049101613b27565b306001600160a01b039091160361180357610c29602460843501608435600401614a66565b6003101561146a576101406002910135036117d857610c52602460843501608435600401614a66565b6003101561146a576101600135036117ad57610c7360046084350180614855565b6005929192101561146a576040516391032df360e01b815260a0929092013560048301526060826024816001600160a01b0389165afa9182156102a757600092611741575b5060208201519081600019810111611670576001600160a01b0391610ce39160001990910190613dfe565b51166001600160a01b038516036117165760400180518251106116eb57519081600019810111611670576001600160401b0391610d269160001990910190613dfe565b511692610d3d602460843501608435600401614a66565b6004101561146a576020610d5661018060049301613b27565b926040519283809263481c6a7560e01b82525afa9081156102a7576000916116b1575b506001600160a01b0390811691160361168657610d9b60046084350180614855565b600a101561146a57604051610dbe8161040d610140602083019501358886614692565b519020604051602081019182526003604082015260408152610ddf81613aaa565b519020610df6602460843501608435600401614a66565b6004929192101561146a576001810181116116705760016101a0910191013503611645576000848152600960205260409020600201546001600160a01b0316610e486084356024810190600401614a66565b6004101561146a576101c001356001600160a01b03160361161a57610e77602460843501608435600401614a66565b6005101561146a5730906001600160a01b0390610e97906101e001613b27565b16036115ef57610eb1602460843501608435600401614a66565b6005101561146a576102006005910135036115c457610eda602460843501608435600401614a66565b6006101561146a5730906001600160a01b0390610efa9061024001613b27565b160361159957604080516001600160a01b03841660208201908152600682840152918152610f2781613aaa565b519020610f3e602460843501608435600401614a66565b6006101561146a5761026001350361156e5760405160018060401b03825116602082015260018060401b03602083015116604082015260ff604083015116606082015260ff6060830151166080820152608082015160a082015260a082015160c082015260018060801b0360c08301511660e082015260018060801b0360e08301511661010082015260018060801b036101008301511661012082015260018060801b036101208301511661014082015260018060801b036101408301511661016082015260018060801b036101608301511661018082015263ffffffff610180830151166101a082015263ffffffff6101a0830151166101c082015263ffffffff6101c0830151166101e082015263ffffffff6101e08301511661020082015263ffffffff6102008301511661022082015263ffffffff6102208301511661024082015261024081528061026081011060018060401b036102608301111761143e576102608101604052805160208201206110bf60046084350180614855565b6008101561146a5761010001350361153e57506110e160046084350180614855565b9190911561146a576110fd91356001600160401b031690614d29565b61110c60046084350180614855565b6005929192101561146a57604080516369bb8a9960e11b815260a093840135600482015282516001600160401b03908116602483015260208401511660448201529082015160ff16606482015260608201516084820152608082015160a4820152918101516001600160801b0390811660c484015260c0820151811660e484015260e08201511661010483015261010081015163ffffffff90811661012484015261012082015181166101448401526101409091015116610164820152600081610184816001600160a01b0386165afa9081156102a7576000916114b2575b5060209061121492604051808095819462b67b0b60e01b8352866004840152602483019061424f565b03916001600160a01b03165afa9081156102a757600091611480575b5061124060046084350180614855565b6007101561146a5760e0908460005260096020520135604060002055611270602460843501608435600401614a66565b6002101561146a576112a39084600052600960205261010060018060401b0391013560401c1660026040600020016146ad565b60406000206112bf90426001600160401b0316906005016146ff565b604051916001600160401b0361010084019081119084111761143e5761010083016040526112f7602460843501608435600401614a66565b1561146a576040013560801c6001600160401b031683526113216084356024810190600401614a66565b1561146a576040013560801c6001600160401b0316602084015261134a60046084350180614855565b1561146a57356040840152606083015261136960046084350180614855565b6009101561146a576101200135608083015261138a60046084350180614855565b600a101561146a57610140013560a083015260c08201526113b5602460843501608435600401614a66565b6003101561146a57610160013560e082015260405160208101916000835b600882106114545750506101008252506101208101906001600160401b0382118183101761143e57600080516020614f6683398151915292826040528151902084600052600960205260066040600020015561011f199061143860406000208461474b565b030190a2005b634e487b7160e01b600052604160045260246000fd5b60208060019285518152019301910190916113d3565b634e487b7160e01b600052603260045260246000fd5b90506020813d6020116114aa575b8161149b60209383613ae0565b8101031261029b575183611230565b3d915061148e565b90503d91826000833e6114c58383613ae0565b602082848101031261029b578151926001600160401b03841161029b57808301601f85850101121561029b5783830151936114ff85613de3565b9161150d6040519384613ae0565b858352840160208683870101011161029b5761121494602094856115369381860192010161422c565b9150916111eb565b61026060649162461bcd60e51b8282015260206102648201526002610284820152610a4960f31b6102a482015201fd5b60405162461bcd60e51b815260206004820152600360248201526252524b60e81b6044820152606490fd5b60405162461bcd60e51b815260206004820152600360248201526252524160e81b6044820152606490fd5b606460405162461bcd60e51b8152602060048201526004602482015263524d484b60e01b6044820152fd5b606460405162461bcd60e51b8152602060048201526004602482015263524d484160e01b6044820152fd5b60405162461bcd60e51b8152602060048201526003602482015262222a2b60e91b6044820152606490fd5b60405162461bcd60e51b815260206004820152600360248201526244544b60e81b6044820152606490fd5b634e487b7160e01b600052601160045260246000fd5b60405162461bcd60e51b815260206004820152600360248201526244544160e81b6044820152606490fd5b90506020813d6020116116e3575b816116cc60209383613ae0565b8101031261029b576116dd90613b03565b86610d79565b3d91506116bf565b60405162461bcd60e51b815260206004820152600360248201526221a7a360e91b6044820152606490fd5b60405162461bcd60e51b8152602060048201526003602482015262454e4560e81b6044820152606490fd5b9091506060813d6060116117a5575b8161175d60609383613ae0565b8101031261029b57604051906001600160401b03606083019081119083111761143e576040906060830182528051835260208101516020840152015160408201529087610cb8565b3d9150611750565b606460405162461bcd60e51b815260206004820152600460248201526321a0a42b60e11b6044820152fd5b606460405162461bcd60e51b81526020600482015260046024820152634341484b60e01b6044820152fd5b606460405162461bcd60e51b81526020600482015260046024820152634341484160e01b6044820152fd5b84516001600160401b0316835260209485019486945090920191600101610bb8565b606460405162461bcd60e51b81526020600482015260046024820152632320a62b60e11b6044820152fd5b60405162461bcd60e51b815260206004820152600360248201526246414b60e81b6044820152606490fd5b60405162461bcd60e51b815260206004820152600360248201526246414160e81b6044820152606490fd5b90506020813d602011611903575b816118ec60209383613ae0565b8101031261029b576118fd90613b03565b8a610abe565b3d91506118df565b60405162461bcd60e51b8152602060048201526003602482015262232a2b60e91b6044820152606490fd5b60405162461bcd60e51b815260206004820152600360248201526246544b60e81b6044820152606490fd5b60405162461bcd60e51b815260206004820152600360248201526246544160e81b6044820152606490fd5b90506020813d6020116119be575b816119a760209383613ae0565b8101031261029b576119b890613b03565b8a610961565b3d915061199a565b60405162461bcd60e51b8152602060048201526005602482015264564353544b60d81b6044820152606490fd5b60405162461bcd60e51b8152602060048201526005602482015264564353544160d81b6044820152606490fd5b90506020813d602011611a52575b81611a3b60209383613ae0565b8101031261029b57611a4c90613b03565b8a610808565b3d9150611a2e565b6020808092611a688561392a565b8152019201919050610627565b606460405162461bcd60e51b8152602060048201526004602482015263544e454f60e01b6044820152fd5b60405162461bcd60e51b815260206004820152600260248201526114d560f21b6044820152606490fd5b60405162461bcd60e51b81526020600482015260056024820152642b2a18272d60d91b6044820152606490fd5b60405162461bcd60e51b815260206004820152600360248201526221aa2d60e91b6044820152606490fd5b611b44915060203d602011611b4a575b611b3c8183613ae0565b810190613b3b565b8561045b565b503d611b32565b611b6e91503d806000833e611b668183613ae0565b810190613bc3565b8d6103d0565b9092506020813d602011611ba8575b81611b9060209383613ae0565b8101031261029b57611ba190613b03565b9187610369565b3d9150611b83565b3461029b57602036600319011261029b57611bc9613954565b600154906001600160a01b0390818316611c2b57168015611c01576001600160a01b0319918216176001556002805490911633179055005b60405162461bcd60e51b815260206004820152600260248201526127ad60f11b6044820152606490fd5b606460405162461bcd60e51b81526020600482015260046024820152632fa7a72d60e11b6044820152fd5b3461029b57606036600319011261029b57611c6f613914565b6044356001600160401b03811161029b57611c8e9036906004016139af565b6040929192516020810190611caa8161040d6024358786614692565b5190209283600052600960205260406000209260405193611cca85613a57565b8054855260018101546001600160401b0380821660208801526001600160a01b03604092831c8116838901526002840154908116606089015260a090811c82166080808a0191909152600385015491890191909152600484015460c0808a0191909152600585015480841660e08b018190529481901c84166101008b01529182901c909216610120890152901c610140870152600690910154610160860152156122565761014084015160049390611d8b906001600160401b0316156147e4565b60025460405163481c6a7560e01b81529460209186919082906001600160a01b03165afa9384156102a75760009461221a575b506101208501516001600160401b0316611f3f575060405163b288706d60e01b81526001600160401b0390911660048201529160009150829060249082906001600160a01b03165afa9081156102a757600091611f24575b506060015160208201516001600160401b0391611e3791831690831661483c565b16421115611ef957611e4890614b86565b80600052600960205260006006604082208281558260018201558260028201558260038201558260048201558260058201550155611eac604051611e8b81613a73565b600f81526e18da185b1b195b99d95c8819985a5b608a1b6020820152614ee4565b6000818152600960205260409020611ed190426001600160401b0316906005016146d6565b600080516020614f66833981519152611ef460406000206040519182918261474b565b0390a2005b606460405162461bcd60e51b81526020600482015260046024820152631590d4d560e21b6044820152fd5b611f3991503d806000833e611b668183613ae0565b83611e16565b9050604051602081019060208252611f5f8161040d604082018688614818565b519020610160850151036121ef571561146a5760405163b288706d60e01b815290356001600160401b0316600482015290600090829060249082906001600160a01b03165afa9081156102a7576000916121d4575b5060a0015160208201516001600160401b0391611fd591831690831661483c565b164211156121a95760a08101516080820151620f424091611fff916001600160401b031690614b05565b0460a0820151811161217e576120278161202260a085015160c086015190614302565b614274565b825160608401519192916001600160a01b0391821691168061214e5750600080809381935af161205561415f565b501561211e5760408201516000918291829182916001600160a01b03165af161207c61415f565b50156120ee575b61209660a082015160c083015190614302565b90606060018060a01b039101511660005260086020526120bc6040600020918254614274565b90556120e96040516120cd81613a73565b600a8152691b585ad95c8819985a5b60b21b6020820152614ee4565b611eac565b60405162461bcd60e51b815260206004820152600860248201526722aa241d1029a29960c11b6044820152606490fd5b60405162461bcd60e51b81526020600482015260086024820152674554483a2053453160c01b6044820152606490fd5b9161215d916121799493614281565b606083015160408401516001600160a01b039081169116614281565b612083565b606460405162461bcd60e51b81526020600482015260046024820152632aa0a7a360e11b6044820152fd5b606460405162461bcd60e51b81526020600482015260046024820152631590d11560e21b6044820152fd5b6121e991503d806000833e611b668183613ae0565b83611fb4565b60405162461bcd60e51b81526020600482015260036024820152620ac88960eb1b6044820152606490fd5b9093506020813d60201161224e575b8161223660209383613ae0565b8101031261029b5761224790613b03565b9286611dbe565b3d9150612229565b60405162461bcd60e51b8152602060048201526003602482015262434e4560e81b6044820152606490fd5b3461029b57604036600319011261029b5761229a613914565b6001600160401b0360243581811161029b576122ba9036906004016139af565b92906122db60018060a01b03926122d684600154163314613a0c565b614bc3565b60405193602094858101903082528681526122f581613a73565b5190209161230282613bac565b946123106040519687613ae0565b828652601f19938461232185613bac565b01368989013760005b8481106123ec57876004888b89604051612358838201928261234c8986613e12565b03908101835282613ae0565b51902060055580826002541660405194858092635c60da1b60e01b82525afa9081156102a7576000916123a9575b50600080516020614f468339815191529250611ef4604051928392169482613e12565b905082813d83116123e5575b6123bf8183613ae0565b8101031261029b576123df600080516020614f4683398151915292613b03565b84612386565b503d6123b5565b7b0ca2ba3432b932bab69029b4b3b732b21026b2b9b9b0b3b29d05199960211b60005281601c52603c600020908060051b850135601e198636030181121561029b57850191823585811161029b578b840190803603821361029b5761245081613de3565b9461245e6040519687613ae0565b8186528d82369201011161029b57848b9360008f8461248b9561249397836124a49c013784010152613f62565b919091613e4d565b1661249e828b613dfe565b52613da3565b61232a565b3461029b57602036600319011261029b5761001b6122d6613914565b3461029b57608036600319011261029b576124de613914565b6024356001600160401b03811161029b576124fd9036906004016139af565b6044356001600160401b03811161029b5761251c9036906004016139af565b909290606435906001600160401b03821161029b5761254261255a9236906004016139af565b9290966122d660018060a01b03600154163314613a0c565b600a841080612873575b80612869575b1561283c5760025460405163481c6a7560e01b81526001600160a01b039091169390602081600481885afa9081156102a757600091612802575b5060005b838110612781575060005b8481106126f6575050906004929160208661234c6126108a8c6040519384918a6126006125ec8a86019960608b5260808701908d613d1b565b8c601f199788888403016040890152613d1b565b9185858403016060860152613d5f565b519020958660035560405195868092635c60da1b60e01b82525afa9384156102a757600094612698575b50600080516020614f2683398151915296611ef494939261267161267f93604051998a998a52608060208b015260808a0191613d1b565b918783036040890152613d1b565b84810360608601526001600160a01b0390921696613d5f565b90929193506020813d6020116126ee575b816126b660209383613ae0565b8101031261029b57600080516020614f2683398151915296611ef4946126716126e161267f94613b03565b965050929391509661263a565b3d91506126a9565b61270961270482878c613b17565b613b84565b60405163b288706d60e01b81526001600160401b039091166004820152906000826024816001600160a01b0387165afa9182156102a75760019261276091600091612766575b50838060401b039051161515613cea565b016125b3565b61277b91503d806000833e611b668183613ae0565b8c61274f565b61279461278f82868b613b17565b613b27565b604051632edbe4ef60e21b81526001600160a01b03918216600482015291906020908390602490829087165afa9182156102a7576001926127dd916000916127e3575b50613b53565b016125a8565b6127fc915060203d602011611b4a57611b3c8183613ae0565b8c6127d7565b90506020813d602011612834575b8161281d60209383613ae0565b8101031261029b5761282e90613b03565b886125a4565b3d9150612810565b60405162461bcd60e51b81526020600482015260056024820152642222a1a7a360d91b6044820152606490fd5b506064821061256a565b50600a8110612564565b3461029b57600036600319011261029b576001546040516001600160a01b039091168152602090f35b60a036600319011261029b576128ba613914565b6044356001600160401b0381169081900361029b57606435916001600160a01b038316830361029b576040516128fc8161040d60208201946024359086614692565b5190206000818152600960205260409020600501549092906001600160401b0316612b7a57426001600160401b03168211612b4f576001600160a01b038116612b33573460843503612b09575b61295560843580614302565b60018060a01b03821660005260086020526129766040600020918254614302565b90556040519161298583613a57565b600080845260208085019283523360408087019182526001600160a01b03958616606088019081526080880185815260843560a08a0181905260c08a0152426001600160401b0390811660e08b01526101008a018790526101208a018790526101408a01879052610160808b018890528b885260099096529583902089518155965160018801805495516001600160e01b0319909616918816919091179490931b600160401b600160e01b031693909317909155516002850180546001600160a01b0319169190961617855551929460069491939092612a67929116906146ad565b60a0810151600385015560c0810151600485015560e08101516005850180546001600160401b0319166001600160401b03928316178155610100830151612ae192612ab39116826146d6565b610120830151612acc906001600160401b0316826146ff565b6101408301516001600160401b031690614728565b0151910155600080516020614f66833981519152611ef460406000206040519182918261474b565b60405162461bcd60e51b815260206004820152600260248201526124a360f11b6044820152606490fd5b612b4a60843530336001600160a01b03851661401f565b612949565b606460405162461bcd60e51b815260206004820152600460248201526329aa27a360e11b6044820152fd5b60405162461bcd60e51b8152602060048201526002602482015261434560f01b6044820152606490fd5b60e036600319011261029b57612bb8613914565b612bc061393e565b6001600160401b03919060443583811161029b57612be290369060040161397e565b9093604036606319011261029b5760a43581811161029b57612c089036906004016139af565b9060c4359183831161029b57612c28612c4d9396929636906004016139af565b93909560018060a01b0399612c4760019a6122d68d8d54163314613a0c565b84614345565b612c588382146142d0565b60009760009216915b818110612c9b57883410612c7157005b60405162461bcd60e51b815260206004820152600260248201526124ab60f11b6044820152606490fd5b612ca961270482848a613b17565b60405190602091878382019287845216604082015260606000818301528152612cd181613ac5565b51902090612ce083878a613b17565b35908260005260079182825260406000205410612d1a575b90839291612d088c95898c613b17565b35926000525260406000205501612c61565b9a90612d4e849392612d488e848f98612d35908f8e90613b17565b3591876000525260406000205490614274565b90614302565b9b9091929350612cf8565b3461029b57602036600319011261029b57612d72613954565b60006020604051612d8281613a73565b828152015260018060a01b0316600052600660205260408060002060018251612daa81613a73565b602083549384835263ffffffff9384910154169101908152835192835251166020820152f35b3461029b57602036600319011261029b576001600160a01b03612df1613954565b1660005260086020526020604060002054604051908152f35b3461029b57606036600319011261029b57612e23613914565b6024356001600160401b03811161029b57612e429036906004016139af565b6044359291906001600160401b03841161029b57612e67612e7f9436906004016139af565b9490936122d660018060a01b03600154163314613a0c565b60025460405163481c6a7560e01b815293906001600160a01b0316602085600481845afa9485156102a757600095613082575b50602060049160405192838092635c60da1b60e01b82525afa9081156102a757600091613048575b5060005b868110612ee757005b612ef5612704828986613b17565b60405163b288706d60e01b81526001600160401b039091166004820152906000826024816001600160a01b038b165afa9182156102a7576103ee60e061302894612f6e9360009161302d575b508051612f58906001600160401b03161515613cea565b0151612f6861278f858a8c613b17565b90614cf7565b612f7c61278f828789613b17565b6001600160401b03612f92612704848c89613b17565b16600090815260046020526040902080546001600160a01b0319166001600160a01b03909216919091179055612fcc612704828a87613b17565b612fda61278f83888a613b17565b604080516001600160401b0390931683526001600160a01b039182166020840152908516917f8f2bbe31353a40442717cf80cfd6882db22eae2e1ca9ffd699967549fd26fafc9190a2613da3565b612ede565b61304291503d806000833e611b668183613ae0565b8c612f41565b90506020813d60201161307a575b8161306360209383613ae0565b8101031261029b5761307490613b03565b86612eda565b3d9150613056565b9094506020813d6020116130bb575b8161309e60209383613ae0565b8101031261029b5760206130b3600492613b03565b959150612eb2565b3d9150613091565b3461029b57600036600319011261029b576002546040516001600160a01b039091168152602090f35b3461029b57600036600319011261029b576020600554604051908152f35b3461029b57602036600319011261029b576001600160401b0361312b613914565b166000526004602052602060018060a01b0360406000205416604051908152f35b3461029b5760031960e03682011261029b57613166613954565b906024356001600160401b03811161029b576131869036906004016139df565b3660841161029b57608435926001600160401b03841161029b57604090843603011261029b5760a4356001600160401b03811161029b576131cb9036906004016139af565b909290919060c4356001600160401b03811161029b57613210916131f560209236906004016139df565b9890946040518481019061041b8161040d8d6004018561488a565b03916001600160a01b03165afa80156102a757613234916000916136f357506149ad565b6132416004850180614855565b1561146a576132536004860180614855565b6001929192101561146a57604051602080820193919261328792849261040d9291013590356001600160401b031686614692565b51902060008181526009602052604090206005015490959060801c6001600160401b0316156136c8578560005260096020526132ce60056040600020015460c01c156147e4565b810160208282031261029b578135906001600160401b03821161029b5780601f83850101121561029b57818301359161330683613bac565b936133146040519586613ae0565b838552602085019260208560051b84840101011161029b5780820160200192915b60208560051b828401010184106136b45750505050506040516020810190602082526133698161040d604082018789614818565b519020856000526009602052600660406000200154036136895760405160208101906133998161040d8585613e12565b519020826007101561146a5760e08401350361365e576000858152600960205260409020600101546133d4906001600160401b031642614274565b821561146a576133e78435821015614a9b565b826001101561146a576134009060208501351015614ad0565b61340d6004850180614855565b1561146a57826003101561146a576060840135903503613633576134346004850180614855565b6002929192101561146a57604061344d92013590614cc1565b1561360857806004101561146a576134686004840180614855565b6003101561146a57606001356080830135036135db57806005101561146a576134946004840180614855565b6004101561146a5760806134af91013560a084013514614b55565b806006101561146a576002101561146a576134d68160c060406134e0940135910135614274565b9160040180614855565b6005929192101561146a5760a06134f992013514614b55565b8060005260096020526135b6604060002060066040519161351983613a57565b8054835260018101546001600160401b0380821660208601526001600160a01b03604092831c8116838701526002840154908116606087015260a090811c8216608080880191909152600385015491870191909152600484015460c080880191909152600585015480841660e08901529384901c83166101008801529083901c9091166101208601521c6101408401520154610160820152614b86565b6000818152600960205260409020611ed190426001600160401b031690600501614728565b60405162461bcd60e51b81526020600482015260056024820152642220a2222960d91b6044820152606490fd5b60405162461bcd60e51b81526020600482015260036024820152624d494360e81b6044820152606490fd5b606460405162461bcd60e51b81526020600482015260046024820152631110d25160e21b6044820152fd5b60405162461bcd60e51b81526020600482015260036024820152620a49a960eb1b6044820152606490fd5b606460405162461bcd60e51b81526020600482015260046024820152630564448360e41b6044820152fd5b602080809486358152019401939250613335565b606460405162461bcd60e51b81526020600482015260046024820152632b2a182d60e11b6044820152fd5b61370c915060203d602011611b4a57611b3c8183613ae0565b8761045b565b604036600319011261029b576001600160a01b0361372e613954565b168061373657005b61001b90602435903090339061401f565b3461029b57600036600319011261029b57600054604080516001600160801b0383168152608083901c6001600160401b0316602082015260c09290921c90820152606090f35b3461029b5761010036600319011261029b576137a7613914565b6137af61393e565b6001600160401b0360443581811161029b576137cf90369060040161397e565b9390604036606319011261029b5760a43583811161029b576137f59036906004016139af565b93909160c43582811161029b576138109036906004016139af565b93909160e4359560018060a01b03998a881680980361029b578a92612c47613845936122d660019d979d9e8f54163314613a0c565b6138508588146142d0565b1660005b86811061385d57005b8061386d6127048b938a8c613b17565b60405190602091878382019287845216604082015260608a81830152815261389481613ac5565b519020906138a3838988613b17565b359180600052600792838352604060002054106138c4575b50505001613854565b6138f1926138e9926138d7868c8b613b17565b35926000525260406000205490614274565b30338a61401f565b8a80806138bb565b3461029b57600036600319011261029b576020906003548152f35b600435906001600160401b038216820361029b57565b35906001600160401b038216820361029b57565b602435906001600160a01b038216820361029b57565b600435906001600160a01b038216820361029b57565b35906001600160a01b038216820361029b57565b9181601f8401121561029b578235916001600160401b03831161029b57602080850194610240850201011161029b57565b9181601f8401121561029b578235916001600160401b03831161029b576020808501948460051b01011161029b57565b9181601f8401121561029b578235916001600160401b03831161029b576020838186019501011161029b57565b15613a1357565b606460405162461bcd60e51b815260206004820152602060248201527f4f776e61626c653a2063616c6c6572206973206e6f7420746865206f776e65726044820152fd5b61018081019081106001600160401b0382111761143e57604052565b604081019081106001600160401b0382111761143e57604052565b61016081019081106001600160401b0382111761143e57604052565b606081019081106001600160401b0382111761143e57604052565b608081019081106001600160401b0382111761143e57604052565b601f909101601f19168101906001600160401b0382119082101761143e57604052565b51906001600160a01b038216820361029b57565b919081101561146a5760051b0190565b356001600160a01b038116810361029b5790565b9081602091031261029b5751801515810361029b5790565b15613b5a57565b60405162461bcd60e51b8152602060048201526002602482015261454960f01b6044820152606490fd5b356001600160401b038116810361029b5790565b51906001600160401b038216820361029b57565b6001600160401b03811161143e5760051b60200190565b906020808383031261029b5782516001600160401b039384821161029b57019261010093848185031261029b576040519485018581108382111761143e57604052613c0d81613b98565b8552808301516001600160c01b038116810361029b5783860152613c3360408201613b98565b6040860152613c4460608201613b98565b6060860152613c5560808201613b98565b6080860152613c6660a08201613b98565b60a086015260c081015160c086015260e081015191821161029b57019180601f8401121561029b578251613c9981613bac565b93613ca76040519586613ae0565b818552838086019260051b82010192831161029b578301905b828210613cd3575050505060e082015290565b838091613cdf84613b03565b815201910190613cc0565b15613cf157565b60405162461bcd60e51b8152602060048201526002602482015261434960f01b6044820152606490fd5b91908082526020809201929160005b828110613d38575050505090565b909192938280600192838060a01b03613d508961396a565b16815201950193929101613d2a565b91908082526020809201929160005b828110613d7c575050505090565b909192938280600192838060401b03613d948961392a565b16815201950193929101613d6e565b60001981146116705760010190565b15613db957565b60405162461bcd60e51b8152602060048201526002602482015261534960f01b6044820152606490fd5b6001600160401b03811161143e57601f01601f191660200190565b805182101561146a5760209160051b010190565b6020908160408183019282815285518094520193019160005b828110613e39575050505090565b835185529381019392810192600101613e2b565b6005811015613f4c5780613e5e5750565b60018103613ea65760405162461bcd60e51b815260206004820152601860248201527745434453413a20696e76616c6964207369676e617475726560401b6044820152606490fd5b60028103613ef35760405162461bcd60e51b815260206004820152601f60248201527f45434453413a20696e76616c6964207369676e6174757265206c656e677468006044820152606490fd5b600314613efc57565b60405162461bcd60e51b815260206004820152602260248201527f45434453413a20696e76616c6964207369676e6174757265202773272076616c604482015261756560f01b6064820152608490fd5b634e487b7160e01b600052602160045260246000fd5b906041815114600014613f9057613f8c916020820151906060604084015193015160001a90613f9a565b9091565b5050600090600290565b9291906fa2a8918ca85bafe22016d0b997e4df60600160ff1b0383116140135791608094939160ff602094604051948552168484015260408301526060820152600093849182805260015afa156140065781516001600160a01b03811615614000579190565b50600190565b50604051903d90823e3d90fd5b50505050600090600390565b6040516323b872dd60e01b60208201526001600160a01b03928316602482015292909116604483015260648083019390935291815260a08101918183106001600160401b0384111761143e5761407792604052614079565b565b6040516140d7916001600160a01b031661409282613a73565b6000806020958685527f5361666545524332303a206c6f772d6c6576656c2063616c6c206661696c656487860152868151910182855af16140d161415f565b9161418f565b805190828215928315614147575b505050156140f05750565b6084906040519062461bcd60e51b82526004820152602a60248201527f5361666545524332303a204552433230206f7065726174696f6e20646964206e6044820152691bdd081cdd58d8d9595960b21b6064820152fd5b6141579350820181019101613b3b565b3882816140e5565b3d1561418a573d9061417082613de3565b9161417e6040519384613ae0565b82523d6000602084013e565b606090565b919290156141f157508151156141a3575090565b3b156141ac5790565b60405162461bcd60e51b815260206004820152601d60248201527f416464726573733a2063616c6c20746f206e6f6e2d636f6e74726163740000006044820152606490fd5b8251909150156142045750805190602001fd5b60405162461bcd60e51b81526020600482015290819061422890602483019061424f565b0390fd5b60005b83811061423f5750506000910152565b818101518382015260200161422f565b906020916142688151809281855285808601910161422c565b601f01601f1916010190565b9190820391821161167057565b60405163a9059cbb60e01b60208201526001600160a01b03909216602483015260448083019390935291815260808101916001600160401b0383118284101761143e5761407792604052614079565b156142d757565b60405162461bcd60e51b815260206004820152600360248201526214d41360ea1b6044820152606490fd5b9190820180921161167057565b919081101561146a57610240020190565b356001600160801b038116810361029b5790565b359063ffffffff8216820361029b57565b9160005b81811061458a5750506002546040805163481c6a7560e01b8152936001600160a01b03935060209283908690600490829088165afa9485156145405760009561454b575b5082846024819385519485938492632edbe4ef60e21b845216998a6004840152165afa90811561454057906143c9916000916145235750613b53565b60643580156144fa57846000526006835263ffffffff92836001818186600020015416011660843594851680950361029b5784036144d2579060049392918660005260068152600183600020838155018463ffffffff19825416179055808660025416845196878092635c60da1b60e01b82525afa9485156144c757600095614471575b5082519687528601528401521690600080516020614f8683398151915290606090a2565b90948582813d83116144c0575b6144888183613ae0565b810103126144bd575091600080516020614f868339815191529593916144b060609694613b03565b955091939592909261444d565b80fd5b503d61447e565b83513d6000823e3d90fd5b60649083519062461bcd60e51b825260048201526002602482015261564560f01b6044820152fd5b815162461bcd60e51b8152600481018490526002602482015261292d60f11b6044820152606490fd5b61453a9150843d8611611b4a57611b3c8183613ae0565b386127d7565b82513d6000823e3d90fd5b90948382813d8311614583575b6145628183613ae0565b810103126144bd5750828460246145798294613b03565b979350505061438d565b503d614558565b61459861270482848661430f565b6020906001600160401b03806145b9846145b387898b61430f565b01613b84565b1691161015614666576145d96101406145d384868861430f565b01614320565b6145ea6101606145d385878961430f565b612710916001600160801b039190821683900661463b5716066146105750600101614349565b6064906040519062461bcd60e51b8252600490818301526024820152635746493160e01b6044820152fd5b60405162461bcd60e51b815260048082018690526024820152630574649360e41b6044820152606490fd5b6064906040519062461bcd60e51b82526004820152600560248201526443304c433160d81b6044820152fd5b6001600160401b039091168152602081019190915260400190565b8054600160a01b600160e01b03191660a09290921b600160a01b600160e01b0316919091179055565b8054600160401b600160801b03191660409290921b600160401b600160801b0316919091179055565b8054600160801b600160c01b03191660809290921b600160801b600160c01b0316919091179055565b80546001600160c01b031660c09290921b6001600160c01b031916919091179055565b919091610160600661018083019480548452600181015460018060401b038181809316602088015260018060a01b03809160401c1660408801526002840154908116606088015260a01c166080860152600382015460a0860152600482015460c086015260058201549080821660e0870152808260401c166101008701528160801c1661012086015260c01c6101408501520154910152565b156147eb57565b60405162461bcd60e51b81526020600482015260056024820152642b2a18a72d60d91b6044820152606490fd5b81835290916001600160fb1b03831161029b5760209260051b809284830137010190565b6001600160401b03918216908216019190821161167057565b903590601e198136030182121561029b57018035906001600160401b03821161029b57602001918160051b3603831361029b57565b602080825292919036829003601e19019082358281121561029b576001600160401b03939081018035929087019185841161029b578360051b3603831361029b576148e2604093848a85015260609586850191614818565b94888201359081121561029b570193878535950195851161029b578385023603861361029b57879596979183601f9695949619828403019101528381520194926000905b8382106149365750505050505090565b909192939496958380600192838060a01b036149518a61396a565b168152888b01358b8201528489013585820152989998019796019493920190614926565b9392918060a09160609360808852816080890152838801376000868201830152601f01601f1916850101936040604460208301370152565b156149b457565b60405162461bcd60e51b81526020600482015260026024820152612b2360f11b6044820152606490fd5b81601f8201121561029b578035916149f583613bac565b92614a036040519485613ae0565b808452602092838086019260051b82010192831161029b578301905b828210614a2d575050505090565b838091614a398461396a565b815201910190614a1f565b359060ff8216820361029b57565b35906001600160801b038216820361029b57565b903590601e198136030182121561029b57018035906001600160401b03821161029b5760200191606082023603831361029b57565b15614aa257565b60405162461bcd60e51b815260206004820152600660248201526526a4a72a27a360d11b6044820152606490fd5b15614ad757565b60405162461bcd60e51b815260206004820152600660248201526526a0ac2a27a360d11b6044820152606490fd5b8181029291811591840414171561167057565b90815180825260208080930193019160005b828110614b38575050505090565b83516001600160a01b031685529381019392810192600101614b2a565b15614b5c57565b60405162461bcd60e51b8152602060048201526002602482015261111560f21b6044820152606490fd5b614b9960a082015160c083015190614302565b90606060018060a01b03910151166000526008602052614bbf6040600020918254614274565b9055565b4260780180607811611670576001600160401b0390828216908110159081614ca9575b81614c9a575b5015614c6f5760005490808260801c169043161115614c44576001600160801b0390811660010191818311611670576001600160c01b031960c09190911b169116600160801b600160c01b034360801b161717600055565b60405162461bcd60e51b8152602060048201526003602482015262424e4560e81b6044820152606490fd5b606460405162461bcd60e51b815260206004820152600460248201526313d1915560e21b6044820152fd5b905060005460c01c1038614bec565b90506107084281018091116116705781111590614be6565b9060005b8251811015614cef57614cd88184613dfe565b518214614ce757600101614cc5565b505050600190565b505050600090565b9060005b8251811015614cef576001600160a01b0380614d178386613dfe565b511690831614614ce757600101614cfb565b604090815190614d3882613a8e565b600080835280602084015280848401528060608401528060808401528060a08401528060c08401528060e08401526101009381858501526101209180838601526101408095015260018060401b0395868085511691169081148015614ed5575b15614eab5783518716908103614e4157508583511695602084015116948184015160ff16608085015160a086015190600160801b60019003918260c0890151169183868a015116938a8a0151169463ffffffff97886101808c01511698806101c08d0151169b6102000151169c81519e8f90614e1382613a8e565b8152602001528d015260608c015260808b015260a08a015260c089015260e088015286015284015282015290565b949560208401511695606084015160ff1660a0850151608086015190600160801b60019003918260e0890151169183888a015116936101608a0151169463ffffffff97886101a08c01511698806101e08d0151169b6102200151169c81519e8f90614e1382613a8e565b815162461bcd60e51b815260206004820152600360248201526253434960e81b6044820152606490fd5b50866020850151168114614d98565b60008091604051614f128161040d602082019463104c13eb60e21b865260206024840152604483019061424f565b51906a636f6e736f6c652e6c6f675afa5056fe3cb86960d27f10c36827a013566ea74ce60fe0402128cb82d020889177c124290b91b68f980e47803e7858fa5a270c37d18f436399f86db162b14fbd0f376d54288ce6ecb50116617911fc83710df7a6e0a8fef4b376d213c8085da345ce9efa14ebfe1d09c7ff607d095a4d8c41180cfc5ce6a29321b1b0b8ed086408acca4aa164736f6c6343000811000a",
  "linkReferences": {},
  "deployedLinkReferences": {}
}