{
  "_format": "hh-sol-artifact-1",
  "contractName": "ORManager",
  "sourceName": "contracts/ORManager.sol",
  "abi": [
    {
      "inputs": [
        {
          "internalType": "address",
          "name": "owner_",
          "type": "address"
        }
      ],
      "stateMutability": "nonpayable",
      "type": "constructor"
    },
    {
      "anonymous": false,
      "inputs": [
        {
          "indexed": true,
          "internalType": "uint64",
          "name": "id",
          "type": "uint64"
        },
        {
          "components": [
            {
              "internalType": "uint64",
              "name": "id",
              "type": "uint64"
            },
            {
              "internalType": "uint192",
              "name": "batchLimit",
              "type": "uint192"
            },
            {
              "internalType": "uint64",
              "name": "minVerifyChallengeSourceTxSecond",
              "type": "uint64"
            },
            {
              "internalType": "uint64",
              "name": "maxVerifyChallengeSourceTxSecond",
              "type": "uint64"
            },
            {
              "internalType": "uint64",
              "name": "minVerifyChallengeDestTxSecond",
              "type": "uint64"
            },
            {
              "internalType": "uint64",
              "name": "maxVerifyChallengeDestTxSecond",
              "type": "uint64"
            },
            {
              "internalType": "uint256",
              "name": "nativeToken",
              "type": "uint256"
            },
            {
              "internalType": "address[]",
              "name": "spvs",
              "type": "address[]"
            }
          ],
          "indexed": false,
          "internalType": "struct BridgeLib.ChainInfo",
          "name": "chainInfo",
          "type": "tuple"
        }
      ],
      "name": "ChainInfoUpdated",
      "type": "event"
    },
    {
      "anonymous": false,
      "inputs": [
        {
          "indexed": true,
          "internalType": "uint64",
          "name": "id",
          "type": "uint64"
        },
        {
          "components": [
            {
              "internalType": "uint256",
              "name": "token",
              "type": "uint256"
            },
            {
              "internalType": "address",
              "name": "mainnetToken",
              "type": "address"
            },
            {
              "internalType": "uint8",
              "name": "decimals",
              "type": "uint8"
            }
          ],
          "indexed": false,
          "internalType": "struct BridgeLib.TokenInfo",
          "name": "tokenInfo",
          "type": "tuple"
        }
      ],
      "name": "ChainTokenUpdated",
      "type": "event"
    },
    {
      "anonymous": false,
      "inputs": [
        {
          "indexed": false,
          "internalType": "uint64",
          "name": "challengeUserRatio",
          "type": "uint64"
        }
      ],
      "name": "ChallengeUserRatioUpdated",
      "type": "event"
    },
    {
      "anonymous": false,
      "inputs": [
        {
          "indexed": false,
          "internalType": "address[]",
          "name": "ebcs",
          "type": "address[]"
        },
        {
          "indexed": false,
          "internalType": "bool[]",
          "name": "statuses",
          "type": "bool[]"
        }
      ],
      "name": "EbcsUpdated",
      "type": "event"
    },
    {
      "anonymous": false,
      "inputs": [
        {
          "indexed": false,
          "internalType": "uint64[]",
          "name": "chainIds",
          "type": "uint64[]"
        },
        {
          "indexed": false,
          "internalType": "uint256[]",
          "name": "extraTransferContracts",
          "type": "uint256[]"
        }
      ],
      "name": "ExtraTransferContractsUpdated",
      "type": "event"
    },
    {
      "anonymous": false,
      "inputs": [
        {
          "indexed": false,
          "internalType": "uint64",
          "name": "feeChallengeSecond",
          "type": "uint64"
        }
      ],
      "name": "FeeChallengeSecondUpdated",
      "type": "event"
    },
    {
      "anonymous": false,
      "inputs": [
        {
          "indexed": false,
          "internalType": "uint64",
          "name": "feeTakeOnChallengeSecond",
          "type": "uint64"
        }
      ],
      "name": "FeeTakeOnChallengeSecondUpdated",
      "type": "event"
    },
    {
      "anonymous": false,
      "inputs": [
        {
          "indexed": false,
          "internalType": "uint64",
          "name": "maxMDCLimit",
          "type": "uint64"
        }
      ],
      "name": "MaxMDCLimitUpdated",
      "type": "event"
    },
    {
      "anonymous": false,
      "inputs": [
        {
          "indexed": false,
          "internalType": "uint64",
          "name": "minChallengeRatio",
          "type": "uint64"
        }
      ],
      "name": "MinChallengeRatioUpdated",
      "type": "event"
    },
    {
      "anonymous": false,
      "inputs": [
        {
          "indexed": true,
          "internalType": "address",
          "name": "previousOwner",
          "type": "address"
        },
        {
          "indexed": true,
          "internalType": "address",
          "name": "newOwner",
          "type": "address"
        }
      ],
      "name": "OwnershipTransferred",
      "type": "event"
    },
    {
      "anonymous": false,
      "inputs": [
        {
          "indexed": false,
          "internalType": "uint64",
          "name": "protocolFee",
          "type": "uint64"
        }
      ],
      "name": "ProtocolFeeUpdated",
      "type": "event"
    },
    {
      "anonymous": false,
      "inputs": [
        {
          "indexed": false,
          "internalType": "address",
          "name": "submitter",
          "type": "address"
        }
      ],
      "name": "SubmitterFeeUpdated",
      "type": "event"
    },
    {
      "inputs": [],
      "name": "challengeUserRatio",
      "outputs": [
        {
          "internalType": "uint64",
          "name": "",
          "type": "uint64"
        }
      ],
      "stateMutability": "view",
      "type": "function"
    },
    {
      "inputs": [
        {
          "internalType": "address",
          "name": "ebc",
          "type": "address"
        }
      ],
      "name": "ebcIncludes",
      "outputs": [
        {
          "internalType": "bool",
          "name": "",
          "type": "bool"
        }
      ],
      "stateMutability": "view",
      "type": "function"
    },
    {
      "inputs": [],
      "name": "feeChallengeSecond",
      "outputs": [
        {
          "internalType": "uint64",
          "name": "",
          "type": "uint64"
        }
      ],
      "stateMutability": "view",
      "type": "function"
    },
    {
      "inputs": [],
      "name": "feeTakeOnChallengeSecond",
      "outputs": [
        {
          "internalType": "uint64",
          "name": "",
          "type": "uint64"
        }
      ],
      "stateMutability": "view",
      "type": "function"
    },
    {
      "inputs": [
        {
          "internalType": "uint64",
          "name": "id",
          "type": "uint64"
        }
      ],
      "name": "getChainInfo",
      "outputs": [
        {
          "components": [
            {
              "internalType": "uint64",
              "name": "id",
              "type": "uint64"
            },
            {
              "internalType": "uint192",
              "name": "batchLimit",
              "type": "uint192"
            },
            {
              "internalType": "uint64",
              "name": "minVerifyChallengeSourceTxSecond",
              "type": "uint64"
            },
            {
              "internalType": "uint64",
              "name": "maxVerifyChallengeSourceTxSecond",
              "type": "uint64"
            },
            {
              "internalType": "uint64",
              "name": "minVerifyChallengeDestTxSecond",
              "type": "uint64"
            },
            {
              "internalType": "uint64",
              "name": "maxVerifyChallengeDestTxSecond",
              "type": "uint64"
            },
            {
              "internalType": "uint256",
              "name": "nativeToken",
              "type": "uint256"
            },
            {
              "internalType": "address[]",
              "name": "spvs",
              "type": "address[]"
            }
          ],
          "internalType": "struct BridgeLib.ChainInfo",
          "name": "",
          "type": "tuple"
        }
      ],
      "stateMutability": "view",
      "type": "function"
    },
    {
      "inputs": [
        {
          "internalType": "uint64",
          "name": "id",
          "type": "uint64"
        },
        {
          "internalType": "uint256",
          "name": "token",
          "type": "uint256"
        }
      ],
      "name": "getChainTokenInfo",
      "outputs": [
        {
          "components": [
            {
              "internalType": "uint256",
              "name": "token",
              "type": "uint256"
            },
            {
              "internalType": "address",
              "name": "mainnetToken",
              "type": "address"
            },
            {
              "internalType": "uint8",
              "name": "decimals",
              "type": "uint8"
            }
          ],
          "internalType": "struct BridgeLib.TokenInfo",
          "name": "",
          "type": "tuple"
        }
      ],
      "stateMutability": "view",
      "type": "function"
    },
    {
      "inputs": [
        {
          "internalType": "uint64",
          "name": "chainId",
          "type": "uint64"
        }
      ],
      "name": "getExtraTransferContract",
      "outputs": [
        {
          "internalType": "uint256",
          "name": "",
          "type": "uint256"
        }
      ],
      "stateMutability": "view",
      "type": "function"
    },
    {
      "inputs": [],
      "name": "getVersionAndEnableTime",
      "outputs": [
        {
          "internalType": "uint192",
          "name": "version",
          "type": "uint192"
        },
        {
          "internalType": "uint64",
          "name": "enableTime",
          "type": "uint64"
        }
      ],
      "stateMutability": "view",
      "type": "function"
    },
    {
      "inputs": [],
      "name": "maxMDCLimit",
      "outputs": [
        {
          "internalType": "uint64",
          "name": "",
          "type": "uint64"
        }
      ],
      "stateMutability": "view",
      "type": "function"
    },
    {
      "inputs": [],
      "name": "minChallengeRatio",
      "outputs": [
        {
          "internalType": "uint64",
          "name": "",
          "type": "uint64"
        }
      ],
      "stateMutability": "view",
      "type": "function"
    },
    {
      "inputs": [],
      "name": "owner",
      "outputs": [
        {
          "internalType": "address",
          "name": "",
          "type": "address"
        }
      ],
      "stateMutability": "view",
      "type": "function"
    },
    {
      "inputs": [],
      "name": "protocolFee",
      "outputs": [
        {
          "internalType": "uint64",
          "name": "",
          "type": "uint64"
        }
      ],
      "stateMutability": "view",
      "type": "function"
    },
    {
      "inputs": [
        {
          "internalType": "uint64",
          "name": "enableTime",
          "type": "uint64"
        },
        {
          "components": [
            {
              "internalType": "uint64",
              "name": "id",
              "type": "uint64"
            },
            {
              "internalType": "uint192",
              "name": "batchLimit",
              "type": "uint192"
            },
            {
              "internalType": "uint64",
              "name": "minVerifyChallengeSourceTxSecond",
              "type": "uint64"
            },
            {
              "internalType": "uint64",
              "name": "maxVerifyChallengeSourceTxSecond",
              "type": "uint64"
            },
            {
              "internalType": "uint64",
              "name": "minVerifyChallengeDestTxSecond",
              "type": "uint64"
            },
            {
              "internalType": "uint64",
              "name": "maxVerifyChallengeDestTxSecond",
              "type": "uint64"
            },
            {
              "internalType": "uint256",
              "name": "nativeToken",
              "type": "uint256"
            },
            {
              "internalType": "address[]",
              "name": "spvs",
              "type": "address[]"
            }
          ],
          "internalType": "struct BridgeLib.ChainInfo[]",
          "name": "chains_",
          "type": "tuple[]"
        }
      ],
      "name": "registerChains",
      "outputs": [],
      "stateMutability": "nonpayable",
      "type": "function"
    },
    {
      "inputs": [],
      "name": "renounceOwnership",
      "outputs": [],
      "stateMutability": "nonpayable",
      "type": "function"
    },
    {
      "inputs": [],
      "name": "submitter",
      "outputs": [
        {
          "internalType": "address",
          "name": "",
          "type": "address"
        }
      ],
      "stateMutability": "view",
      "type": "function"
    },
    {
      "inputs": [
        {
          "internalType": "address",
          "name": "newOwner",
          "type": "address"
        }
      ],
      "name": "transferOwnership",
      "outputs": [],
      "stateMutability": "nonpayable",
      "type": "function"
    },
    {
      "inputs": [
        {
          "internalType": "uint64",
          "name": "enableTime",
          "type": "uint64"
        },
        {
          "internalType": "uint64",
          "name": "id",
          "type": "uint64"
        },
        {
          "internalType": "address[]",
          "name": "spvs",
          "type": "address[]"
        },
        {
          "internalType": "uint256[]",
          "name": "indexs",
          "type": "uint256[]"
        }
      ],
      "name": "updateChainSpvs",
      "outputs": [],
      "stateMutability": "nonpayable",
      "type": "function"
    },
    {
      "inputs": [
        {
          "internalType": "uint64",
          "name": "enableTime",
          "type": "uint64"
        },
        {
          "internalType": "uint64[]",
          "name": "ids",
          "type": "uint64[]"
        },
        {
          "components": [
            {
              "internalType": "uint256",
              "name": "token",
              "type": "uint256"
            },
            {
              "internalType": "address",
              "name": "mainnetToken",
              "type": "address"
            },
            {
              "internalType": "uint8",
              "name": "decimals",
              "type": "uint8"
            }
          ],
          "internalType": "struct BridgeLib.TokenInfo[]",
          "name": "tokenInfos",
          "type": "tuple[]"
        }
      ],
      "name": "updateChainTokens",
      "outputs": [],
      "stateMutability": "nonpayable",
      "type": "function"
    },
    {
      "inputs": [
        {
          "internalType": "uint64",
          "name": "enableTime",
          "type": "uint64"
        },
        {
          "internalType": "uint64",
          "name": "challengeUserRatio_",
          "type": "uint64"
        }
      ],
      "name": "updateChallengeUserRatio",
      "outputs": [],
      "stateMutability": "nonpayable",
      "type": "function"
    },
    {
      "inputs": [
        {
          "internalType": "address[]",
          "name": "ebcs_",
          "type": "address[]"
        },
        {
          "internalType": "bool[]",
          "name": "statuses",
          "type": "bool[]"
        }
      ],
      "name": "updateEbcs",
      "outputs": [],
      "stateMutability": "nonpayable",
      "type": "function"
    },
    {
      "inputs": [
        {
          "internalType": "uint64",
          "name": "enableTime",
          "type": "uint64"
        },
        {
          "internalType": "uint64[]",
          "name": "chainIds",
          "type": "uint64[]"
        },
        {
          "internalType": "uint256[]",
          "name": "extraTransferContracts",
          "type": "uint256[]"
        }
      ],
      "name": "updateExtraTransferContracts",
      "outputs": [],
      "stateMutability": "nonpayable",
      "type": "function"
    },
    {
      "inputs": [
        {
          "internalType": "uint64",
          "name": "enableTime",
          "type": "uint64"
        },
        {
          "internalType": "uint64",
          "name": "feeChallengeSecond_",
          "type": "uint64"
        }
      ],
      "name": "updateFeeChallengeSecond",
      "outputs": [],
      "stateMutability": "nonpayable",
      "type": "function"
    },
    {
      "inputs": [
        {
          "internalType": "uint64",
          "name": "enableTime",
          "type": "uint64"
        },
        {
          "internalType": "uint64",
          "name": "feeTakeOnChallengeSecond_",
          "type": "uint64"
        }
      ],
      "name": "updateFeeTakeOnChallengeSecond",
      "outputs": [],
      "stateMutability": "nonpayable",
      "type": "function"
    },
    {
      "inputs": [
        {
          "internalType": "uint64",
          "name": "maxMDCLimit_",
          "type": "uint64"
        }
      ],
      "name": "updateMaxMDCLimit",
      "outputs": [],
      "stateMutability": "nonpayable",
      "type": "function"
    },
    {
      "inputs": [
        {
          "internalType": "uint64",
          "name": "enableTime",
          "type": "uint64"
        },
        {
          "internalType": "uint64",
          "name": "minChallengeRatio_",
          "type": "uint64"
        }
      ],
      "name": "updateMinChallengeRatio",
      "outputs": [],
      "stateMutability": "nonpayable",
      "type": "function"
    },
    {
      "inputs": [
        {
          "internalType": "uint64",
          "name": "enableTime",
          "type": "uint64"
        },
        {
          "internalType": "uint64",
          "name": "protocolFee_",
          "type": "uint64"
        }
      ],
      "name": "updateProtocolFee",
      "outputs": [],
      "stateMutability": "nonpayable",
      "type": "function"
    },
    {
      "inputs": [
        {
          "internalType": "uint64",
          "name": "enableTime",
          "type": "uint64"
        },
        {
          "internalType": "address",
          "name": "submitter_",
          "type": "address"
        }
      ],
      "name": "updateSubmitter",
      "outputs": [],
      "stateMutability": "nonpayable",
      "type": "function"
    },
    {
      "inputs": [
        {
          "internalType": "uint64",
          "name": "enableTime",
          "type": "uint64"
        }
      ],
      "name": "versionIncreaseAndEnableTime",
      "outputs": [],
      "stateMutability": "nonpayable",
      "type": "function"
    }
  ],
  "bytecode": "0x6080604052600680546001600160401b0319908116614e2017909155600780549091166001600160401b031790553480156200003a57600080fd5b5060405162001eb038038062001eb08339810160408190526200005d916200010a565b6200006833620000ba565b6001600160a01b038116620000a85760405162461bcd60e51b815260206004820152600260248201526127ad60f11b604482015260640160405180910390fd5b620000b381620000ba565b506200013c565b600080546001600160a01b038381166001600160a01b0319831681178455604051919092169283917f8be0079c531659141344cd1fd0a4f28419497f9722a3daafe3b4186f6b6457e09190a35050565b6000602082840312156200011d57600080fd5b81516001600160a01b03811681146200013557600080fd5b9392505050565b611d64806200014c6000396000f3fe608060405234801561001057600080fd5b50600436106101545760003560e01c80630bce92d3146101595780631dc34d4d1461016e5780632e96565f146101815780632f75daca1461019457806330dbb6a1146101b757806335994316146101cf57806337eb0443146101e0578063434417cf1461020f578063456c76381461022257806361e7fc8614610235578063698430831461026c5780636dfd6aec1461027f578063715018a6146102925780637b73994d1461029a5780638a2264ca146102ad5780638da5cb5b146102c55780638dc45d9a146102da5780638fb8ed01146102eb578063a1203894146102fe578063a22b40151461033f578063a531ffd814610352578063b0e21e8a14610365578063b288706d1461037d578063bb6f93bc1461039d578063c2b2b640146103d9578063c7ce55be146103ec578063ca21ece014610404578063f2fde38b14610417575b600080fd5b61016c61016736600461113f565b61042a565b005b61016c61017c36600461118d565b6104a3565b61016c61018f366004611206565b610500565b6006546001600160401b03165b6040516101ae9190611267565b60405180910390f35b600654600160c01b90046001600160401b03166101a1565b6007546001600160401b03166101a1565b600154604080516001600160c01b0383168152600160c01b9092046001600160401b03166020830152016101ae565b61016c61021d366004611288565b61062d565b61016c61023036600461131c565b6107b2565b61025e61024336600461139e565b6001600160401b031660009081526008602052604090205490565b6040519081526020016101ae565b61016c61027a36600461113f565b6108c4565b61016c61028d36600461113f565b610935565b61016c6109a6565b61016c6102a836600461113f565b6109ba565b600654600160801b90046001600160401b03166101a1565b6102cd610a2b565b6040516101ae91906113c2565b6005546001600160a01b03166102cd565b61016c6102f93660046113d6565b610a3a565b61031161030c366004611485565b610b94565b60408051825181526020808401516001600160a01b0316908201529181015160ff16908201526060016101ae565b61016c61034d36600461139e565b610c1a565b61016c61036036600461139e565b610c79565b600554600160a01b90046001600160401b03166101a1565b61039061038b36600461139e565b610d30565b6040516101ae91906114f5565b6103c96103ab366004611599565b6001600160a01b031660009081526004602052604090205460ff1690565b60405190151581526020016101ae565b61016c6103e736600461113f565b610e59565b600654600160401b90046001600160401b03166101a1565b61016c6104123660046115b6565b610eb6565b61016c610425366004611599565b610ff2565b61043261106b565b61043b82610c79565b600680546001600160c01b0316600160c01b6001600160401b03848116820292909217928390556040517f5318429f7521e3adaf81233b2a24c499276d323fad6e90be1c3f80fbf9003420936104979392900490911690611267565b60405180910390a15050565b6104ab61106b565b6104b482610c79565b600580546001600160a01b0319166001600160a01b0383169081179091556040517f698ad3d24dcd7b442a73a8037fbf8b47e23d90035fa70c7170081fe59682b0f091610497916113c2565b61050861106b565b61051183610c79565b60005b818110156106275782828281811061052e5761052e611621565b90506020028101906105409190611637565b6002600085858581811061055657610556611621565b90506020028101906105689190611637565b61057690602081019061139e565b6001600160401b03168152602081019190915260400160002061059982826117ae565b9050508282828181106105ae576105ae611621565b90506020028101906105c09190611637565b6105ce90602081019061139e565b6001600160401b0316600080516020611d388339815191528484848181106105f8576105f8611621565b905060200281019061060a9190611637565b6040516106179190611967565b60405180910390a2600101610514565b50505050565b61063561106b565b61063e86610c79565b60005b8381101561076c57818110156106ef5784848281811061066357610663611621565b90506020020160208101906106789190611599565b6001600160401b03871660009081526002602052604090206003018484848181106106a5576106a5611621565b90506020020135815481106106bc576106bc611621565b9060005260206000200160006101000a8154816001600160a01b0302191690836001600160a01b03160217905550610764565b6001600160401b038616600090815260026020526040902060030185858381811061071c5761071c611621565b90506020020160208101906107319190611599565b81546001810183556000928352602090922090910180546001600160a01b0319166001600160a01b039092169190911790555b600101610641565b506001600160401b038516600081815260026020526040908190209051600080516020611d38833981519152916107a291611a7f565b60405180910390a2505050505050565b6107ba61106b565b6107c385610c79565b8281146108045760405162461bcd60e51b81526004016107fb9060208082526004908201526321a2a7a360e11b604082015260600190565b60405180910390fd5b60005b8381101561087f5782828281811061082157610821611621565b905060200201356008600087878581811061083e5761083e611621565b9050602002016020810190610853919061139e565b6001600160401b031681526020810191909152604001600020558061087781611b1e565b915050610807565b507f308f015ee17073da7fb3de7d9cf2ee868101b64ac0ced5a8af223b4c13907842848484846040516108b59493929190611b37565b60405180910390a15050505050565b6108cc61106b565b6108d582610c79565b60068054600160401b600160801b031916600160401b6001600160401b03848116820292909217928390556040517f2c4d36309aca612bb3ab99bc5f3fc2337f23ab6be9f1861b65d75efd9a1fc230936104979392900490911690611267565b61093d61106b565b61094682610c79565b60058054600160a01b600160e01b031916600160a01b6001600160401b03848116820292909217928390556040517f1ce29a697a4765bd17d91df93ba75b250b629ecf030553ff1f6ab59f15ae6c7b936104979392900490911690611267565b6109ae61106b565b6109b860006110ca565b565b6109c261106b565b6109cb82610c79565b60068054600160801b600160c01b031916600160801b6001600160401b03848116820292909217928390556040517fe539efd6d957297c3253d8c9fd4d94857731d81102825a93e878f44938d8f298936104979392900490911690611267565b6000546001600160a01b031690565b610a4261106b565b610a4b85610c79565b60005b83811015610b8c576000610ac9868684818110610a6d57610a6d611621565b9050602002016020810190610a82919061139e565b858585818110610a9457610a94611621565b90506060020160000135604051602001610aaf929190611bb5565b604051602081830303815290604052805160209091012090565b9050838383818110610add57610add611621565b905060600201600360008381526020019081526020016000208181610b029190611be1565b905050858583818110610b1757610b17611621565b9050602002016020810190610b2c919061139e565b6001600160401b03167f52482770013d9905a43b78b74a47c7f9d1949c15b715cc5ca2c1c34105d73cf4858585818110610b6857610b68611621565b905060600201604051610b7b9190611c34565b60405180910390a250600101610a4e565b505050505050565b60408051606081018252600080825260208201819052918101919091526000610bc98484604051602001610aaf929190611bb5565b6000908152600360209081526040918290208251606081018452815481526001909101546001600160a01b03811692820192909252600160a01b90910460ff16918101919091529150505b92915050565b610c2261106b565b600780546001600160401b0319166001600160401b0383169081179091556040517f131f289a370d17d3a705703b33226e15c9a8fd1b1874ac3ab3888ecda5d2c3c291610c6e91611267565b60405180910390a150565b6078610c8e426001600160401b038416611c76565b1015610cc55760405162461bcd60e51b81526004016107fb9060208082526004908201526313d1915560e21b604082015260600190565b600180548190600090610ce29083906001600160c01b0316611c89565b92506101000a8154816001600160c01b0302191690836001600160c01b0316021790555080600160186101000a8154816001600160401b0302191690836001600160401b0316021790555050565b604080516101008101825260008082526020820181905291810182905260608082018390526080820183905260a0820183905260c082019290925260e08101919091526001600160401b03808316600090815260026020818152604092839020835161010081018552815480871682526001600160c01b03600160401b91829004168285015260018301548088168388015290810487166060830152600160801b810487166080830152600160c01b900490951660a08601529182015460c0850152600382018054845181840281018401909552808552929360e08601939092830182828015610e4957602002820191906000526020600020905b81546001600160a01b03168152600190910190602001808311610e2b575b5050505050815250509050919050565b610e6161106b565b610e6a82610c79565b600680546001600160401b0319166001600160401b0383169081179091556040517f68280efac1b91f595dbe7ce755358bdd797d8132c3d8bf636af8204c3d4bfe689161049791611267565b610ebe61106b565b60005b83811015610fae5781811015610f5057828282818110610ee357610ee3611621565b9050602002016020810190610ef89190611cc0565b60046000878785818110610f0e57610f0e611621565b9050602002016020810190610f239190611599565b6001600160a01b031681526020810191909152604001600020805460ff1916911515919091179055610fa6565b600160046000878785818110610f6857610f68611621565b9050602002016020810190610f7d9190611599565b6001600160a01b031681526020810191909152604001600020805460ff19169115159190911790555b600101610ec1565b507fcbff3ca58b9beaa25c60a25b8918d5f5843eb71b89a913668181999e2e945ae984848484604051610fe49493929190611cdb565b60405180910390a150505050565b610ffa61106b565b6001600160a01b03811661105f5760405162461bcd60e51b815260206004820152602660248201527f4f776e61626c653a206e6577206f776e657220697320746865207a65726f206160448201526564647265737360d01b60648201526084016107fb565b611068816110ca565b50565b33611074610a2b565b6001600160a01b0316146109b85760405162461bcd60e51b815260206004820181905260248201527f4f776e61626c653a2063616c6c6572206973206e6f7420746865206f776e657260448201526064016107fb565b600080546001600160a01b038381166001600160a01b0319831681178455604051919092169283917f8be0079c531659141344cd1fd0a4f28419497f9722a3daafe3b4186f6b6457e09190a35050565b6001600160401b038116811461106857600080fd5b803561113a8161111a565b919050565b6000806040838503121561115257600080fd5b823561115d8161111a565b9150602083013561116d8161111a565b809150509250929050565b6001600160a01b038116811461106857600080fd5b600080604083850312156111a057600080fd5b82356111ab8161111a565b9150602083013561116d81611178565b60008083601f8401126111cd57600080fd5b5081356001600160401b038111156111e457600080fd5b6020830191508360208260051b85010111156111ff57600080fd5b9250929050565b60008060006040848603121561121b57600080fd5b83356112268161111a565b925060208401356001600160401b0381111561124157600080fd5b61124d868287016111bb565b9497909650939450505050565b6001600160401b03169052565b6001600160401b0391909116815260200190565b6001600160c01b03169052565b600080600080600080608087890312156112a157600080fd5b86356112ac8161111a565b955060208701356112bc8161111a565b945060408701356001600160401b03808211156112d857600080fd5b6112e48a838b016111bb565b909650945060608901359150808211156112fd57600080fd5b5061130a89828a016111bb565b979a9699509497509295939492505050565b60008060008060006060868803121561133457600080fd5b853561133f8161111a565b945060208601356001600160401b038082111561135b57600080fd5b61136789838a016111bb565b9096509450604088013591508082111561138057600080fd5b5061138d888289016111bb565b969995985093965092949392505050565b6000602082840312156113b057600080fd5b81356113bb8161111a565b9392505050565b6001600160a01b0391909116815260200190565b6000806000806000606086880312156113ee57600080fd5b85356113f98161111a565b945060208601356001600160401b038082111561141557600080fd5b61142189838a016111bb565b9096509450604088013591508082111561143a57600080fd5b818801915088601f83011261144e57600080fd5b81358181111561145d57600080fd5b89602060608302850101111561147257600080fd5b9699959850939650602001949392505050565b6000806040838503121561149857600080fd5b82356114a38161111a565b946020939093013593505050565b600081518084526020808501945080840160005b838110156114ea5781516001600160a01b0316875295820195908201906001016114c5565b509495945050505050565b602080825282516001600160401b0316828201528201516001600160c01b0316604080830191909152820151600090611531606084018261125a565b506060830151611544608084018261125a565b50608083015161155760a084018261125a565b5060a083015161156a60c084018261125a565b5060c083015160e083015260e08301516101008081850152506115916101208401826114b1565b949350505050565b6000602082840312156115ab57600080fd5b81356113bb81611178565b600080600080604085870312156115cc57600080fd5b84356001600160401b03808211156115e357600080fd5b6115ef888389016111bb565b9096509450602087013591508082111561160857600080fd5b50611615878288016111bb565b95989497509550505050565b634e487b7160e01b600052603260045260246000fd5b6000823560fe1983360301811261164d57600080fd5b9190910192915050565b60008135610c148161111a565b80546001600160401b0319166001600160401b0392909216919091179055565b6001600160c01b038116811461106857600080fd5b6000808335601e198436030181126116b057600080fd5b8301803591506001600160401b038211156116ca57600080fd5b6020019150600581901b36038213156111ff57600080fd5b634e487b7160e01b600052604160045260246000fd5b634e487b7160e01b600052601160045260246000fd5b60008135610c1481611178565b6001600160401b03831115611732576117326116e2565b600160401b831115611746576117466116e2565b80548382558084101561177d576000828152602081208581019083015b8082101561177957828255600182019150611763565b5050505b5060008181526020812083915b85811015610b8c5761179b8361170e565b828201556020929092019160010161178a565b81356117b98161111a565b6117c38183611664565b5060208201356117d281611684565b81546001600160401b0316604091821b6001600160401b03191617825560018201908301356118008161111a565b61180a8183611664565b5061184461181a60608501611657565b828054600160401b600160801b03191660409290921b600160401b600160801b0316919091179055565b61187d61185360808501611657565b828054600160801b600160c01b03191660809290921b600160801b600160c01b0316919091179055565b6118b061188c60a08501611657565b8280546001600160c01b031660c09290921b6001600160c01b031916919091179055565b5060c082013560028201556118c860e0830183611699565b61062781836003860161171b565b803561113a81611684565b6000808335601e198436030181126118f857600080fd5b83016020810192503590506001600160401b0381111561191757600080fd5b8060051b36038213156111ff57600080fd5b8183526000602080850194508260005b858110156114ea57813561194c81611178565b6001600160a01b031687529582019590820190600101611939565b60208152600082356119788161111a565b6001600160401b03166020838101919091526119959084016118d6565b6119a2604084018261127b565b506119af6040840161112f565b6119bc606084018261125a565b506119c96060840161112f565b6119d6608084018261125a565b506119e36080840161112f565b6119f060a084018261125a565b506119fd60a0840161112f565b611a0a60c084018261125a565b5060c083013560e0830152611a2260e08401846118e1565b61010084810152611a3861012085018284611929565b95945050505050565b6000815480845260208085019450836000528060002060005b838110156114ea5781546001600160a01b031687529582019560019182019101611a5a565b602080825282546000916001600160401b0390611aa090850182841661125a565b611ab0604085018360401c61127b565b60018501549150611ac66060850182841661125a565b611ad860808501828460401c1661125a565b611aea60a08501828460801c1661125a565b50611afb60c084018260c01c61125a565b50600283015460e0830152610100808301526113bb610120830160038501611a41565b600060018201611b3057611b306116f8565b5060010190565b6040808252810184905260008560608301825b87811015611b7a578235611b5d8161111a565b6001600160401b0316825260209283019290910190600101611b4a565b5083810360208501528481526001600160fb1b03851115611b9a57600080fd5b8460051b915081866020830137016020019695505050505050565b60c09290921b6001600160c01b0319168252600882015260280190565b60ff8116811461106857600080fd5b81358155600181016020830135611bf781611178565b81546040850135611c0781611bd2565b60ff60a01b60a09190911b166001600160a01b03929092166001600160a81b031991909116171790555050565b81358152606081016020830135611c4a81611178565b6001600160a01b031660208301526040830135611c6681611bd2565b60ff811660408401525092915050565b81810381811115610c1457610c146116f8565b6001600160c01b03818116838216019080821115611ca957611ca96116f8565b5092915050565b8035801515811461113a57600080fd5b600060208284031215611cd257600080fd5b6113bb82611cb0565b604081526000611cef604083018688611929565b8281036020848101919091528482528591810160005b86811015611d2a57611d1684611cb0565b151582529282019290820190600101611d05565b509897505050505050505056feb503bd02757fd8a8ae859e560bbc7a6b236aba166b403d0ea2c34921070b37cba164736f6c6343000811000a",
  "linkReferences": {},
  "deployedLinkReferences": {}
}