{
  "_format": "hh-sol-artifact-1",
  "contractName": "ORMakerDeposit",
  "sourceName": "contracts/ORMakerDeposit.sol",
  "abi": [
    {
      "anonymous": false,
      "inputs": [
        {
          "indexed": true,
          "internalType": "address",
          "name": "impl",
          "type": "address"
        },
        {
          "indexed": false,
          "internalType": "bytes32",
          "name": "columnArrayHash",
          "type": "bytes32"
        },
        {
          "indexed": false,
          "internalType": "address[]",
          "name": "dealers",
          "type": "address[]"
        },
        {
          "indexed": false,
          "internalType": "address[]",
          "name": "ebcs",
          "type": "address[]"
        },
        {
          "indexed": false,
          "internalType": "uint16[]",
          "name": "chainIds",
          "type": "uint16[]"
        }
      ],
      "name": "ColumnArrayUpdated",
      "type": "event"
    },
    {
      "anonymous": false,
      "inputs": [
        {
          "indexed": true,
          "internalType": "address",
          "name": "impl",
          "type": "address"
        },
        {
          "indexed": false,
          "internalType": "address[]",
          "name": "responseMakers",
          "type": "address[]"
        }
      ],
      "name": "ResponseMakersUpdated",
      "type": "event"
    },
    {
      "anonymous": false,
      "inputs": [
        {
          "indexed": true,
          "internalType": "address",
          "name": "impl",
          "type": "address"
        },
        {
          "indexed": false,
          "internalType": "address",
          "name": "ebc",
          "type": "address"
        },
        {
          "components": [
            {
              "internalType": "bytes32",
              "name": "root",
              "type": "bytes32"
            },
            {
              "internalType": "uint32",
              "name": "version",
              "type": "uint32"
            }
          ],
          "indexed": false,
          "internalType": "struct RuleLib.RootWithVersion",
          "name": "rootWithVersion",
          "type": "tuple"
        }
      ],
      "name": "RulesRootUpdated",
      "type": "event"
    },
    {
      "anonymous": false,
      "inputs": [
        {
          "indexed": true,
          "internalType": "address",
          "name": "impl",
          "type": "address"
        },
        {
          "indexed": false,
          "internalType": "uint16",
          "name": "chainId",
          "type": "uint16"
        },
        {
          "indexed": false,
          "internalType": "address",
          "name": "spv",
          "type": "address"
        }
      ],
      "name": "SpvUpdated",
      "type": "event"
    },
    {
      "inputs": [
        {
          "internalType": "uint16",
          "name": "sourceChainId",
          "type": "uint16"
        },
        {
          "internalType": "bytes32",
          "name": "sourceTxHash",
          "type": "bytes32"
        },
        {
          "internalType": "address",
          "name": "freezeToken",
          "type": "address"
        },
        {
          "internalType": "uint256",
          "name": "freezeAmount",
          "type": "uint256"
        }
      ],
      "name": "challenge",
      "outputs": [],
      "stateMutability": "payable",
      "type": "function"
    },
    {
      "inputs": [
        {
          "internalType": "bytes32",
          "name": "challengeId",
          "type": "bytes32"
        }
      ],
      "name": "checkChallenge",
      "outputs": [],
      "stateMutability": "nonpayable",
      "type": "function"
    },
    {
      "inputs": [],
      "name": "columnArrayHash",
      "outputs": [
        {
          "internalType": "bytes32",
          "name": "",
          "type": "bytes32"
        }
      ],
      "stateMutability": "view",
      "type": "function"
    },
    {
      "inputs": [
        {
          "internalType": "address",
          "name": "token",
          "type": "address"
        },
        {
          "internalType": "uint256",
          "name": "amount",
          "type": "uint256"
        }
      ],
      "name": "deposit",
      "outputs": [],
      "stateMutability": "payable",
      "type": "function"
    },
    {
      "inputs": [
        {
          "internalType": "address",
          "name": "token",
          "type": "address"
        }
      ],
      "name": "freezeAssets",
      "outputs": [
        {
          "internalType": "uint256",
          "name": "",
          "type": "uint256"
        }
      ],
      "stateMutability": "view",
      "type": "function"
    },
    {
      "inputs": [
        {
          "internalType": "address",
          "name": "owner_",
          "type": "address"
        }
      ],
      "name": "initialize",
      "outputs": [],
      "stateMutability": "nonpayable",
      "type": "function"
    },
    {
      "inputs": [],
      "name": "mdcFactory",
      "outputs": [
        {
          "internalType": "address",
          "name": "",
          "type": "address"
        }
      ],
      "stateMutability": "view",
      "type": "function"
    },
    {
      "inputs": [],
      "name": "owner",
      "outputs": [
        {
          "internalType": "address",
          "name": "",
          "type": "address"
        }
      ],
      "stateMutability": "view",
      "type": "function"
    },
    {
      "inputs": [],
      "name": "responseMakers",
      "outputs": [
        {
          "internalType": "address[]",
          "name": "",
          "type": "address[]"
        }
      ],
      "stateMutability": "view",
      "type": "function"
    },
    {
      "inputs": [
        {
          "internalType": "address",
          "name": "ebc",
          "type": "address"
        }
      ],
      "name": "rulesRoot",
      "outputs": [
        {
          "components": [
            {
              "internalType": "bytes32",
              "name": "root",
              "type": "bytes32"
            },
            {
              "internalType": "uint32",
              "name": "version",
              "type": "uint32"
            }
          ],
          "internalType": "struct RuleLib.RootWithVersion",
          "name": "",
          "type": "tuple"
        }
      ],
      "stateMutability": "view",
      "type": "function"
    },
    {
      "inputs": [
        {
          "internalType": "uint16",
          "name": "chainId",
          "type": "uint16"
        }
      ],
      "name": "spv",
      "outputs": [
        {
          "internalType": "address",
          "name": "",
          "type": "address"
        }
      ],
      "stateMutability": "view",
      "type": "function"
    },
    {
      "inputs": [
        {
          "internalType": "address[]",
          "name": "dealers",
          "type": "address[]"
        },
        {
          "internalType": "address[]",
          "name": "ebcs",
          "type": "address[]"
        },
        {
          "internalType": "uint16[]",
          "name": "chainIds",
          "type": "uint16[]"
        }
      ],
      "name": "updateColumnArray",
      "outputs": [],
      "stateMutability": "nonpayable",
      "type": "function"
    },
    {
      "inputs": [
        {
          "internalType": "address[]",
          "name": "responseMakers_",
          "type": "address[]"
        },
        {
          "internalType": "uint256[]",
          "name": "indexs",
          "type": "uint256[]"
        }
      ],
      "name": "updateResponseMakers",
      "outputs": [],
      "stateMutability": "nonpayable",
      "type": "function"
    },
    {
      "inputs": [
        {
          "internalType": "address",
          "name": "ebc",
          "type": "address"
        },
        {
          "internalType": "bytes",
          "name": "rsc",
          "type": "bytes"
        },
        {
          "components": [
            {
              "internalType": "bytes32",
              "name": "root",
              "type": "bytes32"
            },
            {
              "internalType": "uint32",
              "name": "version",
              "type": "uint32"
            }
          ],
          "internalType": "struct RuleLib.RootWithVersion",
          "name": "rootWithVersion",
          "type": "tuple"
        },
        {
          "internalType": "uint16[]",
          "name": "sourceChainIds",
          "type": "uint16[]"
        },
        {
          "internalType": "uint256[]",
          "name": "pledgeAmounts",
          "type": "uint256[]"
        }
      ],
      "name": "updateRulesRoot",
      "outputs": [],
      "stateMutability": "payable",
      "type": "function"
    },
    {
      "inputs": [
        {
          "internalType": "address",
          "name": "ebc",
          "type": "address"
        },
        {
          "internalType": "bytes",
          "name": "rsc",
          "type": "bytes"
        },
        {
          "components": [
            {
              "internalType": "bytes32",
              "name": "root",
              "type": "bytes32"
            },
            {
              "internalType": "uint32",
              "name": "version",
              "type": "uint32"
            }
          ],
          "internalType": "struct RuleLib.RootWithVersion",
          "name": "rootWithVersion",
          "type": "tuple"
        },
        {
          "internalType": "uint16[]",
          "name": "sourceChainIds",
          "type": "uint16[]"
        },
        {
          "internalType": "uint256[]",
          "name": "pledgeAmounts",
          "type": "uint256[]"
        },
        {
          "internalType": "address",
          "name": "token",
          "type": "address"
        }
      ],
      "name": "updateRulesRootERC20",
      "outputs": [],
      "stateMutability": "nonpayable",
      "type": "function"
    },
    {
      "inputs": [
        {
          "internalType": "address[]",
          "name": "spvs",
          "type": "address[]"
        },
        {
          "internalType": "uint16[]",
          "name": "chainIds",
          "type": "uint16[]"
        }
      ],
      "name": "updateSpvs",
      "outputs": [],
      "stateMutability": "nonpayable",
      "type": "function"
    },
    {
      "inputs": [
        {
          "internalType": "address",
          "name": "spvAddress",
          "type": "address"
        },
        {
          "internalType": "bytes",
          "name": "proof",
          "type": "bytes"
        },
        {
          "internalType": "bytes32",
          "name": "spvBlockHash",
          "type": "bytes32"
        },
        {
          "components": [
            {
              "internalType": "uint256[]",
              "name": "txInfos",
              "type": "uint256[]"
            },
            {
              "components": [
                {
                  "internalType": "address",
                  "name": "account",
                  "type": "address"
                },
                {
                  "internalType": "bytes32",
                  "name": "storageKey",
                  "type": "bytes32"
                },
                {
                  "internalType": "uint256",
                  "name": "storageValue",
                  "type": "uint256"
                }
              ],
              "internalType": "struct IORChallengeSpv.VerifyInfoSlot",
              "name": "slots",
              "type": "tuple"
            }
          ],
          "internalType": "struct IORChallengeSpv.VerifyInfo",
          "name": "verifyInfo",
          "type": "tuple"
        },
        {
          "internalType": "uint256[]",
          "name": "verifiedData0",
          "type": "uint256[]"
        }
      ],
      "name": "verifyChallengeDest",
      "outputs": [],
      "stateMutability": "nonpayable",
      "type": "function"
    },
    {
      "inputs": [
        {
          "internalType": "address",
          "name": "spvAddress",
          "type": "address"
        },
        {
          "internalType": "bytes",
          "name": "proof",
          "type": "bytes"
        },
        {
          "internalType": "bytes32",
          "name": "spvBlockHash",
          "type": "bytes32"
        },
        {
          "components": [
            {
              "internalType": "uint256[]",
              "name": "txInfos",
              "type": "uint256[]"
            },
            {
              "components": [
                {
                  "internalType": "address",
                  "name": "account",
                  "type": "address"
                },
                {
                  "internalType": "bytes32",
                  "name": "storageKey",
                  "type": "bytes32"
                },
                {
                  "internalType": "uint256",
                  "name": "storageValue",
                  "type": "uint256"
                }
              ],
              "internalType": "struct IORChallengeSpv.VerifyInfoSlot",
              "name": "slots",
              "type": "tuple"
            }
          ],
          "internalType": "struct IORChallengeSpv.VerifyInfo",
          "name": "verifyInfo",
          "type": "tuple"
        }
      ],
      "name": "verifyChallengeSource",
      "outputs": [],
      "stateMutability": "nonpayable",
      "type": "function"
    },
    {
      "inputs": [
        {
          "internalType": "address",
          "name": "token",
          "type": "address"
        },
        {
          "internalType": "uint256",
          "name": "amount",
          "type": "uint256"
        }
      ],
      "name": "withdraw",
      "outputs": [],
      "stateMutability": "nonpayable",
      "type": "function"
    },
    {
      "stateMutability": "payable",
      "type": "receive"
    }
  ],
  "bytecode": "0x608060405234801561001057600080fd5b50613154806100206000396000f3fe6080604052600436106101485760003560e01c8063671ecbfe116100c0578063bf49a7ff11610074578063d5b84e1711610059578063d5b84e17146103c4578063e9c62fc4146103e2578063f3fef3a31461041c57600080fd5b8063bf49a7ff14610384578063c4d66de8146103a457600080fd5b80638da5cb5b116100a55780638da5cb5b14610324578063943ee6b014610342578063ba41de791461036257600080fd5b8063671ecbfe146102885780638d7eda951461031157600080fd5b806347e7ef24116101175780635266dbda116100fc5780635266dbda1461021f57806359f9588c146102325780635bcb40371461025257600080fd5b806347e7ef24146101da5780634c20cb24146101ed57600080fd5b806302f17ed31461015457806316d38f5d146101785780631f88ca961461019a57806322ecbd6f146101ba57600080fd5b3661014f57005b600080fd5b34801561016057600080fd5b506002545b6040519081526020015b60405180910390f35b34801561018457600080fd5b50610198610193366004612424565b61043c565b005b3480156101a657600080fd5b506101986101b53660046124f8565b610619565b3480156101c657600080fd5b506101986101d5366004612576565b6109dc565b6101986101e8366004612627565b610cc0565b3480156101f957600080fd5b506001546001600160a01b03165b6040516001600160a01b03909116815260200161016f565b61019861022d366004612653565b610ce8565b34801561023e57600080fd5b5061019861024d366004612714565b610f0f565b34801561025e57600080fd5b5061016561026d36600461279a565b6001600160a01b031660009081526007602052604090205490565b34801561029457600080fd5b506102f06102a336600461279a565b6040805180820190915260008082526020820152506001600160a01b03166000908152600560209081526040918290208251808401909352805483526001015463ffffffff169082015290565b604080518251815260209283015163ffffffff16928101929092520161016f565b61019861031f3660046127d5565b611179565b34801561033057600080fd5b506000546001600160a01b0316610207565b34801561034e57600080fd5b5061019861035d3660046124f8565b611375565b34801561036e57600080fd5b5061037761158a565b60405161016f919061281b565b34801561039057600080fd5b5061019861039f366004612868565b6115ec565b3480156103b057600080fd5b506101986103bf36600461279a565b611a28565b3480156103d057600080fd5b506101986103df366004612902565b50565b3480156103ee57600080fd5b506102076103fd36600461291b565b61ffff166000908152600360205260409020546001600160a01b031690565b34801561042857600080fd5b50610198610437366004612627565b611ad0565b6000546001600160a01b0316331461049b5760405162461bcd60e51b815260206004820181905260248201527f4f776e61626c653a2063616c6c6572206973206e6f7420746865206f776e657260448201526064015b60405180910390fd5b6104a58987611d3d565b8382146104da5760405162461bcd60e51b815260206004820152600360248201526214d41360ea1b6044820152606401610492565b60005b8481101561060d5760008686838181106104f9576104f9612936565b905060200201602081019061050e919061291b565b8360405160200161054a92919060f09290921b6001600160f01b031916825260601b6bffffffffffffffffffffffff1916600282015260160190565b60408051601f1981840301815291815281516020928301206001600160a01b038e1660009081526006845282812082825290935291205490915085858481811061059657610596612936565b905060200201351115610604576001600160a01b038b16600090815260066020908152604080832084845290915290205461060490339030908888878181106105e1576105e1612936565b905060200201356105f29190612962565b6001600160a01b038716929190611fc7565b506001016104dd565b50505050505050505050565b6000546001600160a01b031633146106735760405162461bcd60e51b815260206004820181905260248201527f4f776e61626c653a2063616c6c6572206973206e6f7420746865206f776e65726044820152606401610492565b6001546040805163481c6a7560e01b815290516000926001600160a01b03169163481c6a759160048083019260209291908290030181865afa1580156106bd573d6000803e3d6000fd5b505050506040513d601f19601f820116820180604052508101906106e19190612975565b90506000600160009054906101000a90046001600160a01b03166001600160a01b0316635c60da1b6040518163ffffffff1660e01b8152600401602060405180830381865afa158015610738573d6000803e3d6000fd5b505050506040513d601f19601f8201168201806040525081019061075c9190612975565b905060005b838110156109d3576000836001600160a01b031663754216d987878581811061078c5761078c612936565b90506020020160208101906107a1919061291b565b6040516001600160e01b031960e084901b16815261ffff9091166004820152602401600060405180830381865afa1580156107e0573d6000803e3d6000fd5b505050506040513d6000823e601f3d908101601f191682016040526108089190810190612bcc565b805190915063ffffffff166108445760405162461bcd60e51b8152602060048201526002602482015261434960f01b6044820152606401610492565b61087988888481811061085957610859612936565b905060200201602081019061086e919061279a565b60408301519061204d565b6108aa5760405162461bcd60e51b8152602060048201526002602482015261534960f01b6044820152606401610492565b8787838181106108bc576108bc612936565b90506020020160208101906108d1919061279a565b600360008888868181106108e7576108e7612936565b90506020020160208101906108fc919061291b565b61ffff168152602081019190915260400160002080546001600160a01b0319166001600160a01b0392831617905583167f6d8e82865b83e75a4d698ae34aa5ea3fa283b04544ef2ed5ce2aec85c7cddac487878581811061095f5761095f612936565b9050602002016020810190610974919061291b565b8a8a8681811061098657610986612936565b905060200201602081019061099b919061279a565b6040805161ffff90931683526001600160a01b0390911660208301520160405180910390a250806109cb81612cc4565b915050610761565b50505050505050565b6000836040516020016109ef9190612d28565b6040516020818303038152906040528051906020012090506000886001600160a01b031663567f170e898989866040518563ffffffff1660e01b8152600401610a3b9493929190612dc5565b602060405180830381865afa158015610a58573d6000803e3d6000fd5b505050506040513d601f19601f82011682018060405250810190610a7c9190612e05565b905080610ab05760405162461bcd60e51b81526020600482015260026024820152612b2360f11b6044820152606401610492565b6000610abc8680612e27565b6000818110610acd57610acd612936565b60200291909101359050610ae18780612e27565b6001818110610af257610af2612936565b90506020020135604051602001610b2292919060f09290921b6001600160f01b0319168252600282015260220190565b60408051808303601f1901815291815281516020928301206000818152600890935291206003015490915068010000000000000000900467ffffffffffffffff16610b985760405162461bcd60e51b8152600401610492906020808252600490820152632b2a182d60e11b604082015260600190565b600081815260086020526040902060030154600160801b900467ffffffffffffffff1615610c085760405162461bcd60e51b815260206004820152600560248201527f5654314e5a0000000000000000000000000000000000000000000000000000006044820152606401610492565b60008585604051602001610c1d929190612e71565b60408051601f198184030181529181528151602092830120600085815260089093529120600401549091508114610c7f5760405162461bcd60e51b8152600401610492906020808252600490820152635644484960e01b604082015260600190565b506000908152600860205260409020600301805467ffffffffffffffff60801b1916600160801b4267ffffffffffffffff1602179055505050505050505050565b6001600160a01b03821615610ce457610ce46001600160a01b038316333084611fc7565b5050565b6000546001600160a01b03163314610d425760405162461bcd60e51b815260206004820181905260248201527f4f776e61626c653a2063616c6c6572206973206e6f7420746865206f776e65726044820152606401610492565b610d4c8886611d3d565b828114610d815760405162461bcd60e51b815260206004820152600360248201526214d41360ea1b6044820152606401610492565b6000805b84811015610ece576000868683818110610da157610da1612936565b9050602002016020810190610db6919061291b565b60405160f09190911b6001600160f01b03191660208201526000602282015260360160408051601f1981840301815291815281516020928301206001600160a01b038e16600090815260068452828120828252909352912054909150858584818110610e2457610e24612936565b905060200201351115610e85576001600160a01b038b166000908152600660209081526040808320848452909152902054858584818110610e6757610e67612936565b90506020020135610e789190612962565b610e829084612e85565b92505b848483818110610e9757610e97612936565b6001600160a01b038e1660009081526006602090815260408083209683529581529490209302919091013590915550600101610d85565b5034811115610f045760405162461bcd60e51b815260206004820152600260248201526124ab60f11b6044820152606401610492565b505050505050505050565b600081604051602001610f229190612d28565b6040516020818303038152906040528051906020012090506000866001600160a01b031663567f170e878787866040518563ffffffff1660e01b8152600401610f6e9493929190612dc5565b602060405180830381865afa158015610f8b573d6000803e3d6000fd5b505050506040513d601f19601f82011682018060405250810190610faf9190612e05565b905080610fe35760405162461bcd60e51b81526020600482015260026024820152612b2360f11b6044820152606401610492565b6000610fef8480612e27565b600081811061100057611000612936565b602002919091013590506110148580612e27565b600181811061102557611025612936565b9050602002013560405160200161105592919060f09290921b6001600160f01b0319168252600282015260220190565b60408051601f1981840301815291815281516020928301206000818152600890935291206003015490915067ffffffffffffffff166110bc5760405162461bcd60e51b815260206004820152600360248201526221aa2d60e91b6044820152606401610492565b60008181526008602052604090206003015468010000000000000000900467ffffffffffffffff16156111315760405162461bcd60e51b815260206004820152600560248201527f5654304e5a0000000000000000000000000000000000000000000000000000006044820152606401610492565b600090815260086020526040902060030180546fffffffffffffffff00000000000000001916680100000000000000004267ffffffffffffffff160217905550505050505050565b6040516001600160f01b031960f086901b1660208201526022810184905260009060420160408051601f1981840301815291815281516020928301206000818152600890935291206003015490915067ffffffffffffffff16156112045760405162461bcd60e51b8152602060048201526002602482015261434560f01b6044820152606401610492565b6001600160a01b03831661124b573482146112465760405162461bcd60e51b815260206004820152600260248201526124a360f11b6044820152606401610492565b611260565b6112606001600160a01b038416333085611fc7565b6001600160a01b03831660009081526007602052604081208054849290611288908490612e85565b90915550506040805160e0810182526001600160a01b0394851681526020808201948552600082840181815267ffffffffffffffff428116606086019081526080860184815260a0870185815260c088018681529986526008909652969093209451855499166001600160a01b031990991698909817845595516001840155945160028301559351600382018054935195518716600160801b0267ffffffffffffffff60801b1996881668010000000000000000026fffffffffffffffffffffffffffffffff19909516929097169190911792909217939093169390931790925590516004909101555050565b6000546001600160a01b031633146113cf5760405162461bcd60e51b815260206004820181905260248201527f4f776e61626c653a2063616c6c6572206973206e6f7420746865206f776e65726044820152606401610492565b60005b838110156114cb5781811015611467578484828181106113f4576113f4612936565b9050602002016020810190611409919061279a565b600484848481811061141d5761141d612936565b905060200201358154811061143457611434612936565b9060005260206000200160006101000a8154816001600160a01b0302191690836001600160a01b031602179055506114c3565b600485858381811061147b5761147b612936565b9050602002016020810190611490919061279a565b81546001810183556000928352602090922090910180546001600160a01b0319166001600160a01b039092169190911790555b6001016113d2565b50600160009054906101000a90046001600160a01b03166001600160a01b0316635c60da1b6040518163ffffffff1660e01b8152600401602060405180830381865afa15801561151f573d6000803e3d6000fd5b505050506040513d601f19601f820116820180604052508101906115439190612975565b6001600160a01b03167fd172187328cfcac0f3e8eed3e600a089b0c3506ab7e1acb852bf7bc5e67f1f59600460405161157c9190612e98565b60405180910390a250505050565b606060048054806020026020016040519081016040528092919081815260200182805480156115e257602002820191906000526020600020905b81546001600160a01b031681526001909101906020018083116115c4575b5050505050905090565b6000546001600160a01b031633146116465760405162461bcd60e51b815260206004820181905260248201527f4f776e61626c653a2063616c6c6572206973206e6f7420746865206f776e65726044820152606401610492565b600a85111561167d5760405162461bcd60e51b81526020600482015260036024820152622227a360e91b6044820152606401610492565b600a8311156116b45760405162461bcd60e51b815260206004820152600360248201526222a7a360e91b6044820152606401610492565b60648111156116eb5760405162461bcd60e51b815260206004820152600360248201526221a7a360e91b6044820152606401610492565b6001546040805163481c6a7560e01b815290516000926001600160a01b03169163481c6a759160048083019260209291908290030181865afa158015611735573d6000803e3d6000fd5b505050506040513d601f19601f820116820180604052508101906117599190612975565b905060005b8481101561183d57816001600160a01b031663bb6f93bc87878481811061178757611787612936565b905060200201602081019061179c919061279a565b6040516001600160e01b031960e084901b1681526001600160a01b039091166004820152602401602060405180830381865afa1580156117e0573d6000803e3d6000fd5b505050506040513d601f19601f820116820180604052508101906118049190612e05565b6118355760405162461bcd60e51b8152602060048201526002602482015261454960f01b6044820152606401610492565b60010161175e565b5060005b8281101561192d576000826001600160a01b031663754216d986868581811061186c5761186c612936565b9050602002016020810190611881919061291b565b6040516001600160e01b031960e084901b16815261ffff9091166004820152602401600060405180830381865afa1580156118c0573d6000803e3d6000fd5b505050506040513d6000823e601f3d908101601f191682016040526118e89190810190612bcc565b805190915063ffffffff166119245760405162461bcd60e51b8152602060048201526002602482015261434960f01b6044820152606401610492565b50600101611841565b5086868686868660405160200161194996959493929190612f1d565b60408051601f198184030181528282528051602091820120600255600154635c60da1b60e01b845291516000936001600160a01b0390931692635c60da1b9260048083019391928290030181865afa1580156119a9573d6000803e3d6000fd5b505050506040513d601f19601f820116820180604052508101906119cd9190612975565b9050806001600160a01b03167f9f339a9b3ff29e64e8197e744dcf607a6647b9a6309711411bb4936b58a360876002548a8a8a8a8a8a604051611a169796959493929190612fba565b60405180910390a25050505050505050565b6000546001600160a01b031615611a6a5760405162461bcd60e51b8152600401610492906020808252600490820152632fa7a72d60e11b604082015260600190565b6001600160a01b038116611aa55760405162461bcd60e51b815260206004820152600260248201526127ad60f11b6044820152606401610492565b600080546001600160a01b039092166001600160a01b03199283161790556001805490911633179055565b6000546001600160a01b03163314611b2a5760405162461bcd60e51b815260206004820181905260248201527f4f776e61626c653a2063616c6c6572206973206e6f7420746865206f776e65726044820152606401610492565b6001600160a01b038216611c48576001600160a01b0382166000908152600760205260409020548190611b5d9047612962565b1015611bab5760405162461bcd60e51b815260206004820152600760248201527f4554483a204946000000000000000000000000000000000000000000000000006044820152606401610492565b604051600090339083908381818185875af1925050503d8060008114611bed576040519150601f19603f3d011682016040523d82523d6000602084013e611bf2565b606091505b5050905080611c435760405162461bcd60e51b815260206004820152600760248201527f4554483a205345000000000000000000000000000000000000000000000000006044820152606401610492565b505050565b6040516370a0823160e01b81523060048201526000906001600160a01b038416906370a0823190602401602060405180830381865afa158015611c8f573d6000803e3d6000fd5b505050506040513d601f19601f82011682018060405250810190611cb39190613032565b6001600160a01b0384166000908152600760205260409020549091508290611cdb9083612962565b1015611d295760405162461bcd60e51b815260206004820152600960248201527f45524332303a20494600000000000000000000000000000000000000000000006044820152606401610492565b611c436001600160a01b03841633846120aa565b6001546040805163481c6a7560e01b815290516000926001600160a01b03169163481c6a759160048083019260209291908290030181865afa158015611d87573d6000803e3d6000fd5b505050506040513d601f19601f82011682018060405250810190611dab9190612975565b604051632edbe4ef60e21b81526001600160a01b0385811660048301529192509082169063bb6f93bc90602401602060405180830381865afa158015611df5573d6000803e3d6000fd5b505050506040513d601f19601f82011682018060405250810190611e199190612e05565b611e4a5760405162461bcd60e51b8152602060048201526002602482015261454960f01b6044820152606401610492565b8135611e7d5760405162461bcd60e51b8152602060048201526002602482015261292d60f11b6044820152606401610492565b611e8d604083016020840161304b565b6001600160a01b038416600090815260056020526040902060019081015463ffffffff9081169091018116911614611eec5760405162461bcd60e51b8152602060048201526002602482015261564560f01b6044820152606401610492565b6001600160a01b03831660009081526005602052604090208290611f108282613068565b505060015460408051635c60da1b60e01b815290516001600160a01b0390921691635c60da1b916004808201926020929091908290030181865afa158015611f5c573d6000803e3d6000fd5b505050506040513d601f19601f82011682018060405250810190611f809190612975565b6001600160a01b03167f14ebfe1d09c7ff607d095a4d8c41180cfc5ce6a29321b1b0b8ed086408acca4a8484604051611fba929190613097565b60405180910390a2505050565b6040516001600160a01b03808516602483015283166044820152606481018290526120479085906323b872dd60e01b906084015b60408051601f198184030181529190526020810180517bffffffffffffffffffffffffffffffffffffffffffffffffffffffff166001600160e01b0319909316929092179091526120da565b50505050565b6000805b835181101561209e5783818151811061206c5761206c612936565b60200260200101516001600160a01b0316836001600160a01b0316036120965760019150506120a4565b600101612051565b50600090505b92915050565b6040516001600160a01b038316602482015260448101829052611c4390849063a9059cbb60e01b90606401611ffb565b600061212f826040518060400160405280602081526020017f5361666545524332303a206c6f772d6c6576656c2063616c6c206661696c6564815250856001600160a01b03166121c29092919063ffffffff16565b90508051600014806121505750808060200190518101906121509190612e05565b611c435760405162461bcd60e51b815260206004820152602a60248201527f5361666545524332303a204552433230206f7065726174696f6e20646964206e60448201527f6f742073756363656564000000000000000000000000000000000000000000006064820152608401610492565b60606121d184846000856121d9565b949350505050565b6060824710156122515760405162461bcd60e51b815260206004820152602660248201527f416464726573733a20696e73756666696369656e742062616c616e636520666f60448201527f722063616c6c00000000000000000000000000000000000000000000000000006064820152608401610492565b600080866001600160a01b0316858760405161226d91906130f8565b60006040518083038185875af1925050503d80600081146122aa576040519150601f19603f3d011682016040523d82523d6000602084013e6122af565b606091505b50915091506122c0878383876122cb565b979650505050505050565b6060831561233a578251600003612333576001600160a01b0385163b6123335760405162461bcd60e51b815260206004820152601d60248201527f416464726573733a2063616c6c20746f206e6f6e2d636f6e74726163740000006044820152606401610492565b50816121d1565b6121d1838381511561234f5781518083602001fd5b8060405162461bcd60e51b81526004016104929190613114565b6001600160a01b03811681146103df57600080fd5b60008083601f84011261239057600080fd5b50813567ffffffffffffffff8111156123a857600080fd5b6020830191508360208285010111156123c057600080fd5b9250929050565b6000604082840312156123d957600080fd5b50919050565b60008083601f8401126123f157600080fd5b50813567ffffffffffffffff81111561240957600080fd5b6020830191508360208260051b85010111156123c057600080fd5b600080600080600080600080600060e08a8c03121561244257600080fd5b893561244d81612369565b985060208a013567ffffffffffffffff8082111561246a57600080fd5b6124768d838e0161237e565b909a50985088915061248b8d60408e016123c7565b975060808c01359150808211156124a157600080fd5b6124ad8d838e016123df565b909750955060a08c01359150808211156124c657600080fd5b506124d38c828d016123df565b90945092505060c08a01356124e781612369565b809150509295985092959850929598565b6000806000806040858703121561250e57600080fd5b843567ffffffffffffffff8082111561252657600080fd5b612532888389016123df565b9096509450602087013591508082111561254b57600080fd5b50612558878288016123df565b95989497509550505050565b6000608082840312156123d957600080fd5b600080600080600080600060a0888a03121561259157600080fd5b873561259c81612369565b9650602088013567ffffffffffffffff808211156125b957600080fd5b6125c58b838c0161237e565b909850965060408a0135955060608a01359150808211156125e557600080fd5b6125f18b838c01612564565b945060808a013591508082111561260757600080fd5b506126148a828b016123df565b989b979a50959850939692959293505050565b6000806040838503121561263a57600080fd5b823561264581612369565b946020939093013593505050565b60008060008060008060008060c0898b03121561266f57600080fd5b883561267a81612369565b9750602089013567ffffffffffffffff8082111561269757600080fd5b6126a38c838d0161237e565b90995097508791506126b88c60408d016123c7565b965060808b01359150808211156126ce57600080fd5b6126da8c838d016123df565b909650945060a08b01359150808211156126f357600080fd5b506127008b828c016123df565b999c989b5096995094979396929594505050565b60008060008060006080868803121561272c57600080fd5b853561273781612369565b9450602086013567ffffffffffffffff8082111561275457600080fd5b61276089838a0161237e565b909650945060408801359350606088013591508082111561278057600080fd5b5061278d88828901612564565b9150509295509295909350565b6000602082840312156127ac57600080fd5b81356127b781612369565b9392505050565b803561ffff811681146127d057600080fd5b919050565b600080600080608085870312156127eb57600080fd5b6127f4856127be565b935060208501359250604085013561280b81612369565b9396929550929360600135925050565b6020808252825182820181905260009190848201906040850190845b8181101561285c5783516001600160a01b031683529284019291840191600101612837565b50909695505050505050565b6000806000806000806060878903121561288157600080fd5b863567ffffffffffffffff8082111561289957600080fd5b6128a58a838b016123df565b909850965060208901359150808211156128be57600080fd5b6128ca8a838b016123df565b909650945060408901359150808211156128e357600080fd5b506128f089828a016123df565b979a9699509497509295939492505050565b60006020828403121561291457600080fd5b5035919050565b60006020828403121561292d57600080fd5b6127b7826127be565b634e487b7160e01b600052603260045260246000fd5b634e487b7160e01b600052601160045260246000fd5b818103818111156120a4576120a461294c565b60006020828403121561298757600080fd5b81516127b781612369565b634e487b7160e01b600052604160045260246000fd5b6040516060810167ffffffffffffffff811182821017156129cb576129cb612992565b60405290565b604051610100810167ffffffffffffffff811182821017156129cb576129cb612992565b604051601f8201601f1916810167ffffffffffffffff81118282101715612a1e57612a1e612992565b604052919050565b63ffffffff811681146103df57600080fd5b80516127d081612a26565b80517bffffffffffffffffffffffffffffffffffffffffffffffffffffffff811681146127d057600080fd5b600067ffffffffffffffff821115612a8957612a89612992565b5060051b60200190565b600082601f830112612aa457600080fd5b81516020612ab9612ab483612a6f565b6129f5565b82815260059290921b84018101918181019086841115612ad857600080fd5b8286015b84811015612afc578051612aef81612369565b8352918301918301612adc565b509695505050505050565b805167ffffffffffffffff811681146127d057600080fd5b600082601f830112612b3057600080fd5b81516020612b40612ab483612a6f565b82815260609283028501820192828201919087851115612b5f57600080fd5b8387015b85811015612bbf5781818a031215612b7b5760008081fd5b612b836129a8565b815160ff81168114612b955760008081fd5b81528186015186820152604080830151612bae81612369565b908201528452928401928101612b63565b5090979650505050505050565b600060208284031215612bde57600080fd5b815167ffffffffffffffff80821115612bf657600080fd5b908301906101008286031215612c0b57600080fd5b612c136129d1565b612c1c83612a38565b8152612c2a60208401612a43565b6020820152604083015182811115612c4157600080fd5b612c4d87828601612a93565b604083015250612c5f60608401612b07565b6060820152612c7060808401612b07565b6080820152612c8160a08401612b07565b60a0820152612c9260c08401612b07565b60c082015260e083015182811115612ca957600080fd5b612cb587828601612b1f565b60e08301525095945050505050565b600060018201612cd657612cd661294c565b5060010190565b81835260007f07ffffffffffffffffffffffffffffffffffffffffffffffffffffffffffffff831115612d0f57600080fd5b8260051b80836020870137939093016020019392505050565b6020815260008235601e19843603018112612d4257600080fd5b830160208101903567ffffffffffffffff811115612d5f57600080fd5b8060051b3603821315612d7157600080fd5b60806020850152612d8660a085018284612cdd565b9150506020840135612d9781612369565b6001600160a01b03811660408501525060408401356060840152606084013560808401528091505092915050565b606081528360608201528385608083013760006080858301015260006080601f19601f870116830101905083602083015282604083015295945050505050565b600060208284031215612e1757600080fd5b815180151581146127b757600080fd5b6000808335601e19843603018112612e3e57600080fd5b83018035915067ffffffffffffffff821115612e5957600080fd5b6020019150600581901b36038213156123c057600080fd5b6020815260006121d1602083018486612cdd565b808201808211156120a4576120a461294c565b6020808252825482820181905260008481528281209092916040850190845b8181101561285c5783546001600160a01b031683526001938401939285019201612eb7565b60008160005b84811015612f13578135612ef581612369565b6001600160a01b031686526020958601959190910190600101612ee2565b5093949350505050565b6000612f34612f2d83898b612edc565b8688612edc565b8460005b85811015612f625761ffff612f4c836127be565b1683526020928301929190910190600101612f38565b50909998505050505050505050565b8183526000602080850194508260005b85811015612faf578135612f9481612369565b6001600160a01b031687529582019590820190600101612f81565b509495945050505050565b87815260006020608081840152612fd560808401898b612f71565b8381036040850152612fe881888a612f71565b8481036060860152858152869150820160005b868110156130225761ffff61300f846127be565b1682529183019190830190600101612ffb565b509b9a5050505050505050505050565b60006020828403121561304457600080fd5b5051919050565b60006020828403121561305d57600080fd5b81356127b781612a26565b8135815560018101602083013561307e81612a26565b815463ffffffff191663ffffffff919091161790555050565b60006060820190506001600160a01b03841682528235602083015260208301356130c081612a26565b63ffffffff81166040840152509392505050565b60005b838110156130ef5781810151838201526020016130d7565b50506000910152565b6000825161310a8184602087016130d4565b9190910192915050565b60208152600082518060208401526131338160408501602087016130d4565b601f01601f1916919091016040019291505056fea164736f6c6343000811000a",
  "linkReferences": {},
  "deployedLinkReferences": {}
}