{
  "_format": "hh-sol-artifact-1",
  "contractName": "ORManager",
  "sourceName": "contracts/ORManager.sol",
  "abi": [
    {
      "inputs": [
        {
          "internalType": "address",
          "name": "owner_",
          "type": "address"
        }
      ],
      "stateMutability": "nonpayable",
      "type": "constructor"
    },
    {
      "anonymous": false,
      "inputs": [
        {
          "indexed": true,
          "internalType": "uint32",
          "name": "id",
          "type": "uint32"
        },
        {
          "components": [
            {
              "internalType": "uint32",
              "name": "id",
              "type": "uint32"
            },
            {
              "internalType": "uint224",
              "name": "batchLimit",
              "type": "uint224"
            },
            {
              "internalType": "address[]",
              "name": "spvs",
              "type": "address[]"
            },
            {
              "internalType": "uint64",
              "name": "minVerifyChallengeSourceTxSecond",
              "type": "uint64"
            },
            {
              "internalType": "uint64",
              "name": "maxVerifyChallengeSourceTxSecond",
              "type": "uint64"
            },
            {
              "internalType": "uint64",
              "name": "minVerifyChallengeDestTxSecond",
              "type": "uint64"
            },
            {
              "internalType": "uint64",
              "name": "maxVerifyChallengeDestTxSecond",
              "type": "uint64"
            },
            {
              "components": [
                {
                  "internalType": "uint8",
                  "name": "decimals",
                  "type": "uint8"
                },
                {
                  "internalType": "uint256",
                  "name": "token",
                  "type": "uint256"
                },
                {
                  "internalType": "address",
                  "name": "mainnetToken",
                  "type": "address"
                }
              ],
              "internalType": "struct BridgeLib.TokenInfo[]",
              "name": "tokens",
              "type": "tuple[]"
            }
          ],
          "indexed": false,
          "internalType": "struct BridgeLib.ChainInfo",
          "name": "chainInfo",
          "type": "tuple"
        }
      ],
      "name": "ChainInfoUpdated",
      "type": "event"
    },
    {
      "anonymous": false,
      "inputs": [
        {
          "indexed": false,
          "internalType": "uint64",
          "name": "challengeUserRatio",
          "type": "uint64"
        }
      ],
      "name": "ChallengeUserRatioUpdated",
      "type": "event"
    },
    {
      "anonymous": false,
      "inputs": [
        {
          "indexed": false,
          "internalType": "address[]",
          "name": "ebcs",
          "type": "address[]"
        },
        {
          "indexed": false,
          "internalType": "bool[]",
          "name": "statuses",
          "type": "bool[]"
        }
      ],
      "name": "EbcsUpdated",
      "type": "event"
    },
    {
      "anonymous": false,
      "inputs": [
        {
          "indexed": false,
          "internalType": "uint64",
          "name": "feeChallengeSecond",
          "type": "uint64"
        }
      ],
      "name": "FeeChallengeSecondUpdated",
      "type": "event"
    },
    {
      "anonymous": false,
      "inputs": [
        {
          "indexed": false,
          "internalType": "uint64",
          "name": "feeTakeOnChallengeSecond",
          "type": "uint64"
        }
      ],
      "name": "FeeTakeOnChallengeSecondUpdated",
      "type": "event"
    },
    {
      "anonymous": false,
      "inputs": [
        {
          "indexed": false,
          "internalType": "uint64",
          "name": "maxMDCLimit",
          "type": "uint64"
        }
      ],
      "name": "MaxMDCLimitUpdated",
      "type": "event"
    },
    {
      "anonymous": false,
      "inputs": [
        {
          "indexed": false,
          "internalType": "uint64",
          "name": "minChallengeRatio",
          "type": "uint64"
        }
      ],
      "name": "MinChallengeRatioUpdated",
      "type": "event"
    },
    {
      "anonymous": false,
      "inputs": [
        {
          "indexed": true,
          "internalType": "address",
          "name": "previousOwner",
          "type": "address"
        },
        {
          "indexed": true,
          "internalType": "address",
          "name": "newOwner",
          "type": "address"
        }
      ],
      "name": "OwnershipTransferred",
      "type": "event"
    },
    {
      "anonymous": false,
      "inputs": [
        {
          "indexed": false,
          "internalType": "uint64",
          "name": "protocolFee",
          "type": "uint64"
        }
      ],
      "name": "ProtocolFeeUpdated",
      "type": "event"
    },
    {
      "anonymous": false,
      "inputs": [
        {
          "indexed": false,
          "internalType": "address",
          "name": "submitter",
          "type": "address"
        }
      ],
      "name": "SubmitterFeeUpdated",
      "type": "event"
    },
    {
      "inputs": [],
      "name": "challengeUserRatio",
      "outputs": [
        {
          "internalType": "uint64",
          "name": "",
          "type": "uint64"
        }
      ],
      "stateMutability": "view",
      "type": "function"
    },
    {
      "inputs": [
        {
          "internalType": "address",
          "name": "ebc",
          "type": "address"
        }
      ],
      "name": "ebcIncludes",
      "outputs": [
        {
          "internalType": "bool",
          "name": "",
          "type": "bool"
        }
      ],
      "stateMutability": "view",
      "type": "function"
    },
    {
      "inputs": [],
      "name": "feeChallengeSecond",
      "outputs": [
        {
          "internalType": "uint64",
          "name": "",
          "type": "uint64"
        }
      ],
      "stateMutability": "view",
      "type": "function"
    },
    {
      "inputs": [],
      "name": "feeTakeOnChallengeSecond",
      "outputs": [
        {
          "internalType": "uint64",
          "name": "",
          "type": "uint64"
        }
      ],
      "stateMutability": "view",
      "type": "function"
    },
    {
      "inputs": [
        {
          "internalType": "uint32",
          "name": "id",
          "type": "uint32"
        }
      ],
      "name": "getChainInfo",
      "outputs": [
        {
          "components": [
            {
              "internalType": "uint32",
              "name": "id",
              "type": "uint32"
            },
            {
              "internalType": "uint224",
              "name": "batchLimit",
              "type": "uint224"
            },
            {
              "internalType": "address[]",
              "name": "spvs",
              "type": "address[]"
            },
            {
              "internalType": "uint64",
              "name": "minVerifyChallengeSourceTxSecond",
              "type": "uint64"
            },
            {
              "internalType": "uint64",
              "name": "maxVerifyChallengeSourceTxSecond",
              "type": "uint64"
            },
            {
              "internalType": "uint64",
              "name": "minVerifyChallengeDestTxSecond",
              "type": "uint64"
            },
            {
              "internalType": "uint64",
              "name": "maxVerifyChallengeDestTxSecond",
              "type": "uint64"
            },
            {
              "components": [
                {
                  "internalType": "uint8",
                  "name": "decimals",
                  "type": "uint8"
                },
                {
                  "internalType": "uint256",
                  "name": "token",
                  "type": "uint256"
                },
                {
                  "internalType": "address",
                  "name": "mainnetToken",
                  "type": "address"
                }
              ],
              "internalType": "struct BridgeLib.TokenInfo[]",
              "name": "tokens",
              "type": "tuple[]"
            }
          ],
          "internalType": "struct BridgeLib.ChainInfo",
          "name": "",
          "type": "tuple"
        }
      ],
      "stateMutability": "view",
      "type": "function"
    },
    {
      "inputs": [],
      "name": "maxMDCLimit",
      "outputs": [
        {
          "internalType": "uint64",
          "name": "",
          "type": "uint64"
        }
      ],
      "stateMutability": "view",
      "type": "function"
    },
    {
      "inputs": [],
      "name": "minChallengeRatio",
      "outputs": [
        {
          "internalType": "uint64",
          "name": "",
          "type": "uint64"
        }
      ],
      "stateMutability": "view",
      "type": "function"
    },
    {
      "inputs": [],
      "name": "owner",
      "outputs": [
        {
          "internalType": "address",
          "name": "",
          "type": "address"
        }
      ],
      "stateMutability": "view",
      "type": "function"
    },
    {
      "inputs": [],
      "name": "protocolFee",
      "outputs": [
        {
          "internalType": "uint64",
          "name": "",
          "type": "uint64"
        }
      ],
      "stateMutability": "view",
      "type": "function"
    },
    {
      "inputs": [
        {
          "components": [
            {
              "internalType": "uint32",
              "name": "id",
              "type": "uint32"
            },
            {
              "internalType": "uint224",
              "name": "batchLimit",
              "type": "uint224"
            },
            {
              "internalType": "address[]",
              "name": "spvs",
              "type": "address[]"
            },
            {
              "internalType": "uint64",
              "name": "minVerifyChallengeSourceTxSecond",
              "type": "uint64"
            },
            {
              "internalType": "uint64",
              "name": "maxVerifyChallengeSourceTxSecond",
              "type": "uint64"
            },
            {
              "internalType": "uint64",
              "name": "minVerifyChallengeDestTxSecond",
              "type": "uint64"
            },
            {
              "internalType": "uint64",
              "name": "maxVerifyChallengeDestTxSecond",
              "type": "uint64"
            },
            {
              "components": [
                {
                  "internalType": "uint8",
                  "name": "decimals",
                  "type": "uint8"
                },
                {
                  "internalType": "uint256",
                  "name": "token",
                  "type": "uint256"
                },
                {
                  "internalType": "address",
                  "name": "mainnetToken",
                  "type": "address"
                }
              ],
              "internalType": "struct BridgeLib.TokenInfo[]",
              "name": "tokens",
              "type": "tuple[]"
            }
          ],
          "internalType": "struct BridgeLib.ChainInfo[]",
          "name": "chains_",
          "type": "tuple[]"
        }
      ],
      "name": "registerChains",
      "outputs": [],
      "stateMutability": "nonpayable",
      "type": "function"
    },
    {
      "inputs": [],
      "name": "renounceOwnership",
      "outputs": [],
      "stateMutability": "nonpayable",
      "type": "function"
    },
    {
      "inputs": [],
      "name": "submitter",
      "outputs": [
        {
          "internalType": "address",
          "name": "",
          "type": "address"
        }
      ],
      "stateMutability": "view",
      "type": "function"
    },
    {
      "inputs": [
        {
          "internalType": "address",
          "name": "newOwner",
          "type": "address"
        }
      ],
      "name": "transferOwnership",
      "outputs": [],
      "stateMutability": "nonpayable",
      "type": "function"
    },
    {
      "inputs": [
        {
          "internalType": "uint32",
          "name": "id",
          "type": "uint32"
        },
        {
          "internalType": "address[]",
          "name": "spvs",
          "type": "address[]"
        },
        {
          "internalType": "uint256[]",
          "name": "indexs",
          "type": "uint256[]"
        }
      ],
      "name": "updateChainSpvs",
      "outputs": [],
      "stateMutability": "nonpayable",
      "type": "function"
    },
    {
      "inputs": [
        {
          "internalType": "uint32",
          "name": "id",
          "type": "uint32"
        },
        {
          "components": [
            {
              "internalType": "uint8",
              "name": "decimals",
              "type": "uint8"
            },
            {
              "internalType": "uint256",
              "name": "token",
              "type": "uint256"
            },
            {
              "internalType": "address",
              "name": "mainnetToken",
              "type": "address"
            }
          ],
          "internalType": "struct BridgeLib.TokenInfo[]",
          "name": "tokens",
          "type": "tuple[]"
        },
        {
          "internalType": "uint256[]",
          "name": "indexs",
          "type": "uint256[]"
        }
      ],
      "name": "updateChainTokens",
      "outputs": [],
      "stateMutability": "nonpayable",
      "type": "function"
    },
    {
      "inputs": [
        {
          "internalType": "uint64",
          "name": "challengeUserRatio_",
          "type": "uint64"
        }
      ],
      "name": "updateChallengeUserRatio",
      "outputs": [],
      "stateMutability": "nonpayable",
      "type": "function"
    },
    {
      "inputs": [
        {
          "internalType": "address[]",
          "name": "ebcs_",
          "type": "address[]"
        },
        {
          "internalType": "bool[]",
          "name": "statuses",
          "type": "bool[]"
        }
      ],
      "name": "updateEbcs",
      "outputs": [],
      "stateMutability": "nonpayable",
      "type": "function"
    },
    {
      "inputs": [
        {
          "internalType": "uint64",
          "name": "feeChallengeSecond_",
          "type": "uint64"
        }
      ],
      "name": "updateFeeChallengeSecond",
      "outputs": [],
      "stateMutability": "nonpayable",
      "type": "function"
    },
    {
      "inputs": [
        {
          "internalType": "uint64",
          "name": "feeTakeOnChallengeSecond_",
          "type": "uint64"
        }
      ],
      "name": "updateFeeTakeOnChallengeSecond",
      "outputs": [],
      "stateMutability": "nonpayable",
      "type": "function"
    },
    {
      "inputs": [
        {
          "internalType": "uint64",
          "name": "maxMDCLimit_",
          "type": "uint64"
        }
      ],
      "name": "updateMaxMDCLimit",
      "outputs": [],
      "stateMutability": "nonpayable",
      "type": "function"
    },
    {
      "inputs": [
        {
          "internalType": "uint64",
          "name": "minChallengeRatio_",
          "type": "uint64"
        }
      ],
      "name": "updateMinChallengeRatio",
      "outputs": [],
      "stateMutability": "nonpayable",
      "type": "function"
    },
    {
      "inputs": [
        {
          "internalType": "uint64",
          "name": "protocolFee_",
          "type": "uint64"
        }
      ],
      "name": "updateProtocolFee",
      "outputs": [],
      "stateMutability": "nonpayable",
      "type": "function"
    },
    {
      "inputs": [
        {
          "internalType": "address",
          "name": "submitter_",
          "type": "address"
        }
      ],
      "name": "updateSubmitter",
      "outputs": [],
      "stateMutability": "nonpayable",
      "type": "function"
    }
  ],
  "bytecode": "0x6080604052600480546001600160401b031990811660c817909155600580549091166001600160401b031790553480156200003957600080fd5b5060405162001c1638038062001c168339810160408190526200005c91620000c9565b620000673362000079565b620000728162000079565b50620000fb565b600080546001600160a01b038381166001600160a01b0319831681178455604051919092169283917f8be0079c531659141344cd1fd0a4f28419497f9722a3daafe3b4186f6b6457e09190a35050565b600060208284031215620000dc57600080fd5b81516001600160a01b0381168114620000f457600080fd5b9392505050565b611b0b806200010b6000396000f3fe608060405234801561001057600080fd5b506004361061018d5760003560e01c8063754216d9116100e3578063b0e21e8a1161008c578063ca21ece011610066578063ca21ece01461037b578063eef0d6441461038e578063f2fde38b146103a157600080fd5b8063b0e21e8a1461030d578063bb6f93bc14610326578063c7ce55be1461036257600080fd5b80638dc45d9a116100bd5780638dc45d9a146102d6578063a22b4015146102e7578063a2d6963f146102fa57600080fd5b8063754216d9146102785780638a2264ca146102985780638da5cb5b146102b157600080fd5b80634202c45c116101455780635054601b1161011f5780635054601b1461024a5780635b7d991c1461025d578063715018a61461027057600080fd5b80634202c45c1461021157806345dd5d211461022457806347094e2e1461023757600080fd5b806330dbb6a11161017657806330dbb6a1146101d357806335994316146101ec5780633a010103146101fe57600080fd5b80632e5b8f15146101925780632f75daca146101a7575b600080fd5b6101a56101a0366004610e8b565b6103b4565b005b60045467ffffffffffffffff165b60405167ffffffffffffffff90911681526020015b60405180910390f35b600454600160c01b900467ffffffffffffffff166101b5565b60055467ffffffffffffffff166101b5565b6101a561020c366004610f0d565b610411565b6101a561021f366004610f90565b610597565b6101a561023236600461104c565b61069a565b6101a561024536600461104c565b61070d565b6101a561025836600461104c565b610788565b6101a561026b36600461104c565b6107e0565b6101a561084c565b61028b610286366004611069565b610860565b6040516101ca919061111c565b600454600160801b900467ffffffffffffffff166101b5565b6000546001600160a01b03165b6040516001600160a01b0390911681526020016101ca565b6003546001600160a01b03166102be565b6101a56102f536600461104c565b610a0d565b6101a561030836600461104c565b610a65565b600354600160a01b900467ffffffffffffffff166101b5565b610352610334366004610e8b565b6001600160a01b031660009081526002602052604090205460ff1690565b60405190151581526020016101ca565b600454600160401b900467ffffffffffffffff166101b5565b6101a56103893660046111ea565b610acc565b6101a561039c366004611256565b610c08565b6101a56103af366004610e8b565b610d37565b6103bc610dcc565b600380546001600160a01b0319166001600160a01b0383169081179091556040519081527f698ad3d24dcd7b442a73a8037fbf8b47e23d90035fa70c7170081fe59682b0f0906020015b60405180910390a150565b610419610dcc565b60005b8381101561054357818110156104c85784848281811061043e5761043e611298565b90506020020160208101906104539190610e8b565b63ffffffff871660009081526001602081905260409091200184848481811061047e5761047e611298565b905060200201358154811061049557610495611298565b9060005260206000200160006101000a8154816001600160a01b0302191690836001600160a01b0316021790555061053b565b63ffffffff86166000908152600160208190526040909120018585838181106104f3576104f3611298565b90506020020160208101906105089190610e8b565b81546001810183556000928352602090922090910180546001600160a01b0319166001600160a01b039092169190911790555b60010161041c565b5063ffffffff85166000818152600160205260409081902090517f52050ab417b132ac0e26527833519fafe9aa7df562fba50313c72e4b05a4dfa39161058891611343565b60405180910390a25050505050565b61059f610dcc565b60005b838110156105435781811015610637578484828181106105c4576105c4611298565b905060600201600160008863ffffffff1663ffffffff1681526020019081526020016000206003018484848181106105fe576105fe611298565b905060200201358154811061061557610615611298565b9060005260206000209060030201818161062f919061140f565b905050610692565b63ffffffff8616600090815260016020526040902060030185858381811061066157610661611298565b83546001810185556000948552602090942060609091029290920192600302909101905061068f828261140f565b50505b6001016105a2565b6106a2610dcc565b6004805477ffffffffffffffffffffffffffffffffffffffffffffffff16600160c01b67ffffffffffffffff8481168202929092179283905560405192041681527f5318429f7521e3adaf81233b2a24c499276d323fad6e90be1c3f80fbf900342090602001610406565b610715610dcc565b600380547fffffffff0000000000000000ffffffffffffffffffffffffffffffffffffffff16600160a01b67ffffffffffffffff8481168202929092179283905560405192041681527f1ce29a697a4765bd17d91df93ba75b250b629ecf030553ff1f6ab59f15ae6c7b90602001610406565b610790610dcc565b6004805467ffffffffffffffff191667ffffffffffffffff83169081179091556040519081527f68280efac1b91f595dbe7ce755358bdd797d8132c3d8bf636af8204c3d4bfe6890602001610406565b6107e8610dcc565b600480546fffffffffffffffff00000000000000001916600160401b67ffffffffffffffff8481168202929092179283905560405192041681527f2c4d36309aca612bb3ab99bc5f3fc2337f23ab6be9f1861b65d75efd9a1fc23090602001610406565b610854610dcc565b61085e6000610e26565b565b604080516101008101825260008082526020820181905260609282018390528282018190526080820181905260a0820181905260c082015260e081019190915263ffffffff828116600090815260016020818152604092839020835161010081018552815495861681526401000000009095046001600160e01b0316858301529182018054845181840281018401865281815293948601939283018282801561093257602002820191906000526020600020905b81546001600160a01b03168152600190910190602001808311610914575b5050509183525050600282015467ffffffffffffffff808216602080850191909152600160401b83048216604080860191909152600160801b840483166060860152600160c01b909304909116608084015260038401805483518184028101840190945280845260a090940193909160009084015b828210156109ff5760008481526020908190206040805160608101825260038602909201805460ff168352600180820154848601526002909101546001600160a01b03169183019190915290835290920191016109a7565b505050915250909392505050565b610a15610dcc565b6005805467ffffffffffffffff191667ffffffffffffffff83169081179091556040519081527f131f289a370d17d3a705703b33226e15c9a8fd1b1874ac3ab3888ecda5d2c3c290602001610406565b610a6d610dcc565b6004805467ffffffffffffffff60801b1916600160801b67ffffffffffffffff8481168202929092179283905560405192041681527fe539efd6d957297c3253d8c9fd4d94857731d81102825a93e878f44938d8f29890602001610406565b610ad4610dcc565b60005b83811015610bc45781811015610b6657828282818110610af957610af9611298565b9050602002016020810190610b0e9190611473565b60026000878785818110610b2457610b24611298565b9050602002016020810190610b399190610e8b565b6001600160a01b031681526020810191909152604001600020805460ff1916911515919091179055610bbc565b600160026000878785818110610b7e57610b7e611298565b9050602002016020810190610b939190610e8b565b6001600160a01b031681526020810191909152604001600020805460ff19169115159190911790555b600101610ad7565b507fcbff3ca58b9beaa25c60a25b8918d5f5843eb71b89a913668181999e2e945ae984848484604051610bfa94939291906114cc565b60405180910390a150505050565b610c10610dcc565b60005b81811015610d3257828282818110610c2d57610c2d611298565b9050602002810190610c3f9190611528565b60016000858585818110610c5557610c55611298565b9050602002810190610c679190611528565b610c75906020810190611069565b63ffffffff1681526020810191909152604001600020610c958282611774565b905050828282818110610caa57610caa611298565b9050602002810190610cbc9190611528565b610cca906020810190611069565b63ffffffff167f52050ab417b132ac0e26527833519fafe9aa7df562fba50313c72e4b05a4dfa3848484818110610d0357610d03611298565b9050602002810190610d159190611528565b604051610d2291906119f5565b60405180910390a2600101610c13565b505050565b610d3f610dcc565b6001600160a01b038116610dc05760405162461bcd60e51b815260206004820152602660248201527f4f776e61626c653a206e6577206f776e657220697320746865207a65726f206160448201527f646472657373000000000000000000000000000000000000000000000000000060648201526084015b60405180910390fd5b610dc981610e26565b50565b6000546001600160a01b0316331461085e5760405162461bcd60e51b815260206004820181905260248201527f4f776e61626c653a2063616c6c6572206973206e6f7420746865206f776e65726044820152606401610db7565b600080546001600160a01b038381166001600160a01b0319831681178455604051919092169283917f8be0079c531659141344cd1fd0a4f28419497f9722a3daafe3b4186f6b6457e09190a35050565b6001600160a01b0381168114610dc957600080fd5b600060208284031215610e9d57600080fd5b8135610ea881610e76565b9392505050565b63ffffffff81168114610dc957600080fd5b60008083601f840112610ed357600080fd5b50813567ffffffffffffffff811115610eeb57600080fd5b6020830191508360208260051b8501011115610f0657600080fd5b9250929050565b600080600080600060608688031215610f2557600080fd5b8535610f3081610eaf565b9450602086013567ffffffffffffffff80821115610f4d57600080fd5b610f5989838a01610ec1565b90965094506040880135915080821115610f7257600080fd5b50610f7f88828901610ec1565b969995985093965092949392505050565b600080600080600060608688031215610fa857600080fd5b8535610fb381610eaf565b9450602086013567ffffffffffffffff80821115610fd057600080fd5b818801915088601f830112610fe457600080fd5b813581811115610ff357600080fd5b89602060608302850101111561100857600080fd5b602083019650809550506040880135915080821115610f7257600080fd5b67ffffffffffffffff81168114610dc957600080fd5b803561104781611026565b919050565b60006020828403121561105e57600080fd5b8135610ea881611026565b60006020828403121561107b57600080fd5b8135610ea881610eaf565b600081518084526020808501945080840160005b838110156110bf5781516001600160a01b03168752958201959082019060010161109a565b509495945050505050565b600081518084526020808501945080840160005b838110156110bf578151805160ff16885283810151848901526040908101516001600160a01b031690880152606090960195908201906001016110de565b6020815263ffffffff82511660208201526000602083015161114960408401826001600160e01b03169052565b506040830151610100806060850152611166610120850183611086565b91506060850151611183608086018267ffffffffffffffff169052565b50608085015167ffffffffffffffff811660a08601525060a085015167ffffffffffffffff811660c08601525060c085015167ffffffffffffffff811660e08601525060e0850151848303601f1901828601526111e083826110ca565b9695505050505050565b6000806000806040858703121561120057600080fd5b843567ffffffffffffffff8082111561121857600080fd5b61122488838901610ec1565b9096509450602087013591508082111561123d57600080fd5b5061124a87828801610ec1565b95989497509550505050565b6000806020838503121561126957600080fd5b823567ffffffffffffffff81111561128057600080fd5b61128c85828601610ec1565b90969095509350505050565b634e487b7160e01b600052603260045260246000fd5b6000815480845260208085019450836000528060002060005b838110156110bf5781546001600160a01b0316875295820195600191820191016112c7565b6000815480845260208085019450836000528060002060005b838110156110bf57815460ff1687526001808301548489015260028301546001600160a01b0316604089015260609097019660039092019101611305565b60208152600082546113636020840163ffffffff831663ffffffff169052565b60201c6040830152610100606083018190526113866101208401600186016112ae565b600285015467ffffffffffffffff8082166080870152604082901c811660a08701526113c360c08701828460801c1667ffffffffffffffff169052565b5060c01c60e0850152601f1984820301828501526113e481600387016112ec565b95945050505050565b60ff81168114610dc957600080fd5b6000813561140981610e76565b92915050565b813561141a816113ed565b60ff811660ff19835416178255506020820135600182015560028101604083013561144481610e76565b6001600160a01b0381166001600160a01b031983541617825550505050565b8035801515811461104757600080fd5b60006020828403121561148557600080fd5b610ea882611463565b8183526000602080850194508260005b858110156110bf5781356114b181610e76565b6001600160a01b03168752958201959082019060010161149e565b6040815260006114e060408301868861148e565b8281036020848101919091528482528591810160005b8681101561151b5761150784611463565b1515825292820192908201906001016114f6565b5098975050505050505050565b6000823560fe1983360301811261153e57600080fd5b9190910192915050565b6001600160e01b0381168114610dc957600080fd5b6000808335601e1984360301811261157457600080fd5b83018035915067ffffffffffffffff82111561158f57600080fd5b6020019150600581901b3603821315610f0657600080fd5b634e487b7160e01b600052604160045260246000fd5b6003808202908104821461104757634e487b7160e01b600052601160045260246000fd5b67ffffffffffffffff8311156115f9576115f96115a7565b600160401b83111561160d5761160d6115a7565b805483825580841015611644576000828152602081208581019083015b808210156116405782825560018201915061162a565b5050505b5060008181526020812083915b8581101561167557611662836113fc565b8282015560209290920191600101611651565b505050505050565b6000813561140981611026565b6000808335601e198436030181126116a157600080fd5b83018035915067ffffffffffffffff8211156116bc57600080fd5b6020019150606081023603821315610f0657600080fd5b600160401b8311156116e7576116e76115a7565b80548382558084101561173f576116fd816115bd565b611706856115bd565b6000848152602081209283019291909101905b8282101561173b57808255806001830155806002830155600382019150611719565b5050505b5060008181526020812083915b858110156116755761175e838361140f565b606092909201916003919091019060010161174c565b813561177f81610eaf565b63ffffffff8116905063ffffffff19818184541617835560208401356117a481611548565b60201b161781556117b8604083018361155d565b6117c68183600186016115e1565b5050600281016117fa6117db6060850161167d565b825467ffffffffffffffff191667ffffffffffffffff91909116178255565b61183b6118096080850161167d565b82546fffffffffffffffff0000000000000000191660409190911b6fffffffffffffffff000000000000000016178255565b61187f61184a60a0850161167d565b825467ffffffffffffffff60801b191660809190911b77ffffffffffffffff0000000000000000000000000000000016178255565b6118d761188e60c0850161167d565b825477ffffffffffffffffffffffffffffffffffffffffffffffff1660c09190911b7fffffffffffffffff00000000000000000000000000000000000000000000000016178255565b506118e560e083018361168a565b6118f38183600386016116d3565b50505050565b803561104781611548565b6000808335601e1984360301811261191b57600080fd5b830160208101925035905067ffffffffffffffff81111561193b57600080fd5b8060051b3603821315610f0657600080fd5b6000808335601e1984360301811261196457600080fd5b830160208101925035905067ffffffffffffffff81111561198457600080fd5b606081023603821315610f0657600080fd5b8183526000602080850194508260005b858110156110bf5781356119b9816113ed565b60ff16875281830135838801526040808301356119d581610e76565b6001600160a01b03169088015260609687019691909101906001016119a6565b6020815260008235611a0681610eaf565b63ffffffff8116602084015250611a1f602084016118f9565b6001600160e01b038116604084015250611a3c6040840184611904565b610100806060860152611a546101208601838561148e565b9250611a626060870161103c565b67ffffffffffffffff811660808701529150611a806080870161103c565b67ffffffffffffffff811660a08701529150611a9e60a0870161103c565b67ffffffffffffffff811660c08701529150611abc60c0870161103c565b67ffffffffffffffff811660e08701529150611adb60e087018761194d565b868503601f1901838801529250611af3848483611996565b97965050505050505056fea164736f6c6343000811000a",
  "linkReferences": {},
  "deployedLinkReferences": {}
}