{
  "_format": "hh-sol-artifact-1",
  "contractName": "ORManager",
  "sourceName": "contracts/ORManager.sol",
  "abi": [
    {
      "inputs": [
        {
          "internalType": "address",
          "name": "owner_",
          "type": "address"
        }
      ],
      "stateMutability": "nonpayable",
      "type": "constructor"
    },
    {
      "anonymous": false,
      "inputs": [
        {
          "indexed": true,
          "internalType": "uint64",
          "name": "id",
          "type": "uint64"
        },
        {
          "components": [
            {
              "internalType": "uint64",
              "name": "id",
              "type": "uint64"
            },
            {
              "internalType": "uint192",
              "name": "batchLimit",
              "type": "uint192"
            },
            {
              "internalType": "uint64",
              "name": "minVerifyChallengeSourceTxSecond",
              "type": "uint64"
            },
            {
              "internalType": "uint64",
              "name": "maxVerifyChallengeSourceTxSecond",
              "type": "uint64"
            },
            {
              "internalType": "uint64",
              "name": "minVerifyChallengeDestTxSecond",
              "type": "uint64"
            },
            {
              "internalType": "uint64",
              "name": "maxVerifyChallengeDestTxSecond",
              "type": "uint64"
            },
            {
              "internalType": "address[]",
              "name": "spvs",
              "type": "address[]"
            }
          ],
          "indexed": false,
          "internalType": "struct BridgeLib.ChainInfo",
          "name": "chainInfo",
          "type": "tuple"
        }
      ],
      "name": "ChainInfoUpdated",
      "type": "event"
    },
    {
      "anonymous": false,
      "inputs": [
        {
          "indexed": true,
          "internalType": "uint64",
          "name": "id",
          "type": "uint64"
        },
        {
          "components": [
            {
              "internalType": "uint256",
              "name": "token",
              "type": "uint256"
            },
            {
              "internalType": "address",
              "name": "mainnetToken",
              "type": "address"
            },
            {
              "internalType": "uint8",
              "name": "decimals",
              "type": "uint8"
            }
          ],
          "indexed": false,
          "internalType": "struct BridgeLib.TokenInfo",
          "name": "tokenInfo",
          "type": "tuple"
        }
      ],
      "name": "ChainTokenUpdated",
      "type": "event"
    },
    {
      "anonymous": false,
      "inputs": [
        {
          "indexed": false,
          "internalType": "uint64",
          "name": "challengeUserRatio",
          "type": "uint64"
        }
      ],
      "name": "ChallengeUserRatioUpdated",
      "type": "event"
    },
    {
      "anonymous": false,
      "inputs": [
        {
          "indexed": false,
          "internalType": "address[]",
          "name": "ebcs",
          "type": "address[]"
        },
        {
          "indexed": false,
          "internalType": "bool[]",
          "name": "statuses",
          "type": "bool[]"
        }
      ],
      "name": "EbcsUpdated",
      "type": "event"
    },
    {
      "anonymous": false,
      "inputs": [
        {
          "indexed": false,
          "internalType": "uint64[]",
          "name": "chainIds",
          "type": "uint64[]"
        },
        {
          "indexed": false,
          "internalType": "uint256[]",
          "name": "extraTransferContracts",
          "type": "uint256[]"
        }
      ],
      "name": "ExtraTransferContractsUpdated",
      "type": "event"
    },
    {
      "anonymous": false,
      "inputs": [
        {
          "indexed": false,
          "internalType": "uint64",
          "name": "feeChallengeSecond",
          "type": "uint64"
        }
      ],
      "name": "FeeChallengeSecondUpdated",
      "type": "event"
    },
    {
      "anonymous": false,
      "inputs": [
        {
          "indexed": false,
          "internalType": "uint64",
          "name": "feeTakeOnChallengeSecond",
          "type": "uint64"
        }
      ],
      "name": "FeeTakeOnChallengeSecondUpdated",
      "type": "event"
    },
    {
      "anonymous": false,
      "inputs": [
        {
          "indexed": false,
          "internalType": "uint64",
          "name": "maxMDCLimit",
          "type": "uint64"
        }
      ],
      "name": "MaxMDCLimitUpdated",
      "type": "event"
    },
    {
      "anonymous": false,
      "inputs": [
        {
          "indexed": false,
          "internalType": "uint64",
          "name": "minChallengeRatio",
          "type": "uint64"
        }
      ],
      "name": "MinChallengeRatioUpdated",
      "type": "event"
    },
    {
      "anonymous": false,
      "inputs": [
        {
          "indexed": true,
          "internalType": "address",
          "name": "previousOwner",
          "type": "address"
        },
        {
          "indexed": true,
          "internalType": "address",
          "name": "newOwner",
          "type": "address"
        }
      ],
      "name": "OwnershipTransferred",
      "type": "event"
    },
    {
      "anonymous": false,
      "inputs": [
        {
          "indexed": false,
          "internalType": "uint64",
          "name": "protocolFee",
          "type": "uint64"
        }
      ],
      "name": "ProtocolFeeUpdated",
      "type": "event"
    },
    {
      "anonymous": false,
      "inputs": [
        {
          "indexed": false,
          "internalType": "address",
          "name": "submitter",
          "type": "address"
        }
      ],
      "name": "SubmitterFeeUpdated",
      "type": "event"
    },
    {
      "inputs": [],
      "name": "challengeUserRatio",
      "outputs": [
        {
          "internalType": "uint64",
          "name": "",
          "type": "uint64"
        }
      ],
      "stateMutability": "view",
      "type": "function"
    },
    {
      "inputs": [
        {
          "internalType": "address",
          "name": "ebc",
          "type": "address"
        }
      ],
      "name": "ebcIncludes",
      "outputs": [
        {
          "internalType": "bool",
          "name": "",
          "type": "bool"
        }
      ],
      "stateMutability": "view",
      "type": "function"
    },
    {
      "inputs": [],
      "name": "feeChallengeSecond",
      "outputs": [
        {
          "internalType": "uint64",
          "name": "",
          "type": "uint64"
        }
      ],
      "stateMutability": "view",
      "type": "function"
    },
    {
      "inputs": [],
      "name": "feeTakeOnChallengeSecond",
      "outputs": [
        {
          "internalType": "uint64",
          "name": "",
          "type": "uint64"
        }
      ],
      "stateMutability": "view",
      "type": "function"
    },
    {
      "inputs": [
        {
          "internalType": "uint64",
          "name": "id",
          "type": "uint64"
        }
      ],
      "name": "getChainInfo",
      "outputs": [
        {
          "components": [
            {
              "internalType": "uint64",
              "name": "id",
              "type": "uint64"
            },
            {
              "internalType": "uint192",
              "name": "batchLimit",
              "type": "uint192"
            },
            {
              "internalType": "uint64",
              "name": "minVerifyChallengeSourceTxSecond",
              "type": "uint64"
            },
            {
              "internalType": "uint64",
              "name": "maxVerifyChallengeSourceTxSecond",
              "type": "uint64"
            },
            {
              "internalType": "uint64",
              "name": "minVerifyChallengeDestTxSecond",
              "type": "uint64"
            },
            {
              "internalType": "uint64",
              "name": "maxVerifyChallengeDestTxSecond",
              "type": "uint64"
            },
            {
              "internalType": "address[]",
              "name": "spvs",
              "type": "address[]"
            }
          ],
          "internalType": "struct BridgeLib.ChainInfo",
          "name": "",
          "type": "tuple"
        }
      ],
      "stateMutability": "view",
      "type": "function"
    },
    {
      "inputs": [
        {
          "internalType": "uint64",
          "name": "id",
          "type": "uint64"
        },
        {
          "internalType": "uint256",
          "name": "token",
          "type": "uint256"
        }
      ],
      "name": "getChainTokenInfo",
      "outputs": [
        {
          "components": [
            {
              "internalType": "uint256",
              "name": "token",
              "type": "uint256"
            },
            {
              "internalType": "address",
              "name": "mainnetToken",
              "type": "address"
            },
            {
              "internalType": "uint8",
              "name": "decimals",
              "type": "uint8"
            }
          ],
          "internalType": "struct BridgeLib.TokenInfo",
          "name": "",
          "type": "tuple"
        }
      ],
      "stateMutability": "view",
      "type": "function"
    },
    {
      "inputs": [
        {
          "internalType": "uint64",
          "name": "chainId",
          "type": "uint64"
        }
      ],
      "name": "getExtraTransferContract",
      "outputs": [
        {
          "internalType": "uint256",
          "name": "",
          "type": "uint256"
        }
      ],
      "stateMutability": "view",
      "type": "function"
    },
    {
      "inputs": [],
      "name": "getVersionAndEnableTime",
      "outputs": [
        {
          "internalType": "uint192",
          "name": "version",
          "type": "uint192"
        },
        {
          "internalType": "uint64",
          "name": "enableTime",
          "type": "uint64"
        }
      ],
      "stateMutability": "view",
      "type": "function"
    },
    {
      "inputs": [],
      "name": "maxMDCLimit",
      "outputs": [
        {
          "internalType": "uint64",
          "name": "",
          "type": "uint64"
        }
      ],
      "stateMutability": "view",
      "type": "function"
    },
    {
      "inputs": [],
      "name": "minChallengeRatio",
      "outputs": [
        {
          "internalType": "uint64",
          "name": "",
          "type": "uint64"
        }
      ],
      "stateMutability": "view",
      "type": "function"
    },
    {
      "inputs": [],
      "name": "owner",
      "outputs": [
        {
          "internalType": "address",
          "name": "",
          "type": "address"
        }
      ],
      "stateMutability": "view",
      "type": "function"
    },
    {
      "inputs": [],
      "name": "protocolFee",
      "outputs": [
        {
          "internalType": "uint64",
          "name": "",
          "type": "uint64"
        }
      ],
      "stateMutability": "view",
      "type": "function"
    },
    {
      "inputs": [
        {
          "internalType": "uint64",
          "name": "enableTime",
          "type": "uint64"
        },
        {
          "components": [
            {
              "internalType": "uint64",
              "name": "id",
              "type": "uint64"
            },
            {
              "internalType": "uint192",
              "name": "batchLimit",
              "type": "uint192"
            },
            {
              "internalType": "uint64",
              "name": "minVerifyChallengeSourceTxSecond",
              "type": "uint64"
            },
            {
              "internalType": "uint64",
              "name": "maxVerifyChallengeSourceTxSecond",
              "type": "uint64"
            },
            {
              "internalType": "uint64",
              "name": "minVerifyChallengeDestTxSecond",
              "type": "uint64"
            },
            {
              "internalType": "uint64",
              "name": "maxVerifyChallengeDestTxSecond",
              "type": "uint64"
            },
            {
              "internalType": "address[]",
              "name": "spvs",
              "type": "address[]"
            }
          ],
          "internalType": "struct BridgeLib.ChainInfo[]",
          "name": "chains_",
          "type": "tuple[]"
        }
      ],
      "name": "registerChains",
      "outputs": [],
      "stateMutability": "nonpayable",
      "type": "function"
    },
    {
      "inputs": [],
      "name": "renounceOwnership",
      "outputs": [],
      "stateMutability": "nonpayable",
      "type": "function"
    },
    {
      "inputs": [],
      "name": "submitter",
      "outputs": [
        {
          "internalType": "address",
          "name": "",
          "type": "address"
        }
      ],
      "stateMutability": "view",
      "type": "function"
    },
    {
      "inputs": [
        {
          "internalType": "address",
          "name": "newOwner",
          "type": "address"
        }
      ],
      "name": "transferOwnership",
      "outputs": [],
      "stateMutability": "nonpayable",
      "type": "function"
    },
    {
      "inputs": [
        {
          "internalType": "uint64",
          "name": "enableTime",
          "type": "uint64"
        },
        {
          "internalType": "uint64",
          "name": "id",
          "type": "uint64"
        },
        {
          "internalType": "address[]",
          "name": "spvs",
          "type": "address[]"
        },
        {
          "internalType": "uint256[]",
          "name": "indexs",
          "type": "uint256[]"
        }
      ],
      "name": "updateChainSpvs",
      "outputs": [],
      "stateMutability": "nonpayable",
      "type": "function"
    },
    {
      "inputs": [
        {
          "internalType": "uint64",
          "name": "enableTime",
          "type": "uint64"
        },
        {
          "internalType": "uint64[]",
          "name": "ids",
          "type": "uint64[]"
        },
        {
          "components": [
            {
              "internalType": "uint256",
              "name": "token",
              "type": "uint256"
            },
            {
              "internalType": "address",
              "name": "mainnetToken",
              "type": "address"
            },
            {
              "internalType": "uint8",
              "name": "decimals",
              "type": "uint8"
            }
          ],
          "internalType": "struct BridgeLib.TokenInfo[]",
          "name": "tokenInfos",
          "type": "tuple[]"
        }
      ],
      "name": "updateChainTokens",
      "outputs": [],
      "stateMutability": "nonpayable",
      "type": "function"
    },
    {
      "inputs": [
        {
          "internalType": "uint64",
          "name": "enableTime",
          "type": "uint64"
        },
        {
          "internalType": "uint64",
          "name": "challengeUserRatio_",
          "type": "uint64"
        }
      ],
      "name": "updateChallengeUserRatio",
      "outputs": [],
      "stateMutability": "nonpayable",
      "type": "function"
    },
    {
      "inputs": [
        {
          "internalType": "address[]",
          "name": "ebcs_",
          "type": "address[]"
        },
        {
          "internalType": "bool[]",
          "name": "statuses",
          "type": "bool[]"
        }
      ],
      "name": "updateEbcs",
      "outputs": [],
      "stateMutability": "nonpayable",
      "type": "function"
    },
    {
      "inputs": [
        {
          "internalType": "uint64",
          "name": "enableTime",
          "type": "uint64"
        },
        {
          "internalType": "uint64[]",
          "name": "chainIds",
          "type": "uint64[]"
        },
        {
          "internalType": "uint256[]",
          "name": "extraTransferContracts",
          "type": "uint256[]"
        }
      ],
      "name": "updateExtraTransferContracts",
      "outputs": [],
      "stateMutability": "nonpayable",
      "type": "function"
    },
    {
      "inputs": [
        {
          "internalType": "uint64",
          "name": "enableTime",
          "type": "uint64"
        },
        {
          "internalType": "uint64",
          "name": "feeChallengeSecond_",
          "type": "uint64"
        }
      ],
      "name": "updateFeeChallengeSecond",
      "outputs": [],
      "stateMutability": "nonpayable",
      "type": "function"
    },
    {
      "inputs": [
        {
          "internalType": "uint64",
          "name": "enableTime",
          "type": "uint64"
        },
        {
          "internalType": "uint64",
          "name": "feeTakeOnChallengeSecond_",
          "type": "uint64"
        }
      ],
      "name": "updateFeeTakeOnChallengeSecond",
      "outputs": [],
      "stateMutability": "nonpayable",
      "type": "function"
    },
    {
      "inputs": [
        {
          "internalType": "uint64",
          "name": "maxMDCLimit_",
          "type": "uint64"
        }
      ],
      "name": "updateMaxMDCLimit",
      "outputs": [],
      "stateMutability": "nonpayable",
      "type": "function"
    },
    {
      "inputs": [
        {
          "internalType": "uint64",
          "name": "enableTime",
          "type": "uint64"
        },
        {
          "internalType": "uint64",
          "name": "minChallengeRatio_",
          "type": "uint64"
        }
      ],
      "name": "updateMinChallengeRatio",
      "outputs": [],
      "stateMutability": "nonpayable",
      "type": "function"
    },
    {
      "inputs": [
        {
          "internalType": "uint64",
          "name": "enableTime",
          "type": "uint64"
        },
        {
          "internalType": "uint64",
          "name": "protocolFee_",
          "type": "uint64"
        }
      ],
      "name": "updateProtocolFee",
      "outputs": [],
      "stateMutability": "nonpayable",
      "type": "function"
    },
    {
      "inputs": [
        {
          "internalType": "uint64",
          "name": "enableTime",
          "type": "uint64"
        },
        {
          "internalType": "address",
          "name": "submitter_",
          "type": "address"
        }
      ],
      "name": "updateSubmitter",
      "outputs": [],
      "stateMutability": "nonpayable",
      "type": "function"
    },
    {
      "inputs": [
        {
          "internalType": "uint64",
          "name": "enableTime",
          "type": "uint64"
        }
      ],
      "name": "versionIncreaseAndEnableTime",
      "outputs": [],
      "stateMutability": "nonpayable",
      "type": "function"
    }
  ],
  "bytecode": "0x6080604052600680546001600160401b0319908116614e2017909155600780549091166001600160401b031790553480156200003a57600080fd5b5060405162001e0f38038062001e0f8339810160408190526200005d916200010a565b6200006833620000ba565b6001600160a01b038116620000a85760405162461bcd60e51b815260206004820152600260248201526127ad60f11b604482015260640160405180910390fd5b620000b381620000ba565b506200013c565b600080546001600160a01b038381166001600160a01b0319831681178455604051919092169283917f8be0079c531659141344cd1fd0a4f28419497f9722a3daafe3b4186f6b6457e09190a35050565b6000602082840312156200011d57600080fd5b81516001600160a01b03811681146200013557600080fd5b9392505050565b611cc3806200014c6000396000f3fe608060405234801561001057600080fd5b50600436106101545760003560e01c80630bce92d3146101595780631dc34d4d1461016e5780632f75daca1461018157806330dbb6a1146101a457806335994316146101bc57806337eb0443146101cd578063434417cf146101fc578063456c76381461020f57806361e7fc861461022257806369843083146102595780636dfd6aec1461026c578063715018a61461027f5780637b73994d146102875780638a2264ca1461029a5780638da5cb5b146102b25780638dc45d9a146102c75780638fb8ed01146102d8578063955cf203146102eb578063a1203894146102fe578063a22b40151461033f578063a531ffd814610352578063b0e21e8a14610365578063b288706d1461037d578063bb6f93bc1461039d578063c2b2b640146103d9578063c7ce55be146103ec578063ca21ece014610404578063f2fde38b14610417575b600080fd5b61016c61016736600461112e565b61042a565b005b61016c61017c36600461117c565b6104a3565b6006546001600160401b03165b60405161019b91906111aa565b60405180910390f35b600654600160c01b90046001600160401b031661018e565b6007546001600160401b031661018e565b600154604080516001600160c01b0383168152600160c01b9092046001600160401b031660208301520161019b565b61016c61020a366004611209565b610500565b61016c61021d36600461129d565b610687565b61024b61023036600461131f565b6001600160401b031660009081526008602052604090205490565b60405190815260200161019b565b61016c61026736600461112e565b610799565b61016c61027a36600461112e565b61080a565b61016c61087b565b61016c61029536600461112e565b61088f565b600654600160801b90046001600160401b031661018e565b6102ba610900565b60405161019b9190611343565b6005546001600160a01b03166102ba565b61016c6102e6366004611357565b61090f565b61016c6102f9366004611406565b610a69565b61031161030c36600461145a565b610b96565b60408051825181526020808401516001600160a01b0316908201529181015160ff169082015260600161019b565b61016c61034d36600461131f565b610c1c565b61016c61036036600461131f565b610c7b565b600554600160a01b90046001600160401b031661018e565b61039061038b36600461131f565b610d32565b60405161019b91906114ca565b6103c96103ab366004611544565b6001600160a01b031660009081526004602052604090205460ff1690565b604051901515815260200161019b565b61016c6103e736600461112e565b610e48565b600654600160401b90046001600160401b031661018e565b61016c610412366004611561565b610ea5565b61016c610425366004611544565b610fe1565b61043261105a565b61043b82610c7b565b600680546001600160c01b0316600160c01b6001600160401b03848116820292909217928390556040517f5318429f7521e3adaf81233b2a24c499276d323fad6e90be1c3f80fbf90034209361049793929004909116906111aa565b60405180910390a15050565b6104ab61105a565b6104b482610c7b565b600580546001600160a01b0319166001600160a01b0383169081179091556040517f698ad3d24dcd7b442a73a8037fbf8b47e23d90035fa70c7170081fe59682b0f09161049791611343565b61050861105a565b61051186610c7b565b60005b8381101561064157818110156105c357848482818110610536576105366115cc565b905060200201602081019061054b9190611544565b6001600160401b038716600090815260026020819052604090912001848484818110610579576105796115cc565b9050602002013581548110610590576105906115cc565b9060005260206000200160006101000a8154816001600160a01b0302191690836001600160a01b03160217905550610639565b6001600160401b0386166000908152600260208190526040909120018585838181106105f1576105f16115cc565b90506020020160208101906106069190611544565b81546001810183556000928352602090922090910180546001600160a01b0319166001600160a01b039092169190911790555b600101610514565b506001600160401b038516600081815260026020526040908190209051600080516020611c9783398151915291610677916115e2565b60405180910390a2505050505050565b61068f61105a565b61069885610c7b565b8281146106d95760405162461bcd60e51b81526004016106d09060208082526004908201526321a2a7a360e11b604082015260600190565b60405180910390fd5b60005b83811015610754578282828181106106f6576106f66115cc565b9050602002013560086000878785818110610713576107136115cc565b9050602002016020810190610728919061131f565b6001600160401b031681526020810191909152604001600020558061074c816116a6565b9150506106dc565b507f308f015ee17073da7fb3de7d9cf2ee868101b64ac0ced5a8af223b4c139078428484848460405161078a94939291906116bf565b60405180910390a15050505050565b6107a161105a565b6107aa82610c7b565b60068054600160401b600160801b031916600160401b6001600160401b03848116820292909217928390556040517f2c4d36309aca612bb3ab99bc5f3fc2337f23ab6be9f1861b65d75efd9a1fc2309361049793929004909116906111aa565b61081261105a565b61081b82610c7b565b60058054600160a01b600160e01b031916600160a01b6001600160401b03848116820292909217928390556040517f1ce29a697a4765bd17d91df93ba75b250b629ecf030553ff1f6ab59f15ae6c7b9361049793929004909116906111aa565b61088361105a565b61088d60006110b9565b565b61089761105a565b6108a082610c7b565b60068054600160801b600160c01b031916600160801b6001600160401b03848116820292909217928390556040517fe539efd6d957297c3253d8c9fd4d94857731d81102825a93e878f44938d8f2989361049793929004909116906111aa565b6000546001600160a01b031690565b61091761105a565b61092085610c7b565b60005b83811015610a6157600061099e868684818110610942576109426115cc565b9050602002016020810190610957919061131f565b858585818110610969576109696115cc565b9050606002016000013560405160200161098492919061173d565b604051602081830303815290604052805160209091012090565b90508383838181106109b2576109b26115cc565b9050606002016003600083815260200190815260200160002081816109d79190611776565b9050508585838181106109ec576109ec6115cc565b9050602002016020810190610a01919061131f565b6001600160401b03167f52482770013d9905a43b78b74a47c7f9d1949c15b715cc5ca2c1c34105d73cf4858585818110610a3d57610a3d6115cc565b905060600201604051610a5091906117c9565b60405180910390a250600101610923565b505050505050565b610a7161105a565b610a7a83610c7b565b60005b81811015610b9057828282818110610a9757610a976115cc565b9050602002810190610aa9919061180b565b60026000858585818110610abf57610abf6115cc565b9050602002810190610ad1919061180b565b610adf90602081019061131f565b6001600160401b031681526020810191909152604001600020610b02828261195f565b905050828282818110610b1757610b176115cc565b9050602002810190610b29919061180b565b610b3790602081019061131f565b6001600160401b0316600080516020611c97833981519152848484818110610b6157610b616115cc565b9050602002810190610b73919061180b565b604051610b809190611afc565b60405180910390a2600101610a7d565b50505050565b60408051606081018252600080825260208201819052918101919091526000610bcb848460405160200161098492919061173d565b6000908152600360209081526040918290208251606081018452815481526001909101546001600160a01b03811692820192909252600160a01b90910460ff16918101919091529150505b92915050565b610c2461105a565b600780546001600160401b0319166001600160401b0383169081179091556040517f131f289a370d17d3a705703b33226e15c9a8fd1b1874ac3ab3888ecda5d2c3c291610c70916111aa565b60405180910390a150565b6078610c90426001600160401b038416611bd5565b1015610cc75760405162461bcd60e51b81526004016106d09060208082526004908201526313d1915560e21b604082015260600190565b600180548190600090610ce49083906001600160c01b0316611be8565b92506101000a8154816001600160c01b0302191690836001600160c01b0316021790555080600160186101000a8154816001600160401b0302191690836001600160401b0316021790555050565b6040805160e08101825260008082526020820181905291810182905260608082018390526080820183905260a082019290925260c08101919091526001600160401b03808316600090815260026020818152604092839020835160e081018552815480871682526001600160c01b03600160401b91829004168285015260018301548088168388015290810487166060830152600160801b810487166080830152600160c01b900490951660a08601529182018054845181840281018401909552808552929360c08601939092830182828015610e3857602002820191906000526020600020905b81546001600160a01b03168152600190910190602001808311610e1a575b5050505050815250509050919050565b610e5061105a565b610e5982610c7b565b600680546001600160401b0319166001600160401b0383169081179091556040517f68280efac1b91f595dbe7ce755358bdd797d8132c3d8bf636af8204c3d4bfe6891610497916111aa565b610ead61105a565b60005b83811015610f9d5781811015610f3f57828282818110610ed257610ed26115cc565b9050602002016020810190610ee79190611c1f565b60046000878785818110610efd57610efd6115cc565b9050602002016020810190610f129190611544565b6001600160a01b031681526020810191909152604001600020805460ff1916911515919091179055610f95565b600160046000878785818110610f5757610f576115cc565b9050602002016020810190610f6c9190611544565b6001600160a01b031681526020810191909152604001600020805460ff19169115159190911790555b600101610eb0565b507fcbff3ca58b9beaa25c60a25b8918d5f5843eb71b89a913668181999e2e945ae984848484604051610fd39493929190611c3a565b60405180910390a150505050565b610fe961105a565b6001600160a01b03811661104e5760405162461bcd60e51b815260206004820152602660248201527f4f776e61626c653a206e6577206f776e657220697320746865207a65726f206160448201526564647265737360d01b60648201526084016106d0565b611057816110b9565b50565b33611063610900565b6001600160a01b03161461088d5760405162461bcd60e51b815260206004820181905260248201527f4f776e61626c653a2063616c6c6572206973206e6f7420746865206f776e657260448201526064016106d0565b600080546001600160a01b038381166001600160a01b0319831681178455604051919092169283917f8be0079c531659141344cd1fd0a4f28419497f9722a3daafe3b4186f6b6457e09190a35050565b6001600160401b038116811461105757600080fd5b803561112981611109565b919050565b6000806040838503121561114157600080fd5b823561114c81611109565b9150602083013561115c81611109565b809150509250929050565b6001600160a01b038116811461105757600080fd5b6000806040838503121561118f57600080fd5b823561119a81611109565b9150602083013561115c81611167565b6001600160401b0391909116815260200190565b60008083601f8401126111d057600080fd5b5081356001600160401b038111156111e757600080fd5b6020830191508360208260051b850101111561120257600080fd5b9250929050565b6000806000806000806080878903121561122257600080fd5b863561122d81611109565b9550602087013561123d81611109565b945060408701356001600160401b038082111561125957600080fd5b6112658a838b016111be565b9096509450606089013591508082111561127e57600080fd5b5061128b89828a016111be565b979a9699509497509295939492505050565b6000806000806000606086880312156112b557600080fd5b85356112c081611109565b945060208601356001600160401b03808211156112dc57600080fd5b6112e889838a016111be565b9096509450604088013591508082111561130157600080fd5b5061130e888289016111be565b969995985093965092949392505050565b60006020828403121561133157600080fd5b813561133c81611109565b9392505050565b6001600160a01b0391909116815260200190565b60008060008060006060868803121561136f57600080fd5b853561137a81611109565b945060208601356001600160401b038082111561139657600080fd5b6113a289838a016111be565b909650945060408801359150808211156113bb57600080fd5b818801915088601f8301126113cf57600080fd5b8135818111156113de57600080fd5b8960206060830285010111156113f357600080fd5b9699959850939650602001949392505050565b60008060006040848603121561141b57600080fd5b833561142681611109565b925060208401356001600160401b0381111561144157600080fd5b61144d868287016111be565b9497909650939450505050565b6000806040838503121561146d57600080fd5b823561147881611109565b946020939093013593505050565b600081518084526020808501945080840160005b838110156114bf5781516001600160a01b03168752958201959082019060010161149a565b509495945050505050565b60208152600060018060401b0380845116602084015260018060c01b0360208501511660408401528060408501511660608401528060608501511660808401528060808501511660a08401528060a08501511660c08401525060c083015160e08084015261153c610100840182611486565b949350505050565b60006020828403121561155657600080fd5b813561133c81611167565b6000806000806040858703121561157757600080fd5b84356001600160401b038082111561158e57600080fd5b61159a888389016111be565b909650945060208701359150808211156115b357600080fd5b506115c0878288016111be565b95989497509550505050565b634e487b7160e01b600052603260045260246000fd5b600060208083526101008301845460018060401b03808216848701528160401c604087015260019150818701548181166060880152818160401c166080880152818160801c1660a08801528060c01c60c088015250506002860160e0808701528281548085526101208801915082600052856000209450600092505b808310156116845784546001600160a01b0316825293830193918301919085019061165e565b50979650505050505050565b634e487b7160e01b600052601160045260246000fd5b6000600182016116b8576116b8611690565b5060010190565b6040808252810184905260008560608301825b878110156117025782356116e581611109565b6001600160401b03168252602092830192909101906001016116d2565b5083810360208501528481526001600160fb1b0385111561172257600080fd5b8460051b915081866020830137016020019695505050505050565b60c09290921b6001600160c01b0319168252600882015260280190565b60008135610c1681611167565b60ff8116811461105757600080fd5b8135815560018101602083013561178c81611167565b8154604085013561179c81611767565b60ff60a01b60a09190911b166001600160a01b03929092166001600160a81b031991909116171790555050565b813581526060810160208301356117df81611167565b6001600160a01b0316602083015260408301356117fb81611767565b60ff811660408401525092915050565b6000823560de1983360301811261182157600080fd5b9190910192915050565b60008135610c1681611109565b80546001600160401b0319166001600160401b0392909216919091179055565b6001600160c01b038116811461105757600080fd5b6000808335601e1984360301811261188457600080fd5b8301803591506001600160401b0382111561189e57600080fd5b6020019150600581901b360382131561120257600080fd5b634e487b7160e01b600052604160045260246000fd5b6001600160401b038311156118e3576118e36118b6565b600160401b8311156118f7576118f76118b6565b80548382558084101561192e576000828152602081208581019083015b8082101561192a57828255600182019150611914565b5050505b5060008181526020812083915b85811015610a615761194c8361175a565b828201556020929092019160010161193b565b813561196a81611109565b6119748183611838565b50602082013561198381611858565b81546001600160401b0316604091821b6001600160401b03191617825560018201908301356119b181611109565b6119bb8183611838565b5060608301356119ca81611109565b8154600160401b600160801b03191660409190911b600160401b600160801b0316178155611a276119fd6080850161182b565b828054600160801b600160c01b03191660809290921b600160801b600160c01b0316919091179055565b611a5a611a3660a0850161182b565b8280546001600160c01b031660c09290921b6001600160c01b031916919091179055565b50611a6860c083018361186d565b610b908183600286016118cc565b6000808335601e19843603018112611a8d57600080fd5b83016020810192503590506001600160401b03811115611aac57600080fd5b8060051b360382131561120257600080fd5b8183526000602080850194508260005b858110156114bf578135611ae181611167565b6001600160a01b031687529582019590820190600101611ace565b6020815260008235611b0d81611109565b6001600160401b0390811660208481019190915284013590611b2e82611858565b60018060c01b038216604085015260408501359150611b4c82611109565b80821660608501525050611b626060840161111e565b6001600160401b038116608084015250611b7e6080840161111e565b6001600160401b03811660a084015250611b9a60a0840161111e565b6001600160401b03811660c084015250611bb760c0840184611a76565b60e080850152611bcc61010085018284611abe565b95945050505050565b81810381811115610c1657610c16611690565b6001600160c01b03818116838216019080821115611c0857611c08611690565b5092915050565b8035801515811461112957600080fd5b600060208284031215611c3157600080fd5b61133c82611c0f565b604081526000611c4e604083018688611abe565b8281036020848101919091528482528591810160005b86811015611c8957611c7584611c0f565b151582529282019290820190600101611c64565b509897505050505050505056fee868e7f91a9f1c1c7c8e507c479ab432aa926e500d8015c9586f851edeb4051aa164736f6c6343000811000a",
  "linkReferences": {},
  "deployedLinkReferences": {}
}