{
  "_format": "hh-sol-artifact-1",
  "contractName": "ORMDCFactory",
  "sourceName": "contracts/ORMDCFactory.sol",
  "abi": [
    {
      "inputs": [
        {
          "internalType": "address",
          "name": "manager_",
          "type": "address"
        },
        {
          "internalType": "address",
          "name": "implementation_",
          "type": "address"
        }
      ],
      "stateMutability": "nonpayable",
      "type": "constructor"
    },
    {
      "anonymous": false,
      "inputs": [
        {
          "indexed": false,
          "internalType": "address",
          "name": "maker",
          "type": "address"
        },
        {
          "indexed": false,
          "internalType": "address",
          "name": "mdc",
          "type": "address"
        }
      ],
      "name": "MDCCreated",
      "type": "event"
    },
    {
      "inputs": [],
      "name": "createMDC",
      "outputs": [],
      "stateMutability": "nonpayable",
      "type": "function"
    },
    {
      "inputs": [],
      "name": "implementation",
      "outputs": [
        {
          "internalType": "address",
          "name": "",
          "type": "address"
        }
      ],
      "stateMutability": "view",
      "type": "function"
    },
    {
      "inputs": [],
      "name": "manager",
      "outputs": [
        {
          "internalType": "address",
          "name": "",
          "type": "address"
        }
      ],
      "stateMutability": "view",
      "type": "function"
    },
    {
      "inputs": [],
      "name": "mdcCreatedTotal",
      "outputs": [
        {
          "internalType": "uint256",
          "name": "",
          "type": "uint256"
        }
      ],
      "stateMutability": "view",
      "type": "function"
    },
    {
      "inputs": [],
      "name": "predictMDCAddress",
      "outputs": [
        {
          "internalType": "address",
          "name": "",
          "type": "address"
        }
      ],
      "stateMutability": "view",
      "type": "function"
    }
  ],
  "bytecode": "0x608060405234801561001057600080fd5b5060405161055a38038061055a83398101604081905261002f916100f7565b6001600160a01b03821661006f5760405162461bcd60e51b815260206004820152600260248201526126ad60f11b60448201526064015b60405180910390fd5b6001600160a01b0382166100aa5760405162461bcd60e51b815260206004820152600260248201526124ad60f11b6044820152606401610066565b600080546001600160a01b039384166001600160a01b0319918216179091556001805492909316911617905561012a565b80516001600160a01b03811681146100f257600080fd5b919050565b6000806040838503121561010a57600080fd5b610113836100db565b9150610121602084016100db565b90509250929050565b610421806101396000396000f3fe608060405234801561001057600080fd5b50600436106100675760003560e01c80635c60da1b116100505780635c60da1b146100a0578063c596c28f146100b1578063c5e8cf25146100b957600080fd5b80630693288d1461006c578063481c6a7514610076575b600080fd5b6100746100ca565b005b6000546001600160a01b03165b6040516001600160a01b0390911681526020015b60405180910390f35b6001546001600160a01b0316610083565b610083610289565b600254604051908152602001610097565b60008054906101000a90046001600160a01b03166001600160a01b031663359943166040518163ffffffff1660e01b8152600401602060405180830381865afa15801561011b573d6000803e3d6000fd5b505050506040513d601f19601f8201168201806040525081019061013f91906103ea565b67ffffffffffffffff16600254106101845760405162461bcd60e51b815260206004820152600360248201526213535360ea1b60448201526064015b60405180910390fd5b6001546040516bffffffffffffffffffffffff1930606090811b8216602084015233901b1660348201526000916101df916001600160a01b0390911690604801604051602081830303815290604052805190602001206102ea565b60028054600101905560405163189acdbd60e31b81523360048201529091506001600160a01b0382169063c4d66de890602401600060405180830381600087803b15801561022c57600080fd5b505af1158015610240573d6000803e3d6000fd5b5050604080513381526001600160a01b03851660208201527f9aa4d864969550a6e3ca3ad73ca5b23e37fb87c6817a71a30cebc8fd7cdbd7c6935001905060405180910390a150565b6001546040516bffffffffffffffffffffffff1930606090811b8216602084015233901b16603482015260009182916102e4916001600160a01b03169060480160405160208183030381529060405280519060200120610387565b92915050565b6000763d602d80600a3d3981f3363d3d373d3d3d363d730000008360601b60e81c176000526e5af43d82803e903d91602b57fd5bf38360781b1760205281603760096000f590506001600160a01b0381166102e45760405162461bcd60e51b815260206004820152601760248201527f455243313136373a2063726561746532206661696c6564000000000000000000604482015260640161017b565b6040513060388201526f5af43d82803e903d91602b57fd5bf3ff602482015260148101839052733d602d80600a3d3981f3363d3d373d3d3d363d738152605881018290526037600c820120607882015260556043909101206000905b9392505050565b6000602082840312156103fc57600080fd5b815167ffffffffffffffff811681146103e357600080fdfea164736f6c6343000811000a",
  "linkReferences": {},
  "deployedLinkReferences": {}
}